{
  "transactions": [
    {
      "hash": "0x0890ea9db036c4d84f42c963714775a71cc59822a1ab0cf499f9bf67d94be02f",
      "transactionType": "CALL",
      "contractName": null,
      "contractAddress": "0x4aa497d8d45ed779113f22bd07b63bf8cfb6eb27",
      "function": "createInsurancePool(string,string,string,string,string,string,string,string,string,string,uint256,uint256,uint256,uint256,uint256,address,address,address)",
      "arguments": [
        "Ethereum Insurance",
        "ETHI",
        "https://ethereum.org/id/",
        "https://api.coingecko.com/api/v3/simple/price?ids=ethereum&vs_currencies=usd",
        "04fe3f5609a73a0e7f5f670e19b41cdd96affacfdbac7b7cc3bfd396c36a9470725b563cb962bd609233b0a8482b22849e18dc50d16e0a1d65b62f025d9dea9edfcfd9cecf0053dc6be87df12100746b7d6f938e1d83c21f6cd7df2308ea5a901cf6a2e650762f603a2e4e6995cfb560c588173c6492c056233d17e6f0ff8b9c457ae59a3213c7d409378f",
        "041145034312a46666b6a75c0eaa921b87ff2174cbdc3bc5d4df94852b6f687f81690f0a224df96f502e69a9005f6e2f2984aca461bcca50ca682b98e7214ba2a6d82296195acb9abaa5a51d0f812d8bcc66125f553294432a35d3df9b62c73ee301ec3bcba641de7584bf1f1fdef6a9518c7022dfc0be94f88172818d6a5a899532ffc321cb568cbea35f51ac73345bd9d2c2b1a070f20e1413c0aab242258ae48b24",
        "04b4f80f28382bb167b7f8b141f071258721ca34bfa54d8d57483bbaff838df8ed19c3b3affd606bb9f8c1d7ba197190f0bb8e73f29b98d98064f74c77bc1f6eb5e87fca9ac44006f314b564d72708ffa8f4822623f417b89b457a6f921b57e7b6",
        "3000",
        "\\\\{\\\"ethereum\\\":\\\\{\\\"usd\\\":(?<price>[\\\\d\\\\.]+)\\\\}\\\\}",
        ">",
        "3",
        "1732374393",
        "1734966393",
        "1734793593",
        "50000000",
        "0x0E0d9103eFCa8731621Dbf690e2442782c5b4f6F",
        "0x49D4E03F0b4D641622b331340636b266fedBdda7",
        "0x68E88641112278fACeB6A0e3c679A300951EB928"
      ],
      "transaction": {
        "from": "0x34728af7d0fc03cbbdff82b6d52aeda8c999e2b2",
        "to": "0x4aa497d8d45ed779113f22bd07b63bf8cfb6eb27",
        "gas": "0x45b45e",
        "value": "0x0",
        "input": "0xa7ddfb670000000000000000000000000000000000000000000000000000000000000240000000000000000000000000000000000000000000000000000000000000028000000000000000000000000000000000000000000000000000000000000002c00000000000000000000000000000000000000000000000000000000000000300000000000000000000000000000000000000000000000000000000000000038000000000000000000000000000000000000000000000000000000000000004c000000000000000000000000000000000000000000000000000000000000006400000000000000000000000000000000000000000000000000000000000000740000000000000000000000000000000000000000000000000000000000000078000000000000000000000000000000000000000000000000000000000000007e00000000000000000000000000000000000000000000000000000000000000003000000000000000000000000000000000000000000000000000000006741ef790000000000000000000000000000000000000000000000000000000067697c79000000000000000000000000000000000000000000000000000000006766d9790000000000000000000000000000000000000000000000000000000002faf0800000000000000000000000000e0d9103efca8731621dbf690e2442782c5b4f6f00000000000000000000000049d4e03f0b4d641622b331340636b266fedbdda700000000000000000000000068e88641112278faceb6a0e3c679a300951eb9280000000000000000000000000000000000000000000000000000000000000012457468657265756d20496e737572616e6365000000000000000000000000000000000000000000000000000000000000000000000000000000000000000000044554484900000000000000000000000000000000000000000000000000000000000000000000000000000000000000000000000000000000000000000000001868747470733a2f2f657468657265756d2e6f72672f69642f0000000000000000000000000000000000000000000000000000000000000000000000000000004c68747470733a2f2f6170692e636f696e6765636b6f2e636f6d2f6170692f76332f73696d706c652f70726963653f6964733d657468657265756d2676735f63757272656e636965733d7573640000000000000000000000000000000000000000000000000000000000000000000000000000000000000000000000000000011630346665336635363039613733613065376635663637306531396234316364643936616666616366646261633762376363336266643339366333366139343730373235623536336362393632626436303932333362306138343832623232383439653138646335306431366530613164363562363266303235643964656139656466636664396365636630303533646336626538376466313231303037343662376436663933386531643833633231663663643764663233303865613561393031636636613265363530373632663630336132653465363939356366623536306335383831373363363439326330353632333364313765366630666638623963343537616535396133323133633764343039333738660000000000000000000000000000000000000000000000000000000000000000000000000000000001463034313134353033343331326134363636366236613735633065616139323162383766663231373463626463336263356434646639343835326236663638376638313639306630613232346466393666353032653639613930303566366532663239383461636134363162636361353063613638326239386537323134626132613664383232393631393561636239616261613561353164306638313264386263633636313235663535333239343433326133356433646639623632633733656533303165633362636261363431646537353834626631663166646566366139353138633730323264666330626539346638383137323831386436613561383939353332666663333231636235363863626561333566353161633733333435626439643263326231613037306632306531343133633061616232343232353861653438623234000000000000000000000000000000000000000000000000000000000000000000000000000000000000000000000000000000000000000000c2303462346638306632383338326262313637623766386231343166303731323538373231636133346266613534643864353734383362626166663833386466386564313963336233616666643630366262396638633164376261313937313930663062623865373366323962393864393830363466373463373762633166366562356538376663613961633434303036663331346235363464373237303866666138663438323236323366343137623839623435376136663932316235376537623600000000000000000000000000000000000000000000000000000000000000000000000000000000000000000000000000000000000000000000000000043330303000000000000000000000000000000000000000000000000000000000000000000000000000000000000000000000000000000000000000000000002a5c7b22657468657265756d223a5c7b22757364223a283f3c70726963653e5b5c645c2e5d2b295c7d5c7d0000000000000000000000000000000000000000000000000000000000000000000000000000000000000000000000000000000000013e00000000000000000000000000000000000000000000000000000000000000",
        "nonce": "0x333",
        "chainId": "0x66eee"
      },
      "additionalContracts": [],
      "isFixedGasLimit": false
    },
    {
      "hash": "0xf5d6dba04eaf4254ec81ab263dcac4175519859cab2152db741d79df02ddb42e",
      "transactionType": "CALL",
      "contractName": null,
      "contractAddress": "0x0e0d9103efca8731621dbf690e2442782c5b4f6f",
      "function": "approve(address,uint256)",
      "arguments": [
        "0x0B4eE974b3F0Be60D43826f4FAD643E5b424d7A2",
        "150000000"
      ],
      "transaction": {
        "from": "0x34728af7d0fc03cbbdff82b6d52aeda8c999e2b2",
        "to": "0x0e0d9103efca8731621dbf690e2442782c5b4f6f",
        "gas": "0x1b682",
        "value": "0x0",
        "input": "0x095ea7b30000000000000000000000000b4ee974b3f0be60d43826f4fad643e5b424d7a20000000000000000000000000000000000000000000000000000000008f0d180",
        "nonce": "0x334",
        "chainId": "0x66eee"
      },
      "additionalContracts": [],
      "isFixedGasLimit": false
    },
    {
      "hash": "0xddfe9a18a148f94110f61ab6192b3a6f89a5bbb49017e2791d13342d1a8efb58",
      "transactionType": "CALL",
      "contractName": "InsurancePool",
      "contractAddress": "0x0b4ee974b3f0be60d43826f4fad643e5b424d7a2",
      "function": "initialDeposit()",
      "arguments": [],
      "transaction": {
        "from": "0x34728af7d0fc03cbbdff82b6d52aeda8c999e2b2",
        "to": "0x0b4ee974b3f0be60d43826f4fad643e5b424d7a2",
        "gas": "0xf7b9",
        "value": "0x0",
        "input": "0xe037f889",
        "nonce": "0x335",
        "chainId": "0x66eee"
      },
      "additionalContracts": [],
      "isFixedGasLimit": false
    }
  ],
  "receipts": [
    {
      "status": "0x1",
      "cumulativeGasUsed": "0x34c5e7",
      "logs": [
        {
          "address": "0x4aa497d8d45ed779113f22bd07b63bf8cfb6eb27",
          "topics": [
            "0x1f5025cd4d44bed9127c94acc7130c09bd9ae7c300dcd36dca8aa28d8ec2d2ef",
            "0x00000000000000000000000034728af7d0fc03cbbdff82b6d52aeda8c999e2b2"
          ],
          "data": "0x0000000000000000000000000b4ee974b3f0be60d43826f4fad643e5b424d7a2",
          "blockHash": "0xed8b13996e1780f6fc3842dbe6d675c350ef0e0d0e8615ea40d83b11d56fdfe7",
          "blockNumber": "0x5f3e004",
          "transactionHash": "0x0890ea9db036c4d84f42c963714775a71cc59822a1ab0cf499f9bf67d94be02f",
          "transactionIndex": "0x1",
          "logIndex": "0x0",
          "removed": false
        }
      ],
      "logsBloom": "0x00000000000400000000000000000000000000000000000000800000000000000000000000000000000000000000000000000000001010000000000000000000000000000000000040000000000000000000000000000000000000000000000000000000000000000000000000000000000000000000000000000000000000000000000000000000000000000000204000000000000000000000000000000000000000000000000000000000000000000000000000000000000000000000000000000000000000000000000000000000000000000000200000004000000000000000000000000000000000000000000000000000000000000000000000000000",
      "type": "0x2",
      "transactionHash": "0x0890ea9db036c4d84f42c963714775a71cc59822a1ab0cf499f9bf67d94be02f",
      "transactionIndex": "0x1",
      "blockHash": "0xed8b13996e1780f6fc3842dbe6d675c350ef0e0d0e8615ea40d83b11d56fdfe7",
      "blockNumber": "0x5f3e004",
      "gasUsed": "0x34c5e7",
      "effectiveGasPrice": "0x5f5e100",
      "from": "0x34728af7d0fc03cbbdff82b6d52aeda8c999e2b2",
      "to": "0x4aa497d8d45ed779113f22bd07b63bf8cfb6eb27",
      "contractAddress": null,
      "gasUsedForL1": "0x2c1ba",
      "l1BlockNumber": "0x6ce663"
    },
    {
      "status": "0x1",
      "cumulativeGasUsed": "0x99044",
      "logs": [
        {
          "address": "0x0e0d9103efca8731621dbf690e2442782c5b4f6f",
          "topics": [
            "0x8c5be1e5ebec7d5bd14f71427d1e84f3dd0314c0f7b2291e5b200ac8c7c3b925",
            "0x00000000000000000000000034728af7d0fc03cbbdff82b6d52aeda8c999e2b2",
            "0x0000000000000000000000000b4ee974b3f0be60d43826f4fad643e5b424d7a2"
          ],
          "data": "0x0000000000000000000000000000000000000000000000000000000008f0d180",
          "blockHash": "0x7a5e27307e4ca0a3be1f632824e59121167ca2581111bb61f9bbffa10a44c655",
          "blockNumber": "0x5f3e00b",
          "transactionHash": "0xf5d6dba04eaf4254ec81ab263dcac4175519859cab2152db741d79df02ddb42e",
          "transactionIndex": "0x3",
          "logIndex": "0x2",
          "removed": false
        }
      ],
      "logsBloom": "0x00000000000000000000000000000000000000000000000000000000000002000000000000000000000000000000000000000000001000000000000000200000000000000000000040000000000000000000000000000000000000000000000000000000000000000000000000000000000000000000000000000000000000000040000000000000000000000000000000000000000000000000000000000000020000000000000000000200000000100000000000000000000000000000000000000000000000000000008000000000000000000000200000000000000000000010000000000000000000000000002000000000000000000000000000000000",
      "type": "0x2",
      "transactionHash": "0xf5d6dba04eaf4254ec81ab263dcac4175519859cab2152db741d79df02ddb42e",
      "transactionIndex": "0x3",
      "blockHash": "0x7a5e27307e4ca0a3be1f632824e59121167ca2581111bb61f9bbffa10a44c655",
      "blockNumber": "0x5f3e00b",
      "gasUsed": "0x12c8e",
      "effectiveGasPrice": "0x5f5e100",
      "from": "0x34728af7d0fc03cbbdff82b6d52aeda8c999e2b2",
      "to": "0x0e0d9103efca8731621dbf690e2442782c5b4f6f",
      "contractAddress": null,
      "gasUsedForL1": "0x7921",
      "l1BlockNumber": "0x6ce663"
    },
    {
      "status": "0x1",
      "cumulativeGasUsed": "0x2e8a3",
      "logs": [
        {
          "address": "0x0e0d9103efca8731621dbf690e2442782c5b4f6f",
          "topics": [
            "0xddf252ad1be2c89b69c2b068fc378daa952ba7f163c4a11628f55a4df523b3ef",
            "0x00000000000000000000000034728af7d0fc03cbbdff82b6d52aeda8c999e2b2",
            "0x0000000000000000000000000b4ee974b3f0be60d43826f4fad643e5b424d7a2"
          ],
          "data": "0x0000000000000000000000000000000000000000000000000000000008f0d180",
          "blockHash": "0xf6b6aa99961d1ac474449f68d6ea947e85ebb5b84356e7c6af6ee5dfa330ecfe",
          "blockNumber": "0x5f3e011",
          "transactionHash": "0xddfe9a18a148f94110f61ab6192b3a6f89a5bbb49017e2791d13342d1a8efb58",
          "transactionIndex": "0x1",
          "logIndex": "0x0",
          "removed": false
        },
        {
          "address": "0x0b4ee974b3f0be60d43826f4fad643e5b424d7a2",
          "topics": [
            "0xddf252ad1be2c89b69c2b068fc378daa952ba7f163c4a11628f55a4df523b3ef",
            "0x0000000000000000000000000000000000000000000000000000000000000000",
            "0x0000000000000000000000000b4ee974b3f0be60d43826f4fad643e5b424d7a2"
          ],
          "data": "0x0000000000000000000000000000000000000000000000000000000008f0d180",
          "blockHash": "0xf6b6aa99961d1ac474449f68d6ea947e85ebb5b84356e7c6af6ee5dfa330ecfe",
          "blockNumber": "0x5f3e011",
          "transactionHash": "0xddfe9a18a148f94110f61ab6192b3a6f89a5bbb49017e2791d13342d1a8efb58",
          "transactionIndex": "0x1",
          "logIndex": "0x1",
          "removed": false
        },
        {
          "address": "0x0e0d9103efca8731621dbf690e2442782c5b4f6f",
          "topics": [
            "0x8c5be1e5ebec7d5bd14f71427d1e84f3dd0314c0f7b2291e5b200ac8c7c3b925",
            "0x0000000000000000000000000b4ee974b3f0be60d43826f4fad643e5b424d7a2",
            "0x00000000000000000000000049d4e03f0b4d641622b331340636b266fedbdda7"
          ],
          "data": "0x0000000000000000000000000000000000000000000000000000000008f0d180",
          "blockHash": "0xf6b6aa99961d1ac474449f68d6ea947e85ebb5b84356e7c6af6ee5dfa330ecfe",
          "blockNumber": "0x5f3e011",
          "transactionHash": "0xddfe9a18a148f94110f61ab6192b3a6f89a5bbb49017e2791d13342d1a8efb58",
          "transactionIndex": "0x1",
          "logIndex": "0x2",
          "removed": false
        },
        {
          "address": "0x0e0d9103efca8731621dbf690e2442782c5b4f6f",
          "topics": [
            "0xddf252ad1be2c89b69c2b068fc378daa952ba7f163c4a11628f55a4df523b3ef",
            "0x0000000000000000000000000b4ee974b3f0be60d43826f4fad643e5b424d7a2",
            "0x00000000000000000000000049d4e03f0b4d641622b331340636b266fedbdda7"
          ],
          "data": "0x0000000000000000000000000000000000000000000000000000000008f0d180",
          "blockHash": "0xf6b6aa99961d1ac474449f68d6ea947e85ebb5b84356e7c6af6ee5dfa330ecfe",
          "blockNumber": "0x5f3e011",
          "transactionHash": "0xddfe9a18a148f94110f61ab6192b3a6f89a5bbb49017e2791d13342d1a8efb58",
          "transactionIndex": "0x1",
          "logIndex": "0x3",
          "removed": false
        },
        {
          "address": "0x49d4e03f0b4d641622b331340636b266fedbdda7",
          "topics": [
            "0xddf252ad1be2c89b69c2b068fc378daa952ba7f163c4a11628f55a4df523b3ef",
            "0x0000000000000000000000000000000000000000000000000000000000000000",
            "0x0000000000000000000000000b4ee974b3f0be60d43826f4fad643e5b424d7a2"
          ],
          "data": "0x0000000000000000000000000000000000000000000000000000000008f0d180",
          "blockHash": "0xf6b6aa99961d1ac474449f68d6ea947e85ebb5b84356e7c6af6ee5dfa330ecfe",
          "blockNumber": "0x5f3e011",
          "transactionHash": "0xddfe9a18a148f94110f61ab6192b3a6f89a5bbb49017e2791d13342d1a8efb58",
          "transactionIndex": "0x1",
          "logIndex": "0x4",
          "removed": false
        },
        {
          "address": "0x49d4e03f0b4d641622b331340636b266fedbdda7",
          "topics": [
            "0xdcbc1c05240f31ff3ad067ef1ee35ce4997762752e3a095284754544f4c709d7",
            "0x0000000000000000000000000b4ee974b3f0be60d43826f4fad643e5b424d7a2",
            "0x0000000000000000000000000b4ee974b3f0be60d43826f4fad643e5b424d7a2"
          ],
          "data": "0x0000000000000000000000000000000000000000000000000000000008f0d1800000000000000000000000000000000000000000000000000000000008f0d180",
          "blockHash": "0xf6b6aa99961d1ac474449f68d6ea947e85ebb5b84356e7c6af6ee5dfa330ecfe",
          "blockNumber": "0x5f3e011",
          "transactionHash": "0xddfe9a18a148f94110f61ab6192b3a6f89a5bbb49017e2791d13342d1a8efb58",
          "transactionIndex": "0x1",
          "logIndex": "0x5",
          "removed": false
        },
        {
          "address": "0x0b4ee974b3f0be60d43826f4fad643e5b424d7a2",
          "topics": [
            "0x227a473b70d2f893cc7659219575c030a63b5743024fe1e0c1a680e708b1525a"
          ],
          "data": "0x0000000000000000000000000000000000000000000000000000000008f0d180",
          "blockHash": "0xf6b6aa99961d1ac474449f68d6ea947e85ebb5b84356e7c6af6ee5dfa330ecfe",
          "blockNumber": "0x5f3e011",
          "transactionHash": "0xddfe9a18a148f94110f61ab6192b3a6f89a5bbb49017e2791d13342d1a8efb58",
          "transactionIndex": "0x1",
          "logIndex": "0x6",
          "removed": false
        },
        {
          "address": "0x0b4ee974b3f0be60d43826f4fad643e5b424d7a2",
          "topics": [
            "0xe1fffcc4923d04b559f4d29a8bfc6cda04eb5b0d3c460751c2402c5c5cc9109c",
            "0x00000000000000000000000034728af7d0fc03cbbdff82b6d52aeda8c999e2b2"
          ],
          "data": "0x0000000000000000000000000000000000000000000000000000000008f0d180",
          "blockHash": "0xf6b6aa99961d1ac474449f68d6ea947e85ebb5b84356e7c6af6ee5dfa330ecfe",
          "blockNumber": "0x5f3e011",
          "transactionHash": "0xddfe9a18a148f94110f61ab6192b3a6f89a5bbb49017e2791d13342d1a8efb58",
          "transactionIndex": "0x1",
          "logIndex": "0x7",
          "removed": false
        }
      ],
      "logsBloom": "0x00000000000000000000000000000000000000000000000004000000000002000800000000000000000000000000000000000000001000000000000000200000000000400000000240000008000000000000000000000000000000008000001000000000020000100000000000000800000000000004000000000010020000000040000000200000000000000000000000000001000000000000000000000000020000000000000000000200000001100000000000000000000000000000000000000002000000000000008000000000000000000048200000000000000020000010000000000000000000000000002000008000000000500000000020000000",
      "type": "0x2",
      "transactionHash": "0xddfe9a18a148f94110f61ab6192b3a6f89a5bbb49017e2791d13342d1a8efb58",
      "transactionIndex": "0x1",
      "blockHash": "0xf6b6aa99961d1ac474449f68d6ea947e85ebb5b84356e7c6af6ee5dfa330ecfe",
      "blockNumber": "0x5f3e011",
      "gasUsed": "0x2e8a3",
      "effectiveGasPrice": "0x5f5e100",
      "from": "0x34728af7d0fc03cbbdff82b6d52aeda8c999e2b2",
      "to": "0x0b4ee974b3f0be60d43826f4fad643e5b424d7a2",
      "contractAddress": null,
      "gasUsedForL1": "0x4e57",
      "l1BlockNumber": "0x6ce663"
    }
  ],
  "libraries": [],
  "pending": [],
  "returns": {},
  "timestamp": 1732374417,
  "chain": 421614,
  "commit": "b125115"
}