{
  "transactions": [
    {
      "hash": "0x91d8dec7655b309197a62be43db0b44cc072a66866ce37e1017e69c790060aba",
      "transactionType": "CALL",
      "contractName": null,
      "contractAddress": "0x94baa979f569edb2f33903d9ccec66b31c9620f5",
      "function": "approve(address,uint256)",
      "arguments": [
        "0x654837fE31838Bd0391188182a3Ecdd402846D3a",
        "1000000000000000000"
      ],
      "transaction": {
        "from": "0x34728af7d0fc03cbbdff82b6d52aeda8c999e2b2",
        "to": "0x94baa979f569edb2f33903d9ccec66b31c9620f5",
        "gas": "0x1ad92",
        "value": "0x0",
        "input": "0x095ea7b3000000000000000000000000654837fe31838bd0391188182a3ecdd402846d3a0000000000000000000000000000000000000000000000000de0b6b3a7640000",
        "nonce": "0x19c",
        "chainId": "0x66eee"
      },
      "additionalContracts": [],
      "isFixedGasLimit": false
    },
    {
      "hash": "0xec9e451b1d4149edd779e03eeecf47ebdcf9c70e57c1b2afc632340d805cc6db",
      "transactionType": "CALL",
      "contractName": null,
      "contractAddress": "0x654837fe31838bd0391188182a3ecdd402846d3a",
      "function": "deposit(uint256,address)",
      "arguments": [
        "1000000000000000000",
        "0x34728aF7D0FC03CbbdFF82b6d52AeDA8C999E2B2"
      ],
      "transaction": {
        "from": "0x34728af7d0fc03cbbdff82b6d52aeda8c999e2b2",
        "to": "0x654837fe31838bd0391188182a3ecdd402846d3a",
        "gas": "0x132e6",
        "value": "0x0",
        "input": "0x6e553f650000000000000000000000000000000000000000000000000de0b6b3a764000000000000000000000000000034728af7d0fc03cbbdff82b6d52aeda8c999e2b2",
        "nonce": "0x19d",
        "chainId": "0x66eee"
      },
      "additionalContracts": [],
      "isFixedGasLimit": false
    },
    {
      "hash": "0xa3bbfd35f40ccf5d89f7f08339fbefacbf944248ac52a4d232e24d43089d52d1",
      "transactionType": "CALL",
      "contractName": null,
      "contractAddress": "0x94baa979f569edb2f33903d9ccec66b31c9620f5",
      "function": "transfer(address,uint256)",
      "arguments": [
        "0x94c83a5137751C4E6acc0cFdB09819B0B83582D1",
        "1000000000000000000"
      ],
      "transaction": {
        "from": "0x34728af7d0fc03cbbdff82b6d52aeda8c999e2b2",
        "to": "0x94baa979f569edb2f33903d9ccec66b31c9620f5",
        "gas": "0x1718c",
        "value": "0x0",
        "input": "0xa9059cbb00000000000000000000000094c83a5137751c4e6acc0cfdb09819b0b83582d10000000000000000000000000000000000000000000000000de0b6b3a7640000",
        "nonce": "0x19e",
        "chainId": "0x66eee"
      },
      "additionalContracts": [],
      "isFixedGasLimit": false
    },
    {
      "hash": "0xffdcb2a490ae9bdd4407c9346d8d6f53a70d57496c157a80567e65ea2ec0d35b",
      "transactionType": "CREATE",
      "contractName": "InsuranceFactory",
      "contractAddress": "0xfa5fa1eac61aa412e3d4cff6bd35178980db38a7",
      "function": null,
      "arguments": [
        "0xE8abAb47829cf497dDE768F95564FEA7663AeBcF"
      ],
      "transaction": {
        "from": "0x34728af7d0fc03cbbdff82b6d52aeda8c999e2b2",
        "gas": "0x63515f",
        "value": "0x0",
        "input": "0x608034607057601f613ecd38819003918201601f19168301916001600160401b03831184841017607457808492602094604052833981010312607057516001600160a01b03811690819003607057600380546001600160a01b031916919091179055604051613e4490816100898239f35b5f80fd5b634e487b7160e01b5f52604160045260245ffdfe6080806040526004361015610012575f80fd5b5f3560e01c9081633998fdd31461063f575080634578d29014610602578063560684ca146105875780636a4d9846146104fc578063a7ddfb6714610144578063ae5745ed146100e25763f7d1517f14610069575f80fd5b346100de5760203660031901126100de576004355f548110156100de575f548110156100ca575f80527f290decd9548b62a8d60345a988386fc84ba6bc95484008f6362f93160ef3e56301546040516001600160a01b039091168152602090f35b634e487b7160e01b5f52603260045260245ffd5b5f80fd5b346100de5760403660031901126100de576100fb610662565b6001600160a01b03165f908152600160205260409020805460243591908210156100de5760209161012b91610730565b905460405160039290921b1c6001600160a01b03168152f35b346100de576102403660031901126100de576004356001600160401b0381116100de576101759036906004016106db565b6024356001600160401b0381116100de576101949036906004016106db565b6044356001600160401b0381116100de576101b39036906004016106db565b916064356001600160401b0381116100de576101d39036906004016106db565b6084356001600160401b0381116100de576101f29036906004016106db565b9360a4356001600160401b0381116100de576102129036906004016106db565b9460c4356001600160401b0381116100de576102329036906004016106db565b9260e4356001600160401b0381116100de576102529036906004016106db565b91610104356001600160401b0381116100de576102739036906004016106db565b90610124356001600160401b0381116100de576102949036906004016106db565b916101e4359760018060a01b0389168099036100de57610204356001600160a01b03811696908790036100de57610224356001600160a01b03811698908990036100de576001600160401b0399604051809e6136a5918281019d8e9182109111176104dd578f9e8f6103a9998f916103b89d61035461038c996103466103709761033861039a9f61037e9c6103629861076a90396102608a526102608a0190610745565b9088820360208a0152610745565b908682036040880152610745565b908482036060860152610745565b916080818403910152610745565b8d810360a08f015290610745565b908b820360c08d0152610745565b9089820360e08b0152610745565b90878203610100890152610745565b90858203610120870152610745565b936101443561014085015261016435610160850152610184356101808501526101a4356101a08501526101c4356101c08501526101e08401526102008301526102208201526102403391015203905ff080156104f15760018060a01b03165f54600160401b8110156104dd5780600161043492015f555f610730565b81549060031b9083821b9160018060a01b03901b1916179055335f52600160205260405f2090815491600160401b8310156104dd578261047b916001602095018155610730565b81549060031b9083821b9160018060a01b03901b1916179055805f526002825260405f20600160ff198254161790556040518181527f1f5025cd4d44bed9127c94acc7130c09bd9ae7c300dcd36dca8aa28d8ec2d2ef833392a2604051908152f35b634e487b7160e01b5f52604160045260245ffd5b6040513d5f823e3d90fd5b346100de5760203660031901126100de576001600160a01b0361051d610662565b165f52600160205260405f206040519081602082549182815201915f5260205f20905f5b8181106105685761056485610558818703826106ba565b60405191829182610678565b0390f35b82546001600160a01b0316845260209093019260019283019201610541565b346100de575f3660031901126100de576040518060205f549182815201905f80527f290decd9548b62a8d60345a988386fc84ba6bc95484008f6362f93160ef3e563905f5b8181106105e35761056485610558818703826106ba565b82546001600160a01b03168452602090930192600192830192016105cc565b346100de5760203660031901126100de576001600160a01b03610623610662565b165f526002602052602060ff60405f2054166040519015158152f35b346100de575f3660031901126100de576003546001600160a01b03168152602090f35b600435906001600160a01b03821682036100de57565b60206040818301928281528451809452019201905f5b81811061069b5750505090565b82516001600160a01b031684526020938401939092019160010161068e565b90601f801991011681019081106001600160401b038211176104dd57604052565b81601f820112156100de578035906001600160401b0382116104dd576040519261070f601f8401601f1916602001856106ba565b828452602083830101116100de57815f926020809301838601378301015290565b80548210156100ca575f5260205f2001905f90565b805180835260209291819084018484015e5f828201840152601f01601f191601019056fe60e060405234610f89576136a5803803809161001a82610f8d565b60c05260c0513960c0510161026060c051820312610f895760c051516001600160401b038111610f8957816100529160c05101610fb2565b60a05260c051602001516001600160401b038111610f8957816100789160c05101610fb2565b60c051604001519091906001600160401b038111610f89578161009e9160c05101610fb2565b60c051606001519091906001600160401b038111610f8957816100c49160c05101610fb2565b60c051608001519091906001600160401b038111610f8957816100ea9160c05101610fb2565b60c05160a001519091906001600160401b038111610f8957816101109160c05101610fb2565b60c0805101516001600160401b038111610f8957826101329160c05101610fb2565b60c05160e001516001600160401b038111610f8957836101559160c05101610fb2565b60c05161010001519093906001600160401b038111610f89578161017c9160c05101610fb2565b60c051610120015190916001600160401b038211610f89576101a19160c05101610fb2565b61014060c05101519061016060c05101519261018060c0510151946101a060c0510151966101c060c0510151996101dd6101e060c05101611003565b9b6101ed61020060c05101611003565b9d6101fd61022060c05101611003565b60805261020f61024060c05101611003565b9f60a0515160018060401b03811161074b57600354600181811c91168015610f7f575b602082101461072d57601f8111610f1c575b50806020601f8211600114610eb4575f91610ea7575b508160011b915f199060031b1c1916176003555b8051906001600160401b03821161074b5760045490600182811c92168015610e9d575b602083101461072d5781601f849311610e2f575b50602090601f8311600114610dc9575f92610dbe575b50508160011b915f199060031b1c1916176004555b8051906001600160401b03821161074b57600c5490600182811c92168015610db4575b602083101461072d5781601f849311610d46575b50602090601f8311600114610ce0575f92610cd5575b50508160011b915f199060031b1c191617600c555b8051906001600160401b03821161074b57600d5490600182811c92168015610ccb575b602083101461072d5781601f849311610c5d575b50602090601f8311600114610bf7575f92610bec575b50508160011b915f199060031b1c191617600d555b8051906001600160401b03821161074b57600e5490600182811c92168015610be2575b602083101461072d5781601f849311610b74575b50602090601f8311600114610b0e575f92610b03575b50508160011b915f199060031b1c191617600e555b8051906001600160401b03821161074b57600f5490600182811c92168015610af9575b602083101461072d5781601f849311610a8b575b50602090601f8311600114610a25575f92610a1a575b50508160011b915f199060031b1c191617600f555b8051906001600160401b03821161074b5760105490600182811c92168015610a10575b602083101461072d5781601f8493116109a2575b50602090601f831160011461093c575f92610931575b50508160011b915f199060031b1c1916176010555b8051906001600160401b03821161074b5760125490600182811c92168015610927575b602083101461072d5781601f8493116108b9575b50602090601f8311600114610853575f92610848575b50508160011b915f199060031b1c1916176012555b8051906001600160401b03821161074b5760115490600182811c9216801561083e575b602083101461072d5781601f8493116107d0575b50602090601f831160011461076a575f9261075f575b50508160011b915f199060031b1c1916176011555b6014556015556016556017558051906001600160401b03821161074b5760135490600182811c92168015610741575b602083101461072d5781601f8493116106bf575b50602090601f8311600114610659575f9261064e575b50508160011b915f199060031b1c1916176013555b601855600680546001600160a01b03199081166001600160a01b039384161790915560058054821693831693909317909255608051600780548416918316919091179055600b8054909216921691909117905560405161268d90816110188239f35b015190505f806105d7565b60135f9081528281209350601f198516905b8181106106a7575090846001959493921061068f575b505050811b016013556105ec565b01515f1960f88460031b161c191690555f8080610681565b9293602060018192878601518155019501930161066b565b60135f529091507f66de8ffda797e3de9c05e8fc57b3bf0ec28a930d40b0d285d93c06501cf6a090601f840160051c81019160208510610723575b90601f859493920160051c01905b81811061071557506105c1565b5f8155849350600101610708565b90915081906106fa565b634e487b7160e01b5f52602260045260245ffd5b91607f16916105ad565b634e487b7160e01b5f52604160045260245ffd5b015190505f80610569565b60115f9081528281209350601f198516905b8181106107b857509084600195949392106107a0575b505050811b0160115561057e565b01515f1960f88460031b161c191690555f8080610792565b9293602060018192878601518155019501930161077c565b60115f529091507f31ecc21a745e3968a04e9570e4425bc18fa8019c68028196b546d1669c200c68601f840160051c81019160208510610834575b90601f859493920160051c01905b8181106108265750610553565b5f8155849350600101610819565b909150819061080b565b91607f169161053f565b015190505f80610507565b60125f9081528281209350601f198516905b8181106108a15750908460019594939210610889575b505050811b0160125561051c565b01515f1960f88460031b161c191690555f808061087b565b92936020600181928786015181550195019301610865565b60125f529091507fbb8a6a4669ba250d26cd7a459eca9d215f8307e33aebe50379bc5a3617ec3444601f840160051c8101916020851061091d575b90601f859493920160051c01905b81811061090f57506104f1565b5f8155849350600101610902565b90915081906108f4565b91607f16916104dd565b015190505f806104a5565b60105f9081528281209350601f198516905b81811061098a5750908460019594939210610972575b505050811b016010556104ba565b01515f1960f88460031b161c191690555f8080610964565b9293602060018192878601518155019501930161094e565b60105f529091507f1b6847dc741a1b0cd08d278845f9d819d87b734759afb55fe2de5cb82a9ae672601f840160051c81019160208510610a06575b90601f859493920160051c01905b8181106109f8575061048f565b5f81558493506001016109eb565b90915081906109dd565b91607f169161047b565b015190505f80610443565b600f5f9081528281209350601f198516905b818110610a735750908460019594939210610a5b575b505050811b01600f55610458565b01515f1960f88460031b161c191690555f8080610a4d565b92936020600181928786015181550195019301610a37565b600f5f529091507f8d1108e10bcb7c27dddfc02ed9d693a074039d026cf4ea4240b40f7d581ac802601f840160051c81019160208510610aef575b90601f859493920160051c01905b818110610ae1575061042d565b5f8155849350600101610ad4565b9091508190610ac6565b91607f1691610419565b015190505f806103e1565b600e5f9081528281209350601f198516905b818110610b5c5750908460019594939210610b44575b505050811b01600e556103f6565b01515f1960f88460031b161c191690555f8080610b36565b92936020600181928786015181550195019301610b20565b600e5f529091507fbb7b4a454dc3493923482f07822329ed19e8244eff582cc204f8554c3620c3fd601f840160051c81019160208510610bd8575b90601f859493920160051c01905b818110610bca57506103cb565b5f8155849350600101610bbd565b9091508190610baf565b91607f16916103b7565b015190505f8061037f565b600d5f9081528281209350601f198516905b818110610c455750908460019594939210610c2d575b505050811b01600d55610394565b01515f1960f88460031b161c191690555f8080610c1f565b92936020600181928786015181550195019301610c09565b600d5f529091507fd7b6990105719101dabeb77144f2a3385c8033acd3af97e9423a695e81ad1eb5601f840160051c81019160208510610cc1575b90601f859493920160051c01905b818110610cb35750610369565b5f8155849350600101610ca6565b9091508190610c98565b91607f1691610355565b015190505f8061031d565b600c5f9081528281209350601f198516905b818110610d2e5750908460019594939210610d16575b505050811b01600c55610332565b01515f1960f88460031b161c191690555f8080610d08565b92936020600181928786015181550195019301610cf2565b600c5f529091507fdf6966c971051c3d54ec59162606531493a51404a002842f56009d7e5cf4a8c7601f840160051c81019160208510610daa575b90601f859493920160051c01905b818110610d9c5750610307565b5f8155849350600101610d8f565b9091508190610d81565b91607f16916102f3565b015190505f806102bb565b60045f9081528281209350601f198516905b818110610e175750908460019594939210610dff575b505050811b016004556102d0565b01515f1960f88460031b161c191690555f8080610df1565b92936020600181928786015181550195019301610ddb565b60045f529091507f8a35acfbc15ff81a39ae7d344fd709f28e8600b4aa8c65c6b64bfe7fe36bd19b601f840160051c81019160208510610e93575b90601f859493920160051c01905b818110610e8557506102a5565b5f8155849350600101610e78565b9091508190610e6a565b91607f1691610291565b905060a05101515f61025a565b60035f9081528181209250601f198416905b818110610f0257509083600194939210610ee8575b5050811b0160035561026e565b60a05101515f1960f88460031b161c191690555f80610edb565b91926020600181928660a051015181550194019201610ec6565b60035f527fc2575a0e9e593c00f959f8c92f12db2869c3395a3b0502d05e2516446f71f85b601f830160051c81019160208410610f75575b601f0160051c01905b818110610f6a5750610244565b5f8155600101610f5d565b9091508190610f54565b90607f1690610232565b5f80fd5b6040519190601f01601f191682016001600160401b0381118382101761074b57604052565b81601f82011215610f89578051906001600160401b03821161074b57610fe1601f8301601f1916602001610f8d565b9282845260208383010111610f8957815f9260208093018386015e8301015290565b51906001600160a01b0382168203610f895756fe60806040526004361015610011575f80fd5b5f5f3560e01c806306fdde0314611f28578063095ea7b314611e8057806309a1578514611d8c57806318160ddd14611d6f5780631afbd128146119d55780632152418c1461194357806321b394bc1461192557806323b872dd146118435780632473c5b7146117865780632881687f14611768578063313ce5671461174c5780633ccfd60b146115c9578063411d90af1461150c5780634173fb9d1461149857806347d54bff1461147a57806351d8b2c61461145c57806352622ffb146111195780635600f04f1461105c5780636178e44c14610d7c57806367c0d00f14610d5e578063707f67ee14610ca157806370a0823114610c695780637bcc180c14610c055780637fcfcb7e14610bde57806391ac0cc41461099e57806395d89b41146108e1578063a9059cbb146108af578063af60800714610891578063b3c9b7b214610790578063bb21a99714610652578063cf07491914610595578063dbc837c51461056c578063dd62ed3e14610519578063ddaa1de51461045c578063e037f88914610309578063eaf40bcd146102e5578063f21f537d146102c75763fdfec5dd146101bc575f80fd5b346102c457806003193601126102c4576040519080600c54908160011c916001811680156102ba575b6020841081146102a65783865290811561027f5750600114610222575b61021e8461021281860382612055565b60405191829182611fe3565b0390f35b600c81527fdf6966c971051c3d54ec59162606531493a51404a002842f56009d7e5cf4a8c7939250905b8082106102655750909150810160200161021282610202565b91926001816020925483858801015201910190929161024c565b60ff191660208087019190915292151560051b850190920192506102129150839050610202565b634e487b7160e01b83526022600452602483fd5b92607f16926101e5565b80fd5b50346102c457806003193601126102c4576020601554604051908152f35b50346102c457806003193601126102c457602063ffffffff601a5416604051908152f35b50346102c457806003193601126102c45761032f60018060a01b03600b541633146120a7565b600254610417576006546040516370a0823160e01b815233600482015290602090829060249082906001600160a01b03165afa90811561040c5782916103d6575b50601854601454916103828383612119565b1161039c576103999161039491612119565b6123b9565b80f35b60405162461bcd60e51b81526020600482015260126024820152714e6f7420656e6f7567682062616c616e636560701b6044820152606490fd5b90506020813d602011610404575b816103f160209383612055565b8101031261040057515f610370565b5f80fd5b3d91506103e4565b6040513d84823e3d90fd5b60405162461bcd60e51b815260206004820152601d60248201527f496e697469616c206465706f73697420686173206265656e2073656e740000006044820152606490fd5b50346102c457806003193601126102c4576040519080601154908160011c9160018116801561050f575b6020841081146102a65783865290811561027f57506001146104b25761021e8461021281860382612055565b601181527f31ecc21a745e3968a04e9570e4425bc18fa8019c68028196b546d1669c200c68939250905b8082106104f55750909150810160200161021282610202565b9192600181602092548385880101520191019092916104dc565b92607f1692610486565b50346102c45760403660031901126102c457604061053561200d565b9161053e612023565b9260018060a01b031681526001602052209060018060a01b03165f52602052602060405f2054604051908152f35b50346102c457806003193601126102c457600b546040516001600160a01b039091168152602090f35b50346102c457806003193601126102c4576040519080601254908160011c91600181168015610648575b6020841081146102a65783865290811561027f57506001146105eb5761021e8461021281860382612055565b601281527fbb8a6a4669ba250d26cd7a459eca9d215f8307e33aebe50379bc5a3617ec3444939250905b80821061062e5750909150810160200161021282610202565b919260018160209254838588010152019101909291610615565b92607f16926105bf565b50346102c457806003193601126102c4576005546040516370a0823160e01b81523060048201526001600160a01b039091169190602081602481865afa801561040c57829061075d575b6020915060246040518095819363ef8b30f760e01b835260048301525afa91821561075057819261071c575b506008549080610708577fb5caada44c21534f899b80931d6822af878c135819ecf2b62cfb2b81d7f299d46040848460085581519081525f6020820152a1005b634e487b7160e01b81526011600452602490fd5b9091506020813d602011610748575b8161073860209383612055565b810103126104005751905f6106c8565b3d915061072b565b50604051903d90823e3d90fd5b506020813d602011610788575b8161077760209383612055565b81010312610400576020905161069c565b3d915061076a565b50346102c45760203660031901126102c4576004359060606040516107b481612039565b8281528260208201528260408201520152601b54811161084c576107d9608091612077565b5060ff6003604051926107eb84612039565b60018060a01b03815416845260018101546020850152600281015460408501520154161515606082015261084a60405180926060809160018060a01b038151168452602081015160208501526040810151604085015201511515910152565bf35b60405162461bcd60e51b815260206004820152601b60248201527f436c61696d20696e646578206973206f7574206f662072616e676500000000006044820152606490fd5b50346102c457806003193601126102c4576020601754604051908152f35b50346102c45760403660031901126102c4576108d66108cc61200d565b6024359033612322565b602060405160018152f35b50346102c457806003193601126102c4576040519080600454908160011c91600181168015610994575b6020841081146102a65783865290811561027f57506001146109375761021e8461021281860382612055565b600481527f8a35acfbc15ff81a39ae7d344fd709f28e8600b4aa8c65c6b64bfe7fe36bd19b939250905b80821061097a5750909150810160200161021282610202565b919260018160209254838588010152019101909291610961565b92607f169261090b565b50346102c45760803660031901126102c4576109b8612157565b6109dd6044359160036109ca84612077565b50019060ff801983541691151516179055565b60016109e7612157565b151503610b73576005546040516370a0823160e01b81523060048201526001600160a01b0390911690602081602481855afa908115610b68578491610b34575b50610aa191610a5e610a55602093610a4f6001610a4389612077565b50015460145490612119565b90612119565b6002549061212c565b90610a6885612077565b505460405163a9059cbb60e01b81526001600160a01b039091166004820152602481019290925290928391908290879082906044820190565b03925af18015610b2957610afc575b50610ac86001610abf83612077565b500154306121a7565b7fb1d4d5200bdca77843a526a5d9b60e6bdaab3003de654e06dc515a7198b8142060405180610af681612166565b0390a280f35b610b1d9060203d602011610b22575b610b158183612055565b810190612101565b610ab0565b503d610b0b565b6040513d85823e3d90fd5b90506020813d602011610b60575b81610b4f60209383612055565b810103126104005751610aa1610a27565b3d9150610b42565b6040513d86823e3d90fd5b610b816001610abf83612077565b6004356001600160a01b0381168103610bda57610bac906001610ba384612077565b5001549061223e565b7f1547ef68a294755690d97570c56eb7941ccb230cb3cb1c587115a5ebd09c495960405180610af681612166565b8280fd5b50346102c45760203660031901126102c4576020610bfd600435612580565b604051908152f35b50346102c45760203660031901126102c45760043590601b548210156102c4576080610c3083612077565b5060018060a01b038154169060018101549060ff6003600283015492015416916040519384526020840152604083015215156060820152f35b50346102c45760203660031901126102c4576020906040906001600160a01b03610c9161200d565b1681528083522054604051908152f35b50346102c457806003193601126102c4576040519080601054908160011c91600181168015610d54575b6020841081146102a65783865290811561027f5750600114610cf75761021e8461021281860382612055565b601081527f1b6847dc741a1b0cd08d278845f9d819d87b734759afb55fe2de5cb82a9ae672939250905b808210610d3a5750909150810160200161021282610202565b919260018160209254838588010152019101909291610d21565b92607f1692610ccb565b50346102c457806003193601126102c4576020601454604051908152f35b50346102c45760603660031901126102c4576044356001600160a01b03811690600435906024359083900361105857601754421015611014578115610fd0578215610f8b57601854610dd06019548461214a565b11610f35576006546040516370a0823160e01b815233600482015290602090829060249082906001600160a01b03165afa8015610f2a5782918691610ef5575b5010610eb05781610e2082612580565b03610e6b577f1ec6ca237cf412015f109db027dc71b2292a20387279781fd699c4ec328a23d791610e526020926123b9565b610e5e8160195461214a565b601955604051908152a280f35b60405162461bcd60e51b815260206004820152601860248201527f53656e74206173736574732069736e277420656e6f75676800000000000000006044820152606490fd5b60405162461bcd60e51b815260206004820152601d60248201527f596f7520646f6e2774206861766520656e6f7567682062616c616e63650000006044820152606490fd5b9150506020813d602011610f22575b81610f1160209383612055565b81010312610400578190515f610e10565b3d9150610f04565b6040513d87823e3d90fd5b60405162461bcd60e51b815260206004820152602860248201527f4d617820737570706c79206578636565647320746865206d617820706f6c6963604482015267792073686172657360c01b6064820152608490fd5b60405162461bcd60e51b815260206004820152601f60248201527f496e7375726564206d75737420626520612076616c69642061646472657373006044820152606490fd5b606460405162461bcd60e51b815260206004820152602060248201527f416d6f756e74206d7573742062652067726561746572207468616e207a65726f6044820152fd5b606460405162461bcd60e51b815260206004820152602060248201527f506f6c6963792063616e277420626520707572636861736520616e796d6f72656044820152fd5b8380fd5b50346102c457806003193601126102c4576040519080600d54908160011c9160018116801561110f575b6020841081146102a65783865290811561027f57506001146110b25761021e8461021281860382612055565b600d81527fd7b6990105719101dabeb77144f2a3385c8033acd3af97e9423a695e81ad1eb5939250905b8082106110f55750909150810160200161021282610202565b9192600181602092548385880101520191019092916110dc565b92607f1692611086565b50346102c45760803660031901126102c4576007546001600160a01b031633819003611401576005546040516370a0823160e01b81523060048201526001600160a01b0390911690602081602481855afa908115610b685784916113cd575b50610a5561119091610a4f6001610a43604435612077565b916103e88302928084046103e814901517156113b95760405163095ea7b360e01b81526001600160a01b0391909116600482015260248101839052906020908290604490829087905af1908115610b2957839161139a575b501561134b5760055460405163095ea7b360e01b815233600482015260248101839052906020908290604490829087906001600160a01b03165af1908115610b2957839161132c575b50156112e75760055460405163095ea7b360e01b815232600482015260248101929092526020908290604490829086906001600160a01b03165af190811561040c5782916112c8575b50156112835780f35b60405162461bcd60e51b815260206004820152601b60248201527f4661696c656420746f20617070726f76652074782e6f726967696e00000000006044820152606490fd5b6112e1915060203d602011610b2257610b158183612055565b5f61127a565b60405162461bcd60e51b815260206004820152601c60248201527f4661696c656420746f20617070726f7665206d73672e73656e646572000000006044820152606490fd5b611345915060203d602011610b2257610b158183612055565b5f611231565b60405162461bcd60e51b815260206004820152602160248201527f4661696c656420746f20617070726f76652073657276696365206d616e6167656044820152603960f91b6064820152608490fd5b6113b3915060203d602011610b2257610b158183612055565b5f6111e8565b634e487b7160e01b84526011600452602484fd5b90506020813d6020116113f9575b816113e860209383612055565b810103126104005751610a55611178565b3d91506113db565b60405162461bcd60e51b815260206004820152602d60248201527f4f6e6c792073657276696365206d616e616765722063616e20696e766f6b652060448201526c3a3434b990333ab731ba34b7b760991b6064820152608490fd5b50346102c457806003193601126102c4576020601854604051908152f35b50346102c457806003193601126102c4576020601654604051908152f35b50346102c45760203660031901126102c4576114b261200d565b600b546001600160a01b038116916114cb3384146120a7565b6001600160a01b03169182907f155faa1d2e95029c9603f208551520bab524c2a713e5b7710cd39a91c73d281f8580a36001600160a01b03191617600b5580f35b50346102c457806003193601126102c4576040519080601354908160011c916001811680156115bf575b6020841081146102a65783865290811561027f57506001146115625761021e8461021281860382612055565b601381527f66de8ffda797e3de9c05e8fc57b3bf0ec28a930d40b0d285d93c06501cf6a090939250905b8082106115a55750909150810160200161021282610202565b91926001816020925483858801015201910190929161158c565b92607f1692611536565b50346102c457806003193601126102c4576016544211156116fb57600b546001600160a01b03166115fb3382146120a7565b6005546040516370a0823160e01b8152306004820152906001600160a01b0316602082602481845afa918215610b685784926116c5575b506040516323b872dd60e01b81523060048201526001600160a01b039093166024840152604483018290526020908390818681606481015b03925af1908115610b29577f5b6b431d4476a211bb7d41c20d1aab9ae2321deee0d20be3d9fc9b1093fa6e3d926020926116aa575b50604051908152a180f35b6116c090833d8511610b2257610b158183612055565b61169f565b9091506020813d6020116116f3575b816116e160209383612055565b8101031261040057519061166a611632565b3d91506116d4565b60405162461bcd60e51b815260206004820152602360248201527f506c65617365207761697420756e74696c2074686520706572696f6420697320604482015262195b9960ea1b6064820152608490fd5b50346102c457806003193601126102c457602060405160128152f35b50346102c457806003193601126102c4576020601954604051908152f35b50346102c457806003193601126102c4576040519080600e54908160011c91600181168015611839575b6020841081146102a65783865290811561027f57506001146117dc5761021e8461021281860382612055565b600e81527fbb7b4a454dc3493923482f07822329ed19e8244eff582cc204f8554c3620c3fd939250905b80821061181f5750909150810160200161021282610202565b919260018160209254838588010152019101909291611806565b92607f16926117b0565b50346102c45760603660031901126102c45761185d61200d565b611865612023565b6001600160a01b038216808452600160209081526040808620335f908152925290205460443593915f1982106118a2575b50506108d69350612322565b84821061190a5780156118f65733156118e257856040916108d6975260016020522060018060a01b0333165f526020528360405f20910390555f80611896565b634a1406b160e11b86526004869052602486fd5b63e602df0560e01b86526004869052602486fd5b6064868684637dc7a0d960e11b835233600452602452604452fd5b50346102c457806003193601126102c4576020601b54604051908152f35b50346102c45760203660031901126102c457600435600954600181018091116119c15760025491600183018093116119ad576119808383836125ba565b938315611999576020610bfd868686860915159061214a565b634e487b7160e01b81526012600452602490fd5b634e487b7160e01b5f52601160045260245ffd5b634e487b7160e01b83526011600452602483fd5b5034610400575f36600319011261040057335f525f60205260405f205415611d2a57601b545f805b828110611cfe5750611cb957335f525f60205260405f205460405191611a2283612039565b3383526020830190828252604084019181835260608501915f835268010000000000000000811015611ca557806001611a5e9201601b55612077565b929092611c9257611aae9360039260018060a01b038851166bffffffffffffffffffffffff60a01b86541617855551600185015551600284015551151591019060ff801983541691151516179055565b611ab881336121a7565b611ac2813061223e565b611acb306122ae565b611ad4336122ae565b611add816122fa565b63ffffffff601a541690611af0826122fa565b6007546001600160a01b031691823b156104005760845f92836040519586948593630bb54ccf60e41b8552306004860152336024860152604485015260648401525af18015611c8757611c72575b506040516040810181811067ffffffffffffffff821117611c5e57611bac611bba5f938493604052602081527f4166746572207468652073657276696365206d616e616765722063616c6c6564602082015260405192839163104c13eb60e21b602084015260248301611fe3565b03601f198101835282612055565b6020815191016a636f6e736f6c652e6c6f675afa506001601a54917fc271c2ba952861633612aabb311dc0a5d1ea4fd62f563bd43e26a01bcb827a9060a063ffffffff851692611c3c6040519185835260208301906060809160018060a01b038151168452602081015160208501526040810151604085015201511515910152565ba10163ffffffff81116119c15763ffffffff169063ffffffff191617601a5580f35b634e487b7160e01b84526041600452602484fd5b611c7f9192505f90612055565b5f905f611b3e565b6040513d5f823e3d90fd5b634e487b7160e01b5f525f60045260245ffd5b634e487b7160e01b5f52604160045260245ffd5b60405162461bcd60e51b815260206004820152601860248201527f436c61696d20686173206265656e207375626d697474656400000000000000006044820152606490fd5b611d0781612077565b50546001600160a01b03163314611d21575b6001016119fd565b60019150611d19565b60405162461bcd60e51b815260206004820152601760248201527f596f7520646f6e2774206861766520706f6c69636965730000000000000000006044820152606490fd5b34610400575f366003190112610400576020600254604051908152f35b34610400575f366003190112610400576040515f600f548060011c90600181168015611e76575b602083108114611e6257828552908115611e3e5750600114611de0575b61021e8361021281850382612055565b600f5f9081527f8d1108e10bcb7c27dddfc02ed9d693a074039d026cf4ea4240b40f7d581ac802939250905b808210611e2457509091508101602001610212611dd0565b919260018160209254838588010152019101909291611e0c565b60ff191660208086019190915291151560051b840190910191506102129050611dd0565b634e487b7160e01b5f52602260045260245ffd5b91607f1691611db3565b3461040057604036600319011261040057611e9961200d565b602435903315611f15576001600160a01b0316908115611f0257335f52600160205260405f20825f526020528060405f20556040519081527f8c5be1e5ebec7d5bd14f71427d1e84f3dd0314c0f7b2291e5b200ac8c7c3b92560203392a3602060405160018152f35b634a1406b160e11b5f525f60045260245ffd5b63e602df0560e01b5f525f60045260245ffd5b34610400575f366003190112610400576040515f6003548060011c90600181168015611fd9575b602083108114611e6257828552908115611e3e5750600114611f7b5761021e8361021281850382612055565b60035f9081527fc2575a0e9e593c00f959f8c92f12db2869c3395a3b0502d05e2516446f71f85b939250905b808210611fbf57509091508101602001610212611dd0565b919260018160209254838588010152019101909291611fa7565b91607f1691611f4f565b602060409281835280519182918282860152018484015e5f828201840152601f01601f1916010190565b600435906001600160a01b038216820361040057565b602435906001600160a01b038216820361040057565b6080810190811067ffffffffffffffff821117611ca557604052565b90601f8019910116810190811067ffffffffffffffff821117611ca557604052565b601b5481101561209357601b5f5260205f209060021b01905f90565b634e487b7160e01b5f52603260045260245ffd5b156120ae57565b60405162461bcd60e51b815260206004820152602560248201527f4f6e6c7920696e73757265722063616e20696e766f6b6520746869732066756e60448201526431ba34b7b760d91b6064820152608490fd5b90816020910312610400575180151581036104005790565b818102929181159184041417156119ad57565b8115612136570490565b634e487b7160e01b5f52601260045260245ffd5b919082018092116119ad57565b60643580151581036104005790565b6080810191906004356001600160a01b0381169081900361040057815260243560208201526044356040820152606435908115158092036104005760600152565b9091906001600160a01b0316801561222b57805f525f60205260405f2054838110612211576020845f94957fddf252ad1be2c89b69c2b068fc378daa952ba7f163c4a11628f55a4df523b3ef938587528684520360408620558060025403600255604051908152a3565b915063391434e360e21b5f5260045260245260445260645ffd5b634b637e8f60e11b5f525f60045260245ffd5b6001600160a01b031690811561229b577fddf252ad1be2c89b69c2b068fc378daa952ba7f163c4a11628f55a4df523b3ef60208261227f5f9460025461214a565b60025584845283825260408420818154019055604051908152a3565b63ec442f0560e01b5f525f60045260245ffd5b60405163161765e160e11b60208201526001600160a01b0390911660248083019190915281525f9081906122e3604482612055565b6020815191016a636f6e736f6c652e6c6f675afa50565b5f80916040519063f82c50f160e01b60208301526024820152602481526122e3604482612055565b6001600160a01b031690811561222b576001600160a01b031691821561229b57815f525f60205260405f20548181106123a057817fddf252ad1be2c89b69c2b068fc378daa952ba7f163c4a11628f55a4df523b3ef92602092855f525f84520360405f2055845f525f825260405f20818154019055604051908152a3565b8263391434e360e21b5f5260045260245260445260645ffd5b6006546040516323b872dd60e01b81523360048201523060248201526044810183905290602090829060649082905f906001600160a01b03165af18015611c8757612563575b5061240981612580565b6002546125545761241a903061223e565b60065460055460405163095ea7b360e01b81526001600160a01b0391821660048201526024810184905291602091839160449183915f91165af18015611c8757612537575b50600554604051636e553f6560e01b81526004810183905230602482015290602090829060449082905f906001600160a01b03165af18015611c8757612508575b507f227a473b70d2f893cc7659219575c030a63b5743024fe1e0c1a680e708b1525a6020604051838152a16124d78160095461214a565b6009556040519081527fe1fffcc4923d04b559f4d29a8bfc6cda04eb5b0d3c460751c2402c5c5cc9109c60203392a2565b6020813d60201161252f575b8161252160209383612055565b8101031261040057516124a0565b3d9150612514565b61254f9060203d602011610b2257610b158183612055565b61245f565b61255e903361223e565b61241a565b61257b9060203d602011610b2257610b158183612055565b6123ff565b600254600181018091116119ad5760095490600182018092116119ad576125a88282856125ba565b6125b793505f9250905061214a565b90565b91818302915f198185099383808610950394808603951461264a57848311156126325790829109815f0382168092046002816003021880820260020302808202600203028082026002030280820260020302808202600203028091026002030293600183805f03040190848311900302920304170290565b82634e487b715f52156003026011186020526024601cfd5b5050906125b7925061212c56fea2646970667358221220f73b703de4bad7200ffeb0c3e17184a3bcf5dc8932ef72f3f1034c208987c1d864736f6c634300081c0033a26469706673582212200f347df1105765f12c6bf482cb7f606628a94d1882cb72345ed3ad28076db25c64736f6c634300081c0033000000000000000000000000e8abab47829cf497dde768f95564fea7663aebcf",
        "nonce": "0x19f",
        "chainId": "0x66eee"
      },
      "additionalContracts": [],
      "isFixedGasLimit": false
    },
    {
      "hash": "0x3de04d2c0c75bd5ac798c98913f84081b464c551ced5bf8d3b8fd6585f937c9a",
      "transactionType": "CALL",
      "contractName": null,
      "contractAddress": "0xe8abab47829cf497dde768f95564fea7663aebcf",
      "function": "initialize(address,string)",
      "arguments": [
        "0xfA5FA1Eac61aA412E3D4Cff6bd35178980Db38a7",
        "04fb611087908d883d10d1b9633a7301b734eb693888b006a543a04429c6430d829bb4d6dd6eda0e2361ff153c398388f4fc2b7a6b640f6dcb083e763b6be1a568"
      ],
      "transaction": {
        "from": "0x34728af7d0fc03cbbdff82b6d52aeda8c999e2b2",
        "to": "0xe8abab47829cf497dde768f95564fea7663aebcf",
        "gas": "0x51f17",
        "value": "0x0",
        "input": "0xf399e22e000000000000000000000000fa5fa1eac61aa412e3d4cff6bd35178980db38a70000000000000000000000000000000000000000000000000000000000000040000000000000000000000000000000000000000000000000000000000000008230346662363131303837393038643838336431306431623936333361373330316237333465623639333838386230303661353433613034343239633634333064383239626234643664643665646130653233363166663135336333393833383866346663326237613662363430663664636230383365373633623662653161353638000000000000000000000000000000000000000000000000000000000000",
        "nonce": "0x1a0",
        "chainId": "0x66eee"
      },
      "additionalContracts": [],
      "isFixedGasLimit": false
    },
    {
      "hash": "0x20100d2e2aa6d6580b51533d3b2d7807b9e7aa78886041e7646ad44407129e86",
      "transactionType": "CALL",
      "contractName": "InsuranceFactory",
      "contractAddress": "0xfa5fa1eac61aa412e3d4cff6bd35178980db38a7",
      "function": "createInsurancePool(string,string,string,string,string,string,string,string,string,string,uint256,uint256,uint256,uint256,uint256,address,address,address)",
      "arguments": [
        "Ethereum Insurance",
        "ETHI",
        "https://ethereum.org/id/",
        "https://api.coingecko.com/api/v3/simple/price?ids=ethereum&vs_currencies=usd",
        "0402c06eef0fcd9bce4baed8b933d172fbeb41c2d389ea22196c8b887769424e65f461a72567e8b1ef0234913d6c3048285bf929fd8cf237ce7ee64955d8d66f2c63211f18de8b7fe485d9c16c19db0cf8cc741d626ca7fe7947f7b1669a5da21e",
        "0417096774522c5f341063c67c07197e77ea781d5dc786d738773f5e74bbd44361164670f7ecaff0b65bce8fe6fa9f33c352c29ed93163c4ef9da7059facb55ccf2df1fbfb17253f0bf6de6878cbb6b61222568c15c638acd2aebe78e9e54aa8c46f56c5453aa35cdabad168100d9da96d183046ea913439f614a0264f01ace71f025a97c7d046b63a9c0e",
        "042858572faa7e081d3126e97dce6f54b58e6997c088d3e7161df94f96fb2901ff076c900e04a39d3e569195fee85d44193f731ec5cdffa3ef099f0f41eae14e175fd1477b85e7ff498de1fb5ff64f0d4e4813f06a4c61187c01f058a0f885b2c797ff0dcc42d0e024bd94dbf5023345b821e56fa41ab34c1a743ad6d4b7a5529ac1ab70467604ec610e200bd389fe02891adc4a4750287f1e462d5e39d5e3291e3b31",
        "3200",
        "\\\\{\\\"ethereum\\\":\\\\{\\\"usd\\\":(?<value>[\\\\d\\\\.]+)\\\\}\\\\}",
        ">",
        "3",
        "1732287106",
        "1734879106",
        "1734706306",
        "50000000",
        "0x94BAa979F569eDb2F33903D9cCec66b31c9620F5",
        "0x654837fE31838Bd0391188182a3Ecdd402846D3a",
        "0xE8abAb47829cf497dDE768F95564FEA7663AeBcF"
      ],
      "transaction": {
        "from": "0x34728af7d0fc03cbbdff82b6d52aeda8c999e2b2",
        "to": "0xfa5fa1eac61aa412e3d4cff6bd35178980db38a7",
        "gas": "0x4ce07",
        "value": "0x0",
        "input": "0xa7ddfb670000000000000000000000000000000000000000000000000000000000000240000000000000000000000000000000000000000000000000000000000000028000000000000000000000000000000000000000000000000000000000000002c000000000000000000000000000000000000000000000000000000000000003000000000000000000000000000000000000000000000000000000000000000380000000000000000000000000000000000000000000000000000000000000048000000000000000000000000000000000000000000000000000000000000005c00000000000000000000000000000000000000000000000000000000000000740000000000000000000000000000000000000000000000000000000000000078000000000000000000000000000000000000000000000000000000000000007e000000000000000000000000000000000000000000000000000000000000000030000000000000000000000000000000000000000000000000000000067409a82000000000000000000000000000000000000000000000000000000006768278200000000000000000000000000000000000000000000000000000000676584820000000000000000000000000000000000000000000000000000000002faf08000000000000000000000000094baa979f569edb2f33903d9ccec66b31c9620f5000000000000000000000000654837fe31838bd0391188182a3ecdd402846d3a000000000000000000000000e8abab47829cf497dde768f95564fea7663aebcf0000000000000000000000000000000000000000000000000000000000000012457468657265756d20496e737572616e6365000000000000000000000000000000000000000000000000000000000000000000000000000000000000000000044554484900000000000000000000000000000000000000000000000000000000000000000000000000000000000000000000000000000000000000000000001868747470733a2f2f657468657265756d2e6f72672f69642f0000000000000000000000000000000000000000000000000000000000000000000000000000004c68747470733a2f2f6170692e636f696e6765636b6f2e636f6d2f6170692f76332f73696d706c652f70726963653f6964733d657468657265756d2676735f63757272656e636965733d757364000000000000000000000000000000000000000000000000000000000000000000000000000000000000000000000000000000c23034303263303665656630666364396263653462616564386239333364313732666265623431633264333839656132323139366338623838373736393432346536356634363161373235363765386231656630323334393133643663333034383238356266393239666438636632333763653765653634393535643864363666326336333231316631386465386237666534383564396331366331396462306366386363373431643632366361376665373934376637623136363961356461323165000000000000000000000000000000000000000000000000000000000000000000000000000000000000000000000000000000000000000000000000011630343137303936373734353232633566333431303633633637633037313937653737656137383164356463373836643733383737336635653734626264343433363131363436373066376563616666306236356263653866653666613966333363333532633239656439333136336334656639646137303539666163623535636366326466316662666231373235336630626636646536383738636262366236313232323536386331356336333861636432616562653738653965353461613863343666353663353435336161333563646162616431363831303064396461393664313833303436656139313334333966363134613032363466303161636537316630323561393763376430343662363361396330650000000000000000000000000000000000000000000000000000000000000000000000000000000001463034323835383537326661613765303831643331323665393764636536663534623538653639393763303838643365373136316466393466393666623239303166663037366339303065303461333964336535363931393566656538356434343139336637333165633563646666613365663039396630663431656165313465313735666431343737623835653766663439386465316662356666363466306434653438313366303661346336313138376330316630353861306638383562326337393766663064636334326430653032346264393464626635303233333435623832316535366661343161623334633161373433616436643462376135353239616331616237303436373630346563363130653230306264333839666530323839316164633461343735303238376631653436326435653339643565333239316533623331000000000000000000000000000000000000000000000000000000000000000000000000000000000000000000000000000000000000000000043332303000000000000000000000000000000000000000000000000000000000000000000000000000000000000000000000000000000000000000000000002a5c7b22657468657265756d223a5c7b22757364223a283f3c76616c75653e5b5c645c2e5d2b295c7d5c7d0000000000000000000000000000000000000000000000000000000000000000000000000000000000000000000000000000000000013e00000000000000000000000000000000000000000000000000000000000000",
        "nonce": "0x1a1",
        "chainId": "0x66eee"
      },
      "additionalContracts": [],
      "isFixedGasLimit": false
    },
    {
      "hash": "0x235ddda78843ed12a57f5195476e8aea35fc748d5015bb150dc59d541829b62f",
      "transactionType": "CALL",
      "contractName": null,
      "contractAddress": "0x94baa979f569edb2f33903d9ccec66b31c9620f5",
      "function": "approve(address,uint256)",
      "arguments": [
        "0x139Eb295984C3b7ad4814dcE021055E40B565870",
        "150000000"
      ],
      "transaction": {
        "from": "0x34728af7d0fc03cbbdff82b6d52aeda8c999e2b2",
        "to": "0x94baa979f569edb2f33903d9ccec66b31c9620f5",
        "gas": "0x1ad73",
        "value": "0x0",
        "input": "0x095ea7b3000000000000000000000000139eb295984c3b7ad4814dce021055e40b5658700000000000000000000000000000000000000000000000000000000008f0d180",
        "nonce": "0x1a2",
        "chainId": "0x66eee"
      },
      "additionalContracts": [],
      "isFixedGasLimit": false
    },
    {
      "hash": "0xe4251c18b8cd6652b348b48fef29e1cfc78d80cac0e981a04cb3c902002af19f",
      "transactionType": "CALL",
      "contractName": "InsurancePool",
      "contractAddress": "0x139eb295984c3b7ad4814dce021055e40b565870",
      "function": "initialDeposit()",
      "arguments": [],
      "transaction": {
        "from": "0x34728af7d0fc03cbbdff82b6d52aeda8c999e2b2",
        "to": "0x139eb295984c3b7ad4814dce021055e40b565870",
        "gas": "0xf177",
        "value": "0x0",
        "input": "0xe037f889",
        "nonce": "0x1a3",
        "chainId": "0x66eee"
      },
      "additionalContracts": [],
      "isFixedGasLimit": false
    },
    {
      "hash": "0x458ecc8b2d3da07c1f6a6b972f75d69cc9dbb342261cd7012e2f9599b5538e7a",
      "transactionType": "CALL",
      "contractName": null,
      "contractAddress": "0x94baa979f569edb2f33903d9ccec66b31c9620f5",
      "function": "approve(address,uint256)",
      "arguments": [
        "0x139Eb295984C3b7ad4814dcE021055E40B565870",
        "20000000"
      ],
      "transaction": {
        "from": "0x94c83a5137751c4e6acc0cfdb09819b0b83582d1",
        "to": "0x94baa979f569edb2f33903d9ccec66b31c9620f5",
        "gas": "0x1ad64",
        "value": "0x0",
        "input": "0x095ea7b3000000000000000000000000139eb295984c3b7ad4814dce021055e40b5658700000000000000000000000000000000000000000000000000000000001312d00",
        "nonce": "0xc",
        "chainId": "0x66eee"
      },
      "additionalContracts": [],
      "isFixedGasLimit": false
    },
    {
      "hash": "0xcaab148b28e9cf07f3b043d9ebd698429ee02b9963c51f168e97d7762c28b162",
      "transactionType": "CALL",
      "contractName": "InsurancePool",
      "contractAddress": "0x139eb295984c3b7ad4814dce021055e40b565870",
      "function": "purchasePolicy(uint256,uint256,address)",
      "arguments": [
        "20000000",
        "20000000",
        "0x94c83a5137751C4E6acc0cFdB09819B0B83582D1"
      ],
      "transaction": {
        "from": "0x94c83a5137751c4e6acc0cfdb09819b0b83582d1",
        "to": "0x139eb295984c3b7ad4814dce021055e40b565870",
        "gas": "0x14f61",
        "value": "0x0",
        "input": "0x6178e44c0000000000000000000000000000000000000000000000000000000001312d000000000000000000000000000000000000000000000000000000000001312d0000000000000000000000000094c83a5137751c4e6acc0cfdb09819b0b83582d1",
        "nonce": "0xd",
        "chainId": "0x66eee"
      },
      "additionalContracts": [],
      "isFixedGasLimit": false
    },
    {
      "hash": "0x01744802842f6593ece01c36dfd7431ed3aa05694a780cfa863b93bb709b3d81",
      "transactionType": "CALL",
      "contractName": "InsurancePool",
      "contractAddress": "0x139eb295984c3b7ad4814dce021055e40b565870",
      "function": "submitClaim()",
      "arguments": [],
      "transaction": {
        "from": "0x94c83a5137751c4e6acc0cfdb09819b0b83582d1",
        "to": "0x139eb295984c3b7ad4814dce021055e40b565870",
        "gas": "0xf177",
        "value": "0x0",
        "input": "0x1afbd128",
        "nonce": "0xe",
        "chainId": "0x66eee"
      },
      "additionalContracts": [],
      "isFixedGasLimit": false
    }
  ],
  "receipts": [
    {
      "status": "0x1",
      "cumulativeGasUsed": "0x74c28",
      "logs": [
        {
          "address": "0x94baa979f569edb2f33903d9ccec66b31c9620f5",
          "topics": [
            "0x8c5be1e5ebec7d5bd14f71427d1e84f3dd0314c0f7b2291e5b200ac8c7c3b925",
            "0x00000000000000000000000034728af7d0fc03cbbdff82b6d52aeda8c999e2b2",
            "0x000000000000000000000000654837fe31838bd0391188182a3ecdd402846d3a"
          ],
          "data": "0x0000000000000000000000000000000000000000000000000de0b6b3a7640000",
          "blockHash": "0x1a675f13a35466e479f9bea6f367e6e6a91360959ad9cc31530bc72f2843f0e1",
          "blockNumber": "0x5ef7c66",
          "transactionHash": "0x91d8dec7655b309197a62be43db0b44cc072a66866ce37e1017e69c790060aba",
          "transactionIndex": "0x3",
          "logIndex": "0x2",
          "removed": false
        }
      ],
      "logsBloom": "0x00000000000000000000000000000000000000000000000000000000000000000000000000000000000000000000000000000000001000000000020000200000000000000000000040000000000000000000000000000000000000000000000000000000000000000000000000000000000000000000000100000000002000000000000000000000000000000000000000000000000000000000000000000800020000000000000000000000000000000000000000000000000000000000000000000000000000000000000000000000000200000000200000000000000000000010000000000000000000000000000000000000000000000000800000000000",
      "type": "0x2",
      "transactionHash": "0x91d8dec7655b309197a62be43db0b44cc072a66866ce37e1017e69c790060aba",
      "transactionIndex": "0x3",
      "blockHash": "0x1a675f13a35466e479f9bea6f367e6e6a91360959ad9cc31530bc72f2843f0e1",
      "blockNumber": "0x5ef7c66",
      "gasUsed": "0x12733",
      "effectiveGasPrice": "0x5f5e100",
      "from": "0x34728af7d0fc03cbbdff82b6d52aeda8c999e2b2",
      "to": "0x94baa979f569edb2f33903d9ccec66b31c9620f5",
      "contractAddress": null,
      "gasUsedForL1": "0x73ae",
      "l1BlockNumber": "0x6ccbae"
    },
    {
      "status": "0x1",
      "cumulativeGasUsed": "0x14587",
      "logs": [
        {
          "address": "0x94baa979f569edb2f33903d9ccec66b31c9620f5",
          "topics": [
            "0xddf252ad1be2c89b69c2b068fc378daa952ba7f163c4a11628f55a4df523b3ef",
            "0x00000000000000000000000034728af7d0fc03cbbdff82b6d52aeda8c999e2b2",
            "0x000000000000000000000000654837fe31838bd0391188182a3ecdd402846d3a"
          ],
          "data": "0x0000000000000000000000000000000000000000000000000de0b6b3a7640000",
          "blockHash": "0xf6512ff8f3643f34a57ac19c60d08726e4747a6dbf70f0ee86f7f5879c1af187",
          "blockNumber": "0x5ef7c6c",
          "transactionHash": "0xec9e451b1d4149edd779e03eeecf47ebdcf9c70e57c1b2afc632340d805cc6db",
          "transactionIndex": "0x1",
          "logIndex": "0x0",
          "removed": false
        },
        {
          "address": "0x654837fe31838bd0391188182a3ecdd402846d3a",
          "topics": [
            "0xddf252ad1be2c89b69c2b068fc378daa952ba7f163c4a11628f55a4df523b3ef",
            "0x0000000000000000000000000000000000000000000000000000000000000000",
            "0x00000000000000000000000034728af7d0fc03cbbdff82b6d52aeda8c999e2b2"
          ],
          "data": "0x0000000000000000000000000000000000000000000000000de0b6b3a7640000",
          "blockHash": "0xf6512ff8f3643f34a57ac19c60d08726e4747a6dbf70f0ee86f7f5879c1af187",
          "blockNumber": "0x5ef7c6c",
          "transactionHash": "0xec9e451b1d4149edd779e03eeecf47ebdcf9c70e57c1b2afc632340d805cc6db",
          "transactionIndex": "0x1",
          "logIndex": "0x1",
          "removed": false
        },
        {
          "address": "0x654837fe31838bd0391188182a3ecdd402846d3a",
          "topics": [
            "0xdcbc1c05240f31ff3ad067ef1ee35ce4997762752e3a095284754544f4c709d7",
            "0x00000000000000000000000034728af7d0fc03cbbdff82b6d52aeda8c999e2b2",
            "0x00000000000000000000000034728af7d0fc03cbbdff82b6d52aeda8c999e2b2"
          ],
          "data": "0x0000000000000000000000000000000000000000000000000de0b6b3a76400000000000000000000000000000000000000000000000000000de0b6b3a7640000",
          "blockHash": "0xf6512ff8f3643f34a57ac19c60d08726e4747a6dbf70f0ee86f7f5879c1af187",
          "blockNumber": "0x5ef7c6c",
          "transactionHash": "0xec9e451b1d4149edd779e03eeecf47ebdcf9c70e57c1b2afc632340d805cc6db",
          "transactionIndex": "0x1",
          "logIndex": "0x2",
          "removed": false
        }
      ],
      "logsBloom": "0x00000000000000000000000000000000000000000000000000000000000000000000000000000000000000000000000000000000001000000000020000000000000000400000000040000008000000000000000000000000000000000000000000000000020000000000000000000800000000000004000100000010002000000000000000000000000000000000000000000000000000000000000000000800000000000000000000000000000000000000000000000000000000000000000000000002000400000000000000000000000200000008200000000000000020000000000000000000000000000040000000000000000000000400800000000000",
      "type": "0x2",
      "transactionHash": "0xec9e451b1d4149edd779e03eeecf47ebdcf9c70e57c1b2afc632340d805cc6db",
      "transactionIndex": "0x1",
      "blockHash": "0xf6512ff8f3643f34a57ac19c60d08726e4747a6dbf70f0ee86f7f5879c1af187",
      "blockNumber": "0x5ef7c6c",
      "gasUsed": "0x14587",
      "effectiveGasPrice": "0x5f5e100",
      "from": "0x34728af7d0fc03cbbdff82b6d52aeda8c999e2b2",
      "to": "0x654837fe31838bd0391188182a3ecdd402846d3a",
      "contractAddress": null,
      "gasUsedForL1": "0x73ae",
      "l1BlockNumber": "0x6ccbae"
    },
    {
      "status": "0x1",
      "cumulativeGasUsed": "0xf936",
      "logs": [
        {
          "address": "0x94baa979f569edb2f33903d9ccec66b31c9620f5",
          "topics": [
            "0xddf252ad1be2c89b69c2b068fc378daa952ba7f163c4a11628f55a4df523b3ef",
            "0x00000000000000000000000034728af7d0fc03cbbdff82b6d52aeda8c999e2b2",
            "0x00000000000000000000000094c83a5137751c4e6acc0cfdb09819b0b83582d1"
          ],
          "data": "0x0000000000000000000000000000000000000000000000000de0b6b3a7640000",
          "blockHash": "0x4fa2aa75185db64052e16bbc5b9533b02b47c0781b9e4ea33f8a2d9d9ea3189a",
          "blockNumber": "0x5ef7c74",
          "transactionHash": "0xa3bbfd35f40ccf5d89f7f08339fbefacbf944248ac52a4d232e24d43089d52d1",
          "transactionIndex": "0x1",
          "logIndex": "0x0",
          "removed": false
        }
      ],
      "logsBloom": "0x00000000000000000000000000000000000000000000000000000000000020000000000000000000000000000000000000000000001000000000020000000000000000000000000040000008000000000000000000000000000000000000000000000000000000000000000000000000000000000000000100000010000000000000000000000000000000000000000000000000000000000000000000000000000000000000000000000000000000000000000000000000000000000000000000000002000000000000000000000000000200000000200000000000000000000002000000000000000000000000000000000000000000000010000000000000",
      "type": "0x2",
      "transactionHash": "0xa3bbfd35f40ccf5d89f7f08339fbefacbf944248ac52a4d232e24d43089d52d1",
      "transactionIndex": "0x1",
      "blockHash": "0x4fa2aa75185db64052e16bbc5b9533b02b47c0781b9e4ea33f8a2d9d9ea3189a",
      "blockNumber": "0x5ef7c74",
      "gasUsed": "0xf936",
      "effectiveGasPrice": "0x5f5e100",
      "from": "0x34728af7d0fc03cbbdff82b6d52aeda8c999e2b2",
      "to": "0x94baa979f569edb2f33903d9ccec66b31c9620f5",
      "contractAddress": null,
      "gasUsedForL1": "0x73ae",
      "l1BlockNumber": "0x6ccbae"
    },
    {
      "status": "0x1",
      "cumulativeGasUsed": "0x4986b1",
      "logs": [],
      "logsBloom": "0x00000000000000000000000000000000000000000000000000000000000000000000000000000000000000000000000000000000000000000000000000000000000000000000000000000000000000000000000000000000000000000000000000000000000000000000000000000000000000000000000000000000000000000000000000000000000000000000000000000000000000000000000000000000000000000000000000000000000000000000000000000000000000000000000000000000000000000000000000000000000000000000000000000000000000000000000000000000000000000000000000000000000000000000000000000000",
      "type": "0x2",
      "transactionHash": "0xffdcb2a490ae9bdd4407c9346d8d6f53a70d57496c157a80567e65ea2ec0d35b",
      "transactionIndex": "0x1",
      "blockHash": "0xfcddb3ccd841833a22c420050ea6bb694bab2e85eefa1f8e1a0ee4a115e5b447",
      "blockNumber": "0x5ef7c7a",
      "gasUsed": "0x4986b1",
      "effectiveGasPrice": "0x5f5e100",
      "from": "0x34728af7d0fc03cbbdff82b6d52aeda8c999e2b2",
      "to": null,
      "contractAddress": "0xfa5fa1eac61aa412e3d4cff6bd35178980db38a7",
      "gasUsedForL1": "0x13c1f2",
      "l1BlockNumber": "0x6ccbae"
    },
    {
      "status": "0x1",
      "cumulativeGasUsed": "0xe1157",
      "logs": [],
      "logsBloom": "0x00000000000000000000000000000000000000000000000000000000000000000000000000000000000000000000000000000000000000000000000000000000000000000000000000000000000000000000000000000000000000000000000000000000000000000000000000000000000000000000000000000000000000000000000000000000000000000000000000000000000000000000000000000000000000000000000000000000000000000000000000000000000000000000000000000000000000000000000000000000000000000000000000000000000000000000000000000000000000000000000000000000000000000000000000000000",
      "type": "0x2",
      "transactionHash": "0x3de04d2c0c75bd5ac798c98913f84081b464c551ced5bf8d3b8fd6585f937c9a",
      "transactionIndex": "0x4",
      "blockHash": "0xeaf8e2c1168c166390f7b91a1dee86dd66ac0c135f9109cc439bc779cc924402",
      "blockNumber": "0x5ef7c7e",
      "gasUsed": "0x3ba9e",
      "effectiveGasPrice": "0x5f5e100",
      "from": "0x34728af7d0fc03cbbdff82b6d52aeda8c999e2b2",
      "to": "0xe8abab47829cf497dde768f95564fea7663aebcf",
      "contractAddress": null,
      "gasUsedForL1": "0xde8f",
      "l1BlockNumber": "0x6ccbaf"
    },
    {
      "status": "0x1",
      "cumulativeGasUsed": "0x3530d1",
      "logs": [
        {
          "address": "0xfa5fa1eac61aa412e3d4cff6bd35178980db38a7",
          "topics": [
            "0x1f5025cd4d44bed9127c94acc7130c09bd9ae7c300dcd36dca8aa28d8ec2d2ef",
            "0x00000000000000000000000034728af7d0fc03cbbdff82b6d52aeda8c999e2b2"
          ],
          "data": "0x000000000000000000000000139eb295984c3b7ad4814dce021055e40b565870",
          "blockHash": "0x75f4ce72bdf61a7aa19f276b7f6787e0f16f7710cddad465b894fd5329645a63",
          "blockNumber": "0x5ef7c87",
          "transactionHash": "0x20100d2e2aa6d6580b51533d3b2d7807b9e7aa78886041e7646ad44407129e86",
          "transactionIndex": "0x1",
          "logIndex": "0x0",
          "removed": false
        }
      ],
      "logsBloom": "0x00000000000000000000000000400000000000000000000000000000000000000000000000000000000000000000000000000000001000000000000000000000000000000000000040000000000000000000000000000000000000000000000000000000000000000000000000000000000000000000000000000000000000000000000000000000000000000000204000000000000000000000000000000000000000000000000000000000000000000000000000000000001000000000000000000000000000000000000000000000000000000000200000004000000080000000000000000000000000000000000000000000000000000000000000000000",
      "type": "0x2",
      "transactionHash": "0x20100d2e2aa6d6580b51533d3b2d7807b9e7aa78886041e7646ad44407129e86",
      "transactionIndex": "0x1",
      "blockHash": "0x75f4ce72bdf61a7aa19f276b7f6787e0f16f7710cddad465b894fd5329645a63",
      "blockNumber": "0x5ef7c87",
      "gasUsed": "0x3530d1",
      "effectiveGasPrice": "0x5f5e100",
      "from": "0x34728af7d0fc03cbbdff82b6d52aeda8c999e2b2",
      "to": "0xfa5fa1eac61aa412e3d4cff6bd35178980db38a7",
      "contractAddress": null,
      "gasUsedForL1": "0x2a700",
      "l1BlockNumber": "0x6ccbaf"
    },
    {
      "status": "0x1",
      "cumulativeGasUsed": "0x1271b",
      "logs": [
        {
          "address": "0x94baa979f569edb2f33903d9ccec66b31c9620f5",
          "topics": [
            "0x8c5be1e5ebec7d5bd14f71427d1e84f3dd0314c0f7b2291e5b200ac8c7c3b925",
            "0x00000000000000000000000034728af7d0fc03cbbdff82b6d52aeda8c999e2b2",
            "0x000000000000000000000000139eb295984c3b7ad4814dce021055e40b565870"
          ],
          "data": "0x0000000000000000000000000000000000000000000000000000000008f0d180",
          "blockHash": "0xbe06d16c91773aa078672760ef9b9410507b7e4398839356fcb6752eac2c81d0",
          "blockNumber": "0x5ef7c8a",
          "transactionHash": "0x235ddda78843ed12a57f5195476e8aea35fc748d5015bb150dc59d541829b62f",
          "transactionIndex": "0x1",
          "logIndex": "0x0",
          "removed": false
        }
      ],
      "logsBloom": "0x00000000000000000000000000000000000000000000000000000000000010000000000000000000000000000000000000000000001000000000020000200000000000000000000040000000000000000000000000000000000000000000000000000000000000000000000000000000000000000000000100000000000000000000000000000000000000000000000000000000000000000000000000000000120000000000000000000000000000000000000000000000000000000000000000000400000000000000000000000000000200000000200000000000000000000010000000000000000000000000000000000000000000000000000000000000",
      "type": "0x2",
      "transactionHash": "0x235ddda78843ed12a57f5195476e8aea35fc748d5015bb150dc59d541829b62f",
      "transactionIndex": "0x1",
      "blockHash": "0xbe06d16c91773aa078672760ef9b9410507b7e4398839356fcb6752eac2c81d0",
      "blockNumber": "0x5ef7c8a",
      "gasUsed": "0x1271b",
      "effectiveGasPrice": "0x5f5e100",
      "from": "0x34728af7d0fc03cbbdff82b6d52aeda8c999e2b2",
      "to": "0x94baa979f569edb2f33903d9ccec66b31c9620f5",
      "contractAddress": null,
      "gasUsedForL1": "0x73ae",
      "l1BlockNumber": "0x6ccbaf"
    },
    {
      "status": "0x1",
      "cumulativeGasUsed": "0x2e51c",
      "logs": [
        {
          "address": "0x94baa979f569edb2f33903d9ccec66b31c9620f5",
          "topics": [
            "0xddf252ad1be2c89b69c2b068fc378daa952ba7f163c4a11628f55a4df523b3ef",
            "0x00000000000000000000000034728af7d0fc03cbbdff82b6d52aeda8c999e2b2",
            "0x000000000000000000000000139eb295984c3b7ad4814dce021055e40b565870"
          ],
          "data": "0x0000000000000000000000000000000000000000000000000000000008f0d180",
          "blockHash": "0x3b33b6ee494f58fdae3bf844810bfadf2ec43dd22f24f4cd003c100db7fc2f0f",
          "blockNumber": "0x5ef7c90",
          "transactionHash": "0xe4251c18b8cd6652b348b48fef29e1cfc78d80cac0e981a04cb3c902002af19f",
          "transactionIndex": "0x1",
          "logIndex": "0x0",
          "removed": false
        },
        {
          "address": "0x139eb295984c3b7ad4814dce021055e40b565870",
          "topics": [
            "0xddf252ad1be2c89b69c2b068fc378daa952ba7f163c4a11628f55a4df523b3ef",
            "0x0000000000000000000000000000000000000000000000000000000000000000",
            "0x000000000000000000000000139eb295984c3b7ad4814dce021055e40b565870"
          ],
          "data": "0x0000000000000000000000000000000000000000000000000000000008f0d180",
          "blockHash": "0x3b33b6ee494f58fdae3bf844810bfadf2ec43dd22f24f4cd003c100db7fc2f0f",
          "blockNumber": "0x5ef7c90",
          "transactionHash": "0xe4251c18b8cd6652b348b48fef29e1cfc78d80cac0e981a04cb3c902002af19f",
          "transactionIndex": "0x1",
          "logIndex": "0x1",
          "removed": false
        },
        {
          "address": "0x94baa979f569edb2f33903d9ccec66b31c9620f5",
          "topics": [
            "0x8c5be1e5ebec7d5bd14f71427d1e84f3dd0314c0f7b2291e5b200ac8c7c3b925",
            "0x000000000000000000000000139eb295984c3b7ad4814dce021055e40b565870",
            "0x000000000000000000000000654837fe31838bd0391188182a3ecdd402846d3a"
          ],
          "data": "0x0000000000000000000000000000000000000000000000000000000008f0d180",
          "blockHash": "0x3b33b6ee494f58fdae3bf844810bfadf2ec43dd22f24f4cd003c100db7fc2f0f",
          "blockNumber": "0x5ef7c90",
          "transactionHash": "0xe4251c18b8cd6652b348b48fef29e1cfc78d80cac0e981a04cb3c902002af19f",
          "transactionIndex": "0x1",
          "logIndex": "0x2",
          "removed": false
        },
        {
          "address": "0x94baa979f569edb2f33903d9ccec66b31c9620f5",
          "topics": [
            "0xddf252ad1be2c89b69c2b068fc378daa952ba7f163c4a11628f55a4df523b3ef",
            "0x000000000000000000000000139eb295984c3b7ad4814dce021055e40b565870",
            "0x000000000000000000000000654837fe31838bd0391188182a3ecdd402846d3a"
          ],
          "data": "0x0000000000000000000000000000000000000000000000000000000008f0d180",
          "blockHash": "0x3b33b6ee494f58fdae3bf844810bfadf2ec43dd22f24f4cd003c100db7fc2f0f",
          "blockNumber": "0x5ef7c90",
          "transactionHash": "0xe4251c18b8cd6652b348b48fef29e1cfc78d80cac0e981a04cb3c902002af19f",
          "transactionIndex": "0x1",
          "logIndex": "0x3",
          "removed": false
        },
        {
          "address": "0x654837fe31838bd0391188182a3ecdd402846d3a",
          "topics": [
            "0xddf252ad1be2c89b69c2b068fc378daa952ba7f163c4a11628f55a4df523b3ef",
            "0x0000000000000000000000000000000000000000000000000000000000000000",
            "0x000000000000000000000000139eb295984c3b7ad4814dce021055e40b565870"
          ],
          "data": "0x0000000000000000000000000000000000000000000000000000000008f0d180",
          "blockHash": "0x3b33b6ee494f58fdae3bf844810bfadf2ec43dd22f24f4cd003c100db7fc2f0f",
          "blockNumber": "0x5ef7c90",
          "transactionHash": "0xe4251c18b8cd6652b348b48fef29e1cfc78d80cac0e981a04cb3c902002af19f",
          "transactionIndex": "0x1",
          "logIndex": "0x4",
          "removed": false
        },
        {
          "address": "0x654837fe31838bd0391188182a3ecdd402846d3a",
          "topics": [
            "0xdcbc1c05240f31ff3ad067ef1ee35ce4997762752e3a095284754544f4c709d7",
            "0x000000000000000000000000139eb295984c3b7ad4814dce021055e40b565870",
            "0x000000000000000000000000139eb295984c3b7ad4814dce021055e40b565870"
          ],
          "data": "0x0000000000000000000000000000000000000000000000000000000008f0d1800000000000000000000000000000000000000000000000000000000008f0d180",
          "blockHash": "0x3b33b6ee494f58fdae3bf844810bfadf2ec43dd22f24f4cd003c100db7fc2f0f",
          "blockNumber": "0x5ef7c90",
          "transactionHash": "0xe4251c18b8cd6652b348b48fef29e1cfc78d80cac0e981a04cb3c902002af19f",
          "transactionIndex": "0x1",
          "logIndex": "0x5",
          "removed": false
        },
        {
          "address": "0x139eb295984c3b7ad4814dce021055e40b565870",
          "topics": [
            "0x227a473b70d2f893cc7659219575c030a63b5743024fe1e0c1a680e708b1525a"
          ],
          "data": "0x0000000000000000000000000000000000000000000000000000000008f0d180",
          "blockHash": "0x3b33b6ee494f58fdae3bf844810bfadf2ec43dd22f24f4cd003c100db7fc2f0f",
          "blockNumber": "0x5ef7c90",
          "transactionHash": "0xe4251c18b8cd6652b348b48fef29e1cfc78d80cac0e981a04cb3c902002af19f",
          "transactionIndex": "0x1",
          "logIndex": "0x6",
          "removed": false
        },
        {
          "address": "0x139eb295984c3b7ad4814dce021055e40b565870",
          "topics": [
            "0xe1fffcc4923d04b559f4d29a8bfc6cda04eb5b0d3c460751c2402c5c5cc9109c",
            "0x00000000000000000000000034728af7d0fc03cbbdff82b6d52aeda8c999e2b2"
          ],
          "data": "0x0000000000000000000000000000000000000000000000000000000008f0d180",
          "blockHash": "0x3b33b6ee494f58fdae3bf844810bfadf2ec43dd22f24f4cd003c100db7fc2f0f",
          "blockNumber": "0x5ef7c90",
          "transactionHash": "0xe4251c18b8cd6652b348b48fef29e1cfc78d80cac0e981a04cb3c902002af19f",
          "transactionIndex": "0x1",
          "logIndex": "0x7",
          "removed": false
        }
      ],
      "logsBloom": "0x00000000000000000000000000000000000000000000000000000000000010000000000000000000000000000000000000000000001000000000020000200000000000400000000040000008000000000000000000000000000000208000000000000000020000000000000000000800000000000004000100000010022000000000000000000000000000000000000100000001000000000000000000000800120000000000000000000000000001000000000000000000000000000000000000000402000400000000000000000000000200000008200000000000000020000018000000000000000000000040000000008000000000400400800000000000",
      "type": "0x2",
      "transactionHash": "0xe4251c18b8cd6652b348b48fef29e1cfc78d80cac0e981a04cb3c902002af19f",
      "transactionIndex": "0x1",
      "blockHash": "0x3b33b6ee494f58fdae3bf844810bfadf2ec43dd22f24f4cd003c100db7fc2f0f",
      "blockNumber": "0x5ef7c90",
      "gasUsed": "0x2e51c",
      "effectiveGasPrice": "0x5f5e100",
      "from": "0x34728af7d0fc03cbbdff82b6d52aeda8c999e2b2",
      "to": "0x139eb295984c3b7ad4814dce021055e40b565870",
      "contractAddress": null,
      "gasUsedForL1": "0x4ad0",
      "l1BlockNumber": "0x6ccbaf"
    },
    {
      "status": "0x1",
      "cumulativeGasUsed": "0x125cd",
      "logs": [
        {
          "address": "0x94baa979f569edb2f33903d9ccec66b31c9620f5",
          "topics": [
            "0x8c5be1e5ebec7d5bd14f71427d1e84f3dd0314c0f7b2291e5b200ac8c7c3b925",
            "0x00000000000000000000000094c83a5137751c4e6acc0cfdb09819b0b83582d1",
            "0x000000000000000000000000139eb295984c3b7ad4814dce021055e40b565870"
          ],
          "data": "0x0000000000000000000000000000000000000000000000000000000001312d00",
          "blockHash": "0x02a0edff609876da739e7d1988e9864c3fb7cc8f5e1d5d7aaa7c9a93296898ab",
          "blockNumber": "0x5ef7c98",
          "transactionHash": "0x458ecc8b2d3da07c1f6a6b972f75d69cc9dbb342261cd7012e2f9599b5538e7a",
          "transactionIndex": "0x1",
          "logIndex": "0x0",
          "removed": false
        }
      ],
      "logsBloom": "0x00000000000000000000000000000000000000000000000000000000000030000000000000000000000000000000000000000000000000000000020000200000000000000000000000000000000000000000000000000000000000000000000000000000000000000000000000000000000000000000000100000000000000000000000000000000000000000000000000000000000000000000000000000000120000000000000000000000000000000000000000000000000000000000000000000400000000000000000000000000000200000000000000000000000000000012000000000000000000000000000000000000000000000010000000000000",
      "type": "0x2",
      "transactionHash": "0x458ecc8b2d3da07c1f6a6b972f75d69cc9dbb342261cd7012e2f9599b5538e7a",
      "transactionIndex": "0x1",
      "blockHash": "0x02a0edff609876da739e7d1988e9864c3fb7cc8f5e1d5d7aaa7c9a93296898ab",
      "blockNumber": "0x5ef7c98",
      "gasUsed": "0x125cd",
      "effectiveGasPrice": "0x5f5e100",
      "from": "0x94c83a5137751c4e6acc0cfdb09819b0b83582d1",
      "to": "0x94baa979f569edb2f33903d9ccec66b31c9620f5",
      "contractAddress": null,
      "gasUsedForL1": "0x726c",
      "l1BlockNumber": "0x6ccbaf"
    },
    {
      "status": "0x1",
      "cumulativeGasUsed": "0x6eaae",
      "logs": [
        {
          "address": "0x94baa979f569edb2f33903d9ccec66b31c9620f5",
          "topics": [
            "0xddf252ad1be2c89b69c2b068fc378daa952ba7f163c4a11628f55a4df523b3ef",
            "0x00000000000000000000000094c83a5137751c4e6acc0cfdb09819b0b83582d1",
            "0x000000000000000000000000139eb295984c3b7ad4814dce021055e40b565870"
          ],
          "data": "0x0000000000000000000000000000000000000000000000000000000001312d00",
          "blockHash": "0xac65db17c3e5d80e494213e2c97a0b2096f55765e092b5d0d400efb6dd0b2730",
          "blockNumber": "0x5ef7c9e",
          "transactionHash": "0xcaab148b28e9cf07f3b043d9ebd698429ee02b9963c51f168e97d7762c28b162",
          "transactionIndex": "0x2",
          "logIndex": "0x1",
          "removed": false
        },
        {
          "address": "0x139eb295984c3b7ad4814dce021055e40b565870",
          "topics": [
            "0xddf252ad1be2c89b69c2b068fc378daa952ba7f163c4a11628f55a4df523b3ef",
            "0x0000000000000000000000000000000000000000000000000000000000000000",
            "0x00000000000000000000000094c83a5137751c4e6acc0cfdb09819b0b83582d1"
          ],
          "data": "0x0000000000000000000000000000000000000000000000000000000001312d00",
          "blockHash": "0xac65db17c3e5d80e494213e2c97a0b2096f55765e092b5d0d400efb6dd0b2730",
          "blockNumber": "0x5ef7c9e",
          "transactionHash": "0xcaab148b28e9cf07f3b043d9ebd698429ee02b9963c51f168e97d7762c28b162",
          "transactionIndex": "0x2",
          "logIndex": "0x2",
          "removed": false
        },
        {
          "address": "0x94baa979f569edb2f33903d9ccec66b31c9620f5",
          "topics": [
            "0x8c5be1e5ebec7d5bd14f71427d1e84f3dd0314c0f7b2291e5b200ac8c7c3b925",
            "0x000000000000000000000000139eb295984c3b7ad4814dce021055e40b565870",
            "0x000000000000000000000000654837fe31838bd0391188182a3ecdd402846d3a"
          ],
          "data": "0x0000000000000000000000000000000000000000000000000000000001312d00",
          "blockHash": "0xac65db17c3e5d80e494213e2c97a0b2096f55765e092b5d0d400efb6dd0b2730",
          "blockNumber": "0x5ef7c9e",
          "transactionHash": "0xcaab148b28e9cf07f3b043d9ebd698429ee02b9963c51f168e97d7762c28b162",
          "transactionIndex": "0x2",
          "logIndex": "0x3",
          "removed": false
        },
        {
          "address": "0x94baa979f569edb2f33903d9ccec66b31c9620f5",
          "topics": [
            "0xddf252ad1be2c89b69c2b068fc378daa952ba7f163c4a11628f55a4df523b3ef",
            "0x000000000000000000000000139eb295984c3b7ad4814dce021055e40b565870",
            "0x000000000000000000000000654837fe31838bd0391188182a3ecdd402846d3a"
          ],
          "data": "0x0000000000000000000000000000000000000000000000000000000001312d00",
          "blockHash": "0xac65db17c3e5d80e494213e2c97a0b2096f55765e092b5d0d400efb6dd0b2730",
          "blockNumber": "0x5ef7c9e",
          "transactionHash": "0xcaab148b28e9cf07f3b043d9ebd698429ee02b9963c51f168e97d7762c28b162",
          "transactionIndex": "0x2",
          "logIndex": "0x4",
          "removed": false
        },
        {
          "address": "0x654837fe31838bd0391188182a3ecdd402846d3a",
          "topics": [
            "0xddf252ad1be2c89b69c2b068fc378daa952ba7f163c4a11628f55a4df523b3ef",
            "0x0000000000000000000000000000000000000000000000000000000000000000",
            "0x000000000000000000000000139eb295984c3b7ad4814dce021055e40b565870"
          ],
          "data": "0x0000000000000000000000000000000000000000000000000000000001312d00",
          "blockHash": "0xac65db17c3e5d80e494213e2c97a0b2096f55765e092b5d0d400efb6dd0b2730",
          "blockNumber": "0x5ef7c9e",
          "transactionHash": "0xcaab148b28e9cf07f3b043d9ebd698429ee02b9963c51f168e97d7762c28b162",
          "transactionIndex": "0x2",
          "logIndex": "0x5",
          "removed": false
        },
        {
          "address": "0x654837fe31838bd0391188182a3ecdd402846d3a",
          "topics": [
            "0xdcbc1c05240f31ff3ad067ef1ee35ce4997762752e3a095284754544f4c709d7",
            "0x000000000000000000000000139eb295984c3b7ad4814dce021055e40b565870",
            "0x000000000000000000000000139eb295984c3b7ad4814dce021055e40b565870"
          ],
          "data": "0x0000000000000000000000000000000000000000000000000000000001312d000000000000000000000000000000000000000000000000000000000001312d00",
          "blockHash": "0xac65db17c3e5d80e494213e2c97a0b2096f55765e092b5d0d400efb6dd0b2730",
          "blockNumber": "0x5ef7c9e",
          "transactionHash": "0xcaab148b28e9cf07f3b043d9ebd698429ee02b9963c51f168e97d7762c28b162",
          "transactionIndex": "0x2",
          "logIndex": "0x6",
          "removed": false
        },
        {
          "address": "0x139eb295984c3b7ad4814dce021055e40b565870",
          "topics": [
            "0x227a473b70d2f893cc7659219575c030a63b5743024fe1e0c1a680e708b1525a"
          ],
          "data": "0x0000000000000000000000000000000000000000000000000000000001312d00",
          "blockHash": "0xac65db17c3e5d80e494213e2c97a0b2096f55765e092b5d0d400efb6dd0b2730",
          "blockNumber": "0x5ef7c9e",
          "transactionHash": "0xcaab148b28e9cf07f3b043d9ebd698429ee02b9963c51f168e97d7762c28b162",
          "transactionIndex": "0x2",
          "logIndex": "0x7",
          "removed": false
        },
        {
          "address": "0x139eb295984c3b7ad4814dce021055e40b565870",
          "topics": [
            "0xe1fffcc4923d04b559f4d29a8bfc6cda04eb5b0d3c460751c2402c5c5cc9109c",
            "0x00000000000000000000000094c83a5137751c4e6acc0cfdb09819b0b83582d1"
          ],
          "data": "0x0000000000000000000000000000000000000000000000000000000001312d00",
          "blockHash": "0xac65db17c3e5d80e494213e2c97a0b2096f55765e092b5d0d400efb6dd0b2730",
          "blockNumber": "0x5ef7c9e",
          "transactionHash": "0xcaab148b28e9cf07f3b043d9ebd698429ee02b9963c51f168e97d7762c28b162",
          "transactionIndex": "0x2",
          "logIndex": "0x8",
          "removed": false
        },
        {
          "address": "0x139eb295984c3b7ad4814dce021055e40b565870",
          "topics": [
            "0x1ec6ca237cf412015f109db027dc71b2292a20387279781fd699c4ec328a23d7",
            "0x00000000000000000000000094c83a5137751c4e6acc0cfdb09819b0b83582d1"
          ],
          "data": "0x0000000000000000000000000000000000000000000000000000000001312d00",
          "blockHash": "0xac65db17c3e5d80e494213e2c97a0b2096f55765e092b5d0d400efb6dd0b2730",
          "blockNumber": "0x5ef7c9e",
          "transactionHash": "0xcaab148b28e9cf07f3b043d9ebd698429ee02b9963c51f168e97d7762c28b162",
          "transactionIndex": "0x2",
          "logIndex": "0x9",
          "removed": false
        }
      ],
      "logsBloom": "0x0000000000000000000000000000000000000000000000000000000000003000000000000000000000000000000000000000000000000000000002000020000000000040000000000000000800000000000000000000000000000020800000000000000002000000000000000000080000000000000400010000001002200000000000000000000000000000000000010000000100000000000000000000080012000000000000000000000000000100000000000000000000000000000000000000040200040000000000000000000400020000000800000000000000002000081a000000000000000000000840000000008000000000400410800000000000",
      "type": "0x2",
      "transactionHash": "0xcaab148b28e9cf07f3b043d9ebd698429ee02b9963c51f168e97d7762c28b162",
      "transactionIndex": "0x2",
      "blockHash": "0xac65db17c3e5d80e494213e2c97a0b2096f55765e092b5d0d400efb6dd0b2730",
      "blockNumber": "0x5ef7c9e",
      "gasUsed": "0x2c676",
      "effectiveGasPrice": "0x5f5e100",
      "from": "0x94c83a5137751c4e6acc0cfdb09819b0b83582d1",
      "to": "0x139eb295984c3b7ad4814dce021055e40b565870",
      "contractAddress": null,
      "gasUsedForL1": "0x868b",
      "l1BlockNumber": "0x6ccbaf"
    },
    {
      "status": "0x1",
      "cumulativeGasUsed": "0x4f62d",
      "logs": [
        {
          "address": "0x139eb295984c3b7ad4814dce021055e40b565870",
          "topics": [
            "0xddf252ad1be2c89b69c2b068fc378daa952ba7f163c4a11628f55a4df523b3ef",
            "0x00000000000000000000000094c83a5137751c4e6acc0cfdb09819b0b83582d1",
            "0x0000000000000000000000000000000000000000000000000000000000000000"
          ],
          "data": "0x0000000000000000000000000000000000000000000000000000000001312d00",
          "blockHash": "0x5ec592831ba3746feb3bc024694c7dfa463abf4f3c6eea706699fd51f013e434",
          "blockNumber": "0x5ef7ca4",
          "transactionHash": "0x01744802842f6593ece01c36dfd7431ed3aa05694a780cfa863b93bb709b3d81",
          "transactionIndex": "0x2",
          "logIndex": "0x1",
          "removed": false
        },
        {
          "address": "0x139eb295984c3b7ad4814dce021055e40b565870",
          "topics": [
            "0xddf252ad1be2c89b69c2b068fc378daa952ba7f163c4a11628f55a4df523b3ef",
            "0x0000000000000000000000000000000000000000000000000000000000000000",
            "0x000000000000000000000000139eb295984c3b7ad4814dce021055e40b565870"
          ],
          "data": "0x0000000000000000000000000000000000000000000000000000000001312d00",
          "blockHash": "0x5ec592831ba3746feb3bc024694c7dfa463abf4f3c6eea706699fd51f013e434",
          "blockNumber": "0x5ef7ca4",
          "transactionHash": "0x01744802842f6593ece01c36dfd7431ed3aa05694a780cfa863b93bb709b3d81",
          "transactionIndex": "0x2",
          "logIndex": "0x2",
          "removed": false
        },
        {
          "address": "0xe8abab47829cf497dde768f95564fea7663aebcf",
          "topics": [
            "0xb40ce3699dc0e09be7202845d63e813e35ba6c676bccffadf460462c2ad29c82",
            "0x0000000000000000000000000000000000000000000000000000000000000000"
          ],
          "data": "0x000000000000000000000000139eb295984c3b7ad4814dce021055e40b56587000000000000000000000000094c83a5137751c4e6acc0cfdb09819b0b83582d10000000000000000000000000000000000000000000000000000000001312d00000000000000000000000000000000000000000000000000000000000000000000000000000000000000000000000000000000000000000000000000006ccbaf0000000000000000000000000000000000000000000000000000000000000000",
          "blockHash": "0x5ec592831ba3746feb3bc024694c7dfa463abf4f3c6eea706699fd51f013e434",
          "blockNumber": "0x5ef7ca4",
          "transactionHash": "0x01744802842f6593ece01c36dfd7431ed3aa05694a780cfa863b93bb709b3d81",
          "transactionIndex": "0x2",
          "logIndex": "0x3",
          "removed": false
        },
        {
          "address": "0x139eb295984c3b7ad4814dce021055e40b565870",
          "topics": [
            "0xc271c2ba952861633612aabb311dc0a5d1ea4fd62f563bd43e26a01bcb827a90"
          ],
          "data": "0x000000000000000000000000000000000000000000000000000000000000000000000000000000000000000094c83a5137751c4e6acc0cfdb09819b0b83582d10000000000000000000000000000000000000000000000000000000001312d0000000000000000000000000000000000000000000000000000000000000000000000000000000000000000000000000000000000000000000000000000000000",
          "blockHash": "0x5ec592831ba3746feb3bc024694c7dfa463abf4f3c6eea706699fd51f013e434",
          "blockNumber": "0x5ef7ca4",
          "transactionHash": "0x01744802842f6593ece01c36dfd7431ed3aa05694a780cfa863b93bb709b3d81",
          "transactionIndex": "0x2",
          "logIndex": "0x4",
          "removed": false
        }
      ],
      "logsBloom": "0x000000000000000000000000000020000000000000002000000000000000300000000000000000000000000000000000000002000000000000010000000000000000000000000000000000080000000000000000000000000000002000000000000000000a000000000000000000080000000000000000000000001000000000000000000000000000000000000000410000000000000000000000000000000010000000000000000000000000000000000000000400000100000000000000000000040200002000000000000000000000000000000000000000000000002000000a000000000000000000000000000000000000000000000010000000000000",
      "type": "0x2",
      "transactionHash": "0x01744802842f6593ece01c36dfd7431ed3aa05694a780cfa863b93bb709b3d81",
      "transactionIndex": "0x2",
      "blockHash": "0x5ec592831ba3746feb3bc024694c7dfa463abf4f3c6eea706699fd51f013e434",
      "blockNumber": "0x5ef7ca4",
      "gasUsed": "0x33fe2",
      "effectiveGasPrice": "0x5f5e100",
      "from": "0x94c83a5137751c4e6acc0cfdb09819b0b83582d1",
      "to": "0x139eb295984c3b7ad4814dce021055e40b565870",
      "contractAddress": null,
      "gasUsedForL1": "0x498f",
      "l1BlockNumber": "0x6ccbaf"
    }
  ],
  "libraries": [],
  "pending": [],
  "returns": {},
  "timestamp": 1732287152,
  "chain": 421614,
  "commit": "597d48a"
}