{
  "transactions": [
    {
      "hash": "0x24b829cf8446894e1a5fb9278b4c319bd05d84cb9c2c6ae6ded007bd21ea10d2",
      "transactionType": "CALL",
      "contractName": null,
      "contractAddress": "0x94baa979f569edb2f33903d9ccec66b31c9620f5",
      "function": "mint(address,uint256)",
      "arguments": [
        "0x34728aF7D0FC03CbbdFF82b6d52AeDA8C999E2B2",
        "10000000000000000000"
      ],
      "transaction": {
        "from": "0x34728af7d0fc03cbbdff82b6d52aeda8c999e2b2",
        "to": "0x94baa979f569edb2f33903d9ccec66b31c9620f5",
        "gas": "0xbc94",
        "value": "0x0",
        "input": "0x40c10f1900000000000000000000000034728af7d0fc03cbbdff82b6d52aeda8c999e2b20000000000000000000000000000000000000000000000008ac7230489e80000",
        "nonce": "0x67f",
        "chainId": "0x66eee"
      },
      "additionalContracts": [],
      "isFixedGasLimit": false
    },
    {
      "hash": "0x72c08b6f004508ec4b1703280dbb6e140e7695661d2eb074f2776aa82e1deeb8",
      "transactionType": "CALL",
      "contractName": null,
      "contractAddress": "0x94baa979f569edb2f33903d9ccec66b31c9620f5",
      "function": "approve(address,uint256)",
      "arguments": [
        "0x654837fE31838Bd0391188182a3Ecdd402846D3a",
        "10000000000000000000"
      ],
      "transaction": {
        "from": "0x34728af7d0fc03cbbdff82b6d52aeda8c999e2b2",
        "to": "0x94baa979f569edb2f33903d9ccec66b31c9620f5",
        "gas": "0xef03",
        "value": "0x0",
        "input": "0x095ea7b3000000000000000000000000654837fe31838bd0391188182a3ecdd402846d3a0000000000000000000000000000000000000000000000008ac7230489e80000",
        "nonce": "0x680",
        "chainId": "0x66eee"
      },
      "additionalContracts": [],
      "isFixedGasLimit": false
    },
    {
      "hash": "0xf17d75348c9d31ff0d4f65c6696ac30e3d8a5a222e67f6b591d5eb0aa82e63aa",
      "transactionType": "CALL",
      "contractName": null,
      "contractAddress": "0x654837fe31838bd0391188182a3ecdd402846d3a",
      "function": "deposit(uint256,address)",
      "arguments": [
        "10000000000000000000",
        "0x34728aF7D0FC03CbbdFF82b6d52AeDA8C999E2B2"
      ],
      "transaction": {
        "from": "0x34728af7d0fc03cbbdff82b6d52aeda8c999e2b2",
        "to": "0x654837fe31838bd0391188182a3ecdd402846d3a",
        "gas": "0x132e6",
        "value": "0x0",
        "input": "0x6e553f650000000000000000000000000000000000000000000000008ac7230489e8000000000000000000000000000034728af7d0fc03cbbdff82b6d52aeda8c999e2b2",
        "nonce": "0x681",
        "chainId": "0x66eee"
      },
      "additionalContracts": [],
      "isFixedGasLimit": false
    },
    {
      "hash": "0x3cefdce97981590ef7b0b76629233040cf38ff64d416f4a1257996ea4bd9e158",
      "transactionType": "CALL",
      "contractName": null,
      "contractAddress": "0x94baa979f569edb2f33903d9ccec66b31c9620f5",
      "function": "transfer(address,uint256)",
      "arguments": [
        "0x94c83a5137751C4E6acc0cFdB09819B0B83582D1",
        "1000000000000000000"
      ],
      "transaction": {
        "from": "0x34728af7d0fc03cbbdff82b6d52aeda8c999e2b2",
        "to": "0x94baa979f569edb2f33903d9ccec66b31c9620f5",
        "gas": "0xb31c",
        "value": "0x0",
        "input": "0xa9059cbb00000000000000000000000094c83a5137751c4e6acc0cfdb09819b0b83582d10000000000000000000000000000000000000000000000000de0b6b3a7640000",
        "nonce": "0x682",
        "chainId": "0x66eee"
      },
      "additionalContracts": [],
      "isFixedGasLimit": false
    },
    {
      "hash": "0x8f47699cfce901391d0435f7b30e971815ae264d08f28e6e3b24e515a977e16f",
      "transactionType": "CREATE",
      "contractName": "InsuranceFactory",
      "contractAddress": "0x99cfb199c0eafee3457224c75a079c86025eae22",
      "function": null,
      "arguments": [
        "0x94BAa979F569eDb2F33903D9cCec66b31c9620F5",
        "0x654837fE31838Bd0391188182a3Ecdd402846D3a",
        "0x3988af4d734E72F2D155Ffe07e9F316A7b6123f9",
        "5",
        "10"
      ],
      "transaction": {
        "from": "0x34728af7d0fc03cbbdff82b6d52aeda8c999e2b2",
        "gas": "0x5d59c4",
        "value": "0x0",
        "input": "0x60803460c257601f61512a38819003918201601f19168301916001600160401b0383118484101760c65780849260a09460405283398101031260c25760428160da565b90604d6020820160da565b60576040830160da565b606083015160809390930151600580546001600160a01b03199081166001600160a01b03978816179091556006805482169487169490941790935560038054841633179055600480549093169490911693909317905560085560095560405161503c90816100ee8239f35b5f80fd5b634e487b7160e01b5f52604160045260245ffd5b51906001600160a01b038216820360c25756fe6080806040526004361015610012575f80fd5b5f3560e01c9081630fd761e014610aba575080633998fdd314610a925780633ccfd60b146109975780634352976c146109695780634578d2901461092c5780634e575d4b14610904578063507817bb14610445578063560684ca146103ca5780636a4d984614610343578063773f0b18146103265780638da5cb5b146102fe578063ae5745ed1461029c578063af38c76114610190578063daf635de14610162578063e941fa78146101455763f7d1517f146100cc575f80fd5b34610141576020366003190112610141576004355f54811015610141575f5481101561012d575f80527f290decd9548b62a8d60345a988386fc84ba6bc95484008f6362f93160ef3e56301546040516001600160a01b039091168152602090f35b634e487b7160e01b5f52603260045260245ffd5b5f80fd5b34610141575f366003190112610141576020600954604051908152f35b346101415760203660031901126101415761018860018060a01b03600354163314610be4565b600435600955005b34610141575f366003190112610141576040515f6007548060011c90600181168015610292575b60208310811461027e5782855290811561025a57506001146101fc575b6101f8836101e481850382610af3565b604051918291602083526020830190610bc0565b0390f35b91905060075f527fa66cc928b5edb82af9bd49922954155ab7b0942694bea4ce44661d9a8736c688915f905b808210610240575090915081016020016101e46101d4565b919260018160209254838588010152019101909291610228565b60ff191660208086019190915291151560051b840190910191506101e490506101d4565b634e487b7160e01b5f52602260045260245ffd5b91607f16916101b7565b34610141576040366003190112610141576102b5610add565b6001600160a01b03165f90815260016020526040902080546024359190821015610141576020916102e591610bab565b905460405160039290921b1c6001600160a01b03168152f35b34610141575f366003190112610141576003546040516001600160a01b039091168152602090f35b34610141575f366003190112610141576020600854604051908152f35b34610141576020366003190112610141576001600160a01b03610364610add565b165f52600160205260405f206040519081602082549182815201915f5260205f20905f5b8181106103ab576101f88561039f81870382610af3565b60405191829182610b69565b82546001600160a01b0316845260209093019260019283019201610388565b34610141575f366003190112610141576040518060205f549182815201905f80527f290decd9548b62a8d60345a988386fc84ba6bc95484008f6362f93160ef3e563905f5b818110610426576101f88561039f81870382610af3565b82546001600160a01b031684526020909301926001928301920161040f565b3461014157610200366003190112610141576004356001600160401b03811161014157610476903690600401610b14565b6024356001600160401b03811161014157610495903690600401610b14565b906044356001600160401b038111610141576104b5903690600401610b14565b6064356001600160401b038111610141576104d4903690600401610b14565b6084356001600160401b038111610141576104f3903690600401610b14565b60a4356001600160401b03811161014157610512903690600401610b14565b60c4356001600160401b03811161014157610531903690600401610b14565b9060e4356001600160401b03811161014157610551903690600401610b14565b92610104356001600160401b03811161014157610572903690600401610b14565b94610124356001600160401b03811161014157610593903690600401610b14565b96604051806143ca8101106001600160401b036143ca830111176108e557806106b76106a06106896106738f8f61063161061b61060561065d946105ef610647956143ca8d610c3d90396102206143ca8e018181520190610bc0565b906143ca8c01820360208d6143ca010152610bc0565b6143ca8a01810360406143ca8c0101528b610bc0565b6143ca8901810360606143ca8b0101528b610bc0565b6143ca8801810360806143ca8a0101528b610bc0565b6143ca8701810360a06143ca890101528b610bc0565b6143ca8601810360c06143ca880101528b610bc0565b6143ca8501810360e06143ca870101528b610bc0565b6143ca840181036101006143ca860101528b610bc0565b6143ca830181036101206143ca850101528b610bc0565b610144356143ca830161014081019190915261016435610160820152610184356101808201526101a4356101a08201526101c4356101c08201526101e4356101e0820152336102009091015203905ff0998a156108f9575f54600160401b8110156108e55780600161072c92015f555f610bab565b81546001600160a01b038e811660039390931b92831b921b1916179055335f9081526001602052604090208054600160401b8110156108e55760018101825561077491610bab565b81546001600160a01b038e811660039390931b83811b91901b19909116179091555f9081526002602052604090819020805460ff1916600117905551610200808252909a6107c4918c0190610bc0565b8a810360208c01526107d591610bc0565b89810360408b01526107e691610bc0565b88810360608a01526107f791610bc0565b878103608089015261080891610bc0565b86810360a088015261081991610bc0565b85810360c087015261082a91610bc0565b84810360e086015261083b91610bc0565b83810361010085015261084d91610bc0565b82810361012084015261085f91610bc0565b6101443561014083015261016435610160830152610184356101808301526101a4356101a08301526101c4356101c08301526101e4356101e08301526001600160a01b0383169133917fdb952deb284a7ca1809707c5a72df8b398c71835d54ca9755ffe994e8baa2aa1919081900390a36040516001600160a01b039091168152602090f35b634e487b7160e01b5f52604160045260245ffd5b6040513d5f823e3d90fd5b34610141575f366003190112610141576006546040516001600160a01b039091168152602090f35b34610141576020366003190112610141576001600160a01b0361094d610add565b165f526002602052602060ff60405f2054166040519015158152f35b346101415760203660031901126101415761098f60018060a01b03600354163314610be4565b600435600855005b34610141575f366003190112610141576003546001600160a01b03166109be338214610be4565b6005546040516370a0823160e01b81523060048201526001600160a01b0390911691602082602481865afa9182156108f9575f92610a5d575b509060446020925f604051958694859363a9059cbb60e01b8552600485015260248401525af180156108f957610a2957005b6020813d602011610a55575b81610a4260209383610af3565b8101031261014157518015150361014157005b3d9150610a35565b91506020823d602011610a8a575b81610a7860209383610af3565b810103126101415790519060446109f7565b3d9150610a6b565b34610141575f366003190112610141576004546040516001600160a01b039091168152602090f35b34610141575f366003190112610141576005546001600160a01b03168152602090f35b600435906001600160a01b038216820361014157565b90601f801991011681019081106001600160401b038211176108e557604052565b81601f82011215610141578035906001600160401b0382116108e55760405192610b48601f8401601f191660200185610af3565b8284526020838301011161014157815f926020809301838601378301015290565b60206040818301928281528451809452019201905f5b818110610b8c5750505090565b82516001600160a01b0316845260209384019390920191600101610b7f565b805482101561012d575f5260205f2001905f90565b805180835260209291819084018484015e5f828201840152601f01601f1916010190565b15610beb57565b60405162461bcd60e51b815260206004820152602360248201527f4f6e6c79206f776e65722063616e20696e766f6b6520746869732066756e637460448201526234b7b760e91b6064820152608490fdfe60a060405234610f24576143ca8038038061001981610f28565b928339810161022082820312610f245781516001600160401b038111610f245781610045918401610f4d565b60208301519091906001600160401b038111610f245781610067918501610f4d565b60408401519092906001600160401b038111610f245782610089918601610f4d565b60608501519091906001600160401b038111610f2457836100ab918701610f4d565b60808601519094906001600160401b038111610f2457846100cd918801610f4d565b60a08701519093906001600160401b038111610f2457856100ef918901610f4d565b60c08801516001600160401b038111610f24578661010e918a01610f4d565b60e08901516001600160401b038111610f24578761012d918b01610f4d565b6101008a01519091906001600160401b038111610f245788610150918c01610f4d565b6101208b0151979093906001600160401b038911610f24578b9a8b9a8b9a8b019061017a91610f4d565b966101408b0151986101608c01519a6101808d01519c6101a001519d6101c001519e6101e001519f6102000151608052600160a01b600190036080511660805103610f24578051906001600160401b0382116106df5760035490600182811c92168015610f1a575b60208310146106c15781601f849311610eac575b50602090601f8311600114610e46575f92610e3b575b50508160011b915f199060031b1c1916176003555b8051906001600160401b0382116106df5760045490600182811c92168015610e31575b60208310146106c15781601f849311610dc3575b50602090601f8311600114610d5d575f92610d52575b50508160011b915f199060031b1c1916176004555b8051906001600160401b0382116106df57600a5490600182811c92168015610d48575b60208310146106c15781601f849311610cda575b50602090601f8311600114610c74575f92610c69575b50508160011b915f199060031b1c191617600a555b8051906001600160401b0382116106df57600b5490600182811c92168015610c5f575b60208310146106c15781601f849311610bf1575b50602090601f8311600114610b8b575f92610b80575b50508160011b915f199060031b1c191617600b555b8051906001600160401b0382116106df57600c5490600182811c92168015610b76575b60208310146106c15781601f849311610b08575b50602090601f8311600114610aa2575f92610a97575b50508160011b915f199060031b1c191617600c555b8051906001600160401b0382116106df57600d5490600182811c92168015610a8d575b60208310146106c15781601f849311610a1f575b50602090601f83116001146109b9575f926109ae575b50508160011b915f199060031b1c191617600d555b8051906001600160401b0382116106df57600e5490600182811c921680156109a4575b60208310146106c15781601f849311610936575b50602090601f83116001146108d0575f926108c5575b50508160011b915f199060031b1c191617600e555b8051906001600160401b0382116106df57600f5490600182811c921680156108bb575b60208310146106c15781601f84931161084d575b50602090601f83116001146107e7575f926107dc575b50508160011b915f199060031b1c191617600f555b8051906001600160401b0382116106df5760115490600182811c921680156107d2575b60208310146106c15781601f849311610764575b50602090601f83116001146106fe575f926106f3575b50508160011b915f199060031b1c1916176011555b8051906001600160401b0382116106df5760105490600182811c921680156106d5575b60208310146106c15781601f849311610653575b50602090601f83116001146105ed575f926105e2575b50508160011b915f199060031b1c1916176010555b601355601455601555601655601755601855608051600980546001600160a01b039092166001600160a01b03199283161790556005805433921691909117905560405161342b9081610f9f8239f35b015190505f8061057e565b60105f9081528281209350601f198516905b81811061063b5750908460019594939210610623575b505050811b01601055610593565b01515f1960f88460031b161c191690555f8080610615565b929360206001819287860151815501950193016105ff565b60105f529091507f1b6847dc741a1b0cd08d278845f9d819d87b734759afb55fe2de5cb82a9ae672601f840160051c810191602085106106b7575b90601f859493920160051c01905b8181106106a95750610568565b5f815584935060010161069c565b909150819061068e565b634e487b7160e01b5f52602260045260245ffd5b91607f1691610554565b634e487b7160e01b5f52604160045260245ffd5b015190505f8061051c565b60115f9081528281209350601f198516905b81811061074c5750908460019594939210610734575b505050811b01601155610531565b01515f1960f88460031b161c191690555f8080610726565b92936020600181928786015181550195019301610710565b60115f529091507f31ecc21a745e3968a04e9570e4425bc18fa8019c68028196b546d1669c200c68601f840160051c810191602085106107c8575b90601f859493920160051c01905b8181106107ba5750610506565b5f81558493506001016107ad565b909150819061079f565b91607f16916104f2565b015190505f806104ba565b600f5f9081528281209350601f198516905b818110610835575090846001959493921061081d575b505050811b01600f556104cf565b01515f1960f88460031b161c191690555f808061080f565b929360206001819287860151815501950193016107f9565b600f5f529091507f8d1108e10bcb7c27dddfc02ed9d693a074039d026cf4ea4240b40f7d581ac802601f840160051c810191602085106108b1575b90601f859493920160051c01905b8181106108a357506104a4565b5f8155849350600101610896565b9091508190610888565b91607f1691610490565b015190505f80610458565b600e5f9081528281209350601f198516905b81811061091e5750908460019594939210610906575b505050811b01600e5561046d565b01515f1960f88460031b161c191690555f80806108f8565b929360206001819287860151815501950193016108e2565b600e5f529091507fbb7b4a454dc3493923482f07822329ed19e8244eff582cc204f8554c3620c3fd601f840160051c8101916020851061099a575b90601f859493920160051c01905b81811061098c5750610442565b5f815584935060010161097f565b9091508190610971565b91607f169161042e565b015190505f806103f6565b600d5f9081528281209350601f198516905b818110610a0757509084600195949392106109ef575b505050811b01600d5561040b565b01515f1960f88460031b161c191690555f80806109e1565b929360206001819287860151815501950193016109cb565b600d5f529091507fd7b6990105719101dabeb77144f2a3385c8033acd3af97e9423a695e81ad1eb5601f840160051c81019160208510610a83575b90601f859493920160051c01905b818110610a7557506103e0565b5f8155849350600101610a68565b9091508190610a5a565b91607f16916103cc565b015190505f80610394565b600c5f9081528281209350601f198516905b818110610af05750908460019594939210610ad8575b505050811b01600c556103a9565b01515f1960f88460031b161c191690555f8080610aca565b92936020600181928786015181550195019301610ab4565b600c5f529091507fdf6966c971051c3d54ec59162606531493a51404a002842f56009d7e5cf4a8c7601f840160051c81019160208510610b6c575b90601f859493920160051c01905b818110610b5e575061037e565b5f8155849350600101610b51565b9091508190610b43565b91607f169161036a565b015190505f80610332565b600b5f9081528281209350601f198516905b818110610bd95750908460019594939210610bc1575b505050811b01600b55610347565b01515f1960f88460031b161c191690555f8080610bb3565b92936020600181928786015181550195019301610b9d565b600b5f529091507f0175b7a638427703f0dbe7bb9bbf987a2551717b34e79f33b5b1008d1fa01db9601f840160051c81019160208510610c55575b90601f859493920160051c01905b818110610c47575061031c565b5f8155849350600101610c3a565b9091508190610c2c565b91607f1691610308565b015190505f806102d0565b600a5f9081528281209350601f198516905b818110610cc25750908460019594939210610caa575b505050811b01600a556102e5565b01515f1960f88460031b161c191690555f8080610c9c565b92936020600181928786015181550195019301610c86565b600a5f529091507fc65a7bb8d6351c1cf70c95a316cc6a92839c986682d98bc35f958f4883f9d2a8601f840160051c81019160208510610d3e575b90601f859493920160051c01905b818110610d3057506102ba565b5f8155849350600101610d23565b9091508190610d15565b91607f16916102a6565b015190505f8061026e565b60045f9081528281209350601f198516905b818110610dab5750908460019594939210610d93575b505050811b01600455610283565b01515f1960f88460031b161c191690555f8080610d85565b92936020600181928786015181550195019301610d6f565b60045f529091507f8a35acfbc15ff81a39ae7d344fd709f28e8600b4aa8c65c6b64bfe7fe36bd19b601f840160051c81019160208510610e27575b90601f859493920160051c01905b818110610e195750610258565b5f8155849350600101610e0c565b9091508190610dfe565b91607f1691610244565b015190505f8061020c565b60035f9081528281209350601f198516905b818110610e945750908460019594939210610e7c575b505050811b01600355610221565b01515f1960f88460031b161c191690555f8080610e6e565b92936020600181928786015181550195019301610e58565b60035f529091507fc2575a0e9e593c00f959f8c92f12db2869c3395a3b0502d05e2516446f71f85b601f840160051c81019160208510610f10575b90601f859493920160051c01905b818110610f0257506101f6565b5f8155849350600101610ef5565b9091508190610ee7565b91607f16916101e2565b5f80fd5b6040519190601f01601f191682016001600160401b038111838210176106df57604052565b81601f82011215610f24578051906001600160401b0382116106df57610f7c601f8301601f1916602001610f28565b9282845260208383010111610f2457815f9260208093018386015e830101529056fe60806040526004361015610011575f80fd5b5f5f3560e01c806306fdde0314612a3d578063095ea7b31461299557806309a15785146128cb578063104ffbbe1461262457806318160ddd146126075780631afbd12814611c815780631fb6112e14611bda5780632152418c14611b4857806321b394bc14611b2a57806323b872dd14611a485780632881687f14611a2a5780632e5113b714611a0c578063313ce567146119f05780633b45b38c146119d25780633ccfd60b14611530578063411d90af146114895780634173fb9d1461141557806341e0080b1461136e57806347664eeb1461135057806347d54bff146113325780634bff95ba1461128b57806351d8b2c61461126d5780636178e44c14610f4a57806365c33d8714610ba5578063707f67ee14610afe57806370a0823114610ac65780637bcc180c14610a3c5780637fcfcb7e14610a1557806394bca696146109f757806395d89b411461095057806398d19110146108a957806399d32fc41461088b578063a9059cbb14610859578063af6080071461083b578063b3c9b7b214610744578063c45a01551461071b578063dbc837c5146106f2578063dd62ed3e1461069f578063e037f889146103c5578063eaf40bcd146103a1578063f21f537d14610383578063f40430d2146102dc5763fdfec5dd146101f3575f80fd5b346102d957806003193601126102d9576040519080600a549061021582612b32565b80855291600181169081156102b25750600114610255575b6102518461023d81860382612b86565b604051918291602083526020830190612ae2565b0390f35b600a81527fc65a7bb8d6351c1cf70c95a316cc6a92839c986682d98bc35f958f4883f9d2a8939250905b8082106102985750909150810160200161023d8261022d565b91926001816020925483858801015201910190929161027f565b60ff191660208087019190915292151560051b8501909201925061023d915083905061022d565b80fd5b50346102d957806003193601126102d9576040519080600d54906102ff82612b32565b80855291600181169081156102b25750600114610326576102518461023d81860382612b86565b600d81527fd7b6990105719101dabeb77144f2a3385c8033acd3af97e9423a695e81ad1eb5939250905b8082106103695750909150810160200161023d8261022d565b919260018160209254838588010152019101909291610350565b50346102d957806003193601126102d9576020601554604051908152f35b50346102d957806003193601126102d957602063ffffffff601a5416604051908152f35b50346102d957806003193601126102d9576103eb60018060a01b03600954163314612e6f565b60025461065a57600554604051627ebb0f60e51b8152906001600160a01b0316602082600481845afa90811561058c576004928492610638575b5060209060405193848092634e575d4b60e01b82525afa91821561058c578392610603575b506040516370a0823160e01b815233600482015290602090829060249082906001600160a01b03165afa90811561058c5783916105d1575b50601854601454916104948383612e26565b11610597576104ab916104a691612e26565b613074565b6040516370a0823160e01b81523060048201526001600160a01b039190911690602081602481855afa801561058c578390610559575b6020915080600755602460405180948193630a28a47760e01b835260048301525afa90811561054e578291610518575b5060085580f35b90506020813d602011610546575b8161053360209383612b86565b8101031261054257515f610511565b5f80fd5b3d9150610526565b6040513d84823e3d90fd5b506020813d602011610584575b8161057360209383612b86565b8101031261054257602090516104e1565b3d9150610566565b6040513d85823e3d90fd5b60405162461bcd60e51b81526020600482015260126024820152714e6f7420656e6f7567682062616c616e636560701b6044820152606490fd5b90506020813d6020116105fb575b816105ec60209383612b86565b8101031261054257515f610482565b3d91506105df565b6024919250610629602091823d8411610631575b6106218183612b86565b810190612cf4565b92915061044a565b503d610617565b602091925061065390823d8411610631576106218183612b86565b9190610425565b60405162461bcd60e51b815260206004820152601d60248201527f496e697469616c206465706f73697420686173206265656e2073656e740000006044820152606490fd5b50346102d95760403660031901126102d95760406106bb612b06565b916106c4612b1c565b9260018060a01b031681526001602052209060018060a01b03165f52602052602060405f2054604051908152f35b50346102d957806003193601126102d9576009546040516001600160a01b039091168152602090f35b50346102d957806003193601126102d9576005546040516001600160a01b039091168152602090f35b50346102d95760203660031901126102d95760043590608060405161076881612b6a565b8281528260208201528260408201526060808201520152601b5481116107f65761079461025191612c7c565b5060ff6004604051926107a684612b6a565b80546001600160a01b0316845260018101546020850152600281015460408501526107d360038201612ba8565b606085015201541615156080820152604051918291602083526020830190612cac565b60405162461bcd60e51b815260206004820152601b60248201527f436c61696d20696e646578206973206f7574206f662072616e676500000000006044820152606490fd5b50346102d957806003193601126102d9576020601754604051908152f35b50346102d95760403660031901126102d957610880610876612b06565b6024359033612fdd565b602060405160018152f35b50346102d957806003193601126102d9576020601354604051908152f35b50346102d957806003193601126102d9576040519080601054906108cc82612b32565b80855291600181169081156102b257506001146108f3576102518461023d81860382612b86565b601081527f1b6847dc741a1b0cd08d278845f9d819d87b734759afb55fe2de5cb82a9ae672939250905b8082106109365750909150810160200161023d8261022d565b91926001816020925483858801015201910190929161091d565b50346102d957806003193601126102d95760405190806004549061097382612b32565b80855291600181169081156102b2575060011461099a576102518461023d81860382612b86565b600481527f8a35acfbc15ff81a39ae7d344fd709f28e8600b4aa8c65c6b64bfe7fe36bd19b939250905b8082106109dd5750909150810160200161023d8261022d565b9192600181602092548385880101520191019092916109c4565b50346102d957806003193601126102d9576020600654604051908152f35b50346102d95760203660031901126102d9576020610a3460043561331e565b604051908152f35b50346102d95760203660031901126102d957600435601b54811015610ac257610a6490612c7c565b5060018060a01b03815416600182015491610ab660028201549160ff6004610a8e60038401612ba8565b920154169260405195869586526020860152604085015260a0606085015260a0840190612ae2565b90151560808301520390f35b5080fd5b50346102d95760203660031901126102d9576020906040906001600160a01b03610aee612b06565b1681528083522054604051908152f35b50346102d957806003193601126102d9576040519080600f5490610b2182612b32565b80855291600181169081156102b25750600114610b48576102518461023d81860382612b86565b600f81527f8d1108e10bcb7c27dddfc02ed9d693a074039d026cf4ea4240b40f7d581ac802939250905b808210610b8b5750909150810160200161023d8261022d565b919260018160209254838588010152019101909291610b72565b50346102d957610bb436612c48565b600554604051633998fdd360e01b815291906001600160a01b0316602083600481845afa928315610e3a578493610f25575b50600490602090610c01336001600160a01b03871614612d13565b604051634e575d4b60e01b815292839182905afa908115610e3a578491610f06575b506040516370a0823160e01b81523060048201526001600160a01b03919091169190602081602481865afa908115610efb578591610ec7575b50610c8890610c826001610c766040610c91960135612c7c565b50015460145490612e26565b90612e26565b60025490612e39565b916103e88302928084046103e81490151715610eb35760405163095ea7b360e01b81526001600160a01b039190911660048201526024810183905260208160448187865af1908115610e3a578491610e94575b5015610e455760405163095ea7b360e01b81523360048201526024810183905260208160448187865af1908115610e3a578491610e1b575b5015610dd65760405163095ea7b360e01b815232600482015260248101929092526020908290604490829086905af190811561054e578291610da7575b5015610d625780f35b60405162461bcd60e51b815260206004820152601b60248201527f4661696c656420746f20617070726f76652074782e6f726967696e00000000006044820152606490fd5b610dc9915060203d602011610dcf575b610dc18183612b86565b810190612e57565b5f610d59565b503d610db7565b60405162461bcd60e51b815260206004820152601c60248201527f4661696c656420746f20617070726f7665206d73672e73656e646572000000006044820152606490fd5b610e34915060203d602011610dcf57610dc18183612b86565b5f610d1c565b6040513d86823e3d90fd5b60405162461bcd60e51b815260206004820152602160248201527f4661696c656420746f20617070726f76652073657276696365206d616e6167656044820152603960f91b6064820152608490fd5b610ead915060203d602011610dcf57610dc18183612b86565b5f610ce4565b634e487b7160e01b84526011600452602484fd5b90506020813d602011610ef3575b81610ee260209383612b86565b810103126105425751610c91610c5c565b3d9150610ed5565b6040513d87823e3d90fd5b610f1f915060203d602011610631576106218183612b86565b5f610c23565b6004919350610f42602091823d8411610631576106218183612b86565b939150610be6565b50346102d95760603660031901126102d9576044356001600160a01b038116906004359060243590839003611269576017544210156112255781156111e157821561119c57601854610f9e60195484612ec9565b1161114657600554604051627ebb0f60e51b815290602090829060049082906001600160a01b03165afa908115610efb576024916020918791611129575b506040516370a0823160e01b815233600482015292839182906001600160a01b03165afa8015610efb57829186916110f4575b50106110af578161101f8261331e565b0361106a577f1ec6ca237cf412015f109db027dc71b2292a20387279781fd699c4ec328a23d791611051602092613074565b61105d81601954612ec9565b601955604051908152a280f35b60405162461bcd60e51b815260206004820152601860248201527f53656e74206173736574732069736e277420656e6f75676800000000000000006044820152606490fd5b60405162461bcd60e51b815260206004820152601d60248201527f596f7520646f6e2774206861766520656e6f7567682062616c616e63650000006044820152606490fd5b9150506020813d602011611121575b8161111060209383612b86565b81010312610542578190515f61100f565b3d9150611103565b6111409150823d8411610631576106218183612b86565b5f610fdc565b60405162461bcd60e51b815260206004820152602860248201527f4d617820737570706c79206578636565647320746865206d617820706f6c6963604482015267792073686172657360c01b6064820152608490fd5b60405162461bcd60e51b815260206004820152601f60248201527f496e7375726564206d75737420626520612076616c69642061646472657373006044820152606490fd5b606460405162461bcd60e51b815260206004820152602060248201527f416d6f756e74206d7573742062652067726561746572207468616e207a65726f6044820152fd5b606460405162461bcd60e51b815260206004820152602060248201527f506f6c6963792063616e277420626520707572636861736520616e796d6f72656044820152fd5b8380fd5b50346102d957806003193601126102d9576020601854604051908152f35b50346102d957806003193601126102d9576040519080600b54906112ae82612b32565b80855291600181169081156102b257506001146112d5576102518461023d81860382612b86565b600b81527f0175b7a638427703f0dbe7bb9bbf987a2551717b34e79f33b5b1008d1fa01db9939250905b8082106113185750909150810160200161023d8261022d565b9192600181602092548385880101520191019092916112ff565b50346102d957806003193601126102d9576020601654604051908152f35b50346102d957806003193601126102d9576020600754604051908152f35b50346102d957806003193601126102d9576040519080600c549061139182612b32565b80855291600181169081156102b257506001146113b8576102518461023d81860382612b86565b600c81527fdf6966c971051c3d54ec59162606531493a51404a002842f56009d7e5cf4a8c7939250905b8082106113fb5750909150810160200161023d8261022d565b9192600181602092548385880101520191019092916113e2565b50346102d95760203660031901126102d95761142f612b06565b6009546001600160a01b03811691611448338414612e6f565b6001600160a01b03169182907f155faa1d2e95029c9603f208551520bab524c2a713e5b7710cd39a91c73d281f8580a36001600160a01b0319161760095580f35b50346102d957806003193601126102d9576040519080601254906114ac82612b32565b80855291600181169081156102b257506001146114d3576102518461023d81860382612b86565b601281527fbb8a6a4669ba250d26cd7a459eca9d215f8307e33aebe50379bc5a3617ec3444939250905b8082106115165750909150810160200161023d8261022d565b9192600181602092548385880101520191019092916114fd565b50346102d957806003193601126102d9576016544211156119815761156060018060a01b03600954163314612e6f565b600554604051634e575d4b60e01b81526001600160a01b0390911690602081600481855afa90811561058c578391611962575b506040516370a0823160e01b81523060048201526001600160a01b039190911691602082602481865afa918215610e3a57849261192e575b506040519163266d6a8360e11b83526004830152602082602481865afa918215610e3a5784926118fa575b506008548203918211610eb3578391602060049260405193848092631d283f4f60e31b82525afa91821561058c5783926118c1575b5060649161163891612e26565b04916040516370a0823160e01b8152306004820152602081602481855afa90811561058c578391611889575b509060646020926040519485938492632d182be560e21b845260048401523060248401523060448401525af190811561058c578391611857575b50600554604051627ebb0f60e51b81526001600160a01b039091169290602081600481875afa918215610efb5761170f92602092879161183a575b5060405163a9059cbb60e01b81526001600160a01b03968716600482015260248101929092529094169391829081906044820190565b038187875af18015610e3a5761181d575b506009546040516370a0823160e01b8152306004820152906001600160a01b0316602082602481875afa918215610efb5785926117e7575b5060405163a9059cbb60e01b81526001600160a01b0390911660048201526024810191909152916020908390818681604481015b03925af190811561058c577f5b6b431d4476a211bb7d41c20d1aab9ae2321deee0d20be3d9fc9b1093fa6e3d926020926117cc575b50604051908152a180f35b6117e290833d8511610dcf57610dc18183612b86565b6117c1565b91506020823d602011611815575b8161180260209383612b86565b810103126105425790519061178c611758565b3d91506117f5565b6118359060203d602011610dcf57610dc18183612b86565b611720565b6118519150833d8511610631576106218183612b86565b5f6116d9565b90506020813d602011611881575b8161187260209383612b86565b8101031261054257515f61169e565b3d9150611865565b919250506020813d6020116118b9575b816118a660209383612b86565b8101031261054257518391906064611664565b3d9150611899565b925090506020823d6020116118f2575b816118de60209383612b86565b81010312610542579051839161163861162b565b3d91506118d1565b9091506020813d602011611926575b8161191660209383612b86565b810103126105425751905f6115f6565b3d9150611909565b9091506020813d60201161195a575b8161194a60209383612b86565b810103126105425751905f6115cb565b3d915061193d565b61197b915060203d602011610631576106218183612b86565b5f611593565b60405162461bcd60e51b815260206004820152602360248201527f506c65617365207761697420756e74696c2074686520706572696f6420697320604482015262195b9960ea1b6064820152608490fd5b50346102d957806003193601126102d9576020600854604051908152f35b50346102d957806003193601126102d957602060405160128152f35b50346102d957806003193601126102d9576020601454604051908152f35b50346102d957806003193601126102d9576020601954604051908152f35b50346102d95760603660031901126102d957611a62612b06565b611a6a612b1c565b6001600160a01b038216808452600160209081526040808620335f908152925290205460443593915f198210611aa7575b50506108809350612fdd565b848210611b0f578015611afb573315611ae75785604091610880975260016020522060018060a01b0333165f526020528360405f20910390555f80611a9b565b634a1406b160e11b86526004869052602486fd5b63e602df0560e01b86526004869052602486fd5b6064868684637dc7a0d960e11b835233600452602452604452fd5b50346102d957806003193601126102d9576020601b54604051908152f35b50346102d95760203660031901126102d95760043560065460018101809111611bc6576002549160018301809311611bb257611b85838383613358565b938315611b9e576020610a348686868609151590612ec9565b634e487b7160e01b81526012600452602490fd5b634e487b7160e01b5f52601160045260245ffd5b634e487b7160e01b83526011600452602483fd5b50346102d957806003193601126102d957604051908060115490611bfd82612b32565b80855291600181169081156102b25750600114611c24576102518461023d81860382612b86565b601181527f31ecc21a745e3968a04e9570e4425bc18fa8019c68028196b546d1669c200c68939250905b808210611c675750909150810160200161023d8261022d565b919260018160209254838588010152019101909291611c4e565b5034610542575f36600319011261054257335f525f60205260405f2054156125c257600554604051627ebb0f60e51b81526001600160a01b0390911690602081600481855afa9081156120d0575f916125a3575b506040516370a0823160e01b81523360048201526001600160a01b039190911690602081602481855afa9081156120d0575f91612571575b5060135480911061251557604051636eb1769f60e11b8152336004820152306024820152602081604481865afa80156120d05782915f916124e0575b501061247c57602060049360405194858092630ee7e16360e31b82525afa9283156120d0575f93612448575b506040516370a0823160e01b8152336004820152602081602481865afa80156120d05784915f91612413575b50106123b557604051636eb1769f60e11b8152336004820152306024820152602081604481865afa80156120d05784915f91612380575b5010612315576009546040516323b872dd60e01b81523360048201526001600160a01b03909116602482015260448101919091526020816064815f865af19081156120d0575f916122f6575b50156122b1576005546040516323b872dd60e01b81523360048201526001600160a01b0390911660248201526044810192909252602090829060649082905f905af19081156120d0575f91612292575b501561224d57601b545f805b82811061222157506121dc57335f525f60205260405f205460405191611ea583612b6a565b338352602083019082825260408401818152604051906020820182811067ffffffffffffffff8211176121b5576040525f82526060860191825260808601925f8452680100000000000000008110156121b557806001611f089201601b55612c7c565b9490946121c957865185546001600160a01b0319166001600160a01b0391909116178555516001850155516002840155518051600384019167ffffffffffffffff82116121b557611f598354612b32565b601f8111612170575b50602090601f831160011461210557918060049492611fae9796945f926120fa575b50508160011b915f199060031b1c19161790555b51151591019060ff801983541691151516179055565b611fb88133612ed6565b611fc28130612f6d565b600554604051633998fdd360e01b815290602090829060049082906001600160a01b03165afa9081156120d0575f916120db575b5060018060a01b03169063ffffffff601a5416823b156105425760845f92836040519586948593630bb54ccf60e41b8552306004860152336024860152604485015260648401525af180156120d0576120bb575b506001601a54917f16540b30944d4a001747daed1f3b0be02461ddc7221558400f55bb848bf4fd7961209763ffffffff851692604051918291858352604060208401526040830190612cac565b0390a10163ffffffff8111611bc65763ffffffff169063ffffffff191617601a5580f35b6120c89192505f90612b86565b5f905f61204a565b6040513d5f823e3d90fd5b6120f4915060203d602011610631576106218183612b86565b5f611ff6565b015190505f80611f84565b90601f19831691845f52815f20925f5b8181106121585750926001928592611fae9998966004989610612140575b505050811b019055611f98565b01515f1960f88460031b161c191690555f8080612133565b92936020600181928786015181550195019301612115565b835f5260205f20601f840160051c810191602085106121ab575b601f0160051c01905b8181106121a05750611f62565b5f8155600101612193565b909150819061218a565b634e487b7160e01b5f52604160045260245ffd5b634e487b7160e01b5f525f60045260245ffd5b60405162461bcd60e51b815260206004820152601860248201527f436c61696d20686173206265656e207375626d697474656400000000000000006044820152606490fd5b61222a81612c7c565b50546001600160a01b03163314612244575b600101611e80565b6001915061223c565b60405162461bcd60e51b815260206004820152601960248201527f4661696c656420746f207061792073746f7261676520666565000000000000006044820152606490fd5b6122ab915060203d602011610dcf57610dc18183612b86565b5f611e74565b60405162461bcd60e51b815260206004820152601760248201527f4661696c656420746f2070617920636c61696d206665650000000000000000006044820152606490fd5b61230f915060203d602011610dcf57610dc18183612b86565b5f611e24565b60405162461bcd60e51b815260206004820152603860248201527f596f757220616c6c6f7765642062616c616e63652069736e277420656e6f756760448201527f6820746f20706179207468652073746f726167652066656500000000000000006064820152608490fd5b9150506020813d6020116123ad575b8161239c60209383612b86565b81010312610542578390515f611dd8565b3d915061238f565b60405162461bcd60e51b815260206004820152603060248201527f596f75722062616c616e63652069736e277420656e6f75676820746f2070617960448201526f207468652073746f726167652066656560801b6064820152608490fd5b9150506020813d602011612440575b8161242f60209383612b86565b81010312610542578390515f611da1565b3d9150612422565b9092506020813d602011612474575b8161246460209383612b86565b810103126105425751915f611d75565b3d9150612457565b60405162461bcd60e51b815260206004820152603660248201527f596f757220616c6c6f7765642062616c616e63652069736e277420656e6f75676044820152756820746f207061792074686520636c61696d2066656560501b6064820152608490fd5b9150506020813d60201161250d575b816124fc60209383612b86565b81010312610542578190515f611d49565b3d91506124ef565b60405162461bcd60e51b815260206004820152602e60248201527f596f75722062616c616e63652069736e277420656e6f75676820746f2070617960448201526d2074686520636c61696d2066656560901b6064820152608490fd5b90506020813d60201161259b575b8161258c60209383612b86565b8101031261054257515f611d0d565b3d915061257f565b6125bc915060203d602011610631576106218183612b86565b5f611cd5565b60405162461bcd60e51b815260206004820152601760248201527f596f7520646f6e2774206861766520706f6c69636965730000000000000000006044820152606490fd5b34610542575f366003190112610542576020600254604051908152f35b346105425761263236612c48565b600554604051633998fdd360e01b815291906001600160a01b0316602083600481845afa9081156120d05761267e6020926004955f916128ae575b506001600160a01b03163314612d13565b604051634e575d4b60e01b815293849182905afa9182156120d0575f9261288d575b50608081019160016126e16126b485612d75565b946126dc60408601359660046126c989612c7c565b50019060ff801983541691151516179055565b612d75565b15150361282f576040516370a0823160e01b81523060048201526001600160a01b03919091169190602081602481865afa9081156120d0575f916127fb575b5061277f9261273c610c88602093610c826001610c768a612c7c565b9061274686612c7c565b505460405163a9059cbb60e01b81526001600160a01b0390911660048201526024810192909252909384919082905f9082906044820190565b03925af19081156120d0577f2f45553926686d2a9ec600d35f1be18eca3b5bd14fa37dbfa886a92c6fe4353d926127d9926127de575b506127cd60016127c486612c7c565b50015430612ed6565b60405191829182612d82565b0390a2005b6127f69060203d602011610dcf57610dc18183612b86565b6127b5565b90506020813d602011612827575b8161281660209383612b86565b81010312610542575161277f612720565b3d9150612809565b5061283e60016127c484612c7c565b80356001600160a01b0381168103610542577f229be430f7d9e5e210ad1203cf877ccb11cc2352f89daddc654b7d433a5b0962916127cd6127d992600161288487612c7c565b50015490612f6d565b6128a791925060203d602011610631576106218183612b86565b90826126a0565b6128c59150843d8611610631576106218183612b86565b8661266d565b34610542575f366003190112610542576040515f600e546128eb81612b32565b80845290600181169081156129715750600114612913575b6102518361023d81850382612b86565b600e5f9081527fbb7b4a454dc3493923482f07822329ed19e8244eff582cc204f8554c3620c3fd939250905b8082106129575750909150810160200161023d612903565b91926001816020925483858801015201910190929161293f565b60ff191660208086019190915291151560051b8401909101915061023d9050612903565b34610542576040366003190112610542576129ae612b06565b602435903315612a2a576001600160a01b0316908115612a1757335f52600160205260405f20825f526020528060405f20556040519081527f8c5be1e5ebec7d5bd14f71427d1e84f3dd0314c0f7b2291e5b200ac8c7c3b92560203392a3602060405160018152f35b634a1406b160e11b5f525f60045260245ffd5b63e602df0560e01b5f525f60045260245ffd5b34610542575f366003190112610542576040515f600354612a5d81612b32565b80845290600181169081156129715750600114612a84576102518361023d81850382612b86565b60035f9081527fc2575a0e9e593c00f959f8c92f12db2869c3395a3b0502d05e2516446f71f85b939250905b808210612ac85750909150810160200161023d612903565b919260018160209254838588010152019101909291612ab0565b805180835260209291819084018484015e5f828201840152601f01601f1916010190565b600435906001600160a01b038216820361054257565b602435906001600160a01b038216820361054257565b90600182811c92168015612b60575b6020831014612b4c57565b634e487b7160e01b5f52602260045260245ffd5b91607f1691612b41565b60a0810190811067ffffffffffffffff8211176121b557604052565b90601f8019910116810190811067ffffffffffffffff8211176121b557604052565b9060405191825f825492612bbb84612b32565b8084529360018116908115612c265750600114612be2575b50612be092500383612b86565b565b90505f9291925260205f20905f915b818310612c0a575050906020612be0928201015f612bd3565b6020919350806001915483858901015201910190918492612bf1565b905060209250612be094915060ff191682840152151560051b8201015f612bd3565b6020600319820112610542576004359067ffffffffffffffff82116105425760a09082900360031901126105425760040190565b601b54811015612c9857601b5f52600560205f20910201905f90565b634e487b7160e01b5f52603260045260245ffd5b9060018060a01b0382511681526020820151602082015260408201516040820152608080612ce9606085015160a0606086015260a0850190612ae2565b930151151591015290565b9081602091031261054257516001600160a01b03811681036105425790565b15612d1a57565b60405162461bcd60e51b815260206004820152602d60248201527f4f6e6c792073657276696365206d616e616765722063616e20696e766f6b652060448201526c3a3434b990333ab731ba34b7b760991b6064820152608490fd5b3580151581036105425790565b6020815281356001600160a01b0381169081900361054257602082015260208201356040820152604082013560608201526060820135601e1983360301811215610542578201916020833593019067ffffffffffffffff8411610542578336038213610542578360809260a0848601528160c086015260e08501375f60e085850101520135918215158093036105425760e09260a0830152601f8019910116010190565b81810292918115918404141715611bb257565b8115612e43570490565b634e487b7160e01b5f52601260045260245ffd5b90816020910312610542575180151581036105425790565b15612e7657565b60405162461bcd60e51b815260206004820152602560248201527f4f6e6c7920696e73757265722063616e20696e766f6b6520746869732066756e60448201526431ba34b7b760d91b6064820152608490fd5b91908201809211611bb257565b9091906001600160a01b03168015612f5a57805f525f60205260405f2054838110612f40576020845f94957fddf252ad1be2c89b69c2b068fc378daa952ba7f163c4a11628f55a4df523b3ef938587528684520360408620558060025403600255604051908152a3565b915063391434e360e21b5f5260045260245260445260645ffd5b634b637e8f60e11b5f525f60045260245ffd5b6001600160a01b0316908115612fca577fddf252ad1be2c89b69c2b068fc378daa952ba7f163c4a11628f55a4df523b3ef602082612fae5f94600254612ec9565b60025584845283825260408420818154019055604051908152a3565b63ec442f0560e01b5f525f60045260245ffd5b6001600160a01b0316908115612f5a576001600160a01b0316918215612fca57815f525f60205260405f205481811061305b57817fddf252ad1be2c89b69c2b068fc378daa952ba7f163c4a11628f55a4df523b3ef92602092855f525f84520360405f2055845f525f825260405f20818154019055604051908152a3565b8263391434e360e21b5f5260045260245260445260645ffd5b600554604051627ebb0f60e51b815290602090829060049082906001600160a01b03165afa9081156120d0575f916132ff575b506040516323b872dd60e01b81523360048201523060248201526044810183905290602090829060649082905f906001600160a01b03165af180156120d0576132e2575b506130f58161331e565b6002546132d3576131069030612f6d565b600554604051627ebb0f60e51b8152906001600160a01b0316602082600481845afa9182156120d0575f926132ae575b50602060049160405192838092634e575d4b60e01b82525afa9081156120d0575f9161328f575b5060405163095ea7b360e01b81526001600160a01b038281166004830152602482018590529092602091849160449183915f91165af19081156120d0575f92602092613274575b50604051636e553f6560e01b81526004810185905230602482015292839160449183916001600160a01b03165af180156120d057613245575b507f227a473b70d2f893cc7659219575c030a63b5743024fe1e0c1a680e708b1525a6020604051838152a161321481600654612ec9565b6006556040519081527fe1fffcc4923d04b559f4d29a8bfc6cda04eb5b0d3c460751c2402c5c5cc9109c60203392a2565b6020813d60201161326c575b8161325e60209383612b86565b8101031261054257516131dd565b3d9150613251565b61328a90833d8511610dcf57610dc18183612b86565b6131a4565b6132a8915060203d602011610631576106218183612b86565b5f61315d565b60049192506132cb602091823d8411610631576106218183612b86565b929150613136565b6132dd9033612f6d565b613106565b6132fa9060203d602011610dcf57610dc18183612b86565b6130eb565b613318915060203d602011610631576106218183612b86565b5f6130a7565b60025460018101809111611bb2576006549060018201809211611bb257613346828285613358565b61335593505f92509050612ec9565b90565b91818302915f19818509938380861095039480860395146133e857848311156133d05790829109815f0382168092046002816003021880820260020302808202600203028082026002030280820260020302808202600203028091026002030293600183805f03040190848311900302920304170290565b82634e487b715f52156003026011186020526024601cfd5b5050906133559250612e3956fea26469706673582212209184296d90b39d0c598e32836d557b891ef8bdc77f6b62e28c5432d27d0fa88464736f6c634300081c0033a2646970667358221220db21ab7efb23bf508d508218ce3b9e7842e53b4abdada5d25d28a874d6ee7d9864736f6c634300081c003300000000000000000000000094baa979f569edb2f33903d9ccec66b31c9620f5000000000000000000000000654837fe31838bd0391188182a3ecdd402846d3a0000000000000000000000003988af4d734e72f2d155ffe07e9f316a7b6123f90000000000000000000000000000000000000000000000000000000000000005000000000000000000000000000000000000000000000000000000000000000a",
        "nonce": "0x683",
        "chainId": "0x66eee"
      },
      "additionalContracts": [],
      "isFixedGasLimit": false
    },
    {
      "hash": "0xfdc054613aebf6f4b71f0a52f7682e15cbd37224e11cbeb9620c76819d5b2f09",
      "transactionType": "CALL",
      "contractName": null,
      "contractAddress": "0x3988af4d734e72f2d155ffe07e9f316a7b6123f9",
      "function": "initialize(address,string)",
      "arguments": [
        "0x99CFB199C0EAFEe3457224C75a079C86025eae22",
        "04fb611087908d883d10d1b9633a7301b734eb693888b006a543a04429c6430d829bb4d6dd6eda0e2361ff153c398388f4fc2b7a6b640f6dcb083e763b6be1a568"
      ],
      "transaction": {
        "from": "0x34728af7d0fc03cbbdff82b6d52aeda8c999e2b2",
        "to": "0x3988af4d734e72f2d155ffe07e9f316a7b6123f9",
        "gas": "0x3e210",
        "value": "0x0",
        "input": "0xf399e22e00000000000000000000000099cfb199c0eafee3457224c75a079c86025eae220000000000000000000000000000000000000000000000000000000000000040000000000000000000000000000000000000000000000000000000000000008230346662363131303837393038643838336431306431623936333361373330316237333465623639333838386230303661353433613034343239633634333064383239626234643664643665646130653233363166663135336333393833383866346663326237613662363430663664636230383365373633623662653161353638000000000000000000000000000000000000000000000000000000000000",
        "nonce": "0x684",
        "chainId": "0x66eee"
      },
      "additionalContracts": [],
      "isFixedGasLimit": false
    },
    {
      "hash": "0x7070f1bd19ea70b2d73d339f612c0a6c1b9e3869a3ba045c51209bc270ab4479",
      "transactionType": "CALL",
      "contractName": "InsuranceFactory",
      "contractAddress": "0x99cfb199c0eafee3457224c75a079c86025eae22",
      "function": "createInsurancePool(string,string,string,string,string,string,string,string,string,string,uint256,uint256,uint256,uint256,uint256,uint256)",
      "arguments": [
        "Indodax Insurance",
        "IDXI",
        "http://res.cloudinary.com/renakaagusta/raw/upload/v1732642263/indodax.md",
        "https://res.cloudinary.com/renakaagusta/raw/upload/v1732642264/indodax.json",
        "curl -X GET \\'https://api.npoint.io/c9aa3e8003aceb1b9b52\\' --header \\'content-type: application/json\\' --header \\'x-api-key: SECRET_KEY\\'",
        "04278d1a2ff5452c89e714699a77f81627a9a5875104c0809cf9e0f6dacf5a2c0dd840586a64cfa89b2d104107b5cfd8569f965e6f75cc4eac59955f28d7f1cc70570e667caf233e4eacbc8ebf952fa581e53dae7153515992c681d9df58acfb42",
        "04fab08cf72b5eac277e68f04b45e288d2ee68c4f1696e442e8c03ec7274c7d9da83c0dc614b840e518a4d4fd255a7ee8c9cdb04ceba84eea621ac41265c5a5ac80eacdfe3dd294d813774c1a1ccaedf95e967cbaf554b6c577555e4f64fbd265d4dbf5365c722956afe93d7ad66ca2a87090ddc38e504d6388e6a919b347d2655588e6a11231d2406ddce",
        "04927edf4654b8f312250ff8fd6c03cc4fbfdcbfc2d5a27985942bf3921131fac7073d4e9ad43a5c679c3f172e487405aa149b04a6ed907bbbcd33ed2d60cb46720e027bdf21c27ec15469e5f63b1228a75fa641a55b5bcb3feb37dfa050fa987a14c27dca48b92eea19181c325e76d9d3f751018e8743c45fa66fea07f5f0151aab335a14fe29a7ecc2a28c01910fbe5f541ce1f3a1eb4625fbcd824a35503a4d002b",
        "\\\\{\\\"data\\\":\\\\{\\\"rekts\\\":\\\\[(?<extractedValue>.*?)\\\\]\\\\}\\\\}",
        "\\\"projectName\\\"\\\\s*:\\\\s*\\\"Indodax\\\",\\\\s*\\\"fundsLost\\\"\\\\s*:\\\\s*\\\"([0-9]{8,})\\\"",
        "5000000000",
        "3",
        "1732945177",
        "1735537177",
        "1735364377",
        "5000000000000000000"
      ],
      "transaction": {
        "from": "0x34728af7d0fc03cbbdff82b6d52aeda8c999e2b2",
        "to": "0x99cfb199c0eafee3457224c75a079c86025eae22",
        "gas": "0xfc11",
        "value": "0x0",
        "input": "0x507817bb0000000000000000000000000000000000000000000000000000000000000200000000000000000000000000000000000000000000000000000000000000024000000000000000000000000000000000000000000000000000000000000002800000000000000000000000000000000000000000000000000000000000000300000000000000000000000000000000000000000000000000000000000000038000000000000000000000000000000000000000000000000000000000000004400000000000000000000000000000000000000000000000000000000000000540000000000000000000000000000000000000000000000000000000000000068000000000000000000000000000000000000000000000000000000000000008000000000000000000000000000000000000000000000000000000000000000860000000000000000000000000000000000000000000000000000000012a05f200000000000000000000000000000000000000000000000000000000000000000300000000000000000000000000000000000000000000000000000000674aa519000000000000000000000000000000000000000000000000000000006772321900000000000000000000000000000000000000000000000000000000676f8f190000000000000000000000000000000000000000000000004563918244f400000000000000000000000000000000000000000000000000000000000000000011496e646f64617820496e737572616e6365000000000000000000000000000000000000000000000000000000000000000000000000000000000000000000000449445849000000000000000000000000000000000000000000000000000000000000000000000000000000000000000000000000000000000000000000000048687474703a2f2f7265732e636c6f7564696e6172792e636f6d2f72656e616b616167757374612f7261772f75706c6f61642f76313733323634323236332f696e646f6461782e6d64000000000000000000000000000000000000000000000000000000000000000000000000000000000000000000000000000000000000004b68747470733a2f2f7265732e636c6f7564696e6172792e636f6d2f72656e616b616167757374612f7261772f75706c6f61642f76313733323634323236342f696e646f6461782e6a736f6e00000000000000000000000000000000000000000000000000000000000000000000000000000000000000000000000000000000836375726c202d5820474554202768747470733a2f2f6170692e6e706f696e742e696f2f633961613365383030336163656231623962353227202d2d6865616465722027636f6e74656e742d747970653a206170706c69636174696f6e2f6a736f6e27202d2d6865616465722027782d6170692d6b65793a205345435245545f4b455927000000000000000000000000000000000000000000000000000000000000000000000000000000000000000000000000000000000000000000000000c23034323738643161326666353435326338396537313436393961373766383136323761396135383735313034633038303963663965306636646163663561326330646438343035383661363463666138396232643130343130376235636664383536396639363565366637356363346561633539393535663238643766316363373035373065363637636166323333653465616362633865626639353266613538316535336461653731353335313539393263363831643964663538616366623432000000000000000000000000000000000000000000000000000000000000000000000000000000000000000000000000000000000000000000000000011630346661623038636637326235656163323737653638663034623435653238386432656536386334663136393665343432653863303365633732373463376439646138336330646336313462383430653531386134643466643235356137656538633963646230346365626138346565613632316163343132363563356135616338306561636466653364643239346438313337373463316131636361656466393565393637636261663535346236633537373535356534663634666264323635643464626635333635633732323935366166653933643761643636636132613837303930646463333865353034643633383865366139313962333437643236353535383865366131313233316432343036646463650000000000000000000000000000000000000000000000000000000000000000000000000000000001463034393237656466343635346238663331323235306666386664366330336363346662666463626663326435613237393835393432626633393231313331666163373037336434653961643433613563363739633366313732653438373430356161313439623034613665643930376262626364333365643264363063623436373230653032376264663231633237656331353436396535663633623132323861373566613634316135356235626362336665623337646661303530666139383761313463323764636134386239326565613139313831633332356537366439643366373531303138653837343363343566613636666561303766356630313531616162333335613134666532396137656363326132386330313931306662653566353431636531663361316562343632356662636438323461333535303361346430303262000000000000000000000000000000000000000000000000000000000000000000000000000000000000000000000000000000000000000000315c7b2264617461223a5c7b2272656b7473223a5c5b283f3c65787472616374656456616c75653e2e2a3f295c5d5c7d5c7d00000000000000000000000000000000000000000000000000000000000000000000000000000000000000000000402270726f6a6563744e616d65225c732a3a5c732a22496e646f646178222c5c732a2266756e64734c6f7374225c732a3a5c732a22285b302d395d7b382c7d2922",
        "nonce": "0x685",
        "chainId": "0x66eee"
      },
      "additionalContracts": [],
      "isFixedGasLimit": false
    },
    {
      "hash": "0x6e21224e9c4ff6d82a4eff71e90ca35b76fba0d8542a37b923ede36d9ac5e73b",
      "transactionType": "CALL",
      "contractName": null,
      "contractAddress": "0x94baa979f569edb2f33903d9ccec66b31c9620f5",
      "function": "approve(address,uint256)",
      "arguments": [
        "0x6610C4a863eE6d7782b9aE6617aC3A79143dd351",
        "15000000000000000000"
      ],
      "transaction": {
        "from": "0x34728af7d0fc03cbbdff82b6d52aeda8c999e2b2",
        "to": "0x94baa979f569edb2f33903d9ccec66b31c9620f5",
        "gas": "0xef03",
        "value": "0x0",
        "input": "0x095ea7b30000000000000000000000006610c4a863ee6d7782b9ae6617ac3a79143dd351000000000000000000000000000000000000000000000000d02ab486cedc0000",
        "nonce": "0x686",
        "chainId": "0x66eee"
      },
      "additionalContracts": [],
      "isFixedGasLimit": false
    },
    {
      "hash": "0x5217a61890ead6888e4a0b487851df7ff3c5c02f4a81baa897bf5b8866570e55",
      "transactionType": "CALL",
      "contractName": "InsurancePool",
      "contractAddress": "0x6610c4a863ee6d7782b9ae6617ac3a79143dd351",
      "function": "initialDeposit()",
      "arguments": [],
      "transaction": {
        "from": "0x34728af7d0fc03cbbdff82b6d52aeda8c999e2b2",
        "to": "0x6610c4a863ee6d7782b9ae6617ac3a79143dd351",
        "gas": "0x6e5c",
        "value": "0x0",
        "input": "0xe037f889",
        "nonce": "0x687",
        "chainId": "0x66eee"
      },
      "additionalContracts": [],
      "isFixedGasLimit": false
    },
    {
      "hash": "0xe8e0497719f231b221501921841b1c3c973fae44daa65b4c702d6feaae75f00e",
      "transactionType": "CALL",
      "contractName": null,
      "contractAddress": "0x94baa979f569edb2f33903d9ccec66b31c9620f5",
      "function": "approve(address,uint256)",
      "arguments": [
        "0x6610C4a863eE6d7782b9aE6617aC3A79143dd351",
        "2000000000000000000"
      ],
      "transaction": {
        "from": "0x94c83a5137751c4e6acc0cfdb09819b0b83582d1",
        "to": "0x94baa979f569edb2f33903d9ccec66b31c9620f5",
        "gas": "0xef03",
        "value": "0x0",
        "input": "0x095ea7b30000000000000000000000006610c4a863ee6d7782b9ae6617ac3a79143dd3510000000000000000000000000000000000000000000000001bc16d674ec80000",
        "nonce": "0x4c",
        "chainId": "0x66eee"
      },
      "additionalContracts": [],
      "isFixedGasLimit": false
    },
    {
      "hash": "0xdbf39e1a39660eac5d8efce6b068c28bbf40f8478cdbfa54c695219e264c87e1",
      "transactionType": "CALL",
      "contractName": "InsurancePool",
      "contractAddress": "0x6610c4a863ee6d7782b9ae6617ac3a79143dd351",
      "function": "purchasePolicy(uint256,uint256,address)",
      "arguments": [
        "2000000000000000000",
        "2000000000000000000",
        "0x94c83a5137751C4E6acc0cFdB09819B0B83582D1"
      ],
      "transaction": {
        "from": "0x94c83a5137751c4e6acc0cfdb09819b0b83582d1",
        "to": "0x6610c4a863ee6d7782b9ae6617ac3a79143dd351",
        "gas": "0x74d3",
        "value": "0x0",
        "input": "0x6178e44c0000000000000000000000000000000000000000000000001bc16d674ec800000000000000000000000000000000000000000000000000001bc16d674ec8000000000000000000000000000094c83a5137751c4e6acc0cfdb09819b0b83582d1",
        "nonce": "0x4d",
        "chainId": "0x66eee"
      },
      "additionalContracts": [],
      "isFixedGasLimit": false
    },
    {
      "hash": "0xe44dce05d2361c8ceff8a412afacaf06833b4ea1d0316f50582905ceb0df9877",
      "transactionType": "CALL",
      "contractName": null,
      "contractAddress": "0x94baa979f569edb2f33903d9ccec66b31c9620f5",
      "function": "approve(address,uint256)",
      "arguments": [
        "0x6610C4a863eE6d7782b9aE6617aC3A79143dd351",
        "5000000005"
      ],
      "transaction": {
        "from": "0x94c83a5137751c4e6acc0cfdb09819b0b83582d1",
        "to": "0x94baa979f569edb2f33903d9ccec66b31c9620f5",
        "gas": "0xeef3",
        "value": "0x0",
        "input": "0x095ea7b30000000000000000000000006610c4a863ee6d7782b9ae6617ac3a79143dd351000000000000000000000000000000000000000000000000000000012a05f205",
        "nonce": "0x4e",
        "chainId": "0x66eee"
      },
      "additionalContracts": [],
      "isFixedGasLimit": false
    },
    {
      "hash": "0xa7a56c8eb15bc617dabee83e8113e18821a54c32504b81e001d2e11de698e96b",
      "transactionType": "CALL",
      "contractName": "InsurancePool",
      "contractAddress": "0x6610c4a863ee6d7782b9ae6617ac3a79143dd351",
      "function": "submitClaim()",
      "arguments": [],
      "transaction": {
        "from": "0x94c83a5137751c4e6acc0cfdb09819b0b83582d1",
        "to": "0x6610c4a863ee6d7782b9ae6617ac3a79143dd351",
        "gas": "0x6e5c",
        "value": "0x0",
        "input": "0x1afbd128",
        "nonce": "0x4f",
        "chainId": "0x66eee"
      },
      "additionalContracts": [],
      "isFixedGasLimit": false
    }
  ],
  "receipts": [
    {
      "status": "0x1",
      "cumulativeGasUsed": "0x5d17e",
      "logs": [
        {
          "address": "0x94baa979f569edb2f33903d9ccec66b31c9620f5",
          "topics": [
            "0xddf252ad1be2c89b69c2b068fc378daa952ba7f163c4a11628f55a4df523b3ef",
            "0x0000000000000000000000000000000000000000000000000000000000000000",
            "0x00000000000000000000000034728af7d0fc03cbbdff82b6d52aeda8c999e2b2"
          ],
          "data": "0x0000000000000000000000000000000000000000000000008ac7230489e80000",
          "blockHash": "0x739b14838273edb4e6e01359ecaa37f129b5a981855f7c49a3a20f8506325cdc",
          "blockNumber": "0x61428d5",
          "transactionHash": "0x24b829cf8446894e1a5fb9278b4c319bd05d84cb9c2c6ae6ded007bd21ea10d2",
          "transactionIndex": "0x3",
          "logIndex": "0x3",
          "removed": false
        }
      ],
      "logsBloom": "0x00000000000000000000000000000000000000000000000000000000000000000000000000000000000000000000000000000000001000000000020000000000000000000000000040000008000000000000000000000000000000000000000000000000020000000000000000000800000000000000000100000010000000000000000000000000000000000000000000000000000000000000000000000000000000000000000000000000000000000000000000000000000000000000000000000002000000000000000000000000000200000000200000000000000020000000000000000000000000000000000000000000000000000000000000000000",
      "type": "0x2",
      "transactionHash": "0x24b829cf8446894e1a5fb9278b4c319bd05d84cb9c2c6ae6ded007bd21ea10d2",
      "transactionIndex": "0x3",
      "blockHash": "0x739b14838273edb4e6e01359ecaa37f129b5a981855f7c49a3a20f8506325cdc",
      "blockNumber": "0x61428d5",
      "gasUsed": "0x8f05",
      "effectiveGasPrice": "0x5f5e100",
      "from": "0x34728af7d0fc03cbbdff82b6d52aeda8c999e2b2",
      "to": "0x94baa979f569edb2f33903d9ccec66b31c9620f5",
      "contractAddress": null,
      "gasUsedForL1": "0x238",
      "l1BlockNumber": "0x6d949d"
    },
    {
      "status": "0x1",
      "cumulativeGasUsed": "0x529b4",
      "logs": [
        {
          "address": "0x94baa979f569edb2f33903d9ccec66b31c9620f5",
          "topics": [
            "0x8c5be1e5ebec7d5bd14f71427d1e84f3dd0314c0f7b2291e5b200ac8c7c3b925",
            "0x00000000000000000000000034728af7d0fc03cbbdff82b6d52aeda8c999e2b2",
            "0x000000000000000000000000654837fe31838bd0391188182a3ecdd402846d3a"
          ],
          "data": "0x0000000000000000000000000000000000000000000000008ac7230489e80000",
          "blockHash": "0xfe499256c212b1216187ea43822da8f5b62f235504e8d73e74c0b32562f4d7f0",
          "blockNumber": "0x61428db",
          "transactionHash": "0x72c08b6f004508ec4b1703280dbb6e140e7695661d2eb074f2776aa82e1deeb8",
          "transactionIndex": "0x3",
          "logIndex": "0x3",
          "removed": false
        }
      ],
      "logsBloom": "0x00000000000000000000000000000000000000000000000000000000000000000000000000000000000000000000000000000000001000000000020000200000000000000000000040000000000000000000000000000000000000000000000000000000000000000000000000000000000000000000000100000000002000000000000000000000000000000000000000000000000000000000000000000800020000000000000000000000000000000000000000000000000000000000000000000000000000000000000000000000000200000000200000000000000000000010000000000000000000000000000000000000000000000000800000000000",
      "type": "0x2",
      "transactionHash": "0x72c08b6f004508ec4b1703280dbb6e140e7695661d2eb074f2776aa82e1deeb8",
      "transactionIndex": "0x3",
      "blockHash": "0xfe499256c212b1216187ea43822da8f5b62f235504e8d73e74c0b32562f4d7f0",
      "blockNumber": "0x61428db",
      "gasUsed": "0xb5bd",
      "effectiveGasPrice": "0x5f5e100",
      "from": "0x34728af7d0fc03cbbdff82b6d52aeda8c999e2b2",
      "to": "0x94baa979f569edb2f33903d9ccec66b31c9620f5",
      "contractAddress": null,
      "gasUsedForL1": "0x238",
      "l1BlockNumber": "0x6d949d"
    },
    {
      "status": "0x1",
      "cumulativeGasUsed": "0x4732e",
      "logs": [
        {
          "address": "0x94baa979f569edb2f33903d9ccec66b31c9620f5",
          "topics": [
            "0xddf252ad1be2c89b69c2b068fc378daa952ba7f163c4a11628f55a4df523b3ef",
            "0x00000000000000000000000034728af7d0fc03cbbdff82b6d52aeda8c999e2b2",
            "0x000000000000000000000000654837fe31838bd0391188182a3ecdd402846d3a"
          ],
          "data": "0x0000000000000000000000000000000000000000000000008ac7230489e80000",
          "blockHash": "0xe0f67afa7d07af9dc887c0b958aeabbfe404809cc0d3202df7c6719e31c4c7cf",
          "blockNumber": "0x61428e1",
          "transactionHash": "0xf17d75348c9d31ff0d4f65c6696ac30e3d8a5a222e67f6b591d5eb0aa82e63aa",
          "transactionIndex": "0x2",
          "logIndex": "0x2",
          "removed": false
        },
        {
          "address": "0x654837fe31838bd0391188182a3ecdd402846d3a",
          "topics": [
            "0xddf252ad1be2c89b69c2b068fc378daa952ba7f163c4a11628f55a4df523b3ef",
            "0x0000000000000000000000000000000000000000000000000000000000000000",
            "0x00000000000000000000000034728af7d0fc03cbbdff82b6d52aeda8c999e2b2"
          ],
          "data": "0x0000000000000000000000000000000000000000000000008ac7230489e80000",
          "blockHash": "0xe0f67afa7d07af9dc887c0b958aeabbfe404809cc0d3202df7c6719e31c4c7cf",
          "blockNumber": "0x61428e1",
          "transactionHash": "0xf17d75348c9d31ff0d4f65c6696ac30e3d8a5a222e67f6b591d5eb0aa82e63aa",
          "transactionIndex": "0x2",
          "logIndex": "0x3",
          "removed": false
        },
        {
          "address": "0x654837fe31838bd0391188182a3ecdd402846d3a",
          "topics": [
            "0xdcbc1c05240f31ff3ad067ef1ee35ce4997762752e3a095284754544f4c709d7",
            "0x00000000000000000000000034728af7d0fc03cbbdff82b6d52aeda8c999e2b2",
            "0x00000000000000000000000034728af7d0fc03cbbdff82b6d52aeda8c999e2b2"
          ],
          "data": "0x0000000000000000000000000000000000000000000000008ac7230489e800000000000000000000000000000000000000000000000000008ac7230489e80000",
          "blockHash": "0xe0f67afa7d07af9dc887c0b958aeabbfe404809cc0d3202df7c6719e31c4c7cf",
          "blockNumber": "0x61428e1",
          "transactionHash": "0xf17d75348c9d31ff0d4f65c6696ac30e3d8a5a222e67f6b591d5eb0aa82e63aa",
          "transactionIndex": "0x2",
          "logIndex": "0x4",
          "removed": false
        }
      ],
      "logsBloom": "0x00000000000000000000000000000000000000000000000000000000000000000000000000000000000000000000000000000000001000000000020000000000000000400000000040000008000000000000000000000000000000000000000000000000020000000000000000000800000000000004000100000010002000000000000000000000000000000000000000000000000000000000000000000800000000000000000000000000000000000000000000000000000000000000000000000002000400000000000000000000000200000008200000000000000020000000000000000000000000000040000000000000000000000400800000000000",
      "type": "0x2",
      "transactionHash": "0xf17d75348c9d31ff0d4f65c6696ac30e3d8a5a222e67f6b591d5eb0aa82e63aa",
      "transactionIndex": "0x2",
      "blockHash": "0xe0f67afa7d07af9dc887c0b958aeabbfe404809cc0d3202df7c6719e31c4c7cf",
      "blockNumber": "0x61428e1",
      "gasUsed": "0xd414",
      "effectiveGasPrice": "0x5f5e100",
      "from": "0x34728af7d0fc03cbbdff82b6d52aeda8c999e2b2",
      "to": "0x654837fe31838bd0391188182a3ecdd402846d3a",
      "contractAddress": null,
      "gasUsedForL1": "0x23b",
      "l1BlockNumber": "0x6d949d"
    },
    {
      "status": "0x1",
      "cumulativeGasUsed": "0x29cd5",
      "logs": [
        {
          "address": "0x94baa979f569edb2f33903d9ccec66b31c9620f5",
          "topics": [
            "0xddf252ad1be2c89b69c2b068fc378daa952ba7f163c4a11628f55a4df523b3ef",
            "0x00000000000000000000000034728af7d0fc03cbbdff82b6d52aeda8c999e2b2",
            "0x00000000000000000000000094c83a5137751c4e6acc0cfdb09819b0b83582d1"
          ],
          "data": "0x0000000000000000000000000000000000000000000000000de0b6b3a7640000",
          "blockHash": "0x78ffe843778b3875f40a1fb8e579c9f4e4b29c29d420c5ee1f35aa6be20d7ecd",
          "blockNumber": "0x61428e7",
          "transactionHash": "0x3cefdce97981590ef7b0b76629233040cf38ff64d416f4a1257996ea4bd9e158",
          "transactionIndex": "0x2",
          "logIndex": "0x1",
          "removed": false
        }
      ],
      "logsBloom": "0x00000000000000000000000000000000000000000000000000000000000020000000000000000000000000000000000000000000001000000000020000000000000000000000000040000008000000000000000000000000000000000000000000000000000000000000000000000000000000000000000100000010000000000000000000000000000000000000000000000000000000000000000000000000000000000000000000000000000000000000000000000000000000000000000000000002000000000000000000000000000200000000200000000000000000000002000000000000000000000000000000000000000000000010000000000000",
      "type": "0x2",
      "transactionHash": "0x3cefdce97981590ef7b0b76629233040cf38ff64d416f4a1257996ea4bd9e158",
      "transactionIndex": "0x2",
      "blockHash": "0x78ffe843778b3875f40a1fb8e579c9f4e4b29c29d420c5ee1f35aa6be20d7ecd",
      "blockNumber": "0x61428e7",
      "gasUsed": "0x87c0",
      "effectiveGasPrice": "0x5f5e100",
      "from": "0x34728af7d0fc03cbbdff82b6d52aeda8c999e2b2",
      "to": "0x94baa979f569edb2f33903d9ccec66b31c9620f5",
      "contractAddress": null,
      "gasUsedForL1": "0x238",
      "l1BlockNumber": "0x6d949e"
    },
    {
      "status": "0x1",
      "cumulativeGasUsed": "0x4bd8fa",
      "logs": [],
      "logsBloom": "0x00000000000000000000000000000000000000000000000000000000000000000000000000000000000000000000000000000000000000000000000000000000000000000000000000000000000000000000000000000000000000000000000000000000000000000000000000000000000000000000000000000000000000000000000000000000000000000000000000000000000000000000000000000000000000000000000000000000000000000000000000000000000000000000000000000000000000000000000000000000000000000000000000000000000000000000000000000000000000000000000000000000000000000000000000000000",
      "type": "0x2",
      "transactionHash": "0x8f47699cfce901391d0435f7b30e971815ae264d08f28e6e3b24e515a977e16f",
      "transactionIndex": "0x4",
      "blockHash": "0x2b7c9b2961d46f8f8d1ab8dd6453d546e65856c489b8abe9026d2477b549e730",
      "blockNumber": "0x61428ef",
      "gasUsed": "0x472b91",
      "effectiveGasPrice": "0x5f5e100",
      "from": "0x34728af7d0fc03cbbdff82b6d52aeda8c999e2b2",
      "to": null,
      "contractAddress": "0x99cfb199c0eafee3457224c75a079c86025eae22",
      "gasUsedForL1": "0x7b11",
      "l1BlockNumber": "0x6d949e"
    },
    {
      "status": "0x1",
      "cumulativeGasUsed": "0x690ce",
      "logs": [
        {
          "address": "0x3988af4d734e72f2d155ffe07e9f316a7b6123f9",
          "topics": [
            "0xe67ddf372291fd94b39c4645817076a797a73cfdfbbf169187f7e5c374dfaeb0"
          ],
          "data": "0x00000000000000000000000099cfb199c0eafee3457224c75a079c86025eae220000000000000000000000000000000000000000000000000000000000000040000000000000000000000000000000000000000000000000000000000000008230346662363131303837393038643838336431306431623936333361373330316237333465623639333838386230303661353433613034343239633634333064383239626234643664643665646130653233363166663135336333393833383866346663326237613662363430663664636230383365373633623662653161353638000000000000000000000000000000000000000000000000000000000000",
          "blockHash": "0x60d1f27fdbd3e174907d11851e4a519edae72f77f6492108a5f0f9b1d256f31b",
          "blockNumber": "0x61428f5",
          "transactionHash": "0xfdc054613aebf6f4b71f0a52f7682e15cbd37224e11cbeb9620c76819d5b2f09",
          "transactionIndex": "0x2",
          "logIndex": "0x2",
          "removed": false
        }
      ],
      "logsBloom": "0x00000000000000000000000000000000000100000000000000000000000000000000000000000000000000000000000000000000000000000000000000000000000000000000000000000000000000000000000000000000040000000000000000000000000000000002000000000000000000000000000000020000000000000000000000000000000000000000000000000000000000000000000000000000000000000000000000002000000000000000000000000000000000000000000000000000000000000000000000000000000000000000000000000000000000000000000000000000000000000000000000000000000000000000000000000008",
      "type": "0x2",
      "transactionHash": "0xfdc054613aebf6f4b71f0a52f7682e15cbd37224e11cbeb9620c76819d5b2f09",
      "transactionIndex": "0x2",
      "blockHash": "0x60d1f27fdbd3e174907d11851e4a519edae72f77f6492108a5f0f9b1d256f31b",
      "blockNumber": "0x61428f5",
      "gasUsed": "0x2f13a",
      "effectiveGasPrice": "0x5f5e100",
      "from": "0x34728af7d0fc03cbbdff82b6d52aeda8c999e2b2",
      "to": "0x3988af4d734e72f2d155ffe07e9f316a7b6123f9",
      "contractAddress": null,
      "gasUsedForL1": "0x448",
      "l1BlockNumber": "0x6d949e"
    },
    {
      "status": "0x1",
      "cumulativeGasUsed": "0x455ad9",
      "logs": [
        {
          "address": "0x99cfb199c0eafee3457224c75a079c86025eae22",
          "topics": [
            "0xdb952deb284a7ca1809707c5a72df8b398c71835d54ca9755ffe994e8baa2aa1",
            "0x00000000000000000000000034728af7d0fc03cbbdff82b6d52aeda8c999e2b2",
            "0x0000000000000000000000006610c4a863ee6d7782b9ae6617ac3a79143dd351"
          ],
          "data": "0x0000000000000000000000000000000000000000000000000000000000000200000000000000000000000000000000000000000000000000000000000000024000000000000000000000000000000000000000000000000000000000000002800000000000000000000000000000000000000000000000000000000000000300000000000000000000000000000000000000000000000000000000000000038000000000000000000000000000000000000000000000000000000000000004400000000000000000000000000000000000000000000000000000000000000540000000000000000000000000000000000000000000000000000000000000068000000000000000000000000000000000000000000000000000000000000008000000000000000000000000000000000000000000000000000000000000000860000000000000000000000000000000000000000000000000000000012a05f200000000000000000000000000000000000000000000000000000000000000000300000000000000000000000000000000000000000000000000000000674aa519000000000000000000000000000000000000000000000000000000006772321900000000000000000000000000000000000000000000000000000000676f8f190000000000000000000000000000000000000000000000004563918244f400000000000000000000000000000000000000000000000000000000000000000011496e646f64617820496e737572616e6365000000000000000000000000000000000000000000000000000000000000000000000000000000000000000000000449445849000000000000000000000000000000000000000000000000000000000000000000000000000000000000000000000000000000000000000000000048687474703a2f2f7265732e636c6f7564696e6172792e636f6d2f72656e616b616167757374612f7261772f75706c6f61642f76313733323634323236332f696e646f6461782e6d64000000000000000000000000000000000000000000000000000000000000000000000000000000000000000000000000000000000000004b68747470733a2f2f7265732e636c6f7564696e6172792e636f6d2f72656e616b616167757374612f7261772f75706c6f61642f76313733323634323236342f696e646f6461782e6a736f6e00000000000000000000000000000000000000000000000000000000000000000000000000000000000000000000000000000000836375726c202d5820474554202768747470733a2f2f6170692e6e706f696e742e696f2f633961613365383030336163656231623962353227202d2d6865616465722027636f6e74656e742d747970653a206170706c69636174696f6e2f6a736f6e27202d2d6865616465722027782d6170692d6b65793a205345435245545f4b455927000000000000000000000000000000000000000000000000000000000000000000000000000000000000000000000000000000000000000000000000c23034323738643161326666353435326338396537313436393961373766383136323761396135383735313034633038303963663965306636646163663561326330646438343035383661363463666138396232643130343130376235636664383536396639363565366637356363346561633539393535663238643766316363373035373065363637636166323333653465616362633865626639353266613538316535336461653731353335313539393263363831643964663538616366623432000000000000000000000000000000000000000000000000000000000000000000000000000000000000000000000000000000000000000000000000011630346661623038636637326235656163323737653638663034623435653238386432656536386334663136393665343432653863303365633732373463376439646138336330646336313462383430653531386134643466643235356137656538633963646230346365626138346565613632316163343132363563356135616338306561636466653364643239346438313337373463316131636361656466393565393637636261663535346236633537373535356534663634666264323635643464626635333635633732323935366166653933643761643636636132613837303930646463333865353034643633383865366139313962333437643236353535383865366131313233316432343036646463650000000000000000000000000000000000000000000000000000000000000000000000000000000001463034393237656466343635346238663331323235306666386664366330336363346662666463626663326435613237393835393432626633393231313331666163373037336434653961643433613563363739633366313732653438373430356161313439623034613665643930376262626364333365643264363063623436373230653032376264663231633237656331353436396535663633623132323861373566613634316135356235626362336665623337646661303530666139383761313463323764636134386239326565613139313831633332356537366439643366373531303138653837343363343566613636666561303766356630313531616162333335613134666532396137656363326132386330313931306662653566353431636531663361316562343632356662636438323461333535303361346430303262000000000000000000000000000000000000000000000000000000000000000000000000000000000000000000000000000000000000000000315c7b2264617461223a5c7b2272656b7473223a5c5b283f3c65787472616374656456616c75653e2e2a3f295c5d5c7d5c7d00000000000000000000000000000000000000000000000000000000000000000000000000000000000000000000402270726f6a6563744e616d65225c732a3a5c732a22496e646f646178222c5c732a2266756e64734c6f7374225c732a3a5c732a22285b302d395d7b382c7d2922",
          "blockHash": "0x31faacccd41d431f05dfe4b329d127a6a1a8f1d352dc22f0f9c27ae8507baff0",
          "blockNumber": "0x61428fb",
          "transactionHash": "0x7070f1bd19ea70b2d73d339f612c0a6c1b9e3869a3ba045c51209bc270ab4479",
          "transactionIndex": "0x3",
          "logIndex": "0x3",
          "removed": false
        }
      ],
      "logsBloom": "0x00000000000000000000000000000000000000000000000000000000000000000000000000000000000000000000000000008000001000000000000000000000000000000000000040000000000000000000000000000000000000000000000000000000000000000000000000000000000000000000000000000000000000000000000000000000000000000000000000000000000000000000000000000100000004000000000000000000000100040000000000000000000008000000000000004000000000000000000000000000000000000000200000000000000000000000000000000000000008000000000000008000000000000000000000000000",
      "type": "0x2",
      "transactionHash": "0x7070f1bd19ea70b2d73d339f612c0a6c1b9e3869a3ba045c51209bc270ab4479",
      "transactionIndex": "0x3",
      "blockHash": "0x31faacccd41d431f05dfe4b329d127a6a1a8f1d352dc22f0f9c27ae8507baff0",
      "blockNumber": "0x61428fb",
      "gasUsed": "0x40a744",
      "effectiveGasPrice": "0x5f5e100",
      "from": "0x34728af7d0fc03cbbdff82b6d52aeda8c999e2b2",
      "to": "0x99cfb199c0eafee3457224c75a079c86025eae22",
      "contractAddress": null,
      "gasUsedForL1": "0xdf7",
      "l1BlockNumber": "0x6d949e"
    },
    {
      "status": "0x1",
      "cumulativeGasUsed": "0x454f7",
      "logs": [
        {
          "address": "0x94baa979f569edb2f33903d9ccec66b31c9620f5",
          "topics": [
            "0x8c5be1e5ebec7d5bd14f71427d1e84f3dd0314c0f7b2291e5b200ac8c7c3b925",
            "0x00000000000000000000000034728af7d0fc03cbbdff82b6d52aeda8c999e2b2",
            "0x0000000000000000000000006610c4a863ee6d7782b9ae6617ac3a79143dd351"
          ],
          "data": "0x000000000000000000000000000000000000000000000000d02ab486cedc0000",
          "blockHash": "0x0bcde17adaa869e83d6fd226615dfe36add82b3ad1a526a1cb9a7d0846281785",
          "blockNumber": "0x6142901",
          "transactionHash": "0x6e21224e9c4ff6d82a4eff71e90ca35b76fba0d8542a37b923ede36d9ac5e73b",
          "transactionIndex": "0x2",
          "logIndex": "0x2",
          "removed": false
        }
      ],
      "logsBloom": "0x00000000000000000000000000000000000000000000000000000000000000000000000000000000000000000000000000000000001000000000020000200000000000000000000040000000000000000000000000000000000000000000000000000000000000000000000000000000000000000000000100000000000000000000000000000000000000000000000000000000000000000000000000000000020004000000000000000000000000000000000000000000000000000000000000004000000000000000000000000000000200000000200000000000000000000010000000000000000008000000000000000000000000000000000000000000",
      "type": "0x2",
      "transactionHash": "0x6e21224e9c4ff6d82a4eff71e90ca35b76fba0d8542a37b923ede36d9ac5e73b",
      "transactionIndex": "0x2",
      "blockHash": "0x0bcde17adaa869e83d6fd226615dfe36add82b3ad1a526a1cb9a7d0846281785",
      "blockNumber": "0x6142901",
      "gasUsed": "0xb5bd",
      "effectiveGasPrice": "0x5f5e100",
      "from": "0x34728af7d0fc03cbbdff82b6d52aeda8c999e2b2",
      "to": "0x94baa979f569edb2f33903d9ccec66b31c9620f5",
      "contractAddress": null,
      "gasUsedForL1": "0x238",
      "l1BlockNumber": "0x6d949e"
    },
    {
      "status": "0x1",
      "cumulativeGasUsed": "0x70cb4",
      "logs": [
        {
          "address": "0x94baa979f569edb2f33903d9ccec66b31c9620f5",
          "topics": [
            "0xddf252ad1be2c89b69c2b068fc378daa952ba7f163c4a11628f55a4df523b3ef",
            "0x00000000000000000000000034728af7d0fc03cbbdff82b6d52aeda8c999e2b2",
            "0x0000000000000000000000006610c4a863ee6d7782b9ae6617ac3a79143dd351"
          ],
          "data": "0x000000000000000000000000000000000000000000000000d02ab486cedc0000",
          "blockHash": "0xd6e8845eea1679c6da85688e2fc4d14f31fe83e9e1e306d4cf591c368d877fb5",
          "blockNumber": "0x6142907",
          "transactionHash": "0x5217a61890ead6888e4a0b487851df7ff3c5c02f4a81baa897bf5b8866570e55",
          "transactionIndex": "0x2",
          "logIndex": "0x2",
          "removed": false
        },
        {
          "address": "0x6610c4a863ee6d7782b9ae6617ac3a79143dd351",
          "topics": [
            "0xddf252ad1be2c89b69c2b068fc378daa952ba7f163c4a11628f55a4df523b3ef",
            "0x0000000000000000000000000000000000000000000000000000000000000000",
            "0x0000000000000000000000006610c4a863ee6d7782b9ae6617ac3a79143dd351"
          ],
          "data": "0x000000000000000000000000000000000000000000000000d02ab486cedc0000",
          "blockHash": "0xd6e8845eea1679c6da85688e2fc4d14f31fe83e9e1e306d4cf591c368d877fb5",
          "blockNumber": "0x6142907",
          "transactionHash": "0x5217a61890ead6888e4a0b487851df7ff3c5c02f4a81baa897bf5b8866570e55",
          "transactionIndex": "0x2",
          "logIndex": "0x3",
          "removed": false
        },
        {
          "address": "0x94baa979f569edb2f33903d9ccec66b31c9620f5",
          "topics": [
            "0x8c5be1e5ebec7d5bd14f71427d1e84f3dd0314c0f7b2291e5b200ac8c7c3b925",
            "0x0000000000000000000000006610c4a863ee6d7782b9ae6617ac3a79143dd351",
            "0x000000000000000000000000654837fe31838bd0391188182a3ecdd402846d3a"
          ],
          "data": "0x000000000000000000000000000000000000000000000000d02ab486cedc0000",
          "blockHash": "0xd6e8845eea1679c6da85688e2fc4d14f31fe83e9e1e306d4cf591c368d877fb5",
          "blockNumber": "0x6142907",
          "transactionHash": "0x5217a61890ead6888e4a0b487851df7ff3c5c02f4a81baa897bf5b8866570e55",
          "transactionIndex": "0x2",
          "logIndex": "0x4",
          "removed": false
        },
        {
          "address": "0x94baa979f569edb2f33903d9ccec66b31c9620f5",
          "topics": [
            "0xddf252ad1be2c89b69c2b068fc378daa952ba7f163c4a11628f55a4df523b3ef",
            "0x0000000000000000000000006610c4a863ee6d7782b9ae6617ac3a79143dd351",
            "0x000000000000000000000000654837fe31838bd0391188182a3ecdd402846d3a"
          ],
          "data": "0x000000000000000000000000000000000000000000000000d02ab486cedc0000",
          "blockHash": "0xd6e8845eea1679c6da85688e2fc4d14f31fe83e9e1e306d4cf591c368d877fb5",
          "blockNumber": "0x6142907",
          "transactionHash": "0x5217a61890ead6888e4a0b487851df7ff3c5c02f4a81baa897bf5b8866570e55",
          "transactionIndex": "0x2",
          "logIndex": "0x5",
          "removed": false
        },
        {
          "address": "0x654837fe31838bd0391188182a3ecdd402846d3a",
          "topics": [
            "0xddf252ad1be2c89b69c2b068fc378daa952ba7f163c4a11628f55a4df523b3ef",
            "0x0000000000000000000000000000000000000000000000000000000000000000",
            "0x0000000000000000000000006610c4a863ee6d7782b9ae6617ac3a79143dd351"
          ],
          "data": "0x000000000000000000000000000000000000000000000000d02ab486cedc0000",
          "blockHash": "0xd6e8845eea1679c6da85688e2fc4d14f31fe83e9e1e306d4cf591c368d877fb5",
          "blockNumber": "0x6142907",
          "transactionHash": "0x5217a61890ead6888e4a0b487851df7ff3c5c02f4a81baa897bf5b8866570e55",
          "transactionIndex": "0x2",
          "logIndex": "0x6",
          "removed": false
        },
        {
          "address": "0x654837fe31838bd0391188182a3ecdd402846d3a",
          "topics": [
            "0xdcbc1c05240f31ff3ad067ef1ee35ce4997762752e3a095284754544f4c709d7",
            "0x0000000000000000000000006610c4a863ee6d7782b9ae6617ac3a79143dd351",
            "0x0000000000000000000000006610c4a863ee6d7782b9ae6617ac3a79143dd351"
          ],
          "data": "0x000000000000000000000000000000000000000000000000d02ab486cedc0000000000000000000000000000000000000000000000000000d02ab486cedc0000",
          "blockHash": "0xd6e8845eea1679c6da85688e2fc4d14f31fe83e9e1e306d4cf591c368d877fb5",
          "blockNumber": "0x6142907",
          "transactionHash": "0x5217a61890ead6888e4a0b487851df7ff3c5c02f4a81baa897bf5b8866570e55",
          "transactionIndex": "0x2",
          "logIndex": "0x7",
          "removed": false
        },
        {
          "address": "0x6610c4a863ee6d7782b9ae6617ac3a79143dd351",
          "topics": [
            "0x227a473b70d2f893cc7659219575c030a63b5743024fe1e0c1a680e708b1525a"
          ],
          "data": "0x000000000000000000000000000000000000000000000000d02ab486cedc0000",
          "blockHash": "0xd6e8845eea1679c6da85688e2fc4d14f31fe83e9e1e306d4cf591c368d877fb5",
          "blockNumber": "0x6142907",
          "transactionHash": "0x5217a61890ead6888e4a0b487851df7ff3c5c02f4a81baa897bf5b8866570e55",
          "transactionIndex": "0x2",
          "logIndex": "0x8",
          "removed": false
        },
        {
          "address": "0x6610c4a863ee6d7782b9ae6617ac3a79143dd351",
          "topics": [
            "0xe1fffcc4923d04b559f4d29a8bfc6cda04eb5b0d3c460751c2402c5c5cc9109c",
            "0x00000000000000000000000034728af7d0fc03cbbdff82b6d52aeda8c999e2b2"
          ],
          "data": "0x000000000000000000000000000000000000000000000000d02ab486cedc0000",
          "blockHash": "0xd6e8845eea1679c6da85688e2fc4d14f31fe83e9e1e306d4cf591c368d877fb5",
          "blockNumber": "0x6142907",
          "transactionHash": "0x5217a61890ead6888e4a0b487851df7ff3c5c02f4a81baa897bf5b8866570e55",
          "transactionIndex": "0x2",
          "logIndex": "0x9",
          "removed": false
        }
      ],
      "logsBloom": "0x00000000000000000000000000000000000000000000000000000000000000000000000000000000000000000000000000000000001000000000020000200000000000400000000040000808000000000000000000000000000000008000000000000000020000000000000000000800000000000004000100000010022000000000000000000000000000000000000000000001000000000000000000000800020004000000000000000000000001000000000000000004000000000000000000004002000400000000000000000000000200000008200000800000000020000010000000000000000008000040000000008000000000400400800000000000",
      "type": "0x2",
      "transactionHash": "0x5217a61890ead6888e4a0b487851df7ff3c5c02f4a81baa897bf5b8866570e55",
      "transactionIndex": "0x2",
      "blockHash": "0xd6e8845eea1679c6da85688e2fc4d14f31fe83e9e1e306d4cf591c368d877fb5",
      "blockNumber": "0x6142907",
      "gasUsed": "0x36dce",
      "effectiveGasPrice": "0x5f5e100",
      "from": "0x34728af7d0fc03cbbdff82b6d52aeda8c999e2b2",
      "to": "0x6610c4a863ee6d7782b9ae6617ac3a79143dd351",
      "contractAddress": null,
      "gasUsedForL1": "0x171",
      "l1BlockNumber": "0x6d949e"
    },
    {
      "status": "0x1",
      "cumulativeGasUsed": "0x1d22e6",
      "logs": [
        {
          "address": "0x94baa979f569edb2f33903d9ccec66b31c9620f5",
          "topics": [
            "0x8c5be1e5ebec7d5bd14f71427d1e84f3dd0314c0f7b2291e5b200ac8c7c3b925",
            "0x00000000000000000000000094c83a5137751c4e6acc0cfdb09819b0b83582d1",
            "0x0000000000000000000000006610c4a863ee6d7782b9ae6617ac3a79143dd351"
          ],
          "data": "0x0000000000000000000000000000000000000000000000001bc16d674ec80000",
          "blockHash": "0x92839c6319ffb10a0afcc2ce7917685bbb967b6b74c021f8b40d760881c1b4fc",
          "blockNumber": "0x614290d",
          "transactionHash": "0xe8e0497719f231b221501921841b1c3c973fae44daa65b4c702d6feaae75f00e",
          "transactionIndex": "0x5",
          "logIndex": "0x2a",
          "removed": false
        }
      ],
      "logsBloom": "0x00000000000000000000000000000000000000000000000000000000000020000000000000000000000000000000000000000000000000000000020000200000000000000000000000000000000000000000000000000000000000000000000000000000000000000000000000000000000000000000000100000000000000000000000000000000000000000000000000000000000000000000000000000000020004000000000000000000000000000000000000000000000000000000000000004000000000000000000000000000000200000000000000000000000000000012000000000000000008000000000000000000000000000010000000000000",
      "type": "0x2",
      "transactionHash": "0xe8e0497719f231b221501921841b1c3c973fae44daa65b4c702d6feaae75f00e",
      "transactionIndex": "0x5",
      "blockHash": "0x92839c6319ffb10a0afcc2ce7917685bbb967b6b74c021f8b40d760881c1b4fc",
      "blockNumber": "0x614290d",
      "gasUsed": "0xb5b7",
      "effectiveGasPrice": "0x5f5e100",
      "from": "0x94c83a5137751c4e6acc0cfdb09819b0b83582d1",
      "to": "0x94baa979f569edb2f33903d9ccec66b31c9620f5",
      "contractAddress": null,
      "gasUsedForL1": "0x232",
      "l1BlockNumber": "0x6d949e"
    },
    {
      "status": "0x1",
      "cumulativeGasUsed": "0x5f909",
      "logs": [
        {
          "address": "0x94baa979f569edb2f33903d9ccec66b31c9620f5",
          "topics": [
            "0xddf252ad1be2c89b69c2b068fc378daa952ba7f163c4a11628f55a4df523b3ef",
            "0x00000000000000000000000094c83a5137751c4e6acc0cfdb09819b0b83582d1",
            "0x0000000000000000000000006610c4a863ee6d7782b9ae6617ac3a79143dd351"
          ],
          "data": "0x0000000000000000000000000000000000000000000000001bc16d674ec80000",
          "blockHash": "0xbbb0c591abaa71946937f073bb147b73774fbf9128898228fffe12fc0996bc16",
          "blockNumber": "0x6142913",
          "transactionHash": "0xdbf39e1a39660eac5d8efce6b068c28bbf40f8478cdbfa54c695219e264c87e1",
          "transactionIndex": "0x2",
          "logIndex": "0x2",
          "removed": false
        },
        {
          "address": "0x6610c4a863ee6d7782b9ae6617ac3a79143dd351",
          "topics": [
            "0xddf252ad1be2c89b69c2b068fc378daa952ba7f163c4a11628f55a4df523b3ef",
            "0x0000000000000000000000000000000000000000000000000000000000000000",
            "0x00000000000000000000000094c83a5137751c4e6acc0cfdb09819b0b83582d1"
          ],
          "data": "0x0000000000000000000000000000000000000000000000001bc16d674ec80000",
          "blockHash": "0xbbb0c591abaa71946937f073bb147b73774fbf9128898228fffe12fc0996bc16",
          "blockNumber": "0x6142913",
          "transactionHash": "0xdbf39e1a39660eac5d8efce6b068c28bbf40f8478cdbfa54c695219e264c87e1",
          "transactionIndex": "0x2",
          "logIndex": "0x3",
          "removed": false
        },
        {
          "address": "0x94baa979f569edb2f33903d9ccec66b31c9620f5",
          "topics": [
            "0x8c5be1e5ebec7d5bd14f71427d1e84f3dd0314c0f7b2291e5b200ac8c7c3b925",
            "0x0000000000000000000000006610c4a863ee6d7782b9ae6617ac3a79143dd351",
            "0x000000000000000000000000654837fe31838bd0391188182a3ecdd402846d3a"
          ],
          "data": "0x0000000000000000000000000000000000000000000000001bc16d674ec80000",
          "blockHash": "0xbbb0c591abaa71946937f073bb147b73774fbf9128898228fffe12fc0996bc16",
          "blockNumber": "0x6142913",
          "transactionHash": "0xdbf39e1a39660eac5d8efce6b068c28bbf40f8478cdbfa54c695219e264c87e1",
          "transactionIndex": "0x2",
          "logIndex": "0x4",
          "removed": false
        },
        {
          "address": "0x94baa979f569edb2f33903d9ccec66b31c9620f5",
          "topics": [
            "0xddf252ad1be2c89b69c2b068fc378daa952ba7f163c4a11628f55a4df523b3ef",
            "0x0000000000000000000000006610c4a863ee6d7782b9ae6617ac3a79143dd351",
            "0x000000000000000000000000654837fe31838bd0391188182a3ecdd402846d3a"
          ],
          "data": "0x0000000000000000000000000000000000000000000000001bc16d674ec80000",
          "blockHash": "0xbbb0c591abaa71946937f073bb147b73774fbf9128898228fffe12fc0996bc16",
          "blockNumber": "0x6142913",
          "transactionHash": "0xdbf39e1a39660eac5d8efce6b068c28bbf40f8478cdbfa54c695219e264c87e1",
          "transactionIndex": "0x2",
          "logIndex": "0x5",
          "removed": false
        },
        {
          "address": "0x654837fe31838bd0391188182a3ecdd402846d3a",
          "topics": [
            "0xddf252ad1be2c89b69c2b068fc378daa952ba7f163c4a11628f55a4df523b3ef",
            "0x0000000000000000000000000000000000000000000000000000000000000000",
            "0x0000000000000000000000006610c4a863ee6d7782b9ae6617ac3a79143dd351"
          ],
          "data": "0x0000000000000000000000000000000000000000000000001bc16d674ec80000",
          "blockHash": "0xbbb0c591abaa71946937f073bb147b73774fbf9128898228fffe12fc0996bc16",
          "blockNumber": "0x6142913",
          "transactionHash": "0xdbf39e1a39660eac5d8efce6b068c28bbf40f8478cdbfa54c695219e264c87e1",
          "transactionIndex": "0x2",
          "logIndex": "0x6",
          "removed": false
        },
        {
          "address": "0x654837fe31838bd0391188182a3ecdd402846d3a",
          "topics": [
            "0xdcbc1c05240f31ff3ad067ef1ee35ce4997762752e3a095284754544f4c709d7",
            "0x0000000000000000000000006610c4a863ee6d7782b9ae6617ac3a79143dd351",
            "0x0000000000000000000000006610c4a863ee6d7782b9ae6617ac3a79143dd351"
          ],
          "data": "0x0000000000000000000000000000000000000000000000001bc16d674ec800000000000000000000000000000000000000000000000000001bc16d674ec80000",
          "blockHash": "0xbbb0c591abaa71946937f073bb147b73774fbf9128898228fffe12fc0996bc16",
          "blockNumber": "0x6142913",
          "transactionHash": "0xdbf39e1a39660eac5d8efce6b068c28bbf40f8478cdbfa54c695219e264c87e1",
          "transactionIndex": "0x2",
          "logIndex": "0x7",
          "removed": false
        },
        {
          "address": "0x6610c4a863ee6d7782b9ae6617ac3a79143dd351",
          "topics": [
            "0x227a473b70d2f893cc7659219575c030a63b5743024fe1e0c1a680e708b1525a"
          ],
          "data": "0x0000000000000000000000000000000000000000000000001bc16d674ec80000",
          "blockHash": "0xbbb0c591abaa71946937f073bb147b73774fbf9128898228fffe12fc0996bc16",
          "blockNumber": "0x6142913",
          "transactionHash": "0xdbf39e1a39660eac5d8efce6b068c28bbf40f8478cdbfa54c695219e264c87e1",
          "transactionIndex": "0x2",
          "logIndex": "0x8",
          "removed": false
        },
        {
          "address": "0x6610c4a863ee6d7782b9ae6617ac3a79143dd351",
          "topics": [
            "0xe1fffcc4923d04b559f4d29a8bfc6cda04eb5b0d3c460751c2402c5c5cc9109c",
            "0x00000000000000000000000094c83a5137751c4e6acc0cfdb09819b0b83582d1"
          ],
          "data": "0x0000000000000000000000000000000000000000000000001bc16d674ec80000",
          "blockHash": "0xbbb0c591abaa71946937f073bb147b73774fbf9128898228fffe12fc0996bc16",
          "blockNumber": "0x6142913",
          "transactionHash": "0xdbf39e1a39660eac5d8efce6b068c28bbf40f8478cdbfa54c695219e264c87e1",
          "transactionIndex": "0x2",
          "logIndex": "0x9",
          "removed": false
        },
        {
          "address": "0x6610c4a863ee6d7782b9ae6617ac3a79143dd351",
          "topics": [
            "0x1ec6ca237cf412015f109db027dc71b2292a20387279781fd699c4ec328a23d7",
            "0x00000000000000000000000094c83a5137751c4e6acc0cfdb09819b0b83582d1"
          ],
          "data": "0x0000000000000000000000000000000000000000000000001bc16d674ec80000",
          "blockHash": "0xbbb0c591abaa71946937f073bb147b73774fbf9128898228fffe12fc0996bc16",
          "blockNumber": "0x6142913",
          "transactionHash": "0xdbf39e1a39660eac5d8efce6b068c28bbf40f8478cdbfa54c695219e264c87e1",
          "transactionIndex": "0x2",
          "logIndex": "0xa",
          "removed": false
        }
      ],
      "logsBloom": "0x00000000000000000000000000000000000000000000000000000000000020000000000000000000000000000000000000000000000000000000020000200000000000400000000000000808000000000000000000000000000000008000000000000000020000000000000000000800000000000004000100000010022000000000000000000000000000000000000000000001000000000000000000000800020004000000000000000000000001000000000000000004000000000000000000004002000400000000000000000004000200000008000000800000000020000812000000000000000008000840000000008000000000400410800000000000",
      "type": "0x2",
      "transactionHash": "0xdbf39e1a39660eac5d8efce6b068c28bbf40f8478cdbfa54c695219e264c87e1",
      "transactionIndex": "0x2",
      "blockHash": "0xbbb0c591abaa71946937f073bb147b73774fbf9128898228fffe12fc0996bc16",
      "blockNumber": "0x6142913",
      "gasUsed": "0x259eb",
      "effectiveGasPrice": "0x5f5e100",
      "from": "0x94c83a5137751c4e6acc0cfdb09819b0b83582d1",
      "to": "0x6610c4a863ee6d7782b9ae6617ac3a79143dd351",
      "contractAddress": null,
      "gasUsedForL1": "0x298",
      "l1BlockNumber": "0x6d949e"
    },
    {
      "status": "0x1",
      "cumulativeGasUsed": "0x454ad",
      "logs": [
        {
          "address": "0x94baa979f569edb2f33903d9ccec66b31c9620f5",
          "topics": [
            "0x8c5be1e5ebec7d5bd14f71427d1e84f3dd0314c0f7b2291e5b200ac8c7c3b925",
            "0x00000000000000000000000094c83a5137751c4e6acc0cfdb09819b0b83582d1",
            "0x0000000000000000000000006610c4a863ee6d7782b9ae6617ac3a79143dd351"
          ],
          "data": "0x000000000000000000000000000000000000000000000000000000012a05f205",
          "blockHash": "0xd6fa7134752892617343eddb37a635c87c98bba6f8865f9aa0bccc858b0d65f7",
          "blockNumber": "0x6142919",
          "transactionHash": "0xe44dce05d2361c8ceff8a412afacaf06833b4ea1d0316f50582905ceb0df9877",
          "transactionIndex": "0x2",
          "logIndex": "0x2",
          "removed": false
        }
      ],
      "logsBloom": "0x00000000000000000000000000000000000000000000000000000000000020000000000000000000000000000000000000000000000000000000020000200000000000000000000000000000000000000000000000000000000000000000000000000000000000000000000000000000000000000000000100000000000000000000000000000000000000000000000000000000000000000000000000000000020004000000000000000000000000000000000000000000000000000000000000004000000000000000000000000000000200000000000000000000000000000012000000000000000008000000000000000000000000000010000000000000",
      "type": "0x2",
      "transactionHash": "0xe44dce05d2361c8ceff8a412afacaf06833b4ea1d0316f50582905ceb0df9877",
      "transactionIndex": "0x2",
      "blockHash": "0xd6fa7134752892617343eddb37a635c87c98bba6f8865f9aa0bccc858b0d65f7",
      "blockNumber": "0x6142919",
      "gasUsed": "0xb5ab",
      "effectiveGasPrice": "0x5f5e100",
      "from": "0x94c83a5137751c4e6acc0cfdb09819b0b83582d1",
      "to": "0x94baa979f569edb2f33903d9ccec66b31c9620f5",
      "contractAddress": null,
      "gasUsedForL1": "0x232",
      "l1BlockNumber": "0x6d949e"
    },
    {
      "status": "0x1",
      "cumulativeGasUsed": "0x89a2d",
      "logs": [
        {
          "address": "0x94baa979f569edb2f33903d9ccec66b31c9620f5",
          "topics": [
            "0xddf252ad1be2c89b69c2b068fc378daa952ba7f163c4a11628f55a4df523b3ef",
            "0x00000000000000000000000094c83a5137751c4e6acc0cfdb09819b0b83582d1",
            "0x00000000000000000000000034728af7d0fc03cbbdff82b6d52aeda8c999e2b2"
          ],
          "data": "0x000000000000000000000000000000000000000000000000000000012a05f200",
          "blockHash": "0x7e4137f569d6ddc5fdbaf82db9cc89e05976c1758662d1719cb3eb1144423df1",
          "blockNumber": "0x6142922",
          "transactionHash": "0xa7a56c8eb15bc617dabee83e8113e18821a54c32504b81e001d2e11de698e96b",
          "transactionIndex": "0x4",
          "logIndex": "0x2",
          "removed": false
        },
        {
          "address": "0x94baa979f569edb2f33903d9ccec66b31c9620f5",
          "topics": [
            "0xddf252ad1be2c89b69c2b068fc378daa952ba7f163c4a11628f55a4df523b3ef",
            "0x00000000000000000000000094c83a5137751c4e6acc0cfdb09819b0b83582d1",
            "0x00000000000000000000000099cfb199c0eafee3457224c75a079c86025eae22"
          ],
          "data": "0x0000000000000000000000000000000000000000000000000000000000000005",
          "blockHash": "0x7e4137f569d6ddc5fdbaf82db9cc89e05976c1758662d1719cb3eb1144423df1",
          "blockNumber": "0x6142922",
          "transactionHash": "0xa7a56c8eb15bc617dabee83e8113e18821a54c32504b81e001d2e11de698e96b",
          "transactionIndex": "0x4",
          "logIndex": "0x3",
          "removed": false
        },
        {
          "address": "0x6610c4a863ee6d7782b9ae6617ac3a79143dd351",
          "topics": [
            "0xddf252ad1be2c89b69c2b068fc378daa952ba7f163c4a11628f55a4df523b3ef",
            "0x00000000000000000000000094c83a5137751c4e6acc0cfdb09819b0b83582d1",
            "0x0000000000000000000000000000000000000000000000000000000000000000"
          ],
          "data": "0x0000000000000000000000000000000000000000000000001bc16d674ec80000",
          "blockHash": "0x7e4137f569d6ddc5fdbaf82db9cc89e05976c1758662d1719cb3eb1144423df1",
          "blockNumber": "0x6142922",
          "transactionHash": "0xa7a56c8eb15bc617dabee83e8113e18821a54c32504b81e001d2e11de698e96b",
          "transactionIndex": "0x4",
          "logIndex": "0x4",
          "removed": false
        },
        {
          "address": "0x6610c4a863ee6d7782b9ae6617ac3a79143dd351",
          "topics": [
            "0xddf252ad1be2c89b69c2b068fc378daa952ba7f163c4a11628f55a4df523b3ef",
            "0x0000000000000000000000000000000000000000000000000000000000000000",
            "0x0000000000000000000000006610c4a863ee6d7782b9ae6617ac3a79143dd351"
          ],
          "data": "0x0000000000000000000000000000000000000000000000001bc16d674ec80000",
          "blockHash": "0x7e4137f569d6ddc5fdbaf82db9cc89e05976c1758662d1719cb3eb1144423df1",
          "blockNumber": "0x6142922",
          "transactionHash": "0xa7a56c8eb15bc617dabee83e8113e18821a54c32504b81e001d2e11de698e96b",
          "transactionIndex": "0x4",
          "logIndex": "0x5",
          "removed": false
        },
        {
          "address": "0x3988af4d734e72f2d155ffe07e9f316a7b6123f9",
          "topics": [
            "0x445c94111ba1ba3f9276ecf50724c543641c207bb13dcd43a0c35ddf17ab3123",
            "0x0000000000000000000000000000000000000000000000000000000000000000"
          ],
          "data": "0x00000000000000000000000000000000000000000000000000000000000000200000000000000000000000006610c4a863ee6d7782b9ae6617ac3a79143dd35100000000000000000000000094c83a5137751c4e6acc0cfdb09819b0b83582d10000000000000000000000000000000000000000000000001bc16d674ec80000000000000000000000000000000000000000000000000000000000000000000000000000000000000000000000000000000000000000000000000000000000e000000000000000000000000000000000000000000000000000000000006d94a000000000000000000000000000000000000000000000000000000000000000000000000000000000000000000000000000000000000000000000000000000000",
          "blockHash": "0x7e4137f569d6ddc5fdbaf82db9cc89e05976c1758662d1719cb3eb1144423df1",
          "blockNumber": "0x6142922",
          "transactionHash": "0xa7a56c8eb15bc617dabee83e8113e18821a54c32504b81e001d2e11de698e96b",
          "transactionIndex": "0x4",
          "logIndex": "0x6",
          "removed": false
        },
        {
          "address": "0x6610c4a863ee6d7782b9ae6617ac3a79143dd351",
          "topics": [
            "0x16540b30944d4a001747daed1f3b0be02461ddc7221558400f55bb848bf4fd79"
          ],
          "data": "0x0000000000000000000000000000000000000000000000000000000000000000000000000000000000000000000000000000000000000000000000000000004000000000000000000000000094c83a5137751c4e6acc0cfdb09819b0b83582d10000000000000000000000000000000000000000000000001bc16d674ec80000000000000000000000000000000000000000000000000000000000000000000000000000000000000000000000000000000000000000000000000000000000a000000000000000000000000000000000000000000000000000000000000000000000000000000000000000000000000000000000000000000000000000000000",
          "blockHash": "0x7e4137f569d6ddc5fdbaf82db9cc89e05976c1758662d1719cb3eb1144423df1",
          "blockNumber": "0x6142922",
          "transactionHash": "0xa7a56c8eb15bc617dabee83e8113e18821a54c32504b81e001d2e11de698e96b",
          "transactionIndex": "0x4",
          "logIndex": "0x7",
          "removed": false
        }
      ],
      "logsBloom": "0x00000000000000000000000000000000000000000000000000000000000020000000000000000000000000000000000000000000001000000000020000000000000000000000000040000808000000000000000000004000040000008001000000000000020000000002000002000800000000000000000100020012000000000000040000000000000000000000000000000000000000000000000000000000080004000000000000000000000000000000000000000004000000000000000000004002000000000000000000000000000200000000200040800000000020000002000000000000100008000000000000000000000000000010000000000000",
      "type": "0x2",
      "transactionHash": "0xa7a56c8eb15bc617dabee83e8113e18821a54c32504b81e001d2e11de698e96b",
      "transactionIndex": "0x4",
      "blockHash": "0x7e4137f569d6ddc5fdbaf82db9cc89e05976c1758662d1719cb3eb1144423df1",
      "blockNumber": "0x6142922",
      "gasUsed": "0x3e983",
      "effectiveGasPrice": "0x5f5e100",
      "from": "0x94c83a5137751c4e6acc0cfdb09819b0b83582d1",
      "to": "0x6610c4a863ee6d7782b9ae6617ac3a79143dd351",
      "contractAddress": null,
      "gasUsedForL1": "0x16b",
      "l1BlockNumber": "0x6d94a0"
    }
  ],
  "libraries": [],
  "pending": [],
  "returns": {},
  "timestamp": 1732945229,
  "chain": 421614,
  "commit": null
}