{
  "transactions": [
    {
      "hash": "0xf87ba8ee87b783c8a536d6ad20decb866aa7cac324aa2ea44560b896767c49c0",
      "transactionType": "CALL",
      "contractName": null,
      "contractAddress": "0x94baa979f569edb2f33903d9ccec66b31c9620f5",
      "function": "mint(address,uint256)",
      "arguments": [
        "0x34728aF7D0FC03CbbdFF82b6d52AeDA8C999E2B2",
        "10000000000000000000"
      ],
      "transaction": {
        "from": "0x34728af7d0fc03cbbdff82b6d52aeda8c999e2b2",
        "to": "0x94baa979f569edb2f33903d9ccec66b31c9620f5",
        "gas": "0xc355",
        "value": "0x0",
        "input": "0x40c10f1900000000000000000000000034728af7d0fc03cbbdff82b6d52aeda8c999e2b20000000000000000000000000000000000000000000000008ac7230489e80000",
        "nonce": "0x54a",
        "chainId": "0x66eee"
      },
      "additionalContracts": [],
      "isFixedGasLimit": false
    },
    {
      "hash": "0x3f61b1ada9b49444c7ac482c9f9812695b2d1b870fd78f06438fb148c2155381",
      "transactionType": "CALL",
      "contractName": null,
      "contractAddress": "0x94baa979f569edb2f33903d9ccec66b31c9620f5",
      "function": "approve(address,uint256)",
      "arguments": [
        "0x654837fE31838Bd0391188182a3Ecdd402846D3a",
        "10000000000000000000"
      ],
      "transaction": {
        "from": "0x34728af7d0fc03cbbdff82b6d52aeda8c999e2b2",
        "to": "0x94baa979f569edb2f33903d9ccec66b31c9620f5",
        "gas": "0xf5c5",
        "value": "0x0",
        "input": "0x095ea7b3000000000000000000000000654837fe31838bd0391188182a3ecdd402846d3a0000000000000000000000000000000000000000000000008ac7230489e80000",
        "nonce": "0x54b",
        "chainId": "0x66eee"
      },
      "additionalContracts": [],
      "isFixedGasLimit": false
    },
    {
      "hash": "0x03cf1023893b15b5de214eb212e215d3d0a4c7360176f72f4dfdc1a513123c9b",
      "transactionType": "CALL",
      "contractName": null,
      "contractAddress": "0x654837fe31838bd0391188182a3ecdd402846d3a",
      "function": "deposit(uint256,address)",
      "arguments": [
        "10000000000000000000",
        "0x34728aF7D0FC03CbbdFF82b6d52AeDA8C999E2B2"
      ],
      "transaction": {
        "from": "0x34728af7d0fc03cbbdff82b6d52aeda8c999e2b2",
        "to": "0x654837fe31838bd0391188182a3ecdd402846d3a",
        "gas": "0x132e6",
        "value": "0x0",
        "input": "0x6e553f650000000000000000000000000000000000000000000000008ac7230489e8000000000000000000000000000034728af7d0fc03cbbdff82b6d52aeda8c999e2b2",
        "nonce": "0x54c",
        "chainId": "0x66eee"
      },
      "additionalContracts": [],
      "isFixedGasLimit": false
    },
    {
      "hash": "0x9c184d44c5ae2bc78e39c22a29c80801f9651c2175a681b7299073c689fc9ec7",
      "transactionType": "CALL",
      "contractName": null,
      "contractAddress": "0x94baa979f569edb2f33903d9ccec66b31c9620f5",
      "function": "transfer(address,uint256)",
      "arguments": [
        "0x94c83a5137751C4E6acc0cFdB09819B0B83582D1",
        "1000000000000000000"
      ],
      "transaction": {
        "from": "0x34728af7d0fc03cbbdff82b6d52aeda8c999e2b2",
        "to": "0x94baa979f569edb2f33903d9ccec66b31c9620f5",
        "gas": "0xb9de",
        "value": "0x0",
        "input": "0xa9059cbb00000000000000000000000094c83a5137751c4e6acc0cfdb09819b0b83582d10000000000000000000000000000000000000000000000000de0b6b3a7640000",
        "nonce": "0x54d",
        "chainId": "0x66eee"
      },
      "additionalContracts": [],
      "isFixedGasLimit": false
    },
    {
      "hash": "0xf7caedbe93f431253aa751400759aa98a23fa932fbe82741e80edcf10ae3f43d",
      "transactionType": "CREATE",
      "contractName": "InsuranceFactory",
      "contractAddress": "0x5f463606c99f940aea89c3a85bfa6af72c48a70f",
      "function": null,
      "arguments": [
        "0x94BAa979F569eDb2F33903D9cCec66b31c9620F5",
        "0x654837fE31838Bd0391188182a3Ecdd402846D3a",
        "0xA5A58f86FCf42CE8395449b746A7C9C184359bEa",
        "5",
        "10"
      ],
      "transaction": {
        "from": "0x34728af7d0fc03cbbdff82b6d52aeda8c999e2b2",
        "gas": "0x5c9afc",
        "value": "0x0",
        "input": "0x60803460c257601f614f6038819003918201601f19168301916001600160401b0383118484101760c65780849260a09460405283398101031260c25760428160da565b90604d6020820160da565b60576040830160da565b606083015160809390930151600580546001600160a01b03199081166001600160a01b039788161790915560068054821694871694909417909355600380548416331790556004805490931694909116939093179055600755600855604051614e7290816100ee8239f35b5f80fd5b634e487b7160e01b5f52604160045260245ffd5b51906001600160a01b038216820360c25756fe6080806040526004361015610012575f80fd5b5f3560e01c9081630fd761e0146109a7575080633998fdd31461097f5780633ccfd60b146108845780634352976c146108565780634578d290146108195780634e575d4b146107f1578063507817bb14610332578063560684ca146102b75780636a4d98461461022c578063773f0b181461020f5780638da5cb5b146101e7578063ae5745ed14610185578063daf635de14610157578063e941fa781461013a5763f7d1517f146100c1575f80fd5b34610136576020366003190112610136576004355f54811015610136575f54811015610122575f80527f290decd9548b62a8d60345a988386fc84ba6bc95484008f6362f93160ef3e56301546040516001600160a01b039091168152602090f35b634e487b7160e01b5f52603260045260245ffd5b5f80fd5b34610136575f366003190112610136576020600854604051908152f35b346101365760203660031901126101365761017d60018060a01b03600354163314610aad565b600435600855005b346101365760403660031901126101365761019e6109ca565b6001600160a01b03165f90815260016020526040902080546024359190821015610136576020916101ce91610a98565b905460405160039290921b1c6001600160a01b03168152f35b34610136575f366003190112610136576003546040516001600160a01b039091168152602090f35b34610136575f366003190112610136576020600754604051908152f35b34610136576020366003190112610136576001600160a01b0361024d6109ca565b165f52600160205260405f206040519081602082549182815201915f5260205f20905f5b8181106102985761029485610288818703826109e0565b60405191829182610a56565b0390f35b82546001600160a01b0316845260209093019260019283019201610271565b34610136575f366003190112610136576040518060205f549182815201905f80527f290decd9548b62a8d60345a988386fc84ba6bc95484008f6362f93160ef3e563905f5b8181106103135761029485610288818703826109e0565b82546001600160a01b03168452602090930192600192830192016102fc565b3461013657610200366003190112610136576004356001600160401b03811161013657610363903690600401610a01565b6024356001600160401b03811161013657610382903690600401610a01565b906044356001600160401b038111610136576103a2903690600401610a01565b6064356001600160401b038111610136576103c1903690600401610a01565b6084356001600160401b038111610136576103e0903690600401610a01565b60a4356001600160401b038111610136576103ff903690600401610a01565b60c4356001600160401b0381116101365761041e903690600401610a01565b9060e4356001600160401b0381116101365761043e903690600401610a01565b92610104356001600160401b0381116101365761045f903690600401610a01565b94610124356001600160401b03811161013657610480903690600401610a01565b96604051806143138101106001600160401b03614313830111176107d257806105a461058d6105766105608f8f61051e6105086104f261054a946104dc610534956143138d610b2a90396102206143138e018181520190610b05565b906143138c01820360208d614313010152610b05565b6143138a01810360406143138c0101528b610b05565b6143138901810360606143138b0101528b610b05565b6143138801810360806143138a0101528b610b05565b6143138701810360a0614313890101528b610b05565b6143138601810360c0614313880101528b610b05565b6143138501810360e0614313870101528b610b05565b61431384018103610100614313860101528b610b05565b61431383018103610120614313850101528b610b05565b61014435614313830161014081019190915261016435610160820152610184356101808201526101a4356101a08201526101c4356101c08201526101e4356101e0820152336102009091015203905ff0998a156107e6575f54600160401b8110156107d25780600161061992015f555f610a98565b81546001600160a01b038e811660039390931b92831b921b1916179055335f9081526001602052604090208054600160401b8110156107d25760018101825561066191610a98565b81546001600160a01b038e811660039390931b83811b91901b19909116179091555f9081526002602052604090819020805460ff1916600117905551610200808252909a6106b1918c0190610b05565b8a810360208c01526106c291610b05565b89810360408b01526106d391610b05565b88810360608a01526106e491610b05565b87810360808901526106f591610b05565b86810360a088015261070691610b05565b85810360c087015261071791610b05565b84810360e086015261072891610b05565b83810361010085015261073a91610b05565b82810361012084015261074c91610b05565b6101443561014083015261016435610160830152610184356101808301526101a4356101a08301526101c4356101c08301526101e4356101e08301526001600160a01b0383169133917fdb952deb284a7ca1809707c5a72df8b398c71835d54ca9755ffe994e8baa2aa1919081900390a36040516001600160a01b039091168152602090f35b634e487b7160e01b5f52604160045260245ffd5b6040513d5f823e3d90fd5b34610136575f366003190112610136576006546040516001600160a01b039091168152602090f35b34610136576020366003190112610136576001600160a01b0361083a6109ca565b165f526002602052602060ff60405f2054166040519015158152f35b346101365760203660031901126101365761087c60018060a01b03600354163314610aad565b600435600755005b34610136575f366003190112610136576003546001600160a01b03166108ab338214610aad565b6005546040516370a0823160e01b81523060048201526001600160a01b0390911691602082602481865afa9182156107e6575f9261094a575b509060446020925f604051958694859363a9059cbb60e01b8552600485015260248401525af180156107e65761091657005b6020813d602011610942575b8161092f602093836109e0565b8101031261013657518015150361013657005b3d9150610922565b91506020823d602011610977575b81610965602093836109e0565b810103126101365790519060446108e4565b3d9150610958565b34610136575f366003190112610136576004546040516001600160a01b039091168152602090f35b34610136575f366003190112610136576005546001600160a01b03168152602090f35b600435906001600160a01b038216820361013657565b90601f801991011681019081106001600160401b038211176107d257604052565b81601f82011215610136578035906001600160401b0382116107d25760405192610a35601f8401601f1916602001856109e0565b8284526020838301011161013657815f926020809301838601378301015290565b60206040818301928281528451809452019201905f5b818110610a795750505090565b82516001600160a01b0316845260209384019390920191600101610a6c565b8054821015610122575f5260205f2001905f90565b15610ab457565b60405162461bcd60e51b815260206004820152602360248201527f4f6e6c79206f776e65722063616e20696e766f6b6520746869732066756e637460448201526234b7b760e91b6064820152608490fd5b805180835260209291819084018484015e5f828201840152601f01601f191601019056fe60a060405234610f24576143138038038061001981610f28565b928339810161022082820312610f245781516001600160401b038111610f245781610045918401610f4d565b60208301519091906001600160401b038111610f245781610067918501610f4d565b60408401519092906001600160401b038111610f245782610089918601610f4d565b60608501519091906001600160401b038111610f2457836100ab918701610f4d565b60808601519094906001600160401b038111610f2457846100cd918801610f4d565b60a08701519093906001600160401b038111610f2457856100ef918901610f4d565b60c08801516001600160401b038111610f24578661010e918a01610f4d565b60e08901516001600160401b038111610f24578761012d918b01610f4d565b6101008a01519091906001600160401b038111610f245788610150918c01610f4d565b6101208b0151979093906001600160401b038911610f24578b9a8b9a8b9a8b019061017a91610f4d565b966101408b0151986101608c01519a6101808d01519c6101a001519d6101c001519e6101e001519f6102000151608052600160a01b600190036080511660805103610f24578051906001600160401b0382116106df5760035490600182811c92168015610f1a575b60208310146106c15781601f849311610eac575b50602090601f8311600114610e46575f92610e3b575b50508160011b915f199060031b1c1916176003555b8051906001600160401b0382116106df5760045490600182811c92168015610e31575b60208310146106c15781601f849311610dc3575b50602090601f8311600114610d5d575f92610d52575b50508160011b915f199060031b1c1916176004555b8051906001600160401b0382116106df57600a5490600182811c92168015610d48575b60208310146106c15781601f849311610cda575b50602090601f8311600114610c74575f92610c69575b50508160011b915f199060031b1c191617600a555b8051906001600160401b0382116106df57600b5490600182811c92168015610c5f575b60208310146106c15781601f849311610bf1575b50602090601f8311600114610b8b575f92610b80575b50508160011b915f199060031b1c191617600b555b8051906001600160401b0382116106df57600c5490600182811c92168015610b76575b60208310146106c15781601f849311610b08575b50602090601f8311600114610aa2575f92610a97575b50508160011b915f199060031b1c191617600c555b8051906001600160401b0382116106df57600d5490600182811c92168015610a8d575b60208310146106c15781601f849311610a1f575b50602090601f83116001146109b9575f926109ae575b50508160011b915f199060031b1c191617600d555b8051906001600160401b0382116106df57600e5490600182811c921680156109a4575b60208310146106c15781601f849311610936575b50602090601f83116001146108d0575f926108c5575b50508160011b915f199060031b1c191617600e555b8051906001600160401b0382116106df57600f5490600182811c921680156108bb575b60208310146106c15781601f84931161084d575b50602090601f83116001146107e7575f926107dc575b50508160011b915f199060031b1c191617600f555b8051906001600160401b0382116106df5760115490600182811c921680156107d2575b60208310146106c15781601f849311610764575b50602090601f83116001146106fe575f926106f3575b50508160011b915f199060031b1c1916176011555b8051906001600160401b0382116106df5760105490600182811c921680156106d5575b60208310146106c15781601f849311610653575b50602090601f83116001146105ed575f926105e2575b50508160011b915f199060031b1c1916176010555b601355601455601555601655601755601855608051600980546001600160a01b039092166001600160a01b0319928316179055600580543392169190911790556040516133749081610f9f8239f35b015190505f8061057e565b60105f9081528281209350601f198516905b81811061063b5750908460019594939210610623575b505050811b01601055610593565b01515f1960f88460031b161c191690555f8080610615565b929360206001819287860151815501950193016105ff565b60105f529091507f1b6847dc741a1b0cd08d278845f9d819d87b734759afb55fe2de5cb82a9ae672601f840160051c810191602085106106b7575b90601f859493920160051c01905b8181106106a95750610568565b5f815584935060010161069c565b909150819061068e565b634e487b7160e01b5f52602260045260245ffd5b91607f1691610554565b634e487b7160e01b5f52604160045260245ffd5b015190505f8061051c565b60115f9081528281209350601f198516905b81811061074c5750908460019594939210610734575b505050811b01601155610531565b01515f1960f88460031b161c191690555f8080610726565b92936020600181928786015181550195019301610710565b60115f529091507f31ecc21a745e3968a04e9570e4425bc18fa8019c68028196b546d1669c200c68601f840160051c810191602085106107c8575b90601f859493920160051c01905b8181106107ba5750610506565b5f81558493506001016107ad565b909150819061079f565b91607f16916104f2565b015190505f806104ba565b600f5f9081528281209350601f198516905b818110610835575090846001959493921061081d575b505050811b01600f556104cf565b01515f1960f88460031b161c191690555f808061080f565b929360206001819287860151815501950193016107f9565b600f5f529091507f8d1108e10bcb7c27dddfc02ed9d693a074039d026cf4ea4240b40f7d581ac802601f840160051c810191602085106108b1575b90601f859493920160051c01905b8181106108a357506104a4565b5f8155849350600101610896565b9091508190610888565b91607f1691610490565b015190505f80610458565b600e5f9081528281209350601f198516905b81811061091e5750908460019594939210610906575b505050811b01600e5561046d565b01515f1960f88460031b161c191690555f80806108f8565b929360206001819287860151815501950193016108e2565b600e5f529091507fbb7b4a454dc3493923482f07822329ed19e8244eff582cc204f8554c3620c3fd601f840160051c8101916020851061099a575b90601f859493920160051c01905b81811061098c5750610442565b5f815584935060010161097f565b9091508190610971565b91607f169161042e565b015190505f806103f6565b600d5f9081528281209350601f198516905b818110610a0757509084600195949392106109ef575b505050811b01600d5561040b565b01515f1960f88460031b161c191690555f80806109e1565b929360206001819287860151815501950193016109cb565b600d5f529091507fd7b6990105719101dabeb77144f2a3385c8033acd3af97e9423a695e81ad1eb5601f840160051c81019160208510610a83575b90601f859493920160051c01905b818110610a7557506103e0565b5f8155849350600101610a68565b9091508190610a5a565b91607f16916103cc565b015190505f80610394565b600c5f9081528281209350601f198516905b818110610af05750908460019594939210610ad8575b505050811b01600c556103a9565b01515f1960f88460031b161c191690555f8080610aca565b92936020600181928786015181550195019301610ab4565b600c5f529091507fdf6966c971051c3d54ec59162606531493a51404a002842f56009d7e5cf4a8c7601f840160051c81019160208510610b6c575b90601f859493920160051c01905b818110610b5e575061037e565b5f8155849350600101610b51565b9091508190610b43565b91607f169161036a565b015190505f80610332565b600b5f9081528281209350601f198516905b818110610bd95750908460019594939210610bc1575b505050811b01600b55610347565b01515f1960f88460031b161c191690555f8080610bb3565b92936020600181928786015181550195019301610b9d565b600b5f529091507f0175b7a638427703f0dbe7bb9bbf987a2551717b34e79f33b5b1008d1fa01db9601f840160051c81019160208510610c55575b90601f859493920160051c01905b818110610c47575061031c565b5f8155849350600101610c3a565b9091508190610c2c565b91607f1691610308565b015190505f806102d0565b600a5f9081528281209350601f198516905b818110610cc25750908460019594939210610caa575b505050811b01600a556102e5565b01515f1960f88460031b161c191690555f8080610c9c565b92936020600181928786015181550195019301610c86565b600a5f529091507fc65a7bb8d6351c1cf70c95a316cc6a92839c986682d98bc35f958f4883f9d2a8601f840160051c81019160208510610d3e575b90601f859493920160051c01905b818110610d3057506102ba565b5f8155849350600101610d23565b9091508190610d15565b91607f16916102a6565b015190505f8061026e565b60045f9081528281209350601f198516905b818110610dab5750908460019594939210610d93575b505050811b01600455610283565b01515f1960f88460031b161c191690555f8080610d85565b92936020600181928786015181550195019301610d6f565b60045f529091507f8a35acfbc15ff81a39ae7d344fd709f28e8600b4aa8c65c6b64bfe7fe36bd19b601f840160051c81019160208510610e27575b90601f859493920160051c01905b818110610e195750610258565b5f8155849350600101610e0c565b9091508190610dfe565b91607f1691610244565b015190505f8061020c565b60035f9081528281209350601f198516905b818110610e945750908460019594939210610e7c575b505050811b01600355610221565b01515f1960f88460031b161c191690555f8080610e6e565b92936020600181928786015181550195019301610e58565b60035f529091507fc2575a0e9e593c00f959f8c92f12db2869c3395a3b0502d05e2516446f71f85b601f840160051c81019160208510610f10575b90601f859493920160051c01905b818110610f0257506101f6565b5f8155849350600101610ef5565b9091508190610ee7565b91607f16916101e2565b5f80fd5b6040519190601f01601f191682016001600160401b038111838210176106df57604052565b81601f82011215610f24578051906001600160401b0382116106df57610f7c601f8301601f1916602001610f28565b9282845260208383010111610f2457815f9260208093018386015e830101529056fe60806040526004361015610011575f80fd5b5f5f3560e01c806306fdde0314612986578063095ea7b3146128de57806309a1578514612814578063104ffbbe1461256d57806318160ddd146125505780631afbd12814611bca5780631fb6112e14611b235780632152418c14611a9157806321b394bc14611a7357806323b872dd146119915780632881687f146119735780632e5113b714611955578063313ce567146119395780633ccfd60b14611497578063411d90af146113f05780634173fb9d1461137c57806341e0080b146112d557806347d54bff146112b75780634bff95ba1461121057806351d8b2c6146111f25780636178e44c14610ecf57806365c33d8714610b2a578063707f67ee14610a8357806370a0823114610a4b5780637bcc180c146109c15780637fcfcb7e1461099a57806395d89b41146108f357806398d191101461084c57806399d32fc41461082e578063a9059cbb146107fc578063af608007146107de578063b3c9b7b2146106e7578063dbc837c5146106be578063dd62ed3e1461066b578063e037f88914610399578063eaf40bcd14610375578063f21f537d14610357578063f40430d2146102b05763fdfec5dd146101c7575f80fd5b346102ad57806003193601126102ad576040519080600a54906101e982612a7b565b80855291600181169081156102865750600114610229575b6102258461021181860382612acf565b604051918291602083526020830190612a2b565b0390f35b600a81527fc65a7bb8d6351c1cf70c95a316cc6a92839c986682d98bc35f958f4883f9d2a8939250905b80821061026c5750909150810160200161021182610201565b919260018160209254838588010152019101909291610253565b60ff191660208087019190915292151560051b850190920192506102119150839050610201565b80fd5b50346102ad57806003193601126102ad576040519080600d54906102d382612a7b565b808552916001811690811561028657506001146102fa576102258461021181860382612acf565b600d81527fd7b6990105719101dabeb77144f2a3385c8033acd3af97e9423a695e81ad1eb5939250905b80821061033d5750909150810160200161021182610201565b919260018160209254838588010152019101909291610324565b50346102ad57806003193601126102ad576020601554604051908152f35b50346102ad57806003193601126102ad57602063ffffffff601a5416604051908152f35b50346102ad57806003193601126102ad576103bf60018060a01b03600954163314612db8565b60025461062657600554604051627ebb0f60e51b8152906001600160a01b0316602082600481845afa908115610558576004928492610604575b5060209060405193848092634e575d4b60e01b82525afa9182156105585783926105cf575b506040516370a0823160e01b815233600482015290602090829060249082906001600160a01b03165afa90811561055857839161059d575b50601854601454916104688383612d6f565b116105635761047f9161047a91612d6f565b612fbd565b6040516370a0823160e01b81523060048201526001600160a01b039190911690602081602481855afa801561055857610529575b506020600854602460405180948193630a28a47760e01b835260048301525afa90811561051e5782916104e8575b5060075580f35b90506020813d602011610516575b8161050360209383612acf565b8101031261051257515f6104e1565b5f80fd5b3d91506104f6565b6040513d84823e3d90fd5b6020813d602011610550575b8161054260209383612acf565b8101031261051257516104b3565b3d9150610535565b6040513d85823e3d90fd5b60405162461bcd60e51b81526020600482015260126024820152714e6f7420656e6f7567682062616c616e636560701b6044820152606490fd5b90506020813d6020116105c7575b816105b860209383612acf565b8101031261051257515f610456565b3d91506105ab565b60249192506105f5602091823d84116105fd575b6105ed8183612acf565b810190612c3d565b92915061041e565b503d6105e3565b602091925061061f90823d84116105fd576105ed8183612acf565b91906103f9565b60405162461bcd60e51b815260206004820152601d60248201527f496e697469616c206465706f73697420686173206265656e2073656e740000006044820152606490fd5b50346102ad5760403660031901126102ad576040610687612a4f565b91610690612a65565b9260018060a01b031681526001602052209060018060a01b03165f52602052602060405f2054604051908152f35b50346102ad57806003193601126102ad576009546040516001600160a01b039091168152602090f35b50346102ad5760203660031901126102ad5760043590608060405161070b81612ab3565b8281528260208201528260408201526060808201520152601b5481116107995761073761022591612bc5565b5060ff60046040519261074984612ab3565b80546001600160a01b03168452600181015460208501526002810154604085015261077660038201612af1565b606085015201541615156080820152604051918291602083526020830190612bf5565b60405162461bcd60e51b815260206004820152601b60248201527f436c61696d20696e646578206973206f7574206f662072616e676500000000006044820152606490fd5b50346102ad57806003193601126102ad576020601754604051908152f35b50346102ad5760403660031901126102ad57610823610819612a4f565b6024359033612f26565b602060405160018152f35b50346102ad57806003193601126102ad576020601354604051908152f35b50346102ad57806003193601126102ad5760405190806010549061086f82612a7b565b80855291600181169081156102865750600114610896576102258461021181860382612acf565b601081527f1b6847dc741a1b0cd08d278845f9d819d87b734759afb55fe2de5cb82a9ae672939250905b8082106108d95750909150810160200161021182610201565b9192600181602092548385880101520191019092916108c0565b50346102ad57806003193601126102ad5760405190806004549061091682612a7b565b8085529160018116908115610286575060011461093d576102258461021181860382612acf565b600481527f8a35acfbc15ff81a39ae7d344fd709f28e8600b4aa8c65c6b64bfe7fe36bd19b939250905b8082106109805750909150810160200161021182610201565b919260018160209254838588010152019101909291610967565b50346102ad5760203660031901126102ad5760206109b9600435613267565b604051908152f35b50346102ad5760203660031901126102ad57600435601b54811015610a47576109e990612bc5565b5060018060a01b03815416600182015491610a3b60028201549160ff6004610a1360038401612af1565b920154169260405195869586526020860152604085015260a0606085015260a0840190612a2b565b90151560808301520390f35b5080fd5b50346102ad5760203660031901126102ad576020906040906001600160a01b03610a73612a4f565b1681528083522054604051908152f35b50346102ad57806003193601126102ad576040519080600f5490610aa682612a7b565b80855291600181169081156102865750600114610acd576102258461021181860382612acf565b600f81527f8d1108e10bcb7c27dddfc02ed9d693a074039d026cf4ea4240b40f7d581ac802939250905b808210610b105750909150810160200161021182610201565b919260018160209254838588010152019101909291610af7565b50346102ad57610b3936612b91565b600554604051633998fdd360e01b815291906001600160a01b0316602083600481845afa928315610dbf578493610eaa575b50600490602090610b86336001600160a01b03871614612c5c565b604051634e575d4b60e01b815292839182905afa908115610dbf578491610e8b575b506040516370a0823160e01b81523060048201526001600160a01b03919091169190602081602481865afa908115610e80578591610e4c575b50610c0d90610c076001610bfb6040610c16960135612bc5565b50015460145490612d6f565b90612d6f565b60025490612d82565b916103e88302928084046103e81490151715610e385760405163095ea7b360e01b81526001600160a01b039190911660048201526024810183905260208160448187865af1908115610dbf578491610e19575b5015610dca5760405163095ea7b360e01b81523360048201526024810183905260208160448187865af1908115610dbf578491610da0575b5015610d5b5760405163095ea7b360e01b815232600482015260248101929092526020908290604490829086905af190811561051e578291610d2c575b5015610ce75780f35b60405162461bcd60e51b815260206004820152601b60248201527f4661696c656420746f20617070726f76652074782e6f726967696e00000000006044820152606490fd5b610d4e915060203d602011610d54575b610d468183612acf565b810190612da0565b5f610cde565b503d610d3c565b60405162461bcd60e51b815260206004820152601c60248201527f4661696c656420746f20617070726f7665206d73672e73656e646572000000006044820152606490fd5b610db9915060203d602011610d5457610d468183612acf565b5f610ca1565b6040513d86823e3d90fd5b60405162461bcd60e51b815260206004820152602160248201527f4661696c656420746f20617070726f76652073657276696365206d616e6167656044820152603960f91b6064820152608490fd5b610e32915060203d602011610d5457610d468183612acf565b5f610c69565b634e487b7160e01b84526011600452602484fd5b90506020813d602011610e78575b81610e6760209383612acf565b810103126105125751610c16610be1565b3d9150610e5a565b6040513d87823e3d90fd5b610ea4915060203d6020116105fd576105ed8183612acf565b5f610ba8565b6004919350610ec7602091823d84116105fd576105ed8183612acf565b939150610b6b565b50346102ad5760603660031901126102ad576044356001600160a01b0381169060043590602435908390036111ee576017544210156111aa57811561116657821561112157601854610f2360195484612e12565b116110cb57600554604051627ebb0f60e51b815290602090829060049082906001600160a01b03165afa908115610e805760249160209187916110ae575b506040516370a0823160e01b815233600482015292839182906001600160a01b03165afa8015610e805782918691611079575b50106110345781610fa482613267565b03610fef577f1ec6ca237cf412015f109db027dc71b2292a20387279781fd699c4ec328a23d791610fd6602092612fbd565b610fe281601954612e12565b601955604051908152a280f35b60405162461bcd60e51b815260206004820152601860248201527f53656e74206173736574732069736e277420656e6f75676800000000000000006044820152606490fd5b60405162461bcd60e51b815260206004820152601d60248201527f596f7520646f6e2774206861766520656e6f7567682062616c616e63650000006044820152606490fd5b9150506020813d6020116110a6575b8161109560209383612acf565b81010312610512578190515f610f94565b3d9150611088565b6110c59150823d84116105fd576105ed8183612acf565b5f610f61565b60405162461bcd60e51b815260206004820152602860248201527f4d617820737570706c79206578636565647320746865206d617820706f6c6963604482015267792073686172657360c01b6064820152608490fd5b60405162461bcd60e51b815260206004820152601f60248201527f496e7375726564206d75737420626520612076616c69642061646472657373006044820152606490fd5b606460405162461bcd60e51b815260206004820152602060248201527f416d6f756e74206d7573742062652067726561746572207468616e207a65726f6044820152fd5b606460405162461bcd60e51b815260206004820152602060248201527f506f6c6963792063616e277420626520707572636861736520616e796d6f72656044820152fd5b8380fd5b50346102ad57806003193601126102ad576020601854604051908152f35b50346102ad57806003193601126102ad576040519080600b549061123382612a7b565b8085529160018116908115610286575060011461125a576102258461021181860382612acf565b600b81527f0175b7a638427703f0dbe7bb9bbf987a2551717b34e79f33b5b1008d1fa01db9939250905b80821061129d5750909150810160200161021182610201565b919260018160209254838588010152019101909291611284565b50346102ad57806003193601126102ad576020601654604051908152f35b50346102ad57806003193601126102ad576040519080600c54906112f882612a7b565b8085529160018116908115610286575060011461131f576102258461021181860382612acf565b600c81527fdf6966c971051c3d54ec59162606531493a51404a002842f56009d7e5cf4a8c7939250905b8082106113625750909150810160200161021182610201565b919260018160209254838588010152019101909291611349565b50346102ad5760203660031901126102ad57611396612a4f565b6009546001600160a01b038116916113af338414612db8565b6001600160a01b03169182907f155faa1d2e95029c9603f208551520bab524c2a713e5b7710cd39a91c73d281f8580a36001600160a01b0319161760095580f35b50346102ad57806003193601126102ad5760405190806012549061141382612a7b565b8085529160018116908115610286575060011461143a576102258461021181860382612acf565b601281527fbb8a6a4669ba250d26cd7a459eca9d215f8307e33aebe50379bc5a3617ec3444939250905b80821061147d5750909150810160200161021182610201565b919260018160209254838588010152019101909291611464565b50346102ad57806003193601126102ad576016544211156118e8576114c760018060a01b03600954163314612db8565b600554604051634e575d4b60e01b81526001600160a01b0390911690602081600481855afa9081156105585783916118c9575b506040516370a0823160e01b81523060048201526001600160a01b039190911691602082602481865afa918215610dbf578492611895575b506040519163266d6a8360e11b83526004830152602082602481865afa918215610dbf578492611861575b506007548203918211610e38578391602060049260405193848092631d283f4f60e31b82525afa918215610558578392611828575b5060649161159f91612d6f565b04916040516370a0823160e01b8152306004820152602081602481855afa9081156105585783916117f0575b509060646020926040519485938492632d182be560e21b845260048401523060248401523060448401525af19081156105585783916117be575b50600554604051627ebb0f60e51b81526001600160a01b039091169290602081600481875afa918215610e80576116769260209287916117a1575b5060405163a9059cbb60e01b81526001600160a01b03968716600482015260248101929092529094169391829081906044820190565b038187875af18015610dbf57611784575b506009546040516370a0823160e01b8152306004820152906001600160a01b0316602082602481875afa918215610e8057859261174e575b5060405163a9059cbb60e01b81526001600160a01b0390911660048201526024810191909152916020908390818681604481015b03925af1908115610558577f5b6b431d4476a211bb7d41c20d1aab9ae2321deee0d20be3d9fc9b1093fa6e3d92602092611733575b50604051908152a180f35b61174990833d8511610d5457610d468183612acf565b611728565b91506020823d60201161177c575b8161176960209383612acf565b81010312610512579051906116f36116bf565b3d915061175c565b61179c9060203d602011610d5457610d468183612acf565b611687565b6117b89150833d85116105fd576105ed8183612acf565b5f611640565b90506020813d6020116117e8575b816117d960209383612acf565b8101031261051257515f611605565b3d91506117cc565b919250506020813d602011611820575b8161180d60209383612acf565b81010312610512575183919060646115cb565b3d9150611800565b925090506020823d602011611859575b8161184560209383612acf565b81010312610512579051839161159f611592565b3d9150611838565b9091506020813d60201161188d575b8161187d60209383612acf565b810103126105125751905f61155d565b3d9150611870565b9091506020813d6020116118c1575b816118b160209383612acf565b810103126105125751905f611532565b3d91506118a4565b6118e2915060203d6020116105fd576105ed8183612acf565b5f6114fa565b60405162461bcd60e51b815260206004820152602360248201527f506c65617365207761697420756e74696c2074686520706572696f6420697320604482015262195b9960ea1b6064820152608490fd5b50346102ad57806003193601126102ad57602060405160128152f35b50346102ad57806003193601126102ad576020601454604051908152f35b50346102ad57806003193601126102ad576020601954604051908152f35b50346102ad5760603660031901126102ad576119ab612a4f565b6119b3612a65565b6001600160a01b038216808452600160209081526040808620335f908152925290205460443593915f1982106119f0575b50506108239350612f26565b848210611a58578015611a44573315611a305785604091610823975260016020522060018060a01b0333165f526020528360405f20910390555f806119e4565b634a1406b160e11b86526004869052602486fd5b63e602df0560e01b86526004869052602486fd5b6064868684637dc7a0d960e11b835233600452602452604452fd5b50346102ad57806003193601126102ad576020601b54604051908152f35b50346102ad5760203660031901126102ad5760043560065460018101809111611b0f576002549160018301809311611afb57611ace8383836132a1565b938315611ae75760206109b98686868609151590612e12565b634e487b7160e01b81526012600452602490fd5b634e487b7160e01b5f52601160045260245ffd5b634e487b7160e01b83526011600452602483fd5b50346102ad57806003193601126102ad57604051908060115490611b4682612a7b565b80855291600181169081156102865750600114611b6d576102258461021181860382612acf565b601181527f31ecc21a745e3968a04e9570e4425bc18fa8019c68028196b546d1669c200c68939250905b808210611bb05750909150810160200161021182610201565b919260018160209254838588010152019101909291611b97565b5034610512575f36600319011261051257335f525f60205260405f20541561250b57600554604051627ebb0f60e51b81526001600160a01b0390911690602081600481855afa908115612019575f916124ec575b506040516370a0823160e01b81523360048201526001600160a01b039190911690602081602481855afa908115612019575f916124ba575b5060135480911061245e57604051636eb1769f60e11b8152336004820152306024820152602081604481865afa80156120195782915f91612429575b50106123c557602060049360405194858092630ee7e16360e31b82525afa928315612019575f93612391575b506040516370a0823160e01b8152336004820152602081602481865afa80156120195784915f9161235c575b50106122fe57604051636eb1769f60e11b8152336004820152306024820152602081604481865afa80156120195784915f916122c9575b501061225e576009546040516323b872dd60e01b81523360048201526001600160a01b03909116602482015260448101919091526020816064815f865af1908115612019575f9161223f575b50156121fa576005546040516323b872dd60e01b81523360048201526001600160a01b0390911660248201526044810192909252602090829060649082905f905af1908115612019575f916121db575b501561219657601b545f805b82811061216a575061212557335f525f60205260405f205460405191611dee83612ab3565b338352602083019082825260408401818152604051906020820182811067ffffffffffffffff8211176120fe576040525f82526060860191825260808601925f8452680100000000000000008110156120fe57806001611e519201601b55612bc5565b94909461211257865185546001600160a01b0319166001600160a01b0391909116178555516001850155516002840155518051600384019167ffffffffffffffff82116120fe57611ea28354612a7b565b601f81116120b9575b50602090601f831160011461204e57918060049492611ef79796945f92612043575b50508160011b915f199060031b1c19161790555b51151591019060ff801983541691151516179055565b611f018133612e1f565b611f0b8130612eb6565b600554604051633998fdd360e01b815290602090829060049082906001600160a01b03165afa908115612019575f91612024575b5060018060a01b03169063ffffffff601a5416823b156105125760845f92836040519586948593630bb54ccf60e41b8552306004860152336024860152604485015260648401525af1801561201957612004575b506001601a54917f16540b30944d4a001747daed1f3b0be02461ddc7221558400f55bb848bf4fd79611fe063ffffffff851692604051918291858352604060208401526040830190612bf5565b0390a10163ffffffff8111611b0f5763ffffffff169063ffffffff191617601a5580f35b6120119192505f90612acf565b5f905f611f93565b6040513d5f823e3d90fd5b61203d915060203d6020116105fd576105ed8183612acf565b5f611f3f565b015190505f80611ecd565b90601f19831691845f52815f20925f5b8181106120a15750926001928592611ef79998966004989610612089575b505050811b019055611ee1565b01515f1960f88460031b161c191690555f808061207c565b9293602060018192878601518155019501930161205e565b835f5260205f20601f840160051c810191602085106120f4575b601f0160051c01905b8181106120e95750611eab565b5f81556001016120dc565b90915081906120d3565b634e487b7160e01b5f52604160045260245ffd5b634e487b7160e01b5f525f60045260245ffd5b60405162461bcd60e51b815260206004820152601860248201527f436c61696d20686173206265656e207375626d697474656400000000000000006044820152606490fd5b61217381612bc5565b50546001600160a01b0316331461218d575b600101611dc9565b60019150612185565b60405162461bcd60e51b815260206004820152601960248201527f4661696c656420746f207061792073746f7261676520666565000000000000006044820152606490fd5b6121f4915060203d602011610d5457610d468183612acf565b5f611dbd565b60405162461bcd60e51b815260206004820152601760248201527f4661696c656420746f2070617920636c61696d206665650000000000000000006044820152606490fd5b612258915060203d602011610d5457610d468183612acf565b5f611d6d565b60405162461bcd60e51b815260206004820152603860248201527f596f757220616c6c6f7765642062616c616e63652069736e277420656e6f756760448201527f6820746f20706179207468652073746f726167652066656500000000000000006064820152608490fd5b9150506020813d6020116122f6575b816122e560209383612acf565b81010312610512578390515f611d21565b3d91506122d8565b60405162461bcd60e51b815260206004820152603060248201527f596f75722062616c616e63652069736e277420656e6f75676820746f2070617960448201526f207468652073746f726167652066656560801b6064820152608490fd5b9150506020813d602011612389575b8161237860209383612acf565b81010312610512578390515f611cea565b3d915061236b565b9092506020813d6020116123bd575b816123ad60209383612acf565b810103126105125751915f611cbe565b3d91506123a0565b60405162461bcd60e51b815260206004820152603660248201527f596f757220616c6c6f7765642062616c616e63652069736e277420656e6f75676044820152756820746f207061792074686520636c61696d2066656560501b6064820152608490fd5b9150506020813d602011612456575b8161244560209383612acf565b81010312610512578190515f611c92565b3d9150612438565b60405162461bcd60e51b815260206004820152602e60248201527f596f75722062616c616e63652069736e277420656e6f75676820746f2070617960448201526d2074686520636c61696d2066656560901b6064820152608490fd5b90506020813d6020116124e4575b816124d560209383612acf565b8101031261051257515f611c56565b3d91506124c8565b612505915060203d6020116105fd576105ed8183612acf565b5f611c1e565b60405162461bcd60e51b815260206004820152601760248201527f596f7520646f6e2774206861766520706f6c69636965730000000000000000006044820152606490fd5b34610512575f366003190112610512576020600254604051908152f35b346105125761257b36612b91565b600554604051633998fdd360e01b815291906001600160a01b0316602083600481845afa908115612019576125c76020926004955f916127f7575b506001600160a01b03163314612c5c565b604051634e575d4b60e01b815293849182905afa918215612019575f926127d6575b506080810191600161262a6125fd85612cbe565b94612625604086013596600461261289612bc5565b50019060ff801983541691151516179055565b612cbe565b151503612778576040516370a0823160e01b81523060048201526001600160a01b03919091169190602081602481865afa908115612019575f91612744575b506126c892612685610c0d602093610c076001610bfb8a612bc5565b9061268f86612bc5565b505460405163a9059cbb60e01b81526001600160a01b0390911660048201526024810192909252909384919082905f9082906044820190565b03925af1908115612019577f2f45553926686d2a9ec600d35f1be18eca3b5bd14fa37dbfa886a92c6fe4353d9261272292612727575b50612716600161270d86612bc5565b50015430612e1f565b60405191829182612ccb565b0390a2005b61273f9060203d602011610d5457610d468183612acf565b6126fe565b90506020813d602011612770575b8161275f60209383612acf565b8101031261051257516126c8612669565b3d9150612752565b50612787600161270d84612bc5565b80356001600160a01b0381168103610512577f229be430f7d9e5e210ad1203cf877ccb11cc2352f89daddc654b7d433a5b0962916127166127229260016127cd87612bc5565b50015490612eb6565b6127f091925060203d6020116105fd576105ed8183612acf565b90826125e9565b61280e9150843d86116105fd576105ed8183612acf565b866125b6565b34610512575f366003190112610512576040515f600e5461283481612a7b565b80845290600181169081156128ba575060011461285c575b6102258361021181850382612acf565b600e5f9081527fbb7b4a454dc3493923482f07822329ed19e8244eff582cc204f8554c3620c3fd939250905b8082106128a05750909150810160200161021161284c565b919260018160209254838588010152019101909291612888565b60ff191660208086019190915291151560051b84019091019150610211905061284c565b34610512576040366003190112610512576128f7612a4f565b602435903315612973576001600160a01b031690811561296057335f52600160205260405f20825f526020528060405f20556040519081527f8c5be1e5ebec7d5bd14f71427d1e84f3dd0314c0f7b2291e5b200ac8c7c3b92560203392a3602060405160018152f35b634a1406b160e11b5f525f60045260245ffd5b63e602df0560e01b5f525f60045260245ffd5b34610512575f366003190112610512576040515f6003546129a681612a7b565b80845290600181169081156128ba57506001146129cd576102258361021181850382612acf565b60035f9081527fc2575a0e9e593c00f959f8c92f12db2869c3395a3b0502d05e2516446f71f85b939250905b808210612a115750909150810160200161021161284c565b9192600181602092548385880101520191019092916129f9565b805180835260209291819084018484015e5f828201840152601f01601f1916010190565b600435906001600160a01b038216820361051257565b602435906001600160a01b038216820361051257565b90600182811c92168015612aa9575b6020831014612a9557565b634e487b7160e01b5f52602260045260245ffd5b91607f1691612a8a565b60a0810190811067ffffffffffffffff8211176120fe57604052565b90601f8019910116810190811067ffffffffffffffff8211176120fe57604052565b9060405191825f825492612b0484612a7b565b8084529360018116908115612b6f5750600114612b2b575b50612b2992500383612acf565b565b90505f9291925260205f20905f915b818310612b53575050906020612b29928201015f612b1c565b6020919350806001915483858901015201910190918492612b3a565b905060209250612b2994915060ff191682840152151560051b8201015f612b1c565b6020600319820112610512576004359067ffffffffffffffff82116105125760a09082900360031901126105125760040190565b601b54811015612be157601b5f52600560205f20910201905f90565b634e487b7160e01b5f52603260045260245ffd5b9060018060a01b0382511681526020820151602082015260408201516040820152608080612c32606085015160a0606086015260a0850190612a2b565b930151151591015290565b9081602091031261051257516001600160a01b03811681036105125790565b15612c6357565b60405162461bcd60e51b815260206004820152602d60248201527f4f6e6c792073657276696365206d616e616765722063616e20696e766f6b652060448201526c3a3434b990333ab731ba34b7b760991b6064820152608490fd5b3580151581036105125790565b6020815281356001600160a01b0381169081900361051257602082015260208201356040820152604082013560608201526060820135601e1983360301811215610512578201916020833593019067ffffffffffffffff8411610512578336038213610512578360809260a0848601528160c086015260e08501375f60e085850101520135918215158093036105125760e09260a0830152601f8019910116010190565b81810292918115918404141715611afb57565b8115612d8c570490565b634e487b7160e01b5f52601260045260245ffd5b90816020910312610512575180151581036105125790565b15612dbf57565b60405162461bcd60e51b815260206004820152602560248201527f4f6e6c7920696e73757265722063616e20696e766f6b6520746869732066756e60448201526431ba34b7b760d91b6064820152608490fd5b91908201809211611afb57565b9091906001600160a01b03168015612ea357805f525f60205260405f2054838110612e89576020845f94957fddf252ad1be2c89b69c2b068fc378daa952ba7f163c4a11628f55a4df523b3ef938587528684520360408620558060025403600255604051908152a3565b915063391434e360e21b5f5260045260245260445260645ffd5b634b637e8f60e11b5f525f60045260245ffd5b6001600160a01b0316908115612f13577fddf252ad1be2c89b69c2b068fc378daa952ba7f163c4a11628f55a4df523b3ef602082612ef75f94600254612e12565b60025584845283825260408420818154019055604051908152a3565b63ec442f0560e01b5f525f60045260245ffd5b6001600160a01b0316908115612ea3576001600160a01b0316918215612f1357815f525f60205260405f2054818110612fa457817fddf252ad1be2c89b69c2b068fc378daa952ba7f163c4a11628f55a4df523b3ef92602092855f525f84520360405f2055845f525f825260405f20818154019055604051908152a3565b8263391434e360e21b5f5260045260245260445260645ffd5b600554604051627ebb0f60e51b815290602090829060049082906001600160a01b03165afa908115612019575f91613248575b506040516323b872dd60e01b81523360048201523060248201526044810183905290602090829060649082905f906001600160a01b03165af180156120195761322b575b5061303e81613267565b60025461321c5761304f9030612eb6565b600554604051627ebb0f60e51b8152906001600160a01b0316602082600481845afa918215612019575f926131f7575b50602060049160405192838092634e575d4b60e01b82525afa908115612019575f916131d8575b5060405163095ea7b360e01b81526001600160a01b038281166004830152602482018590529092602091849160449183915f91165af1908115612019575f926020926131bd575b50604051636e553f6560e01b81526004810185905230602482015292839160449183916001600160a01b03165af180156120195761318e575b507f227a473b70d2f893cc7659219575c030a63b5743024fe1e0c1a680e708b1525a6020604051838152a161315d81600654612e12565b6006556040519081527fe1fffcc4923d04b559f4d29a8bfc6cda04eb5b0d3c460751c2402c5c5cc9109c60203392a2565b6020813d6020116131b5575b816131a760209383612acf565b810103126105125751613126565b3d915061319a565b6131d390833d8511610d5457610d468183612acf565b6130ed565b6131f1915060203d6020116105fd576105ed8183612acf565b5f6130a6565b6004919250613214602091823d84116105fd576105ed8183612acf565b92915061307f565b6132269033612eb6565b61304f565b6132439060203d602011610d5457610d468183612acf565b613034565b613261915060203d6020116105fd576105ed8183612acf565b5f612ff0565b60025460018101809111611afb576006549060018201809211611afb5761328f8282856132a1565b61329e93505f92509050612e12565b90565b91818302915f198185099383808610950394808603951461333157848311156133195790829109815f0382168092046002816003021880820260020302808202600203028082026002030280820260020302808202600203028091026002030293600183805f03040190848311900302920304170290565b82634e487b715f52156003026011186020526024601cfd5b50509061329e9250612d8256fea26469706673582212202b5767f9b2f672ac72be5c03dcacb6f870db5ebdc06c0f264570a5f4e57853cb64736f6c634300081c0033a264697066735822122002e38f3f8333151592a8048bf2634dd8e885dbbe6b55bfcb279764a15258e25a64736f6c634300081c003300000000000000000000000094baa979f569edb2f33903d9ccec66b31c9620f5000000000000000000000000654837fe31838bd0391188182a3ecdd402846d3a000000000000000000000000a5a58f86fcf42ce8395449b746a7c9c184359bea0000000000000000000000000000000000000000000000000000000000000005000000000000000000000000000000000000000000000000000000000000000a",
        "nonce": "0x54e",
        "chainId": "0x66eee"
      },
      "additionalContracts": [],
      "isFixedGasLimit": false
    },
    {
      "hash": "0x962c384dda99db2813cc9547e8fdba5e1ad23ff02a1882e6f57f3794837c72a8",
      "transactionType": "CALL",
      "contractName": null,
      "contractAddress": "0xa5a58f86fcf42ce8395449b746a7c9c184359bea",
      "function": "initialize(address,string)",
      "arguments": [
        "0x5f463606C99f940aeA89c3A85bfa6Af72c48a70f",
        "04fb611087908d883d10d1b9633a7301b734eb693888b006a543a04429c6430d829bb4d6dd6eda0e2361ff153c398388f4fc2b7a6b640f6dcb083e763b6be1a568"
      ],
      "transaction": {
        "from": "0x34728af7d0fc03cbbdff82b6d52aeda8c999e2b2",
        "to": "0xa5a58f86fcf42ce8395449b746a7c9c184359bea",
        "gas": "0x3ee15",
        "value": "0x0",
        "input": "0xf399e22e0000000000000000000000005f463606c99f940aea89c3a85bfa6af72c48a70f0000000000000000000000000000000000000000000000000000000000000040000000000000000000000000000000000000000000000000000000000000008230346662363131303837393038643838336431306431623936333361373330316237333465623639333838386230303661353433613034343239633634333064383239626234643664643665646130653233363166663135336333393833383866346663326237613662363430663664636230383365373633623662653161353638000000000000000000000000000000000000000000000000000000000000",
        "nonce": "0x54f",
        "chainId": "0x66eee"
      },
      "additionalContracts": [],
      "isFixedGasLimit": false
    },
    {
      "hash": "0x55bf044577ed4960daa87a8ea51098ce7d724ca4cf70c9f7aa37c87b5b6e2cdf",
      "transactionType": "CALL",
      "contractName": "InsuranceFactory",
      "contractAddress": "0x5f463606c99f940aea89c3a85bfa6af72c48a70f",
      "function": "createInsurancePool(string,string,string,string,string,string,string,string,string,string,uint256,uint256,uint256,uint256,uint256,uint256)",
      "arguments": [
        "Indodax Insurance",
        "IDXI",
        "http://res.cloudinary.com/renakaagusta/raw/upload/v1732642263/indodax.md",
        "https://res.cloudinary.com/renakaagusta/raw/upload/v1732642264/indodax.json",
        "curl -X GET \\'https://api.npoint.io/c9aa3e8003aceb1b9b52\\' --header \\'content-type: application/json\\' --header \\'x-api-key: SECRET_KEY\\'",
        "04278d1a2ff5452c89e714699a77f81627a9a5875104c0809cf9e0f6dacf5a2c0dd840586a64cfa89b2d104107b5cfd8569f965e6f75cc4eac59955f28d7f1cc70570e667caf233e4eacbc8ebf952fa581e53dae7153515992c681d9df58acfb42",
        "04fab08cf72b5eac277e68f04b45e288d2ee68c4f1696e442e8c03ec7274c7d9da83c0dc614b840e518a4d4fd255a7ee8c9cdb04ceba84eea621ac41265c5a5ac80eacdfe3dd294d813774c1a1ccaedf95e967cbaf554b6c577555e4f64fbd265d4dbf5365c722956afe93d7ad66ca2a87090ddc38e504d6388e6a919b347d2655588e6a11231d2406ddce",
        "04927edf4654b8f312250ff8fd6c03cc4fbfdcbfc2d5a27985942bf3921131fac7073d4e9ad43a5c679c3f172e487405aa149b04a6ed907bbbcd33ed2d60cb46720e027bdf21c27ec15469e5f63b1228a75fa641a55b5bcb3feb37dfa050fa987a14c27dca48b92eea19181c325e76d9d3f751018e8743c45fa66fea07f5f0151aab335a14fe29a7ecc2a28c01910fbe5f541ce1f3a1eb4625fbcd824a35503a4d002b",
        "\\\\{\\\"data\\\":\\\\{\\\"rekts\\\":\\\\[(?<extractedValue>.*?)\\\\]\\\\}\\\\}",
        "\\\"projectName\\\":\\\\s*\\\"Indodax\\\"",
        "5000000000",
        "3",
        "1732714444",
        "1735306444",
        "1735133644",
        "5000000000000000000"
      ],
      "transaction": {
        "from": "0x34728af7d0fc03cbbdff82b6d52aeda8c999e2b2",
        "to": "0x5f463606c99f940aea89c3a85bfa6af72c48a70f",
        "gas": "0x11f65",
        "value": "0x0",
        "input": "0x507817bb0000000000000000000000000000000000000000000000000000000000000200000000000000000000000000000000000000000000000000000000000000024000000000000000000000000000000000000000000000000000000000000002800000000000000000000000000000000000000000000000000000000000000300000000000000000000000000000000000000000000000000000000000000038000000000000000000000000000000000000000000000000000000000000004400000000000000000000000000000000000000000000000000000000000000540000000000000000000000000000000000000000000000000000000000000068000000000000000000000000000000000000000000000000000000000000008000000000000000000000000000000000000000000000000000000000000000860000000000000000000000000000000000000000000000000000000012a05f20000000000000000000000000000000000000000000000000000000000000000030000000000000000000000000000000000000000000000000000000067471fcc00000000000000000000000000000000000000000000000000000000676eaccc00000000000000000000000000000000000000000000000000000000676c09cc0000000000000000000000000000000000000000000000004563918244f400000000000000000000000000000000000000000000000000000000000000000011496e646f64617820496e737572616e6365000000000000000000000000000000000000000000000000000000000000000000000000000000000000000000000449445849000000000000000000000000000000000000000000000000000000000000000000000000000000000000000000000000000000000000000000000048687474703a2f2f7265732e636c6f7564696e6172792e636f6d2f72656e616b616167757374612f7261772f75706c6f61642f76313733323634323236332f696e646f6461782e6d64000000000000000000000000000000000000000000000000000000000000000000000000000000000000000000000000000000000000004b68747470733a2f2f7265732e636c6f7564696e6172792e636f6d2f72656e616b616167757374612f7261772f75706c6f61642f76313733323634323236342f696e646f6461782e6a736f6e00000000000000000000000000000000000000000000000000000000000000000000000000000000000000000000000000000000836375726c202d5820474554202768747470733a2f2f6170692e6e706f696e742e696f2f633961613365383030336163656231623962353227202d2d6865616465722027636f6e74656e742d747970653a206170706c69636174696f6e2f6a736f6e27202d2d6865616465722027782d6170692d6b65793a205345435245545f4b455927000000000000000000000000000000000000000000000000000000000000000000000000000000000000000000000000000000000000000000000000c23034323738643161326666353435326338396537313436393961373766383136323761396135383735313034633038303963663965306636646163663561326330646438343035383661363463666138396232643130343130376235636664383536396639363565366637356363346561633539393535663238643766316363373035373065363637636166323333653465616362633865626639353266613538316535336461653731353335313539393263363831643964663538616366623432000000000000000000000000000000000000000000000000000000000000000000000000000000000000000000000000000000000000000000000000011630346661623038636637326235656163323737653638663034623435653238386432656536386334663136393665343432653863303365633732373463376439646138336330646336313462383430653531386134643466643235356137656538633963646230346365626138346565613632316163343132363563356135616338306561636466653364643239346438313337373463316131636361656466393565393637636261663535346236633537373535356534663634666264323635643464626635333635633732323935366166653933643761643636636132613837303930646463333865353034643633383865366139313962333437643236353535383865366131313233316432343036646463650000000000000000000000000000000000000000000000000000000000000000000000000000000001463034393237656466343635346238663331323235306666386664366330336363346662666463626663326435613237393835393432626633393231313331666163373037336434653961643433613563363739633366313732653438373430356161313439623034613665643930376262626364333365643264363063623436373230653032376264663231633237656331353436396535663633623132323861373566613634316135356235626362336665623337646661303530666139383761313463323764636134386239326565613139313831633332356537366439643366373531303138653837343363343566613636666561303766356630313531616162333335613134666532396137656363326132386330313931306662653566353431636531663361316562343632356662636438323461333535303361346430303262000000000000000000000000000000000000000000000000000000000000000000000000000000000000000000000000000000000000000000315c7b2264617461223a5c7b2272656b7473223a5c5b283f3c65787472616374656456616c75653e2e2a3f295c5d5c7d5c7d000000000000000000000000000000000000000000000000000000000000000000000000000000000000000000001a2270726f6a6563744e616d65223a5c732a22496e646f64617822000000000000",
        "nonce": "0x550",
        "chainId": "0x66eee"
      },
      "additionalContracts": [],
      "isFixedGasLimit": false
    },
    {
      "hash": "0xf8b126438db21f81712cea6f4bb5709506f250f38b1eca1613a9d6db28a575e0",
      "transactionType": "CALL",
      "contractName": null,
      "contractAddress": "0x94baa979f569edb2f33903d9ccec66b31c9620f5",
      "function": "approve(address,uint256)",
      "arguments": [
        "0xd38BCe738728bAA8762E263e3F69D5BA3c2247f1",
        "15000000000000000000"
      ],
      "transaction": {
        "from": "0x34728af7d0fc03cbbdff82b6d52aeda8c999e2b2",
        "to": "0x94baa979f569edb2f33903d9ccec66b31c9620f5",
        "gas": "0xf5c5",
        "value": "0x0",
        "input": "0x095ea7b3000000000000000000000000d38bce738728baa8762e263e3f69d5ba3c2247f1000000000000000000000000000000000000000000000000d02ab486cedc0000",
        "nonce": "0x551",
        "chainId": "0x66eee"
      },
      "additionalContracts": [],
      "isFixedGasLimit": false
    },
    {
      "hash": "0xcf20ad44225f3db81272c2f3195540675a71fce59a64ace4c30b63b0c8b1fdcf",
      "transactionType": "CALL",
      "contractName": "InsurancePool",
      "contractAddress": "0xd38bce738728baa8762e263e3f69d5ba3c2247f1",
      "function": "initialDeposit()",
      "arguments": [],
      "transaction": {
        "from": "0x34728af7d0fc03cbbdff82b6d52aeda8c999e2b2",
        "to": "0xd38bce738728baa8762e263e3f69d5ba3c2247f1",
        "gas": "0x73e3",
        "value": "0x0",
        "input": "0xe037f889",
        "nonce": "0x552",
        "chainId": "0x66eee"
      },
      "additionalContracts": [],
      "isFixedGasLimit": false
    },
    {
      "hash": "0x3bf8c3b352a6220ddd084271b73c6c6d076beb1904aa0a905ddd9e2ef61105a2",
      "transactionType": "CALL",
      "contractName": null,
      "contractAddress": "0x94baa979f569edb2f33903d9ccec66b31c9620f5",
      "function": "approve(address,uint256)",
      "arguments": [
        "0xd38BCe738728bAA8762E263e3F69D5BA3c2247f1",
        "2000000000000000000"
      ],
      "transaction": {
        "from": "0x94c83a5137751c4e6acc0cfdb09819b0b83582d1",
        "to": "0x94baa979f569edb2f33903d9ccec66b31c9620f5",
        "gas": "0xf5c5",
        "value": "0x0",
        "input": "0x095ea7b3000000000000000000000000d38bce738728baa8762e263e3f69d5ba3c2247f10000000000000000000000000000000000000000000000001bc16d674ec80000",
        "nonce": "0x34",
        "chainId": "0x66eee"
      },
      "additionalContracts": [],
      "isFixedGasLimit": false
    },
    {
      "hash": "0xd1628033c91f39f457627c8c5548d1665e93f20884dd7f5a13f4c07c29118be8",
      "transactionType": "CALL",
      "contractName": "InsurancePool",
      "contractAddress": "0xd38bce738728baa8762e263e3f69d5ba3c2247f1",
      "function": "purchasePolicy(uint256,uint256,address)",
      "arguments": [
        "2000000000000000000",
        "2000000000000000000",
        "0x94c83a5137751C4E6acc0cFdB09819B0B83582D1"
      ],
      "transaction": {
        "from": "0x94c83a5137751c4e6acc0cfdb09819b0b83582d1",
        "to": "0xd38bce738728baa8762e263e3f69d5ba3c2247f1",
        "gas": "0x7c9b",
        "value": "0x0",
        "input": "0x6178e44c0000000000000000000000000000000000000000000000001bc16d674ec800000000000000000000000000000000000000000000000000001bc16d674ec8000000000000000000000000000094c83a5137751c4e6acc0cfdb09819b0b83582d1",
        "nonce": "0x35",
        "chainId": "0x66eee"
      },
      "additionalContracts": [],
      "isFixedGasLimit": false
    },
    {
      "hash": "0xddf188896928b932c42addcafa9534a0babff97562559fe1110e8797c04cd35c",
      "transactionType": "CALL",
      "contractName": null,
      "contractAddress": "0x94baa979f569edb2f33903d9ccec66b31c9620f5",
      "function": "approve(address,uint256)",
      "arguments": [
        "0xd38BCe738728bAA8762E263e3F69D5BA3c2247f1",
        "5000000005"
      ],
      "transaction": {
        "from": "0x94c83a5137751c4e6acc0cfdb09819b0b83582d1",
        "to": "0x94baa979f569edb2f33903d9ccec66b31c9620f5",
        "gas": "0xf5b5",
        "value": "0x0",
        "input": "0x095ea7b3000000000000000000000000d38bce738728baa8762e263e3f69d5ba3c2247f1000000000000000000000000000000000000000000000000000000012a05f205",
        "nonce": "0x36",
        "chainId": "0x66eee"
      },
      "additionalContracts": [],
      "isFixedGasLimit": false
    },
    {
      "hash": "0x39f7056d10301c213bfc97c34d739511666cfe7d34e86c4312f77847a1c313de",
      "transactionType": "CALL",
      "contractName": "InsurancePool",
      "contractAddress": "0xd38bce738728baa8762e263e3f69d5ba3c2247f1",
      "function": "submitClaim()",
      "arguments": [],
      "transaction": {
        "from": "0x94c83a5137751c4e6acc0cfdb09819b0b83582d1",
        "to": "0xd38bce738728baa8762e263e3f69d5ba3c2247f1",
        "gas": "0x73e3",
        "value": "0x0",
        "input": "0x1afbd128",
        "nonce": "0x37",
        "chainId": "0x66eee"
      },
      "additionalContracts": [],
      "isFixedGasLimit": false
    }
  ],
  "receipts": [
    {
      "status": "0x1",
      "cumulativeGasUsed": "0x5204d",
      "logs": [
        {
          "address": "0x94baa979f569edb2f33903d9ccec66b31c9620f5",
          "topics": [
            "0xddf252ad1be2c89b69c2b068fc378daa952ba7f163c4a11628f55a4df523b3ef",
            "0x0000000000000000000000000000000000000000000000000000000000000000",
            "0x00000000000000000000000034728af7d0fc03cbbdff82b6d52aeda8c999e2b2"
          ],
          "data": "0x0000000000000000000000000000000000000000000000008ac7230489e80000",
          "blockHash": "0xcb943b2bab6fe2002c3d9686e11b2e2e654d4efff8e917dfd3fa583923300108",
          "blockNumber": "0x606acda",
          "transactionHash": "0xf87ba8ee87b783c8a536d6ad20decb866aa7cac324aa2ea44560b896767c49c0",
          "transactionIndex": "0x4",
          "logIndex": "0x2",
          "removed": false
        }
      ],
      "logsBloom": "0x00000000000000000000000000000000000000000000000000000000000000000000000000000000000000000000000000000000001000000000020000000000000000000000000040000008000000000000000000000000000000000000000000000000020000000000000000000800000000000000000100000010000000000000000000000000000000000000000000000000000000000000000000000000000000000000000000000000000000000000000000000000000000000000000000000002000000000000000000000000000200000000200000000000000020000000000000000000000000000000000000000000000000000000000000000000",
      "type": "0x2",
      "transactionHash": "0xf87ba8ee87b783c8a536d6ad20decb866aa7cac324aa2ea44560b896767c49c0",
      "transactionIndex": "0x4",
      "blockHash": "0xcb943b2bab6fe2002c3d9686e11b2e2e654d4efff8e917dfd3fa583923300108",
      "blockNumber": "0x606acda",
      "gasUsed": "0x9312",
      "effectiveGasPrice": "0x5f5e100",
      "from": "0x34728af7d0fc03cbbdff82b6d52aeda8c999e2b2",
      "to": "0x94baa979f569edb2f33903d9ccec66b31c9620f5",
      "contractAddress": null,
      "gasUsedForL1": "0x645",
      "l1BlockNumber": "0x6d4e41"
    },
    {
      "status": "0x1",
      "cumulativeGasUsed": "0x5bc7b",
      "logs": [
        {
          "address": "0x94baa979f569edb2f33903d9ccec66b31c9620f5",
          "topics": [
            "0x8c5be1e5ebec7d5bd14f71427d1e84f3dd0314c0f7b2291e5b200ac8c7c3b925",
            "0x00000000000000000000000034728af7d0fc03cbbdff82b6d52aeda8c999e2b2",
            "0x000000000000000000000000654837fe31838bd0391188182a3ecdd402846d3a"
          ],
          "data": "0x0000000000000000000000000000000000000000000000008ac7230489e80000",
          "blockHash": "0xe95d5f4a50a7fff80909543ed796e569a851498fbc63c56890cf65ecd4da447c",
          "blockNumber": "0x606ace7",
          "transactionHash": "0x3f61b1ada9b49444c7ac482c9f9812695b2d1b870fd78f06438fb148c2155381",
          "transactionIndex": "0x3",
          "logIndex": "0x5",
          "removed": false
        }
      ],
      "logsBloom": "0x00000000000000000000000000000000000000000000000000000000000000000000000000000000000000000000000000000000001000000000020000200000000000000000000040000000000000000000000000000000000000000000000000000000000000000000000000000000000000000000000100000000002000000000000000000000000000000000000000000000000000000000000000000800020000000000000000000000000000000000000000000000000000000000000000000000000000000000000000000000000200000000200000000000000000000010000000000000000000000000000000000000000000000000800000000000",
      "type": "0x2",
      "transactionHash": "0x3f61b1ada9b49444c7ac482c9f9812695b2d1b870fd78f06438fb148c2155381",
      "transactionIndex": "0x3",
      "blockHash": "0xe95d5f4a50a7fff80909543ed796e569a851498fbc63c56890cf65ecd4da447c",
      "blockNumber": "0x606ace7",
      "gasUsed": "0xb9ca",
      "effectiveGasPrice": "0x5f5e100",
      "from": "0x34728af7d0fc03cbbdff82b6d52aeda8c999e2b2",
      "to": "0x94baa979f569edb2f33903d9ccec66b31c9620f5",
      "contractAddress": null,
      "gasUsedForL1": "0x645",
      "l1BlockNumber": "0x6d4e41"
    },
    {
      "status": "0x1",
      "cumulativeGasUsed": "0x46d15",
      "logs": [
        {
          "address": "0x94baa979f569edb2f33903d9ccec66b31c9620f5",
          "topics": [
            "0xddf252ad1be2c89b69c2b068fc378daa952ba7f163c4a11628f55a4df523b3ef",
            "0x00000000000000000000000034728af7d0fc03cbbdff82b6d52aeda8c999e2b2",
            "0x000000000000000000000000654837fe31838bd0391188182a3ecdd402846d3a"
          ],
          "data": "0x0000000000000000000000000000000000000000000000008ac7230489e80000",
          "blockHash": "0x1e515e2d5b4261b6cd55f53eeda2f3d4d2dd5d75452902b28cc7d477e13b5e62",
          "blockNumber": "0x606acee",
          "transactionHash": "0x03cf1023893b15b5de214eb212e215d3d0a4c7360176f72f4dfdc1a513123c9b",
          "transactionIndex": "0x2",
          "logIndex": "0x2",
          "removed": false
        },
        {
          "address": "0x654837fe31838bd0391188182a3ecdd402846d3a",
          "topics": [
            "0xddf252ad1be2c89b69c2b068fc378daa952ba7f163c4a11628f55a4df523b3ef",
            "0x0000000000000000000000000000000000000000000000000000000000000000",
            "0x00000000000000000000000034728af7d0fc03cbbdff82b6d52aeda8c999e2b2"
          ],
          "data": "0x0000000000000000000000000000000000000000000000008ac7230489e80000",
          "blockHash": "0x1e515e2d5b4261b6cd55f53eeda2f3d4d2dd5d75452902b28cc7d477e13b5e62",
          "blockNumber": "0x606acee",
          "transactionHash": "0x03cf1023893b15b5de214eb212e215d3d0a4c7360176f72f4dfdc1a513123c9b",
          "transactionIndex": "0x2",
          "logIndex": "0x3",
          "removed": false
        },
        {
          "address": "0x654837fe31838bd0391188182a3ecdd402846d3a",
          "topics": [
            "0xdcbc1c05240f31ff3ad067ef1ee35ce4997762752e3a095284754544f4c709d7",
            "0x00000000000000000000000034728af7d0fc03cbbdff82b6d52aeda8c999e2b2",
            "0x00000000000000000000000034728af7d0fc03cbbdff82b6d52aeda8c999e2b2"
          ],
          "data": "0x0000000000000000000000000000000000000000000000008ac7230489e800000000000000000000000000000000000000000000000000008ac7230489e80000",
          "blockHash": "0x1e515e2d5b4261b6cd55f53eeda2f3d4d2dd5d75452902b28cc7d477e13b5e62",
          "blockNumber": "0x606acee",
          "transactionHash": "0x03cf1023893b15b5de214eb212e215d3d0a4c7360176f72f4dfdc1a513123c9b",
          "transactionIndex": "0x2",
          "logIndex": "0x4",
          "removed": false
        }
      ],
      "logsBloom": "0x00000000000000000000000000000000000000000000000000000000000000000000000000000000000000000000000000000000001000000000020000000000000000400000000040000008000000000000000000000000000000000000000000000000020000000000000000000800000000000004000100000010002000000000000000000000000000000000000000000000000000000000000000000800000000000000000000000000000000000000000000000000000000000000000000000002000400000000000000000000000200000008200000000000000020000000000000000000000000000040000000000000000000000400800000000000",
      "type": "0x2",
      "transactionHash": "0x03cf1023893b15b5de214eb212e215d3d0a4c7360176f72f4dfdc1a513123c9b",
      "transactionIndex": "0x2",
      "blockHash": "0x1e515e2d5b4261b6cd55f53eeda2f3d4d2dd5d75452902b28cc7d477e13b5e62",
      "blockNumber": "0x606acee",
      "gasUsed": "0xd81e",
      "effectiveGasPrice": "0x5f5e100",
      "from": "0x34728af7d0fc03cbbdff82b6d52aeda8c999e2b2",
      "to": "0x654837fe31838bd0391188182a3ecdd402846d3a",
      "contractAddress": null,
      "gasUsedForL1": "0x645",
      "l1BlockNumber": "0x6d4e41"
    },
    {
      "status": "0x1",
      "cumulativeGasUsed": "0x41fe9",
      "logs": [
        {
          "address": "0x94baa979f569edb2f33903d9ccec66b31c9620f5",
          "topics": [
            "0xddf252ad1be2c89b69c2b068fc378daa952ba7f163c4a11628f55a4df523b3ef",
            "0x00000000000000000000000034728af7d0fc03cbbdff82b6d52aeda8c999e2b2",
            "0x00000000000000000000000094c83a5137751c4e6acc0cfdb09819b0b83582d1"
          ],
          "data": "0x0000000000000000000000000000000000000000000000000de0b6b3a7640000",
          "blockHash": "0x48dd9a3e5999a6e096a2c8026ca03909d81010b29ea68a89155530d712d14b50",
          "blockNumber": "0x606acf8",
          "transactionHash": "0x9c184d44c5ae2bc78e39c22a29c80801f9651c2175a681b7299073c689fc9ec7",
          "transactionIndex": "0x2",
          "logIndex": "0x2",
          "removed": false
        }
      ],
      "logsBloom": "0x00000000000000000000000000000000000000000000000000000000000020000000000000000000000000000000000000000000001000000000020000000000000000000000000040000008000000000000000000000000000000000000000000000000000000000000000000000000000000000000000100000010000000000000000000000000000000000000000000000000000000000000000000000000000000000000000000000000000000000000000000000000000000000000000000000002000000000000000000000000000200000000200000000000000000000002000000000000000000000000000000000000000000000010000000000000",
      "type": "0x2",
      "transactionHash": "0x9c184d44c5ae2bc78e39c22a29c80801f9651c2175a681b7299073c689fc9ec7",
      "transactionIndex": "0x2",
      "blockHash": "0x48dd9a3e5999a6e096a2c8026ca03909d81010b29ea68a89155530d712d14b50",
      "blockNumber": "0x606acf8",
      "gasUsed": "0x8bcd",
      "effectiveGasPrice": "0x5f5e100",
      "from": "0x34728af7d0fc03cbbdff82b6d52aeda8c999e2b2",
      "to": "0x94baa979f569edb2f33903d9ccec66b31c9620f5",
      "contractAddress": null,
      "gasUsedForL1": "0x645",
      "l1BlockNumber": "0x6d4e42"
    },
    {
      "status": "0x1",
      "cumulativeGasUsed": "0x4a1580",
      "logs": [],
      "logsBloom": "0x00000000000000000000000000000000000000000000000000000000000000000000000000000000000000000000000000000000000000000000000000000000000000000000000000000000000000000000000000000000000000000000000000000000000000000000000000000000000000000000000000000000000000000000000000000000000000000000000000000000000000000000000000000000000000000000000000000000000000000000000000000000000000000000000000000000000000000000000000000000000000000000000000000000000000000000000000000000000000000000000000000000000000000000000000000000",
      "type": "0x2",
      "transactionHash": "0xf7caedbe93f431253aa751400759aa98a23fa932fbe82741e80edcf10ae3f43d",
      "transactionIndex": "0x2",
      "blockHash": "0xc18fd697be7a33ed4b8d4aaf975ea95121c31e5aec14cf6016cebd5c3b78ea04",
      "blockNumber": "0x606ad04",
      "gasUsed": "0x46814f",
      "effectiveGasPrice": "0x5f5e100",
      "from": "0x34728af7d0fc03cbbdff82b6d52aeda8c999e2b2",
      "to": null,
      "contractAddress": "0x5f463606c99f940aea89c3a85bfa6af72c48a70f",
      "gasUsedForL1": "0x153e0",
      "l1BlockNumber": "0x6d4e42"
    },
    {
      "status": "0x1",
      "cumulativeGasUsed": "0x68ccd",
      "logs": [
        {
          "address": "0xa5a58f86fcf42ce8395449b746a7c9c184359bea",
          "topics": [
            "0xe67ddf372291fd94b39c4645817076a797a73cfdfbbf169187f7e5c374dfaeb0"
          ],
          "data": "0x0000000000000000000000005f463606c99f940aea89c3a85bfa6af72c48a70f0000000000000000000000000000000000000000000000000000000000000040000000000000000000000000000000000000000000000000000000000000008230346662363131303837393038643838336431306431623936333361373330316237333465623639333838386230303661353433613034343239633634333064383239626234643664643665646130653233363166663135336333393833383866346663326237613662363430663664636230383365373633623662653161353638000000000000000000000000000000000000000000000000000000000000",
          "blockHash": "0x4c998c3db76e813211e9d25ead17bb8647e0fdea384c507748473e00cdd48f19",
          "blockNumber": "0x606ad12",
          "transactionHash": "0x962c384dda99db2813cc9547e8fdba5e1ad23ff02a1882e6f57f3794837c72a8",
          "transactionIndex": "0x2",
          "logIndex": "0x2",
          "removed": false
        }
      ],
      "logsBloom": "0x00000000000000000020000000000000000100000000000000000000000000000000000000000000000000000000000000000000000000000000000000000000000000000000000000000000000000000000000000000000000000000000000000000000000000000000000000000000000000000000000000000000000000000000000000000000000000000000000000000000000000000000000000000000000000000000000000002000000010000000000000000000000000000000000000000000000000000000000000000000000000000000000000000000000000000000000000000000000000000000000000000000000000000000000000001008",
      "type": "0x2",
      "transactionHash": "0x962c384dda99db2813cc9547e8fdba5e1ad23ff02a1882e6f57f3794837c72a8",
      "transactionIndex": "0x2",
      "blockHash": "0x4c998c3db76e813211e9d25ead17bb8647e0fdea384c507748473e00cdd48f19",
      "blockNumber": "0x606ad12",
      "gasUsed": "0x2f901",
      "effectiveGasPrice": "0x5f5e100",
      "from": "0x34728af7d0fc03cbbdff82b6d52aeda8c999e2b2",
      "to": "0xa5a58f86fcf42ce8395449b746a7c9c184359bea",
      "contractAddress": null,
      "gasUsedForL1": "0xc0f",
      "l1BlockNumber": "0x6d4e42"
    },
    {
      "status": "0x1",
      "cumulativeGasUsed": "0x4195bf",
      "logs": [
        {
          "address": "0x5f463606c99f940aea89c3a85bfa6af72c48a70f",
          "topics": [
            "0xdb952deb284a7ca1809707c5a72df8b398c71835d54ca9755ffe994e8baa2aa1",
            "0x00000000000000000000000034728af7d0fc03cbbdff82b6d52aeda8c999e2b2",
            "0x000000000000000000000000d38bce738728baa8762e263e3f69d5ba3c2247f1"
          ],
          "data": "0x0000000000000000000000000000000000000000000000000000000000000200000000000000000000000000000000000000000000000000000000000000024000000000000000000000000000000000000000000000000000000000000002800000000000000000000000000000000000000000000000000000000000000300000000000000000000000000000000000000000000000000000000000000038000000000000000000000000000000000000000000000000000000000000004400000000000000000000000000000000000000000000000000000000000000540000000000000000000000000000000000000000000000000000000000000068000000000000000000000000000000000000000000000000000000000000008000000000000000000000000000000000000000000000000000000000000000860000000000000000000000000000000000000000000000000000000012a05f20000000000000000000000000000000000000000000000000000000000000000030000000000000000000000000000000000000000000000000000000067471fcc00000000000000000000000000000000000000000000000000000000676eaccc00000000000000000000000000000000000000000000000000000000676c09cc0000000000000000000000000000000000000000000000004563918244f400000000000000000000000000000000000000000000000000000000000000000011496e646f64617820496e737572616e6365000000000000000000000000000000000000000000000000000000000000000000000000000000000000000000000449445849000000000000000000000000000000000000000000000000000000000000000000000000000000000000000000000000000000000000000000000048687474703a2f2f7265732e636c6f7564696e6172792e636f6d2f72656e616b616167757374612f7261772f75706c6f61642f76313733323634323236332f696e646f6461782e6d64000000000000000000000000000000000000000000000000000000000000000000000000000000000000000000000000000000000000004b68747470733a2f2f7265732e636c6f7564696e6172792e636f6d2f72656e616b616167757374612f7261772f75706c6f61642f76313733323634323236342f696e646f6461782e6a736f6e00000000000000000000000000000000000000000000000000000000000000000000000000000000000000000000000000000000836375726c202d5820474554202768747470733a2f2f6170692e6e706f696e742e696f2f633961613365383030336163656231623962353227202d2d6865616465722027636f6e74656e742d747970653a206170706c69636174696f6e2f6a736f6e27202d2d6865616465722027782d6170692d6b65793a205345435245545f4b455927000000000000000000000000000000000000000000000000000000000000000000000000000000000000000000000000000000000000000000000000c23034323738643161326666353435326338396537313436393961373766383136323761396135383735313034633038303963663965306636646163663561326330646438343035383661363463666138396232643130343130376235636664383536396639363565366637356363346561633539393535663238643766316363373035373065363637636166323333653465616362633865626639353266613538316535336461653731353335313539393263363831643964663538616366623432000000000000000000000000000000000000000000000000000000000000000000000000000000000000000000000000000000000000000000000000011630346661623038636637326235656163323737653638663034623435653238386432656536386334663136393665343432653863303365633732373463376439646138336330646336313462383430653531386134643466643235356137656538633963646230346365626138346565613632316163343132363563356135616338306561636466653364643239346438313337373463316131636361656466393565393637636261663535346236633537373535356534663634666264323635643464626635333635633732323935366166653933643761643636636132613837303930646463333865353034643633383865366139313962333437643236353535383865366131313233316432343036646463650000000000000000000000000000000000000000000000000000000000000000000000000000000001463034393237656466343635346238663331323235306666386664366330336363346662666463626663326435613237393835393432626633393231313331666163373037336434653961643433613563363739633366313732653438373430356161313439623034613665643930376262626364333365643264363063623436373230653032376264663231633237656331353436396535663633623132323861373566613634316135356235626362336665623337646661303530666139383761313463323764636134386239326565613139313831633332356537366439643366373531303138653837343363343566613636666561303766356630313531616162333335613134666532396137656363326132386330313931306662653566353431636531663361316562343632356662636438323461333535303361346430303262000000000000000000000000000000000000000000000000000000000000000000000000000000000000000000000000000000000000000000315c7b2264617461223a5c7b2272656b7473223a5c5b283f3c65787472616374656456616c75653e2e2a3f295c5d5c7d5c7d000000000000000000000000000000000000000000000000000000000000000000000000000000000000000000001a2270726f6a6563744e616d65223a5c732a22496e646f64617822000000000000",
          "blockHash": "0x4c972de55715f0b57648591220d5a6ed1bd1726d28dbb97881ba62264c770ab2",
          "blockNumber": "0x606ad26",
          "transactionHash": "0x55bf044577ed4960daa87a8ea51098ce7d724ca4cf70c9f7aa37c87b5b6e2cdf",
          "transactionIndex": "0x2",
          "logIndex": "0x1",
          "removed": false
        }
      ],
      "logsBloom": "0x00000000000000000000000000000000000000000000000000000000000000000000000000000000000000000000000000008000001000000000000000000000000000000000000040000000000000002000000400000000000020000000000000000000000000000000000000000000000000400000000000000000000000000000000000000000000000000000000000000000000000000000000000000000000000000000000000000000000000000000008000000000000008000000000000000000000000000000000000000000000000000000200000000000000000000000000000800000000000000000000000008000000000000000000000000000",
      "type": "0x2",
      "transactionHash": "0x55bf044577ed4960daa87a8ea51098ce7d724ca4cf70c9f7aa37c87b5b6e2cdf",
      "transactionIndex": "0x2",
      "blockHash": "0x4c972de55715f0b57648591220d5a6ed1bd1726d28dbb97881ba62264c770ab2",
      "blockNumber": "0x606ad26",
      "gasUsed": "0x3f7f67",
      "effectiveGasPrice": "0x5f5e100",
      "from": "0x34728af7d0fc03cbbdff82b6d52aeda8c999e2b2",
      "to": "0x5f463606c99f940aea89c3a85bfa6af72c48a70f",
      "contractAddress": null,
      "gasUsedForL1": "0x268c",
      "l1BlockNumber": "0x6d4e42"
    },
    {
      "status": "0x1",
      "cumulativeGasUsed": "0xac35c",
      "logs": [
        {
          "address": "0x94baa979f569edb2f33903d9ccec66b31c9620f5",
          "topics": [
            "0x8c5be1e5ebec7d5bd14f71427d1e84f3dd0314c0f7b2291e5b200ac8c7c3b925",
            "0x00000000000000000000000034728af7d0fc03cbbdff82b6d52aeda8c999e2b2",
            "0x000000000000000000000000d38bce738728baa8762e263e3f69d5ba3c2247f1"
          ],
          "data": "0x000000000000000000000000000000000000000000000000d02ab486cedc0000",
          "blockHash": "0xd1d7420c47a44d14f3d0231d917efa1677a40716f97a709413f0cffdbc31d7c2",
          "blockNumber": "0x606ad35",
          "transactionHash": "0xf8b126438db21f81712cea6f4bb5709506f250f38b1eca1613a9d6db28a575e0",
          "transactionIndex": "0x4",
          "logIndex": "0x9",
          "removed": false
        }
      ],
      "logsBloom": "0x00000000000000000000000000000000000000000000000000000000000000000000000000000000000000000000000000000000001000000000020000200000000000000000000040000000000000000000000400000000000020000000000000000000000000000000000000000000000000400000000100000000000000000000000000000000000000000000000000000000000000000000000000000000020000000000000000000000000000000000000000000000000000000000000000000000000000000000000000000000000200000000200000000000000000000010000000000000000000000000000000000000000000000000000000000000",
      "type": "0x2",
      "transactionHash": "0xf8b126438db21f81712cea6f4bb5709506f250f38b1eca1613a9d6db28a575e0",
      "transactionIndex": "0x4",
      "blockHash": "0xd1d7420c47a44d14f3d0231d917efa1677a40716f97a709413f0cffdbc31d7c2",
      "blockNumber": "0x606ad35",
      "gasUsed": "0xb9ca",
      "effectiveGasPrice": "0x5f5e100",
      "from": "0x34728af7d0fc03cbbdff82b6d52aeda8c999e2b2",
      "to": "0x94baa979f569edb2f33903d9ccec66b31c9620f5",
      "contractAddress": null,
      "gasUsedForL1": "0x645",
      "l1BlockNumber": "0x6d4e43"
    },
    {
      "status": "0x1",
      "cumulativeGasUsed": "0x3c26a",
      "logs": [
        {
          "address": "0x94baa979f569edb2f33903d9ccec66b31c9620f5",
          "topics": [
            "0xddf252ad1be2c89b69c2b068fc378daa952ba7f163c4a11628f55a4df523b3ef",
            "0x00000000000000000000000034728af7d0fc03cbbdff82b6d52aeda8c999e2b2",
            "0x000000000000000000000000d38bce738728baa8762e263e3f69d5ba3c2247f1"
          ],
          "data": "0x000000000000000000000000000000000000000000000000d02ab486cedc0000",
          "blockHash": "0xbf5c502bf9cfe546643fc8f0c2fa1aab6634bcc3bedd240a81fe487705fa252e",
          "blockNumber": "0x606ad40",
          "transactionHash": "0xcf20ad44225f3db81272c2f3195540675a71fce59a64ace4c30b63b0c8b1fdcf",
          "transactionIndex": "0x2",
          "logIndex": "0x1",
          "removed": false
        },
        {
          "address": "0xd38bce738728baa8762e263e3f69d5ba3c2247f1",
          "topics": [
            "0xddf252ad1be2c89b69c2b068fc378daa952ba7f163c4a11628f55a4df523b3ef",
            "0x0000000000000000000000000000000000000000000000000000000000000000",
            "0x000000000000000000000000d38bce738728baa8762e263e3f69d5ba3c2247f1"
          ],
          "data": "0x000000000000000000000000000000000000000000000000d02ab486cedc0000",
          "blockHash": "0xbf5c502bf9cfe546643fc8f0c2fa1aab6634bcc3bedd240a81fe487705fa252e",
          "blockNumber": "0x606ad40",
          "transactionHash": "0xcf20ad44225f3db81272c2f3195540675a71fce59a64ace4c30b63b0c8b1fdcf",
          "transactionIndex": "0x2",
          "logIndex": "0x2",
          "removed": false
        },
        {
          "address": "0x94baa979f569edb2f33903d9ccec66b31c9620f5",
          "topics": [
            "0x8c5be1e5ebec7d5bd14f71427d1e84f3dd0314c0f7b2291e5b200ac8c7c3b925",
            "0x000000000000000000000000d38bce738728baa8762e263e3f69d5ba3c2247f1",
            "0x000000000000000000000000654837fe31838bd0391188182a3ecdd402846d3a"
          ],
          "data": "0x000000000000000000000000000000000000000000000000d02ab486cedc0000",
          "blockHash": "0xbf5c502bf9cfe546643fc8f0c2fa1aab6634bcc3bedd240a81fe487705fa252e",
          "blockNumber": "0x606ad40",
          "transactionHash": "0xcf20ad44225f3db81272c2f3195540675a71fce59a64ace4c30b63b0c8b1fdcf",
          "transactionIndex": "0x2",
          "logIndex": "0x3",
          "removed": false
        },
        {
          "address": "0x94baa979f569edb2f33903d9ccec66b31c9620f5",
          "topics": [
            "0xddf252ad1be2c89b69c2b068fc378daa952ba7f163c4a11628f55a4df523b3ef",
            "0x000000000000000000000000d38bce738728baa8762e263e3f69d5ba3c2247f1",
            "0x000000000000000000000000654837fe31838bd0391188182a3ecdd402846d3a"
          ],
          "data": "0x000000000000000000000000000000000000000000000000d02ab486cedc0000",
          "blockHash": "0xbf5c502bf9cfe546643fc8f0c2fa1aab6634bcc3bedd240a81fe487705fa252e",
          "blockNumber": "0x606ad40",
          "transactionHash": "0xcf20ad44225f3db81272c2f3195540675a71fce59a64ace4c30b63b0c8b1fdcf",
          "transactionIndex": "0x2",
          "logIndex": "0x4",
          "removed": false
        },
        {
          "address": "0x654837fe31838bd0391188182a3ecdd402846d3a",
          "topics": [
            "0xddf252ad1be2c89b69c2b068fc378daa952ba7f163c4a11628f55a4df523b3ef",
            "0x0000000000000000000000000000000000000000000000000000000000000000",
            "0x000000000000000000000000d38bce738728baa8762e263e3f69d5ba3c2247f1"
          ],
          "data": "0x000000000000000000000000000000000000000000000000d02ab486cedc0000",
          "blockHash": "0xbf5c502bf9cfe546643fc8f0c2fa1aab6634bcc3bedd240a81fe487705fa252e",
          "blockNumber": "0x606ad40",
          "transactionHash": "0xcf20ad44225f3db81272c2f3195540675a71fce59a64ace4c30b63b0c8b1fdcf",
          "transactionIndex": "0x2",
          "logIndex": "0x5",
          "removed": false
        },
        {
          "address": "0x654837fe31838bd0391188182a3ecdd402846d3a",
          "topics": [
            "0xdcbc1c05240f31ff3ad067ef1ee35ce4997762752e3a095284754544f4c709d7",
            "0x000000000000000000000000d38bce738728baa8762e263e3f69d5ba3c2247f1",
            "0x000000000000000000000000d38bce738728baa8762e263e3f69d5ba3c2247f1"
          ],
          "data": "0x000000000000000000000000000000000000000000000000d02ab486cedc0000000000000000000000000000000000000000000000000000d02ab486cedc0000",
          "blockHash": "0xbf5c502bf9cfe546643fc8f0c2fa1aab6634bcc3bedd240a81fe487705fa252e",
          "blockNumber": "0x606ad40",
          "transactionHash": "0xcf20ad44225f3db81272c2f3195540675a71fce59a64ace4c30b63b0c8b1fdcf",
          "transactionIndex": "0x2",
          "logIndex": "0x6",
          "removed": false
        },
        {
          "address": "0xd38bce738728baa8762e263e3f69d5ba3c2247f1",
          "topics": [
            "0x227a473b70d2f893cc7659219575c030a63b5743024fe1e0c1a680e708b1525a"
          ],
          "data": "0x000000000000000000000000000000000000000000000000d02ab486cedc0000",
          "blockHash": "0xbf5c502bf9cfe546643fc8f0c2fa1aab6634bcc3bedd240a81fe487705fa252e",
          "blockNumber": "0x606ad40",
          "transactionHash": "0xcf20ad44225f3db81272c2f3195540675a71fce59a64ace4c30b63b0c8b1fdcf",
          "transactionIndex": "0x2",
          "logIndex": "0x7",
          "removed": false
        },
        {
          "address": "0xd38bce738728baa8762e263e3f69d5ba3c2247f1",
          "topics": [
            "0xe1fffcc4923d04b559f4d29a8bfc6cda04eb5b0d3c460751c2402c5c5cc9109c",
            "0x00000000000000000000000034728af7d0fc03cbbdff82b6d52aeda8c999e2b2"
          ],
          "data": "0x000000000000000000000000000000000000000000000000d02ab486cedc0000",
          "blockHash": "0xbf5c502bf9cfe546643fc8f0c2fa1aab6634bcc3bedd240a81fe487705fa252e",
          "blockNumber": "0x606ad40",
          "transactionHash": "0xcf20ad44225f3db81272c2f3195540675a71fce59a64ace4c30b63b0c8b1fdcf",
          "transactionIndex": "0x2",
          "logIndex": "0x8",
          "removed": false
        }
      ],
      "logsBloom": "0x00000000000000000000000000000000000000000000000000000000000000000000000000000000000000000000000000000000001000000000020000200000000000400000000040000008000000000000000400000000000020008000000000000000020000000000000000000800000000400004000100000010022000000000000000000000000000000000000000000001000000000000000000000800020000000000000000000000000001000000000000000000000000000000000000000002000400000000000000000080000200000008200000000000000020000010000000004000000000000040000000008000000000400400800004000000",
      "type": "0x2",
      "transactionHash": "0xcf20ad44225f3db81272c2f3195540675a71fce59a64ace4c30b63b0c8b1fdcf",
      "transactionIndex": "0x2",
      "blockHash": "0xbf5c502bf9cfe546643fc8f0c2fa1aab6634bcc3bedd240a81fe487705fa252e",
      "blockNumber": "0x606ad40",
      "gasUsed": "0x2d428",
      "effectiveGasPrice": "0x5f5e100",
      "from": "0x34728af7d0fc03cbbdff82b6d52aeda8c999e2b2",
      "to": "0xd38bce738728baa8762e263e3f69d5ba3c2247f1",
      "contractAddress": null,
      "gasUsedForL1": "0x413",
      "l1BlockNumber": "0x6d4e43"
    },
    {
      "status": "0x1",
      "cumulativeGasUsed": "0x44edb",
      "logs": [
        {
          "address": "0x94baa979f569edb2f33903d9ccec66b31c9620f5",
          "topics": [
            "0x8c5be1e5ebec7d5bd14f71427d1e84f3dd0314c0f7b2291e5b200ac8c7c3b925",
            "0x00000000000000000000000094c83a5137751c4e6acc0cfdb09819b0b83582d1",
            "0x000000000000000000000000d38bce738728baa8762e263e3f69d5ba3c2247f1"
          ],
          "data": "0x0000000000000000000000000000000000000000000000001bc16d674ec80000",
          "blockHash": "0x85dc8775a9bebca9539dfa2b875b8a967810e0b3e0550a6bc318baf9599e025b",
          "blockNumber": "0x606ad4b",
          "transactionHash": "0x3bf8c3b352a6220ddd084271b73c6c6d076beb1904aa0a905ddd9e2ef61105a2",
          "transactionIndex": "0x2",
          "logIndex": "0x2",
          "removed": false
        }
      ],
      "logsBloom": "0x00000000000000000000000000000000000000000000000000000000000020000000000000000000000000000000000000000000000000000000020000200000000000000000000000000000000000000000000400000000000020000000000000000000000000000000000000000000000000400000000100000000000000000000000000000000000000000000000000000000000000000000000000000000020000000000000000000000000000000000000000000000000000000000000000000000000000000000000000000000000200000000000000000000000000000012000000000000000000000000000000000000000000000010000000000000",
      "type": "0x2",
      "transactionHash": "0x3bf8c3b352a6220ddd084271b73c6c6d076beb1904aa0a905ddd9e2ef61105a2",
      "transactionIndex": "0x2",
      "blockHash": "0x85dc8775a9bebca9539dfa2b875b8a967810e0b3e0550a6bc318baf9599e025b",
      "blockNumber": "0x606ad4b",
      "gasUsed": "0xb9b8",
      "effectiveGasPrice": "0x5f5e100",
      "from": "0x94c83a5137751c4e6acc0cfdb09819b0b83582d1",
      "to": "0x94baa979f569edb2f33903d9ccec66b31c9620f5",
      "contractAddress": null,
      "gasUsedForL1": "0x633",
      "l1BlockNumber": "0x6d4e43"
    },
    {
      "status": "0x1",
      "cumulativeGasUsed": "0xca77e",
      "logs": [
        {
          "address": "0x94baa979f569edb2f33903d9ccec66b31c9620f5",
          "topics": [
            "0xddf252ad1be2c89b69c2b068fc378daa952ba7f163c4a11628f55a4df523b3ef",
            "0x00000000000000000000000094c83a5137751c4e6acc0cfdb09819b0b83582d1",
            "0x000000000000000000000000d38bce738728baa8762e263e3f69d5ba3c2247f1"
          ],
          "data": "0x0000000000000000000000000000000000000000000000001bc16d674ec80000",
          "blockHash": "0x412816bec47d634f46e32caf7c78827735229fb050ba010dccc5a705d6782200",
          "blockNumber": "0x606ad56",
          "transactionHash": "0xd1628033c91f39f457627c8c5548d1665e93f20884dd7f5a13f4c07c29118be8",
          "transactionIndex": "0x2",
          "logIndex": "0x1",
          "removed": false
        },
        {
          "address": "0xd38bce738728baa8762e263e3f69d5ba3c2247f1",
          "topics": [
            "0xddf252ad1be2c89b69c2b068fc378daa952ba7f163c4a11628f55a4df523b3ef",
            "0x0000000000000000000000000000000000000000000000000000000000000000",
            "0x00000000000000000000000094c83a5137751c4e6acc0cfdb09819b0b83582d1"
          ],
          "data": "0x0000000000000000000000000000000000000000000000001bc16d674ec80000",
          "blockHash": "0x412816bec47d634f46e32caf7c78827735229fb050ba010dccc5a705d6782200",
          "blockNumber": "0x606ad56",
          "transactionHash": "0xd1628033c91f39f457627c8c5548d1665e93f20884dd7f5a13f4c07c29118be8",
          "transactionIndex": "0x2",
          "logIndex": "0x2",
          "removed": false
        },
        {
          "address": "0x94baa979f569edb2f33903d9ccec66b31c9620f5",
          "topics": [
            "0x8c5be1e5ebec7d5bd14f71427d1e84f3dd0314c0f7b2291e5b200ac8c7c3b925",
            "0x000000000000000000000000d38bce738728baa8762e263e3f69d5ba3c2247f1",
            "0x000000000000000000000000654837fe31838bd0391188182a3ecdd402846d3a"
          ],
          "data": "0x0000000000000000000000000000000000000000000000001bc16d674ec80000",
          "blockHash": "0x412816bec47d634f46e32caf7c78827735229fb050ba010dccc5a705d6782200",
          "blockNumber": "0x606ad56",
          "transactionHash": "0xd1628033c91f39f457627c8c5548d1665e93f20884dd7f5a13f4c07c29118be8",
          "transactionIndex": "0x2",
          "logIndex": "0x3",
          "removed": false
        },
        {
          "address": "0x94baa979f569edb2f33903d9ccec66b31c9620f5",
          "topics": [
            "0xddf252ad1be2c89b69c2b068fc378daa952ba7f163c4a11628f55a4df523b3ef",
            "0x000000000000000000000000d38bce738728baa8762e263e3f69d5ba3c2247f1",
            "0x000000000000000000000000654837fe31838bd0391188182a3ecdd402846d3a"
          ],
          "data": "0x0000000000000000000000000000000000000000000000001bc16d674ec80000",
          "blockHash": "0x412816bec47d634f46e32caf7c78827735229fb050ba010dccc5a705d6782200",
          "blockNumber": "0x606ad56",
          "transactionHash": "0xd1628033c91f39f457627c8c5548d1665e93f20884dd7f5a13f4c07c29118be8",
          "transactionIndex": "0x2",
          "logIndex": "0x4",
          "removed": false
        },
        {
          "address": "0x654837fe31838bd0391188182a3ecdd402846d3a",
          "topics": [
            "0xddf252ad1be2c89b69c2b068fc378daa952ba7f163c4a11628f55a4df523b3ef",
            "0x0000000000000000000000000000000000000000000000000000000000000000",
            "0x000000000000000000000000d38bce738728baa8762e263e3f69d5ba3c2247f1"
          ],
          "data": "0x0000000000000000000000000000000000000000000000001bc16d674ec80000",
          "blockHash": "0x412816bec47d634f46e32caf7c78827735229fb050ba010dccc5a705d6782200",
          "blockNumber": "0x606ad56",
          "transactionHash": "0xd1628033c91f39f457627c8c5548d1665e93f20884dd7f5a13f4c07c29118be8",
          "transactionIndex": "0x2",
          "logIndex": "0x5",
          "removed": false
        },
        {
          "address": "0x654837fe31838bd0391188182a3ecdd402846d3a",
          "topics": [
            "0xdcbc1c05240f31ff3ad067ef1ee35ce4997762752e3a095284754544f4c709d7",
            "0x000000000000000000000000d38bce738728baa8762e263e3f69d5ba3c2247f1",
            "0x000000000000000000000000d38bce738728baa8762e263e3f69d5ba3c2247f1"
          ],
          "data": "0x0000000000000000000000000000000000000000000000001bc16d674ec800000000000000000000000000000000000000000000000000001bc16d674ec80000",
          "blockHash": "0x412816bec47d634f46e32caf7c78827735229fb050ba010dccc5a705d6782200",
          "blockNumber": "0x606ad56",
          "transactionHash": "0xd1628033c91f39f457627c8c5548d1665e93f20884dd7f5a13f4c07c29118be8",
          "transactionIndex": "0x2",
          "logIndex": "0x6",
          "removed": false
        },
        {
          "address": "0xd38bce738728baa8762e263e3f69d5ba3c2247f1",
          "topics": [
            "0x227a473b70d2f893cc7659219575c030a63b5743024fe1e0c1a680e708b1525a"
          ],
          "data": "0x0000000000000000000000000000000000000000000000001bc16d674ec80000",
          "blockHash": "0x412816bec47d634f46e32caf7c78827735229fb050ba010dccc5a705d6782200",
          "blockNumber": "0x606ad56",
          "transactionHash": "0xd1628033c91f39f457627c8c5548d1665e93f20884dd7f5a13f4c07c29118be8",
          "transactionIndex": "0x2",
          "logIndex": "0x7",
          "removed": false
        },
        {
          "address": "0xd38bce738728baa8762e263e3f69d5ba3c2247f1",
          "topics": [
            "0xe1fffcc4923d04b559f4d29a8bfc6cda04eb5b0d3c460751c2402c5c5cc9109c",
            "0x00000000000000000000000094c83a5137751c4e6acc0cfdb09819b0b83582d1"
          ],
          "data": "0x0000000000000000000000000000000000000000000000001bc16d674ec80000",
          "blockHash": "0x412816bec47d634f46e32caf7c78827735229fb050ba010dccc5a705d6782200",
          "blockNumber": "0x606ad56",
          "transactionHash": "0xd1628033c91f39f457627c8c5548d1665e93f20884dd7f5a13f4c07c29118be8",
          "transactionIndex": "0x2",
          "logIndex": "0x8",
          "removed": false
        },
        {
          "address": "0xd38bce738728baa8762e263e3f69d5ba3c2247f1",
          "topics": [
            "0x1ec6ca237cf412015f109db027dc71b2292a20387279781fd699c4ec328a23d7",
            "0x00000000000000000000000094c83a5137751c4e6acc0cfdb09819b0b83582d1"
          ],
          "data": "0x0000000000000000000000000000000000000000000000001bc16d674ec80000",
          "blockHash": "0x412816bec47d634f46e32caf7c78827735229fb050ba010dccc5a705d6782200",
          "blockNumber": "0x606ad56",
          "transactionHash": "0xd1628033c91f39f457627c8c5548d1665e93f20884dd7f5a13f4c07c29118be8",
          "transactionIndex": "0x2",
          "logIndex": "0x9",
          "removed": false
        }
      ],
      "logsBloom": "0x00000000000000000000000000000000000000000000000000000000000020000000000000000000000000000000000000000000000000000000020000200000000000400000000000000008000000000000000400000000000020008000000000000000020000000000000000000800000000400004000100000010022000000000000000000000000000000000000000000001000000000000000000000800020000000000000000000000000001000000000000000000000000000000000000000002000400000000000000000084000200000008000000000000000020000812000000004000000000000840000000008000000000400410800004000000",
      "type": "0x2",
      "transactionHash": "0xd1628033c91f39f457627c8c5548d1665e93f20884dd7f5a13f4c07c29118be8",
      "transactionIndex": "0x2",
      "blockHash": "0x412816bec47d634f46e32caf7c78827735229fb050ba010dccc5a705d6782200",
      "blockNumber": "0x606ad56",
      "gasUsed": "0x25e85",
      "effectiveGasPrice": "0x5f5e100",
      "from": "0x94c83a5137751c4e6acc0cfdb09819b0b83582d1",
      "to": "0xd38bce738728baa8762e263e3f69d5ba3c2247f1",
      "contractAddress": null,
      "gasUsedForL1": "0x755",
      "l1BlockNumber": "0x6d4e43"
    },
    {
      "status": "0x1",
      "cumulativeGasUsed": "0x44efe",
      "logs": [
        {
          "address": "0x94baa979f569edb2f33903d9ccec66b31c9620f5",
          "topics": [
            "0x8c5be1e5ebec7d5bd14f71427d1e84f3dd0314c0f7b2291e5b200ac8c7c3b925",
            "0x00000000000000000000000094c83a5137751c4e6acc0cfdb09819b0b83582d1",
            "0x000000000000000000000000d38bce738728baa8762e263e3f69d5ba3c2247f1"
          ],
          "data": "0x000000000000000000000000000000000000000000000000000000012a05f205",
          "blockHash": "0x451af85bff3b907ec7d224fc1d28aebef99cc75e1c71d409159f86a38159b7c5",
          "blockNumber": "0x606ad63",
          "transactionHash": "0xddf188896928b932c42addcafa9534a0babff97562559fe1110e8797c04cd35c",
          "transactionIndex": "0x2",
          "logIndex": "0x2",
          "removed": false
        }
      ],
      "logsBloom": "0x00000000000000000000000000000000000000000000000000000000000020000000000000000000000000000000000000000000000000000000020000200000000000000000000000000000000000000000000400000000000020000000000000000000000000000000000000000000000000400000000100000000000000000000000000000000000000000000000000000000000000000000000000000000020000000000000000000000000000000000000000000000000000000000000000000000000000000000000000000000000200000000000000000000000000000012000000000000000000000000000000000000000000000010000000000000",
      "type": "0x2",
      "transactionHash": "0xddf188896928b932c42addcafa9534a0babff97562559fe1110e8797c04cd35c",
      "transactionIndex": "0x2",
      "blockHash": "0x451af85bff3b907ec7d224fc1d28aebef99cc75e1c71d409159f86a38159b7c5",
      "blockNumber": "0x606ad63",
      "gasUsed": "0xb9ac",
      "effectiveGasPrice": "0x5f5e100",
      "from": "0x94c83a5137751c4e6acc0cfdb09819b0b83582d1",
      "to": "0x94baa979f569edb2f33903d9ccec66b31c9620f5",
      "contractAddress": null,
      "gasUsedForL1": "0x633",
      "l1BlockNumber": "0x6d4e43"
    },
    {
      "status": "0x1",
      "cumulativeGasUsed": "0x8e74b",
      "logs": [
        {
          "address": "0x94baa979f569edb2f33903d9ccec66b31c9620f5",
          "topics": [
            "0xddf252ad1be2c89b69c2b068fc378daa952ba7f163c4a11628f55a4df523b3ef",
            "0x00000000000000000000000094c83a5137751c4e6acc0cfdb09819b0b83582d1",
            "0x00000000000000000000000034728af7d0fc03cbbdff82b6d52aeda8c999e2b2"
          ],
          "data": "0x000000000000000000000000000000000000000000000000000000012a05f200",
          "blockHash": "0xb89c0763834e9ee93af09670f0f57f45ea7c4d7d163696ba0bb146c64244d5df",
          "blockNumber": "0x606ad72",
          "transactionHash": "0x39f7056d10301c213bfc97c34d739511666cfe7d34e86c4312f77847a1c313de",
          "transactionIndex": "0x2",
          "logIndex": "0x4",
          "removed": false
        },
        {
          "address": "0x94baa979f569edb2f33903d9ccec66b31c9620f5",
          "topics": [
            "0xddf252ad1be2c89b69c2b068fc378daa952ba7f163c4a11628f55a4df523b3ef",
            "0x00000000000000000000000094c83a5137751c4e6acc0cfdb09819b0b83582d1",
            "0x0000000000000000000000005f463606c99f940aea89c3a85bfa6af72c48a70f"
          ],
          "data": "0x0000000000000000000000000000000000000000000000000000000000000005",
          "blockHash": "0xb89c0763834e9ee93af09670f0f57f45ea7c4d7d163696ba0bb146c64244d5df",
          "blockNumber": "0x606ad72",
          "transactionHash": "0x39f7056d10301c213bfc97c34d739511666cfe7d34e86c4312f77847a1c313de",
          "transactionIndex": "0x2",
          "logIndex": "0x5",
          "removed": false
        },
        {
          "address": "0xd38bce738728baa8762e263e3f69d5ba3c2247f1",
          "topics": [
            "0xddf252ad1be2c89b69c2b068fc378daa952ba7f163c4a11628f55a4df523b3ef",
            "0x00000000000000000000000094c83a5137751c4e6acc0cfdb09819b0b83582d1",
            "0x0000000000000000000000000000000000000000000000000000000000000000"
          ],
          "data": "0x0000000000000000000000000000000000000000000000001bc16d674ec80000",
          "blockHash": "0xb89c0763834e9ee93af09670f0f57f45ea7c4d7d163696ba0bb146c64244d5df",
          "blockNumber": "0x606ad72",
          "transactionHash": "0x39f7056d10301c213bfc97c34d739511666cfe7d34e86c4312f77847a1c313de",
          "transactionIndex": "0x2",
          "logIndex": "0x6",
          "removed": false
        },
        {
          "address": "0xd38bce738728baa8762e263e3f69d5ba3c2247f1",
          "topics": [
            "0xddf252ad1be2c89b69c2b068fc378daa952ba7f163c4a11628f55a4df523b3ef",
            "0x0000000000000000000000000000000000000000000000000000000000000000",
            "0x000000000000000000000000d38bce738728baa8762e263e3f69d5ba3c2247f1"
          ],
          "data": "0x0000000000000000000000000000000000000000000000001bc16d674ec80000",
          "blockHash": "0xb89c0763834e9ee93af09670f0f57f45ea7c4d7d163696ba0bb146c64244d5df",
          "blockNumber": "0x606ad72",
          "transactionHash": "0x39f7056d10301c213bfc97c34d739511666cfe7d34e86c4312f77847a1c313de",
          "transactionIndex": "0x2",
          "logIndex": "0x7",
          "removed": false
        },
        {
          "address": "0xa5a58f86fcf42ce8395449b746a7c9c184359bea",
          "topics": [
            "0x445c94111ba1ba3f9276ecf50724c543641c207bb13dcd43a0c35ddf17ab3123",
            "0x0000000000000000000000000000000000000000000000000000000000000000"
          ],
          "data": "0x0000000000000000000000000000000000000000000000000000000000000020000000000000000000000000d38bce738728baa8762e263e3f69d5ba3c2247f100000000000000000000000094c83a5137751c4e6acc0cfdb09819b0b83582d10000000000000000000000000000000000000000000000001bc16d674ec80000000000000000000000000000000000000000000000000000000000000000000000000000000000000000000000000000000000000000000000000000000000e000000000000000000000000000000000000000000000000000000000006d4e4400000000000000000000000000000000000000000000000000000000000000000000000000000000000000000000000000000000000000000000000000000000",
          "blockHash": "0xb89c0763834e9ee93af09670f0f57f45ea7c4d7d163696ba0bb146c64244d5df",
          "blockNumber": "0x606ad72",
          "transactionHash": "0x39f7056d10301c213bfc97c34d739511666cfe7d34e86c4312f77847a1c313de",
          "transactionIndex": "0x2",
          "logIndex": "0x8",
          "removed": false
        },
        {
          "address": "0xd38bce738728baa8762e263e3f69d5ba3c2247f1",
          "topics": [
            "0x16540b30944d4a001747daed1f3b0be02461ddc7221558400f55bb848bf4fd79"
          ],
          "data": "0x0000000000000000000000000000000000000000000000000000000000000000000000000000000000000000000000000000000000000000000000000000004000000000000000000000000094c83a5137751c4e6acc0cfdb09819b0b83582d10000000000000000000000000000000000000000000000001bc16d674ec80000000000000000000000000000000000000000000000000000000000000000000000000000000000000000000000000000000000000000000000000000000000a000000000000000000000000000000000000000000000000000000000000000000000000000000000000000000000000000000000000000000000000000000000",
          "blockHash": "0xb89c0763834e9ee93af09670f0f57f45ea7c4d7d163696ba0bb146c64244d5df",
          "blockNumber": "0x606ad72",
          "transactionHash": "0x39f7056d10301c213bfc97c34d739511666cfe7d34e86c4312f77847a1c313de",
          "transactionIndex": "0x2",
          "logIndex": "0x9",
          "removed": false
        }
      ],
      "logsBloom": "0x00000000000000000020000000000000000000000000000000000000000020000000000000000000000000000000000000000000001000000000020000000000000000000000020040000008000000000000000400004000000020000001000000000000020000000000000002800800000000400000000100000012000400000000000000000000000000000000000000000000000000000000000000000000080000000000000000000000000010000000000000000000000000000000000000000002000000000000000000000080000200000000200040000000000020000002000000004000000000000000000000000000000000000010000004001000",
      "type": "0x2",
      "transactionHash": "0x39f7056d10301c213bfc97c34d739511666cfe7d34e86c4312f77847a1c313de",
      "transactionIndex": "0x2",
      "blockHash": "0xb89c0763834e9ee93af09670f0f57f45ea7c4d7d163696ba0bb146c64244d5df",
      "blockNumber": "0x606ad72",
      "gasUsed": "0x3ec1a",
      "effectiveGasPrice": "0x5f5e100",
      "from": "0x94c83a5137751c4e6acc0cfdb09819b0b83582d1",
      "to": "0xd38bce738728baa8762e263e3f69d5ba3c2247f1",
      "contractAddress": null,
      "gasUsedForL1": "0x402",
      "l1BlockNumber": "0x6d4e44"
    }
  ],
  "libraries": [],
  "pending": [],
  "returns": {},
  "timestamp": 1732714527,
  "chain": 421614,
  "commit": null
}