{
  "transactions": [
    {
      "hash": "0xe6c210e57f84ddedc9f3643f3a85a3ddae680946cb45737529be093ea0a44dcb",
      "transactionType": "CALL",
      "contractName": null,
      "contractAddress": "0x94baa979f569edb2f33903d9ccec66b31c9620f5",
      "function": "approve(address,uint256)",
      "arguments": [
        "0x654837fE31838Bd0391188182a3Ecdd402846D3a",
        "1000000000000000000"
      ],
      "transaction": {
        "from": "0x34728af7d0fc03cbbdff82b6d52aeda8c999e2b2",
        "to": "0x94baa979f569edb2f33903d9ccec66b31c9620f5",
        "gas": "0xf88b",
        "value": "0x0",
        "input": "0x095ea7b3000000000000000000000000654837fe31838bd0391188182a3ecdd402846d3a0000000000000000000000000000000000000000000000000de0b6b3a7640000",
        "nonce": "0x414",
        "chainId": "0x66eee"
      },
      "additionalContracts": [],
      "isFixedGasLimit": false
    },
    {
      "hash": "0x06c7f2ba4db5688b067d86deff2648b9e1c4d77d32330231980bee7dc0819abf",
      "transactionType": "CALL",
      "contractName": null,
      "contractAddress": "0x654837fe31838bd0391188182a3ecdd402846d3a",
      "function": "deposit(uint256,address)",
      "arguments": [
        "1000000000000000000",
        "0x34728aF7D0FC03CbbdFF82b6d52AeDA8C999E2B2"
      ],
      "transaction": {
        "from": "0x34728af7d0fc03cbbdff82b6d52aeda8c999e2b2",
        "to": "0x654837fe31838bd0391188182a3ecdd402846d3a",
        "gas": "0x132e6",
        "value": "0x0",
        "input": "0x6e553f650000000000000000000000000000000000000000000000000de0b6b3a764000000000000000000000000000034728af7d0fc03cbbdff82b6d52aeda8c999e2b2",
        "nonce": "0x415",
        "chainId": "0x66eee"
      },
      "additionalContracts": [],
      "isFixedGasLimit": false
    },
    {
      "hash": "0xcb8470b1e7e901216a00fcdc4688024c129d2158332f88238e4d45cda55a75b9",
      "transactionType": "CALL",
      "contractName": null,
      "contractAddress": "0x94baa979f569edb2f33903d9ccec66b31c9620f5",
      "function": "transfer(address,uint256)",
      "arguments": [
        "0x94c83a5137751C4E6acc0cFdB09819B0B83582D1",
        "1000000000000000000"
      ],
      "transaction": {
        "from": "0x34728af7d0fc03cbbdff82b6d52aeda8c999e2b2",
        "to": "0x94baa979f569edb2f33903d9ccec66b31c9620f5",
        "gas": "0xbca4",
        "value": "0x0",
        "input": "0xa9059cbb00000000000000000000000094c83a5137751c4e6acc0cfdb09819b0b83582d10000000000000000000000000000000000000000000000000de0b6b3a7640000",
        "nonce": "0x416",
        "chainId": "0x66eee"
      },
      "additionalContracts": [],
      "isFixedGasLimit": false
    },
    {
      "hash": "0x851c6ac3f272cbcefd2c3ddb6ecbc3d1cacda6c241a7d2663b1781c482c9269e",
      "transactionType": "CREATE",
      "contractName": "InsuranceFactory",
      "contractAddress": "0x3c18297d78c9b83d29b25a23b3610351ec8090c6",
      "function": null,
      "arguments": [
        "0x12Cd89a3e09f2e794708C4Ee7416bA68e2a8e84C"
      ],
      "transaction": {
        "from": "0x34728af7d0fc03cbbdff82b6d52aeda8c999e2b2",
        "gas": "0x47ef15",
        "value": "0x0",
        "input": "0x608034607057601f613e5038819003918201601f19168301916001600160401b03831184841017607457808492602094604052833981010312607057516001600160a01b03811690819003607057600380546001600160a01b031916919091179055604051613dc790816100898239f35b5f80fd5b634e487b7160e01b5f52604160045260245ffdfe6080806040526004361015610012575f80fd5b5f3560e01c9081633998fdd314610765575080634578d29014610728578063560684ca146106ad5780636a4d984614610622578063ae5745ed146105c0578063e8b3c093146100e25763f7d1517f14610069575f80fd5b346100de5760203660031901126100de576004355f548110156100de575f548110156100ca575f80527f290decd9548b62a8d60345a988386fc84ba6bc95484008f6362f93160ef3e56301546040516001600160a01b039091168152602090f35b634e487b7160e01b5f52603260045260245ffd5b5f80fd5b346100de576102203660031901126100de5760043567ffffffffffffffff81116100de57610114903690600401610817565b60243567ffffffffffffffff81116100de57610134903690600401610817565b60443567ffffffffffffffff81116100de57610154903690600401610817565b9060643567ffffffffffffffff81116100de57610175903690600401610817565b60843567ffffffffffffffff81116100de57610195903690600401610817565b60a43567ffffffffffffffff81116100de576101b5903690600401610817565b60c43567ffffffffffffffff81116100de576101d5903690600401610817565b9060e43567ffffffffffffffff81116100de576101f6903690600401610817565b926101043567ffffffffffffffff81116100de57610218903690600401610817565b946101c4356001600160a01b03811681036100de576101e4356001600160a01b03811681036100de5761020435916001600160a01b03831683036100de57604051928361350081011067ffffffffffffffff613500860111176105a157839261036561034e8f8f8f6102f66102e0610322936102c98c61030c956102b36103389961350061089285396102406135008501818152019061086d565b916020613500820184039161350001015261086d565b908c6040613500820184039161350001015261086d565b6135008b01810360606135008d0101528c61086d565b6135008a01810360806135008c0101528c61086d565b6135008901810360a06135008b0101528c61086d565b6135008801810360c06135008a0101528c61086d565b6135008701810360e0613500890101528c61086d565b61350086018103610100613500880101528c61086d565b6101243561350086016101208101919091526101443561014082015261016435610160820152610184356101808201526101a4356101a08201526001600160a01b039485166101c08201529184166101e083015291909216610200830152336102209092019190915203905ff09889156105b5575f54600160401b8110156105a1578060016103f792015f555f6107e0565b81546001600160a01b038d811660039390931b92831b921b1916179055335f9081526001602052604090208054600160401b8110156105a15760018101825561043f916107e0565b81546001600160a01b038d811660039390931b83811b91901b19909116179091555f90815260026020908152604091829020805460ff191660011790559051825190928392829101835e81015f81520390209760405197600160a01b600190038b168952602089016101c090526101c089016104ba9161086d565b88810360408a01526104cb9161086d565b87810360608901526104dc9161086d565b86810360808801526104ed9161086d565b85810360a08701526104fe9161086d565b84810360c086015261050f9161086d565b83810360e08501526105209161086d565b8281036101008401526105329161086d565b90610124356101208201526101443561014082015261016435610160820152610184356101808201526101a4356101a0820152803392037fc30e720263bada6435ae43f561cbc2073cd74fc0770f34bb38323f79c1d7be3791a36040516001600160a01b039091168152602090f35b634e487b7160e01b5f52604160045260245ffd5b6040513d5f823e3d90fd5b346100de5760403660031901126100de576105d9610788565b6001600160a01b03165f908152600160205260409020805460243591908210156100de57602091610609916107e0565b905460405160039290921b1c6001600160a01b03168152f35b346100de5760203660031901126100de576001600160a01b03610643610788565b165f52600160205260405f206040519081602082549182815201915f5260205f20905f5b81811061068e5761068a8561067e818703826107f5565b6040519182918261079e565b0390f35b82546001600160a01b0316845260209093019260019283019201610667565b346100de575f3660031901126100de576040518060205f549182815201905f80527f290decd9548b62a8d60345a988386fc84ba6bc95484008f6362f93160ef3e563905f5b8181106107095761068a8561067e818703826107f5565b82546001600160a01b03168452602090930192600192830192016106f2565b346100de5760203660031901126100de576001600160a01b03610749610788565b165f526002602052602060ff60405f2054166040519015158152f35b346100de575f3660031901126100de576003546001600160a01b03168152602090f35b600435906001600160a01b03821682036100de57565b60206040818301928281528451809452019201905f5b8181106107c15750505090565b82516001600160a01b03168452602093840193909201916001016107b4565b80548210156100ca575f5260205f2001905f90565b90601f8019910116810190811067ffffffffffffffff8211176105a157604052565b81601f820112156100de5780359067ffffffffffffffff82116105a1576040519261084c601f8401601f1916602001856107f5565b828452602083830101116100de57815f926020809301838601378301015290565b805180835260209291819084018484015e5f828201840152601f01601f191601019056fe60a060405234610de4576135008038038061001981610de8565b92833981019061024081830312610de45780516001600160401b038111610de45782610046918301610e0d565b60805260208101516001600160401b038111610de45782610068918301610e0d565b60408201519092906001600160401b038111610de4578161008a918401610e0d565b60608301516001600160401b038111610de457826100a9918501610e0d565b60808401519091906001600160401b038111610de457836100cb918601610e0d565b60a08501519092906001600160401b038111610de457846100ed918701610e0d565b60c08601519093906001600160401b038111610de4578561010f918801610e0d565b60e08701519094906001600160401b038111610de45786610131918901610e0d565b61010088015195906001600160401b038711610de4578897889788019061015791610e0d565b9061012088015192610140890151946101608a0151966101808b0151986101a08c01519a6101c08d0161018990610e5e565b9c6101e00161019790610e5e565b9d610200016101a590610e5e565b9e610220016101b390610e5e565b9f60805151600160401b60019003811161068f57600354600181811c91168015610dda575b602082101461067157601f8111610d77575b50806020601f8211600114610d0f575f91610d02575b508160011b915f199060031b1c1916176003555b8051906001600160401b03821161068f5760045490600182811c92168015610cf8575b60208310146106715781601f849311610c8a575b50602090601f8311600114610c24575f92610c19575b50508160011b915f199060031b1c1916176004555b8051906001600160401b03821161068f57600c5490600182811c92168015610c0f575b60208310146106715781601f849311610ba1575b50602090601f8311600114610b3b575f92610b30575b50508160011b915f199060031b1c191617600c555b8051906001600160401b03821161068f57600d5490600182811c92168015610b26575b60208310146106715781601f849311610ab8575b50602090601f8311600114610a52575f92610a47575b50508160011b915f199060031b1c191617600d555b8051906001600160401b03821161068f57600e5490600182811c92168015610a3d575b60208310146106715781601f8493116109cf575b50602090601f8311600114610969575f9261095e575b50508160011b915f199060031b1c191617600e555b8051906001600160401b03821161068f57600f5490600182811c92168015610954575b60208310146106715781601f8493116108e6575b50602090601f8311600114610880575f92610875575b50508160011b915f199060031b1c191617600f555b8051906001600160401b03821161068f5760105490600182811c9216801561086b575b60208310146106715781601f8493116107fd575b50602090601f8311600114610797575f9261078c575b50508160011b915f199060031b1c1916176010555b8051906001600160401b03821161068f5760125490600182811c92168015610782575b60208310146106715781601f849311610714575b50602090601f83116001146106ae575f926106a3575b50508160011b915f199060031b1c1916176012555b8051906001600160401b03821161068f5760115490600182811c92168015610685575b60208310146106715781601f849311610603575b50602090601f831160011461059d575f92610592575b50508160011b915f199060031b1c1916176011555b601455601555601655601755601855600680546001600160a01b03199081166001600160a01b03938416179091556005805482169383169390931790925560078054831693821693909317909255600b80549091169290911691909117905560405161268d9081610e738239f35b015190505f8061050f565b60115f9081528281209350601f198516905b8181106105eb57509084600195949392106105d3575b505050811b01601155610524565b01515f1960f88460031b161c191690555f80806105c5565b929360206001819287860151815501950193016105af565b60115f529091507f31ecc21a745e3968a04e9570e4425bc18fa8019c68028196b546d1669c200c68601f840160051c81019160208510610667575b90601f859493920160051c01905b81811061065957506104f9565b5f815584935060010161064c565b909150819061063e565b634e487b7160e01b5f52602260045260245ffd5b91607f16916104e5565b634e487b7160e01b5f52604160045260245ffd5b015190505f806104ad565b60125f9081528281209350601f198516905b8181106106fc57509084600195949392106106e4575b505050811b016012556104c2565b01515f1960f88460031b161c191690555f80806106d6565b929360206001819287860151815501950193016106c0565b60125f529091507fbb8a6a4669ba250d26cd7a459eca9d215f8307e33aebe50379bc5a3617ec3444601f840160051c81019160208510610778575b90601f859493920160051c01905b81811061076a5750610497565b5f815584935060010161075d565b909150819061074f565b91607f1691610483565b015190505f8061044b565b60105f9081528281209350601f198516905b8181106107e557509084600195949392106107cd575b505050811b01601055610460565b01515f1960f88460031b161c191690555f80806107bf565b929360206001819287860151815501950193016107a9565b60105f529091507f1b6847dc741a1b0cd08d278845f9d819d87b734759afb55fe2de5cb82a9ae672601f840160051c81019160208510610861575b90601f859493920160051c01905b8181106108535750610435565b5f8155849350600101610846565b9091508190610838565b91607f1691610421565b015190505f806103e9565b600f5f9081528281209350601f198516905b8181106108ce57509084600195949392106108b6575b505050811b01600f556103fe565b01515f1960f88460031b161c191690555f80806108a8565b92936020600181928786015181550195019301610892565b600f5f529091507f8d1108e10bcb7c27dddfc02ed9d693a074039d026cf4ea4240b40f7d581ac802601f840160051c8101916020851061094a575b90601f859493920160051c01905b81811061093c57506103d3565b5f815584935060010161092f565b9091508190610921565b91607f16916103bf565b015190505f80610387565b600e5f9081528281209350601f198516905b8181106109b7575090846001959493921061099f575b505050811b01600e5561039c565b01515f1960f88460031b161c191690555f8080610991565b9293602060018192878601518155019501930161097b565b600e5f529091507fbb7b4a454dc3493923482f07822329ed19e8244eff582cc204f8554c3620c3fd601f840160051c81019160208510610a33575b90601f859493920160051c01905b818110610a255750610371565b5f8155849350600101610a18565b9091508190610a0a565b91607f169161035d565b015190505f80610325565b600d5f9081528281209350601f198516905b818110610aa05750908460019594939210610a88575b505050811b01600d5561033a565b01515f1960f88460031b161c191690555f8080610a7a565b92936020600181928786015181550195019301610a64565b600d5f529091507fd7b6990105719101dabeb77144f2a3385c8033acd3af97e9423a695e81ad1eb5601f840160051c81019160208510610b1c575b90601f859493920160051c01905b818110610b0e575061030f565b5f8155849350600101610b01565b9091508190610af3565b91607f16916102fb565b015190505f806102c3565b600c5f9081528281209350601f198516905b818110610b895750908460019594939210610b71575b505050811b01600c556102d8565b01515f1960f88460031b161c191690555f8080610b63565b92936020600181928786015181550195019301610b4d565b600c5f529091507fdf6966c971051c3d54ec59162606531493a51404a002842f56009d7e5cf4a8c7601f840160051c81019160208510610c05575b90601f859493920160051c01905b818110610bf757506102ad565b5f8155849350600101610bea565b9091508190610bdc565b91607f1691610299565b015190505f80610261565b60045f9081528281209350601f198516905b818110610c725750908460019594939210610c5a575b505050811b01600455610276565b01515f1960f88460031b161c191690555f8080610c4c565b92936020600181928786015181550195019301610c36565b60045f529091507f8a35acfbc15ff81a39ae7d344fd709f28e8600b4aa8c65c6b64bfe7fe36bd19b601f840160051c81019160208510610cee575b90601f859493920160051c01905b818110610ce0575061024b565b5f8155849350600101610cd3565b9091508190610cc5565b91607f1691610237565b905060805101515f610200565b60035f9081528181209250601f198416905b818110610d5d57509083600194939210610d43575b5050811b01600355610214565b60805101515f1960f88460031b161c191690555f80610d36565b919260206001819286608051015181550194019201610d21565b60035f527fc2575a0e9e593c00f959f8c92f12db2869c3395a3b0502d05e2516446f71f85b601f830160051c81019160208410610dd0575b601f0160051c01905b818110610dc557506101ea565b5f8155600101610db8565b9091508190610daf565b90607f16906101d8565b5f80fd5b6040519190601f01601f191682016001600160401b0381118382101761068f57604052565b81601f82011215610de4578051906001600160401b03821161068f57610e3c601f8301601f1916602001610de8565b9282845260208383010111610de457815f9260208093018386015e8301015290565b51906001600160a01b0382168203610de45756fe60806040526004361015610011575f80fd5b5f5f3560e01c806306fdde0314611f28578063095ea7b314611e8057806309a1578514611d8c57806318160ddd14611d6f5780631afbd128146119d55780631fb6112e146119185780632152418c1461188657806321b394bc1461186857806323b872dd146117865780632881687f14611768578063313ce5671461174c5780633ccfd60b146115c9578063411d90af1461150c5780634173fb9d1461149857806341e0080b146113db57806347d54bff146113bd57806351d8b2c61461139f57806352622ffb1461105c5780636178e44c14610d7c57806367c0d00f14610d5e578063707f67ee14610ca157806370a0823114610c695780637bcc180c14610c055780637fcfcb7e14610bde57806391ac0cc41461099e57806395d89b41146108e157806398d1911014610824578063a9059cbb146107f2578063af608007146107d4578063b3c9b7b2146106d3578063bb21a99714610595578063dbc837c51461056c578063dd62ed3e14610519578063e037f889146103c6578063eaf40bcd146103a2578063f21f537d14610384578063f40430d2146102c75763fdfec5dd146101bc575f80fd5b346102c457806003193601126102c4576040519080600c54908160011c916001811680156102ba575b6020841081146102a65783865290811561027f5750600114610222575b61021e8461021281860382612055565b60405191829182611fe3565b0390f35b600c81527fdf6966c971051c3d54ec59162606531493a51404a002842f56009d7e5cf4a8c7939250905b8082106102655750909150810160200161021282610202565b91926001816020925483858801015201910190929161024c565b60ff191660208087019190915292151560051b850190920192506102129150839050610202565b634e487b7160e01b83526022600452602483fd5b92607f16926101e5565b80fd5b50346102c457806003193601126102c4576040519080600e54908160011c9160018116801561037a575b6020841081146102a65783865290811561027f575060011461031d5761021e8461021281860382612055565b600e81527fbb7b4a454dc3493923482f07822329ed19e8244eff582cc204f8554c3620c3fd939250905b8082106103605750909150810160200161021282610202565b919260018160209254838588010152019101909291610347565b92607f16926102f1565b50346102c457806003193601126102c4576020601554604051908152f35b50346102c457806003193601126102c457602063ffffffff601a5416604051908152f35b50346102c457806003193601126102c4576103ec60018060a01b03600b541633146120a7565b6002546104d4576006546040516370a0823160e01b815233600482015290602090829060249082906001600160a01b03165afa9081156104c9578291610493575b506018546014549161043f8383612119565b11610459576104569161045191612119565b6123b9565b80f35b60405162461bcd60e51b81526020600482015260126024820152714e6f7420656e6f7567682062616c616e636560701b6044820152606490fd5b90506020813d6020116104c1575b816104ae60209383612055565b810103126104bd57515f61042d565b5f80fd5b3d91506104a1565b6040513d84823e3d90fd5b60405162461bcd60e51b815260206004820152601d60248201527f496e697469616c206465706f73697420686173206265656e2073656e740000006044820152606490fd5b50346102c45760403660031901126102c457604061053561200d565b9161053e612023565b9260018060a01b031681526001602052209060018060a01b03165f52602052602060405f2054604051908152f35b50346102c457806003193601126102c457600b546040516001600160a01b039091168152602090f35b50346102c457806003193601126102c4576005546040516370a0823160e01b81523060048201526001600160a01b039091169190602081602481865afa80156104c95782906106a0575b6020915060246040518095819363ef8b30f760e01b835260048301525afa91821561069357819261065f575b50600854908061064b577fb5caada44c21534f899b80931d6822af878c135819ecf2b62cfb2b81d7f299d46040848460085581519081525f6020820152a1005b634e487b7160e01b81526011600452602490fd5b9091506020813d60201161068b575b8161067b60209383612055565b810103126104bd5751905f61060b565b3d915061066e565b50604051903d90823e3d90fd5b506020813d6020116106cb575b816106ba60209383612055565b810103126104bd57602090516105df565b3d91506106ad565b50346102c45760203660031901126102c4576004359060606040516106f781612039565b8281528260208201528260408201520152601b54811161078f5761071c608091612077565b5060ff60036040519261072e84612039565b60018060a01b03815416845260018101546020850152600281015460408501520154161515606082015261078d60405180926060809160018060a01b038151168452602081015160208501526040810151604085015201511515910152565bf35b60405162461bcd60e51b815260206004820152601b60248201527f436c61696d20696e646578206973206f7574206f662072616e676500000000006044820152606490fd5b50346102c457806003193601126102c4576020601754604051908152f35b50346102c45760403660031901126102c45761081961080f61200d565b6024359033612322565b602060405160018152f35b50346102c457806003193601126102c4576040519080601154908160011c916001811680156108d7575b6020841081146102a65783865290811561027f575060011461087a5761021e8461021281860382612055565b601181527f31ecc21a745e3968a04e9570e4425bc18fa8019c68028196b546d1669c200c68939250905b8082106108bd5750909150810160200161021282610202565b9192600181602092548385880101520191019092916108a4565b92607f169261084e565b50346102c457806003193601126102c4576040519080600454908160011c91600181168015610994575b6020841081146102a65783865290811561027f57506001146109375761021e8461021281860382612055565b600481527f8a35acfbc15ff81a39ae7d344fd709f28e8600b4aa8c65c6b64bfe7fe36bd19b939250905b80821061097a5750909150810160200161021282610202565b919260018160209254838588010152019101909291610961565b92607f169261090b565b50346102c45760803660031901126102c4576109b8612157565b6109dd6044359160036109ca84612077565b50019060ff801983541691151516179055565b60016109e7612157565b151503610b73576005546040516370a0823160e01b81523060048201526001600160a01b0390911690602081602481855afa908115610b68578491610b34575b50610aa191610a5e610a55602093610a4f6001610a4389612077565b50015460145490612119565b90612119565b6002549061212c565b90610a6885612077565b505460405163a9059cbb60e01b81526001600160a01b039091166004820152602481019290925290928391908290879082906044820190565b03925af18015610b2957610afc575b50610ac86001610abf83612077565b500154306121a7565b7fb1d4d5200bdca77843a526a5d9b60e6bdaab3003de654e06dc515a7198b8142060405180610af681612166565b0390a280f35b610b1d9060203d602011610b22575b610b158183612055565b810190612101565b610ab0565b503d610b0b565b6040513d85823e3d90fd5b90506020813d602011610b60575b81610b4f60209383612055565b810103126104bd5751610aa1610a27565b3d9150610b42565b6040513d86823e3d90fd5b610b816001610abf83612077565b6004356001600160a01b0381168103610bda57610bac906001610ba384612077565b5001549061223e565b7f1547ef68a294755690d97570c56eb7941ccb230cb3cb1c587115a5ebd09c495960405180610af681612166565b8280fd5b50346102c45760203660031901126102c4576020610bfd600435612580565b604051908152f35b50346102c45760203660031901126102c45760043590601b548210156102c4576080610c3083612077565b5060018060a01b038154169060018101549060ff6003600283015492015416916040519384526020840152604083015215156060820152f35b50346102c45760203660031901126102c4576020906040906001600160a01b03610c9161200d565b1681528083522054604051908152f35b50346102c457806003193601126102c4576040519080601054908160011c91600181168015610d54575b6020841081146102a65783865290811561027f5750600114610cf75761021e8461021281860382612055565b601081527f1b6847dc741a1b0cd08d278845f9d819d87b734759afb55fe2de5cb82a9ae672939250905b808210610d3a5750909150810160200161021282610202565b919260018160209254838588010152019101909291610d21565b92607f1692610ccb565b50346102c457806003193601126102c4576020601454604051908152f35b50346102c45760603660031901126102c4576044356001600160a01b03811690600435906024359083900361105857601754421015611014578115610fd0578215610f8b57601854610dd06019548461214a565b11610f35576006546040516370a0823160e01b815233600482015290602090829060249082906001600160a01b03165afa8015610f2a5782918691610ef5575b5010610eb05781610e2082612580565b03610e6b577f1ec6ca237cf412015f109db027dc71b2292a20387279781fd699c4ec328a23d791610e526020926123b9565b610e5e8160195461214a565b601955604051908152a280f35b60405162461bcd60e51b815260206004820152601860248201527f53656e74206173736574732069736e277420656e6f75676800000000000000006044820152606490fd5b60405162461bcd60e51b815260206004820152601d60248201527f596f7520646f6e2774206861766520656e6f7567682062616c616e63650000006044820152606490fd5b9150506020813d602011610f22575b81610f1160209383612055565b810103126104bd578190515f610e10565b3d9150610f04565b6040513d87823e3d90fd5b60405162461bcd60e51b815260206004820152602860248201527f4d617820737570706c79206578636565647320746865206d617820706f6c6963604482015267792073686172657360c01b6064820152608490fd5b60405162461bcd60e51b815260206004820152601f60248201527f496e7375726564206d75737420626520612076616c69642061646472657373006044820152606490fd5b606460405162461bcd60e51b815260206004820152602060248201527f416d6f756e74206d7573742062652067726561746572207468616e207a65726f6044820152fd5b606460405162461bcd60e51b815260206004820152602060248201527f506f6c6963792063616e277420626520707572636861736520616e796d6f72656044820152fd5b8380fd5b50346102c45760803660031901126102c4576007546001600160a01b031633819003611344576005546040516370a0823160e01b81523060048201526001600160a01b0390911690602081602481855afa908115610b68578491611310575b50610a556110d391610a4f6001610a43604435612077565b916103e88302928084046103e814901517156112fc5760405163095ea7b360e01b81526001600160a01b0391909116600482015260248101839052906020908290604490829087905af1908115610b295783916112dd575b501561128e5760055460405163095ea7b360e01b815233600482015260248101839052906020908290604490829087906001600160a01b03165af1908115610b2957839161126f575b501561122a5760055460405163095ea7b360e01b815232600482015260248101929092526020908290604490829086906001600160a01b03165af19081156104c957829161120b575b50156111c65780f35b60405162461bcd60e51b815260206004820152601b60248201527f4661696c656420746f20617070726f76652074782e6f726967696e00000000006044820152606490fd5b611224915060203d602011610b2257610b158183612055565b5f6111bd565b60405162461bcd60e51b815260206004820152601c60248201527f4661696c656420746f20617070726f7665206d73672e73656e646572000000006044820152606490fd5b611288915060203d602011610b2257610b158183612055565b5f611174565b60405162461bcd60e51b815260206004820152602160248201527f4661696c656420746f20617070726f76652073657276696365206d616e6167656044820152603960f91b6064820152608490fd5b6112f6915060203d602011610b2257610b158183612055565b5f61112b565b634e487b7160e01b84526011600452602484fd5b90506020813d60201161133c575b8161132b60209383612055565b810103126104bd5751610a556110bb565b3d915061131e565b60405162461bcd60e51b815260206004820152602d60248201527f4f6e6c792073657276696365206d616e616765722063616e20696e766f6b652060448201526c3a3434b990333ab731ba34b7b760991b6064820152608490fd5b50346102c457806003193601126102c4576020601854604051908152f35b50346102c457806003193601126102c4576020601654604051908152f35b50346102c457806003193601126102c4576040519080600d54908160011c9160018116801561148e575b6020841081146102a65783865290811561027f57506001146114315761021e8461021281860382612055565b600d81527fd7b6990105719101dabeb77144f2a3385c8033acd3af97e9423a695e81ad1eb5939250905b8082106114745750909150810160200161021282610202565b91926001816020925483858801015201910190929161145b565b92607f1692611405565b50346102c45760203660031901126102c4576114b261200d565b600b546001600160a01b038116916114cb3384146120a7565b6001600160a01b03169182907f155faa1d2e95029c9603f208551520bab524c2a713e5b7710cd39a91c73d281f8580a36001600160a01b03191617600b5580f35b50346102c457806003193601126102c4576040519080601354908160011c916001811680156115bf575b6020841081146102a65783865290811561027f57506001146115625761021e8461021281860382612055565b601381527f66de8ffda797e3de9c05e8fc57b3bf0ec28a930d40b0d285d93c06501cf6a090939250905b8082106115a55750909150810160200161021282610202565b91926001816020925483858801015201910190929161158c565b92607f1692611536565b50346102c457806003193601126102c4576016544211156116fb57600b546001600160a01b03166115fb3382146120a7565b6005546040516370a0823160e01b8152306004820152906001600160a01b0316602082602481845afa918215610b685784926116c5575b506040516323b872dd60e01b81523060048201526001600160a01b039093166024840152604483018290526020908390818681606481015b03925af1908115610b29577f5b6b431d4476a211bb7d41c20d1aab9ae2321deee0d20be3d9fc9b1093fa6e3d926020926116aa575b50604051908152a180f35b6116c090833d8511610b2257610b158183612055565b61169f565b9091506020813d6020116116f3575b816116e160209383612055565b810103126104bd57519061166a611632565b3d91506116d4565b60405162461bcd60e51b815260206004820152602360248201527f506c65617365207761697420756e74696c2074686520706572696f6420697320604482015262195b9960ea1b6064820152608490fd5b50346102c457806003193601126102c457602060405160128152f35b50346102c457806003193601126102c4576020601954604051908152f35b50346102c45760603660031901126102c4576117a061200d565b6117a8612023565b6001600160a01b038216808452600160209081526040808620335f908152925290205460443593915f1982106117e5575b50506108199350612322565b84821061184d5780156118395733156118255785604091610819975260016020522060018060a01b0333165f526020528360405f20910390555f806117d9565b634a1406b160e11b86526004869052602486fd5b63e602df0560e01b86526004869052602486fd5b6064868684637dc7a0d960e11b835233600452602452604452fd5b50346102c457806003193601126102c4576020601b54604051908152f35b50346102c45760203660031901126102c457600435600954600181018091116119045760025491600183018093116118f0576118c38383836125ba565b9383156118dc576020610bfd868686860915159061214a565b634e487b7160e01b81526012600452602490fd5b634e487b7160e01b5f52601160045260245ffd5b634e487b7160e01b83526011600452602483fd5b50346102c457806003193601126102c4576040519080601254908160011c916001811680156119cb575b6020841081146102a65783865290811561027f575060011461196e5761021e8461021281860382612055565b601281527fbb8a6a4669ba250d26cd7a459eca9d215f8307e33aebe50379bc5a3617ec3444939250905b8082106119b15750909150810160200161021282610202565b919260018160209254838588010152019101909291611998565b92607f1692611942565b50346104bd575f3660031901126104bd57335f525f60205260405f205415611d2a57601b545f805b828110611cfe5750611cb957335f525f60205260405f205460405191611a2283612039565b3383526020830190828252604084019181835260608501915f835268010000000000000000811015611ca557806001611a5e9201601b55612077565b929092611c9257611aae9360039260018060a01b038851166bffffffffffffffffffffffff60a01b86541617855551600185015551600284015551151591019060ff801983541691151516179055565b611ab881336121a7565b611ac2813061223e565b611acb306122ae565b611ad4336122ae565b611add816122fa565b63ffffffff601a541690611af0826122fa565b6007546001600160a01b031691823b156104bd5760845f92836040519586948593630bb54ccf60e41b8552306004860152336024860152604485015260648401525af18015611c8757611c72575b506040516040810181811067ffffffffffffffff821117611c5e57611bac611bba5f938493604052602081527f4166746572207468652073657276696365206d616e616765722063616c6c6564602082015260405192839163104c13eb60e21b602084015260248301611fe3565b03601f198101835282612055565b6020815191016a636f6e736f6c652e6c6f675afa506001601a54917fc271c2ba952861633612aabb311dc0a5d1ea4fd62f563bd43e26a01bcb827a9060a063ffffffff851692611c3c6040519185835260208301906060809160018060a01b038151168452602081015160208501526040810151604085015201511515910152565ba10163ffffffff81116119045763ffffffff169063ffffffff191617601a5580f35b634e487b7160e01b84526041600452602484fd5b611c7f9192505f90612055565b5f905f611b3e565b6040513d5f823e3d90fd5b634e487b7160e01b5f525f60045260245ffd5b634e487b7160e01b5f52604160045260245ffd5b60405162461bcd60e51b815260206004820152601860248201527f436c61696d20686173206265656e207375626d697474656400000000000000006044820152606490fd5b611d0781612077565b50546001600160a01b03163314611d21575b6001016119fd565b60019150611d19565b60405162461bcd60e51b815260206004820152601760248201527f596f7520646f6e2774206861766520706f6c69636965730000000000000000006044820152606490fd5b346104bd575f3660031901126104bd576020600254604051908152f35b346104bd575f3660031901126104bd576040515f600f548060011c90600181168015611e76575b602083108114611e6257828552908115611e3e5750600114611de0575b61021e8361021281850382612055565b600f5f9081527f8d1108e10bcb7c27dddfc02ed9d693a074039d026cf4ea4240b40f7d581ac802939250905b808210611e2457509091508101602001610212611dd0565b919260018160209254838588010152019101909291611e0c565b60ff191660208086019190915291151560051b840190910191506102129050611dd0565b634e487b7160e01b5f52602260045260245ffd5b91607f1691611db3565b346104bd5760403660031901126104bd57611e9961200d565b602435903315611f15576001600160a01b0316908115611f0257335f52600160205260405f20825f526020528060405f20556040519081527f8c5be1e5ebec7d5bd14f71427d1e84f3dd0314c0f7b2291e5b200ac8c7c3b92560203392a3602060405160018152f35b634a1406b160e11b5f525f60045260245ffd5b63e602df0560e01b5f525f60045260245ffd5b346104bd575f3660031901126104bd576040515f6003548060011c90600181168015611fd9575b602083108114611e6257828552908115611e3e5750600114611f7b5761021e8361021281850382612055565b60035f9081527fc2575a0e9e593c00f959f8c92f12db2869c3395a3b0502d05e2516446f71f85b939250905b808210611fbf57509091508101602001610212611dd0565b919260018160209254838588010152019101909291611fa7565b91607f1691611f4f565b602060409281835280519182918282860152018484015e5f828201840152601f01601f1916010190565b600435906001600160a01b03821682036104bd57565b602435906001600160a01b03821682036104bd57565b6080810190811067ffffffffffffffff821117611ca557604052565b90601f8019910116810190811067ffffffffffffffff821117611ca557604052565b601b5481101561209357601b5f5260205f209060021b01905f90565b634e487b7160e01b5f52603260045260245ffd5b156120ae57565b60405162461bcd60e51b815260206004820152602560248201527f4f6e6c7920696e73757265722063616e20696e766f6b6520746869732066756e60448201526431ba34b7b760d91b6064820152608490fd5b908160209103126104bd575180151581036104bd5790565b818102929181159184041417156118f057565b8115612136570490565b634e487b7160e01b5f52601260045260245ffd5b919082018092116118f057565b60643580151581036104bd5790565b6080810191906004356001600160a01b038116908190036104bd57815260243560208201526044356040820152606435908115158092036104bd5760600152565b9091906001600160a01b0316801561222b57805f525f60205260405f2054838110612211576020845f94957fddf252ad1be2c89b69c2b068fc378daa952ba7f163c4a11628f55a4df523b3ef938587528684520360408620558060025403600255604051908152a3565b915063391434e360e21b5f5260045260245260445260645ffd5b634b637e8f60e11b5f525f60045260245ffd5b6001600160a01b031690811561229b577fddf252ad1be2c89b69c2b068fc378daa952ba7f163c4a11628f55a4df523b3ef60208261227f5f9460025461214a565b60025584845283825260408420818154019055604051908152a3565b63ec442f0560e01b5f525f60045260245ffd5b60405163161765e160e11b60208201526001600160a01b0390911660248083019190915281525f9081906122e3604482612055565b6020815191016a636f6e736f6c652e6c6f675afa50565b5f80916040519063f82c50f160e01b60208301526024820152602481526122e3604482612055565b6001600160a01b031690811561222b576001600160a01b031691821561229b57815f525f60205260405f20548181106123a057817fddf252ad1be2c89b69c2b068fc378daa952ba7f163c4a11628f55a4df523b3ef92602092855f525f84520360405f2055845f525f825260405f20818154019055604051908152a3565b8263391434e360e21b5f5260045260245260445260645ffd5b6006546040516323b872dd60e01b81523360048201523060248201526044810183905290602090829060649082905f906001600160a01b03165af18015611c8757612563575b5061240981612580565b6002546125545761241a903061223e565b60065460055460405163095ea7b360e01b81526001600160a01b0391821660048201526024810184905291602091839160449183915f91165af18015611c8757612537575b50600554604051636e553f6560e01b81526004810183905230602482015290602090829060449082905f906001600160a01b03165af18015611c8757612508575b507f227a473b70d2f893cc7659219575c030a63b5743024fe1e0c1a680e708b1525a6020604051838152a16124d78160095461214a565b6009556040519081527fe1fffcc4923d04b559f4d29a8bfc6cda04eb5b0d3c460751c2402c5c5cc9109c60203392a2565b6020813d60201161252f575b8161252160209383612055565b810103126104bd57516124a0565b3d9150612514565b61254f9060203d602011610b2257610b158183612055565b61245f565b61255e903361223e565b61241a565b61257b9060203d602011610b2257610b158183612055565b6123ff565b600254600181018091116118f05760095490600182018092116118f0576125a88282856125ba565b6125b793505f9250905061214a565b90565b91818302915f198185099383808610950394808603951461264a57848311156126325790829109815f0382168092046002816003021880820260020302808202600203028082026002030280820260020302808202600203028091026002030293600183805f03040190848311900302920304170290565b82634e487b715f52156003026011186020526024601cfd5b5050906125b7925061212c56fea2646970667358221220916b4fd0e341e9bdeadd8201a81b358cb6d17bb7e4b7b92c4d673405a45b92f564736f6c634300081c0033a2646970667358221220cb468703d80113aa17888e1134bf390ea97954cfe37b907da1e2f7cc334b7d1764736f6c634300081c003300000000000000000000000012cd89a3e09f2e794708c4ee7416ba68e2a8e84c",
        "nonce": "0x417",
        "chainId": "0x66eee"
      },
      "additionalContracts": [],
      "isFixedGasLimit": false
    },
    {
      "hash": "0xf69aac193caf10dc7dff42774fc7028efedabea202867cb270fad65ec9b15490",
      "transactionType": "CALL",
      "contractName": null,
      "contractAddress": "0x12cd89a3e09f2e794708c4ee7416ba68e2a8e84c",
      "function": "initialize(address,string)",
      "arguments": [
        "0x3c18297D78c9b83d29B25A23B3610351eC8090C6",
        "04fb611087908d883d10d1b9633a7301b734eb693888b006a543a04429c6430d829bb4d6dd6eda0e2361ff153c398388f4fc2b7a6b640f6dcb083e763b6be1a568"
      ],
      "transaction": {
        "from": "0x34728af7d0fc03cbbdff82b6d52aeda8c999e2b2",
        "to": "0x12cd89a3e09f2e794708c4ee7416ba68e2a8e84c",
        "gas": "0x3f3b0",
        "value": "0x0",
        "input": "0xf399e22e0000000000000000000000003c18297d78c9b83d29b25a23b3610351ec8090c60000000000000000000000000000000000000000000000000000000000000040000000000000000000000000000000000000000000000000000000000000008230346662363131303837393038643838336431306431623936333361373330316237333465623639333838386230303661353433613034343239633634333064383239626234643664643665646130653233363166663135336333393833383866346663326237613662363430663664636230383365373633623662653161353638000000000000000000000000000000000000000000000000000000000000",
        "nonce": "0x418",
        "chainId": "0x66eee"
      },
      "additionalContracts": [],
      "isFixedGasLimit": false
    },
    {
      "hash": "0x3fcf4fc0ce65f9f931c79228a5198fd7d53a065f45481d3f3d9a4ea1e5f19dbf",
      "transactionType": "CALL",
      "contractName": "InsuranceFactory",
      "contractAddress": "0x3c18297d78c9b83d29b25a23b3610351ec8090c6",
      "function": "createInsurancePool(string,string,string,string,string,string,string,string,string,uint256,uint256,uint256,uint256,uint256,address,address,address)",
      "arguments": [
        "Indodax Insurance",
        "IDXI",
        "https://github.com/btcid/indodax-official-api-docs/blob/master/README.md",
        "curl --location --globoff \\'https://api.npoint.io/c9aa3e8003aceb1b9b52\\' --header \\'content-type: application/json\\' --header \\'x-api-key: SECRET_KEY\\'",
        "04278d1a2ff5452c89e714699a77f81627a9a5875104c0809cf9e0f6dacf5a2c0dd840586a64cfa89b2d104107b5cfd8569f965e6f75cc4eac59955f28d7f1cc70570e667caf233e4eacbc8ebf952fa581e53dae7153515992c681d9df58acfb42",
        "04fab08cf72b5eac277e68f04b45e288d2ee68c4f1696e442e8c03ec7274c7d9da83c0dc614b840e518a4d4fd255a7ee8c9cdb04ceba84eea621ac41265c5a5ac80eacdfe3dd294d813774c1a1ccaedf95e967cbaf554b6c577555e4f64fbd265d4dbf5365c722956afe93d7ad66ca2a87090ddc38e504d6388e6a919b347d2655588e6a11231d2406ddce",
        "04927edf4654b8f312250ff8fd6c03cc4fbfdcbfc2d5a27985942bf3921131fac7073d4e9ad43a5c679c3f172e487405aa149b04a6ed907bbbcd33ed2d60cb46720e027bdf21c27ec15469e5f63b1228a75fa641a55b5bcb3feb37dfa050fa987a14c27dca48b92eea19181c325e76d9d3f751018e8743c45fa66fea07f5f0151aab335a14fe29a7ecc2a28c01910fbe5f541ce1f3a1eb4625fbcd824a35503a4d002b",
        "\\\\{\\\"data\\\":\\\\{\\\"rekts\\\":\\\\[(?<extractedValue>.*?)\\\\]\\\\}\\\\}",
        "\\\"projectName\\\":\\\\s*\\\"Indodax\\\"",
        "3",
        "1732431678",
        "1735023678",
        "1734850878",
        "50000000",
        "0x94BAa979F569eDb2F33903D9cCec66b31c9620F5",
        "0x654837fE31838Bd0391188182a3Ecdd402846D3a",
        "0x12Cd89a3e09f2e794708C4Ee7416bA68e2a8e84C"
      ],
      "transaction": {
        "from": "0x34728af7d0fc03cbbdff82b6d52aeda8c999e2b2",
        "to": "0x3c18297d78c9b83d29b25a23b3610351ec8090c6",
        "gas": "0x12f8a",
        "value": "0x0",
        "input": "0xe8b3c0930000000000000000000000000000000000000000000000000000000000000220000000000000000000000000000000000000000000000000000000000000026000000000000000000000000000000000000000000000000000000000000002a0000000000000000000000000000000000000000000000000000000000000032000000000000000000000000000000000000000000000000000000000000003e000000000000000000000000000000000000000000000000000000000000004e0000000000000000000000000000000000000000000000000000000000000062000000000000000000000000000000000000000000000000000000000000007a000000000000000000000000000000000000000000000000000000000000008000000000000000000000000000000000000000000000000000000000000000003000000000000000000000000000000000000000000000000000000006742cf3e00000000000000000000000000000000000000000000000000000000676a5c3e000000000000000000000000000000000000000000000000000000006767b93e0000000000000000000000000000000000000000000000000000000002faf08000000000000000000000000094baa979f569edb2f33903d9ccec66b31c9620f5000000000000000000000000654837fe31838bd0391188182a3ecdd402846d3a00000000000000000000000012cd89a3e09f2e794708c4ee7416ba68e2a8e84c0000000000000000000000000000000000000000000000000000000000000011496e646f64617820496e737572616e636500000000000000000000000000000000000000000000000000000000000000000000000000000000000000000000044944584900000000000000000000000000000000000000000000000000000000000000000000000000000000000000000000000000000000000000000000004868747470733a2f2f6769746875622e636f6d2f62746369642f696e646f6461782d6f6666696369616c2d6170692d646f63732f626c6f622f6d61737465722f524541444d452e6d6400000000000000000000000000000000000000000000000000000000000000000000000000000000000000000000000000000000000000916375726c202d2d6c6f636174696f6e202d2d676c6f626f6666202768747470733a2f2f6170692e6e706f696e742e696f2f633961613365383030336163656231623962353227202d2d6865616465722027636f6e74656e742d747970653a206170706c69636174696f6e2f6a736f6e27202d2d6865616465722027782d6170692d6b65793a205345435245545f4b45592700000000000000000000000000000000000000000000000000000000000000000000000000000000000000000000c23034323738643161326666353435326338396537313436393961373766383136323761396135383735313034633038303963663965306636646163663561326330646438343035383661363463666138396232643130343130376235636664383536396639363565366637356363346561633539393535663238643766316363373035373065363637636166323333653465616362633865626639353266613538316535336461653731353335313539393263363831643964663538616366623432000000000000000000000000000000000000000000000000000000000000000000000000000000000000000000000000000000000000000000000000011630346661623038636637326235656163323737653638663034623435653238386432656536386334663136393665343432653863303365633732373463376439646138336330646336313462383430653531386134643466643235356137656538633963646230346365626138346565613632316163343132363563356135616338306561636466653364643239346438313337373463316131636361656466393565393637636261663535346236633537373535356534663634666264323635643464626635333635633732323935366166653933643761643636636132613837303930646463333865353034643633383865366139313962333437643236353535383865366131313233316432343036646463650000000000000000000000000000000000000000000000000000000000000000000000000000000001463034393237656466343635346238663331323235306666386664366330336363346662666463626663326435613237393835393432626633393231313331666163373037336434653961643433613563363739633366313732653438373430356161313439623034613665643930376262626364333365643264363063623436373230653032376264663231633237656331353436396535663633623132323861373566613634316135356235626362336665623337646661303530666139383761313463323764636134386239326565613139313831633332356537366439643366373531303138653837343363343566613636666561303766356630313531616162333335613134666532396137656363326132386330313931306662653566353431636531663361316562343632356662636438323461333535303361346430303262000000000000000000000000000000000000000000000000000000000000000000000000000000000000000000000000000000000000000000315c7b2264617461223a5c7b2272656b7473223a5c5b283f3c65787472616374656456616c75653e2e2a3f295c5d5c7d5c7d000000000000000000000000000000000000000000000000000000000000000000000000000000000000000000001a2270726f6a6563744e616d65223a5c732a22496e646f64617822000000000000",
        "nonce": "0x419",
        "chainId": "0x66eee"
      },
      "additionalContracts": [],
      "isFixedGasLimit": false
    },
    {
      "hash": "0x6074ae9069984ab90bdb027eeb99bd8fa363d352f6849d6b2118ebbefb62ba62",
      "transactionType": "CALL",
      "contractName": null,
      "contractAddress": "0x94baa979f569edb2f33903d9ccec66b31c9620f5",
      "function": "approve(address,uint256)",
      "arguments": [
        "0xf855Fe32Ad115a4fC02eB65b8efBE12425effd4A",
        "150000000"
      ],
      "transaction": {
        "from": "0x34728af7d0fc03cbbdff82b6d52aeda8c999e2b2",
        "to": "0x94baa979f569edb2f33903d9ccec66b31c9620f5",
        "gas": "0xf86c",
        "value": "0x0",
        "input": "0x095ea7b3000000000000000000000000f855fe32ad115a4fc02eb65b8efbe12425effd4a0000000000000000000000000000000000000000000000000000000008f0d180",
        "nonce": "0x41a",
        "chainId": "0x66eee"
      },
      "additionalContracts": [],
      "isFixedGasLimit": false
    },
    {
      "hash": "0x2dedca685edd9805d50ad069c1f5af5ccb5748a3066c755486913246f0acee8c",
      "transactionType": "CALL",
      "contractName": "InsurancePool",
      "contractAddress": "0xf855fe32ad115a4fc02eb65b8efbe12425effd4a",
      "function": "initialDeposit()",
      "arguments": [],
      "transaction": {
        "from": "0x34728af7d0fc03cbbdff82b6d52aeda8c999e2b2",
        "to": "0xf855fe32ad115a4fc02eb65b8efbe12425effd4a",
        "gas": "0x75ce",
        "value": "0x0",
        "input": "0xe037f889",
        "nonce": "0x41b",
        "chainId": "0x66eee"
      },
      "additionalContracts": [],
      "isFixedGasLimit": false
    },
    {
      "hash": "0x25fd704ce14ef829cafa86bae5cdb7b93d29a61f11e16552739f704510a3c88b",
      "transactionType": "CALL",
      "contractName": null,
      "contractAddress": "0x94baa979f569edb2f33903d9ccec66b31c9620f5",
      "function": "approve(address,uint256)",
      "arguments": [
        "0xf855Fe32Ad115a4fC02eB65b8efBE12425effd4A",
        "20000000"
      ],
      "transaction": {
        "from": "0x94c83a5137751c4e6acc0cfdb09819b0b83582d1",
        "to": "0x94baa979f569edb2f33903d9ccec66b31c9620f5",
        "gas": "0xf85c",
        "value": "0x0",
        "input": "0x095ea7b3000000000000000000000000f855fe32ad115a4fc02eb65b8efbe12425effd4a0000000000000000000000000000000000000000000000000000000001312d00",
        "nonce": "0x24",
        "chainId": "0x66eee"
      },
      "additionalContracts": [],
      "isFixedGasLimit": false
    },
    {
      "hash": "0xae70ca61ada503924220dd758eb3f0c5ac598c96024d69bb2b9f568bb8540670",
      "transactionType": "CALL",
      "contractName": "InsurancePool",
      "contractAddress": "0xf855fe32ad115a4fc02eb65b8efbe12425effd4a",
      "function": "purchasePolicy(uint256,uint256,address)",
      "arguments": [
        "20000000",
        "20000000",
        "0x94c83a5137751C4E6acc0cFdB09819B0B83582D1"
      ],
      "transaction": {
        "from": "0x94c83a5137751c4e6acc0cfdb09819b0b83582d1",
        "to": "0xf855fe32ad115a4fc02eb65b8efbe12425effd4a",
        "gas": "0x7f6e",
        "value": "0x0",
        "input": "0x6178e44c0000000000000000000000000000000000000000000000000000000001312d000000000000000000000000000000000000000000000000000000000001312d0000000000000000000000000094c83a5137751c4e6acc0cfdb09819b0b83582d1",
        "nonce": "0x25",
        "chainId": "0x66eee"
      },
      "additionalContracts": [],
      "isFixedGasLimit": false
    },
    {
      "hash": "0x0d43bc540b71349650f6d4f7f444545c0ebf758d54d866b4423742d6f381b038",
      "transactionType": "CALL",
      "contractName": "InsurancePool",
      "contractAddress": "0xf855fe32ad115a4fc02eb65b8efbe12425effd4a",
      "function": "submitClaim()",
      "arguments": [],
      "transaction": {
        "from": "0x94c83a5137751c4e6acc0cfdb09819b0b83582d1",
        "to": "0xf855fe32ad115a4fc02eb65b8efbe12425effd4a",
        "gas": "0x75ce",
        "value": "0x0",
        "input": "0x1afbd128",
        "nonce": "0x26",
        "chainId": "0x66eee"
      },
      "additionalContracts": [],
      "isFixedGasLimit": false
    }
  ],
  "receipts": [
    {
      "status": "0x1",
      "cumulativeGasUsed": "0xbb73",
      "logs": [
        {
          "address": "0x94baa979f569edb2f33903d9ccec66b31c9620f5",
          "topics": [
            "0x8c5be1e5ebec7d5bd14f71427d1e84f3dd0314c0f7b2291e5b200ac8c7c3b925",
            "0x00000000000000000000000034728af7d0fc03cbbdff82b6d52aeda8c999e2b2",
            "0x000000000000000000000000654837fe31838bd0391188182a3ecdd402846d3a"
          ],
          "data": "0x0000000000000000000000000000000000000000000000000de0b6b3a7640000",
          "blockHash": "0x7e669ff4fb9ba9a6c81600d970c939ca657729a5625d6178ac4a6e70924ca520",
          "blockNumber": "0x5f6a006",
          "transactionHash": "0xe6c210e57f84ddedc9f3643f3a85a3ddae680946cb45737529be093ea0a44dcb",
          "transactionIndex": "0x1",
          "logIndex": "0x0",
          "removed": false
        }
      ],
      "logsBloom": "0x00000000000000000000000000000000000000000000000000000000000000000000000000000000000000000000000000000000001000000000020000200000000000000000000040000000000000000000000000000000000000000000000000000000000000000000000000000000000000000000000100000000002000000000000000000000000000000000000000000000000000000000000000000800020000000000000000000000000000000000000000000000000000000000000000000000000000000000000000000000000200000000200000000000000000000010000000000000000000000000000000000000000000000000800000000000",
      "type": "0x2",
      "transactionHash": "0xe6c210e57f84ddedc9f3643f3a85a3ddae680946cb45737529be093ea0a44dcb",
      "transactionIndex": "0x1",
      "blockHash": "0x7e669ff4fb9ba9a6c81600d970c939ca657729a5625d6178ac4a6e70924ca520",
      "blockNumber": "0x5f6a006",
      "gasUsed": "0xbb73",
      "effectiveGasPrice": "0x5f5e100",
      "from": "0x34728af7d0fc03cbbdff82b6d52aeda8c999e2b2",
      "to": "0x94baa979f569edb2f33903d9ccec66b31c9620f5",
      "contractAddress": null,
      "gasUsedForL1": "0x7ee",
      "l1BlockNumber": "0x6cf7e9"
    },
    {
      "status": "0x1",
      "cumulativeGasUsed": "0xd9d2",
      "logs": [
        {
          "address": "0x94baa979f569edb2f33903d9ccec66b31c9620f5",
          "topics": [
            "0xddf252ad1be2c89b69c2b068fc378daa952ba7f163c4a11628f55a4df523b3ef",
            "0x00000000000000000000000034728af7d0fc03cbbdff82b6d52aeda8c999e2b2",
            "0x000000000000000000000000654837fe31838bd0391188182a3ecdd402846d3a"
          ],
          "data": "0x0000000000000000000000000000000000000000000000000de0b6b3a7640000",
          "blockHash": "0x6857a0dec185ce92e207924a56290c64c214768e81cf5eece48b0e545a9c77aa",
          "blockNumber": "0x5f6a00d",
          "transactionHash": "0x06c7f2ba4db5688b067d86deff2648b9e1c4d77d32330231980bee7dc0819abf",
          "transactionIndex": "0x1",
          "logIndex": "0x0",
          "removed": false
        },
        {
          "address": "0x654837fe31838bd0391188182a3ecdd402846d3a",
          "topics": [
            "0xddf252ad1be2c89b69c2b068fc378daa952ba7f163c4a11628f55a4df523b3ef",
            "0x0000000000000000000000000000000000000000000000000000000000000000",
            "0x00000000000000000000000034728af7d0fc03cbbdff82b6d52aeda8c999e2b2"
          ],
          "data": "0x0000000000000000000000000000000000000000000000000de0b6b3a7640000",
          "blockHash": "0x6857a0dec185ce92e207924a56290c64c214768e81cf5eece48b0e545a9c77aa",
          "blockNumber": "0x5f6a00d",
          "transactionHash": "0x06c7f2ba4db5688b067d86deff2648b9e1c4d77d32330231980bee7dc0819abf",
          "transactionIndex": "0x1",
          "logIndex": "0x1",
          "removed": false
        },
        {
          "address": "0x654837fe31838bd0391188182a3ecdd402846d3a",
          "topics": [
            "0xdcbc1c05240f31ff3ad067ef1ee35ce4997762752e3a095284754544f4c709d7",
            "0x00000000000000000000000034728af7d0fc03cbbdff82b6d52aeda8c999e2b2",
            "0x00000000000000000000000034728af7d0fc03cbbdff82b6d52aeda8c999e2b2"
          ],
          "data": "0x0000000000000000000000000000000000000000000000000de0b6b3a76400000000000000000000000000000000000000000000000000000de0b6b3a7640000",
          "blockHash": "0x6857a0dec185ce92e207924a56290c64c214768e81cf5eece48b0e545a9c77aa",
          "blockNumber": "0x5f6a00d",
          "transactionHash": "0x06c7f2ba4db5688b067d86deff2648b9e1c4d77d32330231980bee7dc0819abf",
          "transactionIndex": "0x1",
          "logIndex": "0x2",
          "removed": false
        }
      ],
      "logsBloom": "0x00000000000000000000000000000000000000000000000000000000000000000000000000000000000000000000000000000000001000000000020000000000000000400000000040000008000000000000000000000000000000000000000000000000020000000000000000000800000000000004000100000010002000000000000000000000000000000000000000000000000000000000000000000800000000000000000000000000000000000000000000000000000000000000000000000002000400000000000000000000000200000008200000000000000020000000000000000000000000000040000000000000000000000400800000000000",
      "type": "0x2",
      "transactionHash": "0x06c7f2ba4db5688b067d86deff2648b9e1c4d77d32330231980bee7dc0819abf",
      "transactionIndex": "0x1",
      "blockHash": "0x6857a0dec185ce92e207924a56290c64c214768e81cf5eece48b0e545a9c77aa",
      "blockNumber": "0x5f6a00d",
      "gasUsed": "0xd9d2",
      "effectiveGasPrice": "0x5f5e100",
      "from": "0x34728af7d0fc03cbbdff82b6d52aeda8c999e2b2",
      "to": "0x654837fe31838bd0391188182a3ecdd402846d3a",
      "contractAddress": null,
      "gasUsedForL1": "0x7f9",
      "l1BlockNumber": "0x6cf7e9"
    },
    {
      "status": "0x1",
      "cumulativeGasUsed": "0x8d76",
      "logs": [
        {
          "address": "0x94baa979f569edb2f33903d9ccec66b31c9620f5",
          "topics": [
            "0xddf252ad1be2c89b69c2b068fc378daa952ba7f163c4a11628f55a4df523b3ef",
            "0x00000000000000000000000034728af7d0fc03cbbdff82b6d52aeda8c999e2b2",
            "0x00000000000000000000000094c83a5137751c4e6acc0cfdb09819b0b83582d1"
          ],
          "data": "0x0000000000000000000000000000000000000000000000000de0b6b3a7640000",
          "blockHash": "0x247e3220f9b00499658d300e14293120c7b225eaae7ad6bc750c4596cfb6f768",
          "blockNumber": "0x5f6a015",
          "transactionHash": "0xcb8470b1e7e901216a00fcdc4688024c129d2158332f88238e4d45cda55a75b9",
          "transactionIndex": "0x1",
          "logIndex": "0x0",
          "removed": false
        }
      ],
      "logsBloom": "0x00000000000000000000000000000000000000000000000000000000000020000000000000000000000000000000000000000000001000000000020000000000000000000000000040000008000000000000000000000000000000000000000000000000000000000000000000000000000000000000000100000010000000000000000000000000000000000000000000000000000000000000000000000000000000000000000000000000000000000000000000000000000000000000000000000002000000000000000000000000000200000000200000000000000000000002000000000000000000000000000000000000000000000010000000000000",
      "type": "0x2",
      "transactionHash": "0xcb8470b1e7e901216a00fcdc4688024c129d2158332f88238e4d45cda55a75b9",
      "transactionIndex": "0x1",
      "blockHash": "0x247e3220f9b00499658d300e14293120c7b225eaae7ad6bc750c4596cfb6f768",
      "blockNumber": "0x5f6a015",
      "gasUsed": "0x8d76",
      "effectiveGasPrice": "0x5f5e100",
      "from": "0x34728af7d0fc03cbbdff82b6d52aeda8c999e2b2",
      "to": "0x94baa979f569edb2f33903d9ccec66b31c9620f5",
      "contractAddress": null,
      "gasUsedForL1": "0x7ee",
      "l1BlockNumber": "0x6cf7e9"
    },
    {
      "status": "0x1",
      "cumulativeGasUsed": "0x3cc9b4",
      "logs": [],
      "logsBloom": "0x00000000000000000000000000000000000000000000000000000000000000000000000000000000000000000000000000000000000000000000000000000000000000000000000000000000000000000000000000000000000000000000000000000000000000000000000000000000000000000000000000000000000000000000000000000000000000000000000000000000000000000000000000000000000000000000000000000000000000000000000000000000000000000000000000000000000000000000000000000000000000000000000000000000000000000000000000000000000000000000000000000000000000000000000000000000",
      "type": "0x2",
      "transactionHash": "0x851c6ac3f272cbcefd2c3ddb6ecbc3d1cacda6c241a7d2663b1781c482c9269e",
      "transactionIndex": "0x3",
      "blockHash": "0xabc9aeacb08549600e5e4b9bc6f44808e60e8978363e5d798f906a377afc8db3",
      "blockNumber": "0x5f6a01c",
      "gasUsed": "0x36b96c",
      "effectiveGasPrice": "0x5f5e100",
      "from": "0x34728af7d0fc03cbbdff82b6d52aeda8c999e2b2",
      "to": null,
      "contractAddress": "0x3c18297d78c9b83d29b25a23b3610351ec8090c6",
      "gasUsedForL1": "0x15e11",
      "l1BlockNumber": "0x6cf7e9"
    },
    {
      "status": "0x1",
      "cumulativeGasUsed": "0x2fc54",
      "logs": [
        {
          "address": "0x12cd89a3e09f2e794708c4ee7416ba68e2a8e84c",
          "topics": [
            "0xe67ddf372291fd94b39c4645817076a797a73cfdfbbf169187f7e5c374dfaeb0"
          ],
          "data": "0x0000000000000000000000003c18297d78c9b83d29b25a23b3610351ec8090c60000000000000000000000000000000000000000000000000000000000000040000000000000000000000000000000000000000000000000000000000000008230346662363131303837393038643838336431306431623936333361373330316237333465623639333838386230303661353433613034343239633634333064383239626234643664643665646130653233363166663135336333393833383866346663326237613662363430663664636230383365373633623662653161353638000000000000000000000000000000000000000000000000000000000000",
          "blockHash": "0xffbe6bd67c13551838853ea293c5f84020aa63c0e2b6446a87fc5298dcec4e7d",
          "blockNumber": "0x5f6a023",
          "transactionHash": "0xf69aac193caf10dc7dff42774fc7028efedabea202867cb270fad65ec9b15490",
          "transactionIndex": "0x1",
          "logIndex": "0x0",
          "removed": false
        }
      ],
      "logsBloom": "0x00000000000000000000000000000000000100000000000000000000000000000000000000000000000000000000000000000000000000080000000000000000000000000000000000000000000000000000000000000000000000000000000000000000000000000000000000000000000000000000000000000000000000004000000000000000000000000000000000000000000000000000000000000000000000000000000000002000000000000000000000000000000000000000000020000000000000000000000000000000000000000000000000000000000000000000000000000000000000000000000000000000000000000000000000000008",
      "type": "0x2",
      "transactionHash": "0xf69aac193caf10dc7dff42774fc7028efedabea202867cb270fad65ec9b15490",
      "transactionIndex": "0x1",
      "blockHash": "0xffbe6bd67c13551838853ea293c5f84020aa63c0e2b6446a87fc5298dcec4e7d",
      "blockNumber": "0x5f6a023",
      "gasUsed": "0x2fc54",
      "effectiveGasPrice": "0x5f5e100",
      "from": "0x34728af7d0fc03cbbdff82b6d52aeda8c999e2b2",
      "to": "0x12cd89a3e09f2e794708c4ee7416ba68e2a8e84c",
      "contractAddress": null,
      "gasUsedForL1": "0xf57",
      "l1BlockNumber": "0x6cf7ea"
    },
    {
      "status": "0x1",
      "cumulativeGasUsed": "0x345c83",
      "logs": [
        {
          "address": "0x3c18297d78c9b83d29b25a23b3610351ec8090c6",
          "topics": [
            "0xc30e720263bada6435ae43f561cbc2073cd74fc0770f34bb38323f79c1d7be37",
            "0x00000000000000000000000034728af7d0fc03cbbdff82b6d52aeda8c999e2b2",
            "0xe5f153fd90ba7a31ebcd4b9ae9f92842c0b6fd54fe1277f62800688d3ac5b870"
          ],
          "data": "0x000000000000000000000000f855fe32ad115a4fc02eb65b8efbe12425effd4a00000000000000000000000000000000000000000000000000000000000001c000000000000000000000000000000000000000000000000000000000000002000000000000000000000000000000000000000000000000000000000000000280000000000000000000000000000000000000000000000000000000000000034000000000000000000000000000000000000000000000000000000000000004400000000000000000000000000000000000000000000000000000000000000580000000000000000000000000000000000000000000000000000000000000070000000000000000000000000000000000000000000000000000000000000007600000000000000000000000000000000000000000000000000000000000000003000000000000000000000000000000000000000000000000000000006742cf3e00000000000000000000000000000000000000000000000000000000676a5c3e000000000000000000000000000000000000000000000000000000006767b93e0000000000000000000000000000000000000000000000000000000002faf08000000000000000000000000000000000000000000000000000000000000000044944584900000000000000000000000000000000000000000000000000000000000000000000000000000000000000000000000000000000000000000000004868747470733a2f2f6769746875622e636f6d2f62746369642f696e646f6461782d6f6666696369616c2d6170692d646f63732f626c6f622f6d61737465722f524541444d452e6d6400000000000000000000000000000000000000000000000000000000000000000000000000000000000000000000000000000000000000916375726c202d2d6c6f636174696f6e202d2d676c6f626f6666202768747470733a2f2f6170692e6e706f696e742e696f2f633961613365383030336163656231623962353227202d2d6865616465722027636f6e74656e742d747970653a206170706c69636174696f6e2f6a736f6e27202d2d6865616465722027782d6170692d6b65793a205345435245545f4b45592700000000000000000000000000000000000000000000000000000000000000000000000000000000000000000000c23034323738643161326666353435326338396537313436393961373766383136323761396135383735313034633038303963663965306636646163663561326330646438343035383661363463666138396232643130343130376235636664383536396639363565366637356363346561633539393535663238643766316363373035373065363637636166323333653465616362633865626639353266613538316535336461653731353335313539393263363831643964663538616366623432000000000000000000000000000000000000000000000000000000000000000000000000000000000000000000000000000000000000000000000000011630346661623038636637326235656163323737653638663034623435653238386432656536386334663136393665343432653863303365633732373463376439646138336330646336313462383430653531386134643466643235356137656538633963646230346365626138346565613632316163343132363563356135616338306561636466653364643239346438313337373463316131636361656466393565393637636261663535346236633537373535356534663634666264323635643464626635333635633732323935366166653933643761643636636132613837303930646463333865353034643633383865366139313962333437643236353535383865366131313233316432343036646463650000000000000000000000000000000000000000000000000000000000000000000000000000000001463034393237656466343635346238663331323235306666386664366330336363346662666463626663326435613237393835393432626633393231313331666163373037336434653961643433613563363739633366313732653438373430356161313439623034613665643930376262626364333365643264363063623436373230653032376264663231633237656331353436396535663633623132323861373566613634316135356235626362336665623337646661303530666139383761313463323764636134386239326565613139313831633332356537366439643366373531303138653837343363343566613636666561303766356630313531616162333335613134666532396137656363326132386330313931306662653566353431636531663361316562343632356662636438323461333535303361346430303262000000000000000000000000000000000000000000000000000000000000000000000000000000000000000000000000000000000000000000315c7b2264617461223a5c7b2272656b7473223a5c5b283f3c65787472616374656456616c75653e2e2a3f295c5d5c7d5c7d000000000000000000000000000000000000000000000000000000000000000000000000000000000000000000001a2270726f6a6563744e616d65223a5c732a22496e646f64617822000000000000",
          "blockHash": "0x58ba697ceaf9bf685ae09a0df7e903b10b8b1f212025bae4e9a69994dbb7de28",
          "blockNumber": "0x5f6a028",
          "transactionHash": "0x3fcf4fc0ce65f9f931c79228a5198fd7d53a065f45481d3f3d9a4ea1e5f19dbf",
          "transactionIndex": "0x1",
          "logIndex": "0x0",
          "removed": false
        }
      ],
      "logsBloom": "0x00000000000000000000000000000000000000000000000000000000000000000000000000000000000000000000000000000000001000000000000000000000000000000000000040000000000000000000000000080000000000000000000000000000000000000000000000000000000000000000000010000000000000000000000000000000000000000000000000000000040000000800000000000000000000000000000000000000000000000000000000000000080000000000000000000000000080000000000000000000000000000000240400000000000000000000000000000000000000000000000000100000000000000000000000000000",
      "type": "0x2",
      "transactionHash": "0x3fcf4fc0ce65f9f931c79228a5198fd7d53a065f45481d3f3d9a4ea1e5f19dbf",
      "transactionIndex": "0x1",
      "blockHash": "0x58ba697ceaf9bf685ae09a0df7e903b10b8b1f212025bae4e9a69994dbb7de28",
      "blockNumber": "0x5f6a028",
      "gasUsed": "0x345c83",
      "effectiveGasPrice": "0x5f5e100",
      "from": "0x34728af7d0fc03cbbdff82b6d52aeda8c999e2b2",
      "to": "0x3c18297d78c9b83d29b25a23b3610351ec8090c6",
      "contractAddress": null,
      "gasUsedForL1": "0x330e",
      "l1BlockNumber": "0x6cf7ea"
    },
    {
      "status": "0x1",
      "cumulativeGasUsed": "0x357eb6",
      "logs": [
        {
          "address": "0x94baa979f569edb2f33903d9ccec66b31c9620f5",
          "topics": [
            "0x8c5be1e5ebec7d5bd14f71427d1e84f3dd0314c0f7b2291e5b200ac8c7c3b925",
            "0x00000000000000000000000034728af7d0fc03cbbdff82b6d52aeda8c999e2b2",
            "0x000000000000000000000000f855fe32ad115a4fc02eb65b8efbe12425effd4a"
          ],
          "data": "0x0000000000000000000000000000000000000000000000000000000008f0d180",
          "blockHash": "0xe109d847c989852508b733d7fb6da111fab4b9d526e3c6ed0b2dccb83188072a",
          "blockNumber": "0x5f6a02f",
          "transactionHash": "0x6074ae9069984ab90bdb027eeb99bd8fa363d352f6849d6b2118ebbefb62ba62",
          "transactionIndex": "0x3",
          "logIndex": "0x50",
          "removed": false
        }
      ],
      "logsBloom": "0x00000000000000000000000000000000000000000000000000000000000000000000000000000000000000000000000000000000001000000040020000200000000000000000000040000000000000000000000000000000000000000000000000002000000000000000000000000000000000000000000100000000000000000000000000000000000000000000000000000000000000000000000000000000020000000000000000000000004000000000000000000000000000000000000000000000000000000000000000000000000200000000200000000000000000000010000000000000000000000000000000000000000000000000000000000000",
      "type": "0x2",
      "transactionHash": "0x6074ae9069984ab90bdb027eeb99bd8fa363d352f6849d6b2118ebbefb62ba62",
      "transactionIndex": "0x3",
      "blockHash": "0xe109d847c989852508b733d7fb6da111fab4b9d526e3c6ed0b2dccb83188072a",
      "blockNumber": "0x5f6a02f",
      "gasUsed": "0xbb5b",
      "effectiveGasPrice": "0x5f5e100",
      "from": "0x34728af7d0fc03cbbdff82b6d52aeda8c999e2b2",
      "to": "0x94baa979f569edb2f33903d9ccec66b31c9620f5",
      "contractAddress": null,
      "gasUsedForL1": "0x7ee",
      "l1BlockNumber": "0x6cf7ea"
    },
    {
      "status": "0x1",
      "cumulativeGasUsed": "0x29f63",
      "logs": [
        {
          "address": "0x94baa979f569edb2f33903d9ccec66b31c9620f5",
          "topics": [
            "0xddf252ad1be2c89b69c2b068fc378daa952ba7f163c4a11628f55a4df523b3ef",
            "0x00000000000000000000000034728af7d0fc03cbbdff82b6d52aeda8c999e2b2",
            "0x000000000000000000000000f855fe32ad115a4fc02eb65b8efbe12425effd4a"
          ],
          "data": "0x0000000000000000000000000000000000000000000000000000000008f0d180",
          "blockHash": "0x7b171c5d003340a8a6df79c5ecd05d5fed6c0a7d190bc185b0c5ffc8fd12b7a7",
          "blockNumber": "0x5f6a034",
          "transactionHash": "0x2dedca685edd9805d50ad069c1f5af5ccb5748a3066c755486913246f0acee8c",
          "transactionIndex": "0x1",
          "logIndex": "0x0",
          "removed": false
        },
        {
          "address": "0xf855fe32ad115a4fc02eb65b8efbe12425effd4a",
          "topics": [
            "0xddf252ad1be2c89b69c2b068fc378daa952ba7f163c4a11628f55a4df523b3ef",
            "0x0000000000000000000000000000000000000000000000000000000000000000",
            "0x000000000000000000000000f855fe32ad115a4fc02eb65b8efbe12425effd4a"
          ],
          "data": "0x0000000000000000000000000000000000000000000000000000000008f0d180",
          "blockHash": "0x7b171c5d003340a8a6df79c5ecd05d5fed6c0a7d190bc185b0c5ffc8fd12b7a7",
          "blockNumber": "0x5f6a034",
          "transactionHash": "0x2dedca685edd9805d50ad069c1f5af5ccb5748a3066c755486913246f0acee8c",
          "transactionIndex": "0x1",
          "logIndex": "0x1",
          "removed": false
        },
        {
          "address": "0x94baa979f569edb2f33903d9ccec66b31c9620f5",
          "topics": [
            "0x8c5be1e5ebec7d5bd14f71427d1e84f3dd0314c0f7b2291e5b200ac8c7c3b925",
            "0x000000000000000000000000f855fe32ad115a4fc02eb65b8efbe12425effd4a",
            "0x000000000000000000000000654837fe31838bd0391188182a3ecdd402846d3a"
          ],
          "data": "0x0000000000000000000000000000000000000000000000000000000008f0d180",
          "blockHash": "0x7b171c5d003340a8a6df79c5ecd05d5fed6c0a7d190bc185b0c5ffc8fd12b7a7",
          "blockNumber": "0x5f6a034",
          "transactionHash": "0x2dedca685edd9805d50ad069c1f5af5ccb5748a3066c755486913246f0acee8c",
          "transactionIndex": "0x1",
          "logIndex": "0x2",
          "removed": false
        },
        {
          "address": "0x94baa979f569edb2f33903d9ccec66b31c9620f5",
          "topics": [
            "0xddf252ad1be2c89b69c2b068fc378daa952ba7f163c4a11628f55a4df523b3ef",
            "0x000000000000000000000000f855fe32ad115a4fc02eb65b8efbe12425effd4a",
            "0x000000000000000000000000654837fe31838bd0391188182a3ecdd402846d3a"
          ],
          "data": "0x0000000000000000000000000000000000000000000000000000000008f0d180",
          "blockHash": "0x7b171c5d003340a8a6df79c5ecd05d5fed6c0a7d190bc185b0c5ffc8fd12b7a7",
          "blockNumber": "0x5f6a034",
          "transactionHash": "0x2dedca685edd9805d50ad069c1f5af5ccb5748a3066c755486913246f0acee8c",
          "transactionIndex": "0x1",
          "logIndex": "0x3",
          "removed": false
        },
        {
          "address": "0x654837fe31838bd0391188182a3ecdd402846d3a",
          "topics": [
            "0xddf252ad1be2c89b69c2b068fc378daa952ba7f163c4a11628f55a4df523b3ef",
            "0x0000000000000000000000000000000000000000000000000000000000000000",
            "0x000000000000000000000000f855fe32ad115a4fc02eb65b8efbe12425effd4a"
          ],
          "data": "0x0000000000000000000000000000000000000000000000000000000008f0d180",
          "blockHash": "0x7b171c5d003340a8a6df79c5ecd05d5fed6c0a7d190bc185b0c5ffc8fd12b7a7",
          "blockNumber": "0x5f6a034",
          "transactionHash": "0x2dedca685edd9805d50ad069c1f5af5ccb5748a3066c755486913246f0acee8c",
          "transactionIndex": "0x1",
          "logIndex": "0x4",
          "removed": false
        },
        {
          "address": "0x654837fe31838bd0391188182a3ecdd402846d3a",
          "topics": [
            "0xdcbc1c05240f31ff3ad067ef1ee35ce4997762752e3a095284754544f4c709d7",
            "0x000000000000000000000000f855fe32ad115a4fc02eb65b8efbe12425effd4a",
            "0x000000000000000000000000f855fe32ad115a4fc02eb65b8efbe12425effd4a"
          ],
          "data": "0x0000000000000000000000000000000000000000000000000000000008f0d1800000000000000000000000000000000000000000000000000000000008f0d180",
          "blockHash": "0x7b171c5d003340a8a6df79c5ecd05d5fed6c0a7d190bc185b0c5ffc8fd12b7a7",
          "blockNumber": "0x5f6a034",
          "transactionHash": "0x2dedca685edd9805d50ad069c1f5af5ccb5748a3066c755486913246f0acee8c",
          "transactionIndex": "0x1",
          "logIndex": "0x5",
          "removed": false
        },
        {
          "address": "0xf855fe32ad115a4fc02eb65b8efbe12425effd4a",
          "topics": [
            "0x227a473b70d2f893cc7659219575c030a63b5743024fe1e0c1a680e708b1525a"
          ],
          "data": "0x0000000000000000000000000000000000000000000000000000000008f0d180",
          "blockHash": "0x7b171c5d003340a8a6df79c5ecd05d5fed6c0a7d190bc185b0c5ffc8fd12b7a7",
          "blockNumber": "0x5f6a034",
          "transactionHash": "0x2dedca685edd9805d50ad069c1f5af5ccb5748a3066c755486913246f0acee8c",
          "transactionIndex": "0x1",
          "logIndex": "0x6",
          "removed": false
        },
        {
          "address": "0xf855fe32ad115a4fc02eb65b8efbe12425effd4a",
          "topics": [
            "0xe1fffcc4923d04b559f4d29a8bfc6cda04eb5b0d3c460751c2402c5c5cc9109c",
            "0x00000000000000000000000034728af7d0fc03cbbdff82b6d52aeda8c999e2b2"
          ],
          "data": "0x0000000000000000000000000000000000000000000000000000000008f0d180",
          "blockHash": "0x7b171c5d003340a8a6df79c5ecd05d5fed6c0a7d190bc185b0c5ffc8fd12b7a7",
          "blockNumber": "0x5f6a034",
          "transactionHash": "0x2dedca685edd9805d50ad069c1f5af5ccb5748a3066c755486913246f0acee8c",
          "transactionIndex": "0x1",
          "logIndex": "0x7",
          "removed": false
        }
      ],
      "logsBloom": "0x00000000000000000000000000000000000000000000000000800000000000000000000000000000000000000002000000000000001000000040020000200000000000400000000040008008000000000000000000000000000000008000000000002000020000000000000000000800000000000004000100000010022000000000000000000000000000000000000000000001000000000000000000000800020000000000000000000000004001000000000000000000000000000000000000000002000400000000000000000000000200000008200000000000000020000010000000000000000000000040000000008000000000400400800000000000",
      "type": "0x2",
      "transactionHash": "0x2dedca685edd9805d50ad069c1f5af5ccb5748a3066c755486913246f0acee8c",
      "transactionIndex": "0x1",
      "blockHash": "0x7b171c5d003340a8a6df79c5ecd05d5fed6c0a7d190bc185b0c5ffc8fd12b7a7",
      "blockNumber": "0x5f6a034",
      "gasUsed": "0x29f63",
      "effectiveGasPrice": "0x5f5e100",
      "from": "0x34728af7d0fc03cbbdff82b6d52aeda8c999e2b2",
      "to": "0xf855fe32ad115a4fc02eb65b8efbe12425effd4a",
      "contractAddress": null,
      "gasUsedForL1": "0x528",
      "l1BlockNumber": "0x6cf7ea"
    },
    {
      "status": "0x1",
      "cumulativeGasUsed": "0xbb39",
      "logs": [
        {
          "address": "0x94baa979f569edb2f33903d9ccec66b31c9620f5",
          "topics": [
            "0x8c5be1e5ebec7d5bd14f71427d1e84f3dd0314c0f7b2291e5b200ac8c7c3b925",
            "0x00000000000000000000000094c83a5137751c4e6acc0cfdb09819b0b83582d1",
            "0x000000000000000000000000f855fe32ad115a4fc02eb65b8efbe12425effd4a"
          ],
          "data": "0x0000000000000000000000000000000000000000000000000000000001312d00",
          "blockHash": "0xd715965c66c18f5190e52cf775b4476cff97ba2eb080b6bb9739ecb4b877721f",
          "blockNumber": "0x5f6a03b",
          "transactionHash": "0x25fd704ce14ef829cafa86bae5cdb7b93d29a61f11e16552739f704510a3c88b",
          "transactionIndex": "0x1",
          "logIndex": "0x0",
          "removed": false
        }
      ],
      "logsBloom": "0x00000000000000000000000000000000000000000000000000000000000020000000000000000000000000000000000000000000000000000040020000200000000000000000000000000000000000000000000000000000000000000000000000002000000000000000000000000000000000000000000100000000000000000000000000000000000000000000000000000000000000000000000000000000020000000000000000000000004000000000000000000000000000000000000000000000000000000000000000000000000200000000000000000000000000000012000000000000000000000000000000000000000000000010000000000000",
      "type": "0x2",
      "transactionHash": "0x25fd704ce14ef829cafa86bae5cdb7b93d29a61f11e16552739f704510a3c88b",
      "transactionIndex": "0x1",
      "blockHash": "0xd715965c66c18f5190e52cf775b4476cff97ba2eb080b6bb9739ecb4b877721f",
      "blockNumber": "0x5f6a03b",
      "gasUsed": "0xbb39",
      "effectiveGasPrice": "0x5f5e100",
      "from": "0x94c83a5137751c4e6acc0cfdb09819b0b83582d1",
      "to": "0x94baa979f569edb2f33903d9ccec66b31c9620f5",
      "contractAddress": null,
      "gasUsedForL1": "0x7d8",
      "l1BlockNumber": "0x6cf7ea"
    },
    {
      "status": "0x1",
      "cumulativeGasUsed": "0x24931",
      "logs": [
        {
          "address": "0x94baa979f569edb2f33903d9ccec66b31c9620f5",
          "topics": [
            "0xddf252ad1be2c89b69c2b068fc378daa952ba7f163c4a11628f55a4df523b3ef",
            "0x00000000000000000000000094c83a5137751c4e6acc0cfdb09819b0b83582d1",
            "0x000000000000000000000000f855fe32ad115a4fc02eb65b8efbe12425effd4a"
          ],
          "data": "0x0000000000000000000000000000000000000000000000000000000001312d00",
          "blockHash": "0xb744ade7d83ed693f79ae7d6a55d4d03a5a4083f1daf19af8d8428264dcf7ea5",
          "blockNumber": "0x5f6a042",
          "transactionHash": "0xae70ca61ada503924220dd758eb3f0c5ac598c96024d69bb2b9f568bb8540670",
          "transactionIndex": "0x1",
          "logIndex": "0x0",
          "removed": false
        },
        {
          "address": "0xf855fe32ad115a4fc02eb65b8efbe12425effd4a",
          "topics": [
            "0xddf252ad1be2c89b69c2b068fc378daa952ba7f163c4a11628f55a4df523b3ef",
            "0x0000000000000000000000000000000000000000000000000000000000000000",
            "0x00000000000000000000000094c83a5137751c4e6acc0cfdb09819b0b83582d1"
          ],
          "data": "0x0000000000000000000000000000000000000000000000000000000001312d00",
          "blockHash": "0xb744ade7d83ed693f79ae7d6a55d4d03a5a4083f1daf19af8d8428264dcf7ea5",
          "blockNumber": "0x5f6a042",
          "transactionHash": "0xae70ca61ada503924220dd758eb3f0c5ac598c96024d69bb2b9f568bb8540670",
          "transactionIndex": "0x1",
          "logIndex": "0x1",
          "removed": false
        },
        {
          "address": "0x94baa979f569edb2f33903d9ccec66b31c9620f5",
          "topics": [
            "0x8c5be1e5ebec7d5bd14f71427d1e84f3dd0314c0f7b2291e5b200ac8c7c3b925",
            "0x000000000000000000000000f855fe32ad115a4fc02eb65b8efbe12425effd4a",
            "0x000000000000000000000000654837fe31838bd0391188182a3ecdd402846d3a"
          ],
          "data": "0x0000000000000000000000000000000000000000000000000000000001312d00",
          "blockHash": "0xb744ade7d83ed693f79ae7d6a55d4d03a5a4083f1daf19af8d8428264dcf7ea5",
          "blockNumber": "0x5f6a042",
          "transactionHash": "0xae70ca61ada503924220dd758eb3f0c5ac598c96024d69bb2b9f568bb8540670",
          "transactionIndex": "0x1",
          "logIndex": "0x2",
          "removed": false
        },
        {
          "address": "0x94baa979f569edb2f33903d9ccec66b31c9620f5",
          "topics": [
            "0xddf252ad1be2c89b69c2b068fc378daa952ba7f163c4a11628f55a4df523b3ef",
            "0x000000000000000000000000f855fe32ad115a4fc02eb65b8efbe12425effd4a",
            "0x000000000000000000000000654837fe31838bd0391188182a3ecdd402846d3a"
          ],
          "data": "0x0000000000000000000000000000000000000000000000000000000001312d00",
          "blockHash": "0xb744ade7d83ed693f79ae7d6a55d4d03a5a4083f1daf19af8d8428264dcf7ea5",
          "blockNumber": "0x5f6a042",
          "transactionHash": "0xae70ca61ada503924220dd758eb3f0c5ac598c96024d69bb2b9f568bb8540670",
          "transactionIndex": "0x1",
          "logIndex": "0x3",
          "removed": false
        },
        {
          "address": "0x654837fe31838bd0391188182a3ecdd402846d3a",
          "topics": [
            "0xddf252ad1be2c89b69c2b068fc378daa952ba7f163c4a11628f55a4df523b3ef",
            "0x0000000000000000000000000000000000000000000000000000000000000000",
            "0x000000000000000000000000f855fe32ad115a4fc02eb65b8efbe12425effd4a"
          ],
          "data": "0x0000000000000000000000000000000000000000000000000000000001312d00",
          "blockHash": "0xb744ade7d83ed693f79ae7d6a55d4d03a5a4083f1daf19af8d8428264dcf7ea5",
          "blockNumber": "0x5f6a042",
          "transactionHash": "0xae70ca61ada503924220dd758eb3f0c5ac598c96024d69bb2b9f568bb8540670",
          "transactionIndex": "0x1",
          "logIndex": "0x4",
          "removed": false
        },
        {
          "address": "0x654837fe31838bd0391188182a3ecdd402846d3a",
          "topics": [
            "0xdcbc1c05240f31ff3ad067ef1ee35ce4997762752e3a095284754544f4c709d7",
            "0x000000000000000000000000f855fe32ad115a4fc02eb65b8efbe12425effd4a",
            "0x000000000000000000000000f855fe32ad115a4fc02eb65b8efbe12425effd4a"
          ],
          "data": "0x0000000000000000000000000000000000000000000000000000000001312d000000000000000000000000000000000000000000000000000000000001312d00",
          "blockHash": "0xb744ade7d83ed693f79ae7d6a55d4d03a5a4083f1daf19af8d8428264dcf7ea5",
          "blockNumber": "0x5f6a042",
          "transactionHash": "0xae70ca61ada503924220dd758eb3f0c5ac598c96024d69bb2b9f568bb8540670",
          "transactionIndex": "0x1",
          "logIndex": "0x5",
          "removed": false
        },
        {
          "address": "0xf855fe32ad115a4fc02eb65b8efbe12425effd4a",
          "topics": [
            "0x227a473b70d2f893cc7659219575c030a63b5743024fe1e0c1a680e708b1525a"
          ],
          "data": "0x0000000000000000000000000000000000000000000000000000000001312d00",
          "blockHash": "0xb744ade7d83ed693f79ae7d6a55d4d03a5a4083f1daf19af8d8428264dcf7ea5",
          "blockNumber": "0x5f6a042",
          "transactionHash": "0xae70ca61ada503924220dd758eb3f0c5ac598c96024d69bb2b9f568bb8540670",
          "transactionIndex": "0x1",
          "logIndex": "0x6",
          "removed": false
        },
        {
          "address": "0xf855fe32ad115a4fc02eb65b8efbe12425effd4a",
          "topics": [
            "0xe1fffcc4923d04b559f4d29a8bfc6cda04eb5b0d3c460751c2402c5c5cc9109c",
            "0x00000000000000000000000094c83a5137751c4e6acc0cfdb09819b0b83582d1"
          ],
          "data": "0x0000000000000000000000000000000000000000000000000000000001312d00",
          "blockHash": "0xb744ade7d83ed693f79ae7d6a55d4d03a5a4083f1daf19af8d8428264dcf7ea5",
          "blockNumber": "0x5f6a042",
          "transactionHash": "0xae70ca61ada503924220dd758eb3f0c5ac598c96024d69bb2b9f568bb8540670",
          "transactionIndex": "0x1",
          "logIndex": "0x7",
          "removed": false
        },
        {
          "address": "0xf855fe32ad115a4fc02eb65b8efbe12425effd4a",
          "topics": [
            "0x1ec6ca237cf412015f109db027dc71b2292a20387279781fd699c4ec328a23d7",
            "0x00000000000000000000000094c83a5137751c4e6acc0cfdb09819b0b83582d1"
          ],
          "data": "0x0000000000000000000000000000000000000000000000000000000001312d00",
          "blockHash": "0xb744ade7d83ed693f79ae7d6a55d4d03a5a4083f1daf19af8d8428264dcf7ea5",
          "blockNumber": "0x5f6a042",
          "transactionHash": "0xae70ca61ada503924220dd758eb3f0c5ac598c96024d69bb2b9f568bb8540670",
          "transactionIndex": "0x1",
          "logIndex": "0x8",
          "removed": false
        }
      ],
      "logsBloom": "0x00000000000000000000000000000000000000000000000000800000000020000000000000000000000000000002000000000000000000000040020000200000000000400000000000008008000000000000000000000000000000008000000000002000020000000000000000000800000000000004000100000010022000000000000000000000000000000000000000000001000000000000000000000800020000000000000000000000004001000000000000000000000000000000000000000002000400000000000000000004000200000008000000000000000020000812000000000000000000000840000000008000000000400410800000000000",
      "type": "0x2",
      "transactionHash": "0xae70ca61ada503924220dd758eb3f0c5ac598c96024d69bb2b9f568bb8540670",
      "transactionIndex": "0x1",
      "blockHash": "0xb744ade7d83ed693f79ae7d6a55d4d03a5a4083f1daf19af8d8428264dcf7ea5",
      "blockNumber": "0x5f6a042",
      "gasUsed": "0x24931",
      "effectiveGasPrice": "0x5f5e100",
      "from": "0x94c83a5137751c4e6acc0cfdb09819b0b83582d1",
      "to": "0xf855fe32ad115a4fc02eb65b8efbe12425effd4a",
      "contractAddress": null,
      "gasUsedForL1": "0x946",
      "l1BlockNumber": "0x6cf7ea"
    },
    {
      "status": "0x1",
      "cumulativeGasUsed": "0x2fb65",
      "logs": [
        {
          "address": "0xf855fe32ad115a4fc02eb65b8efbe12425effd4a",
          "topics": [
            "0xddf252ad1be2c89b69c2b068fc378daa952ba7f163c4a11628f55a4df523b3ef",
            "0x00000000000000000000000094c83a5137751c4e6acc0cfdb09819b0b83582d1",
            "0x0000000000000000000000000000000000000000000000000000000000000000"
          ],
          "data": "0x0000000000000000000000000000000000000000000000000000000001312d00",
          "blockHash": "0xfa8133fc3251537880f691e177a3fc4e59366f847f572854fadd37499d2412b3",
          "blockNumber": "0x5f6a049",
          "transactionHash": "0x0d43bc540b71349650f6d4f7f444545c0ebf758d54d866b4423742d6f381b038",
          "transactionIndex": "0x1",
          "logIndex": "0x0",
          "removed": false
        },
        {
          "address": "0xf855fe32ad115a4fc02eb65b8efbe12425effd4a",
          "topics": [
            "0xddf252ad1be2c89b69c2b068fc378daa952ba7f163c4a11628f55a4df523b3ef",
            "0x0000000000000000000000000000000000000000000000000000000000000000",
            "0x000000000000000000000000f855fe32ad115a4fc02eb65b8efbe12425effd4a"
          ],
          "data": "0x0000000000000000000000000000000000000000000000000000000001312d00",
          "blockHash": "0xfa8133fc3251537880f691e177a3fc4e59366f847f572854fadd37499d2412b3",
          "blockNumber": "0x5f6a049",
          "transactionHash": "0x0d43bc540b71349650f6d4f7f444545c0ebf758d54d866b4423742d6f381b038",
          "transactionIndex": "0x1",
          "logIndex": "0x1",
          "removed": false
        },
        {
          "address": "0x12cd89a3e09f2e794708c4ee7416ba68e2a8e84c",
          "topics": [
            "0xb40ce3699dc0e09be7202845d63e813e35ba6c676bccffadf460462c2ad29c82",
            "0x0000000000000000000000000000000000000000000000000000000000000000"
          ],
          "data": "0x000000000000000000000000f855fe32ad115a4fc02eb65b8efbe12425effd4a00000000000000000000000094c83a5137751c4e6acc0cfdb09819b0b83582d10000000000000000000000000000000000000000000000000000000001312d00000000000000000000000000000000000000000000000000000000000000000000000000000000000000000000000000000000000000000000000000006cf7ea0000000000000000000000000000000000000000000000000000000000000000",
          "blockHash": "0xfa8133fc3251537880f691e177a3fc4e59366f847f572854fadd37499d2412b3",
          "blockNumber": "0x5f6a049",
          "transactionHash": "0x0d43bc540b71349650f6d4f7f444545c0ebf758d54d866b4423742d6f381b038",
          "transactionIndex": "0x1",
          "logIndex": "0x2",
          "removed": false
        },
        {
          "address": "0xf855fe32ad115a4fc02eb65b8efbe12425effd4a",
          "topics": [
            "0xc271c2ba952861633612aabb311dc0a5d1ea4fd62f563bd43e26a01bcb827a90"
          ],
          "data": "0x000000000000000000000000000000000000000000000000000000000000000000000000000000000000000094c83a5137751c4e6acc0cfdb09819b0b83582d10000000000000000000000000000000000000000000000000000000001312d0000000000000000000000000000000000000000000000000000000000000000000000000000000000000000000000000000000000000000000000000000000000",
          "blockHash": "0xfa8133fc3251537880f691e177a3fc4e59366f847f572854fadd37499d2412b3",
          "blockNumber": "0x5f6a049",
          "transactionHash": "0x0d43bc540b71349650f6d4f7f444545c0ebf758d54d866b4423742d6f381b038",
          "transactionIndex": "0x1",
          "logIndex": "0x3",
          "removed": false
        }
      ],
      "logsBloom": "0x000000000000000000000000000020000000000000002000008000000000200000000000000000000000000000020000000000000000000800410000000000000000000000000000000080080000000000000000000000000000000000000000000020000a0000000000000000000800000000000000000000000010000000004000000000000000000000000000004000000000000000000000000000000000000000000000000000000000004000000000000000000001000000000000000020000002000000000000000000000000000000000000000000000000000020000002000000000000000000000000000000000000000000000010000000000000",
      "type": "0x2",
      "transactionHash": "0x0d43bc540b71349650f6d4f7f444545c0ebf758d54d866b4423742d6f381b038",
      "transactionIndex": "0x1",
      "blockHash": "0xfa8133fc3251537880f691e177a3fc4e59366f847f572854fadd37499d2412b3",
      "blockNumber": "0x5f6a049",
      "gasUsed": "0x2fb65",
      "effectiveGasPrice": "0x5f5e100",
      "from": "0x94c83a5137751c4e6acc0cfdb09819b0b83582d1",
      "to": "0xf855fe32ad115a4fc02eb65b8efbe12425effd4a",
      "contractAddress": null,
      "gasUsedForL1": "0x512",
      "l1BlockNumber": "0x6cf7ea"
    }
  ],
  "libraries": [],
  "pending": [],
  "returns": {},
  "timestamp": 1732431725,
  "chain": 421614,
  "commit": "b63f3ab"
}