{
  "transactions": [
    {
      "hash": "0x1bd3fea89706dcaa6f3d279e18d87da564ac1f92650b7d48f8a1108502dac348",
      "transactionType": "CALL",
      "contractName": null,
      "contractAddress": "0x94baa979f569edb2f33903d9ccec66b31c9620f5",
      "function": "approve(address,uint256)",
      "arguments": [
        "0x654837fE31838Bd0391188182a3Ecdd402846D3a",
        "1000000000000000000"
      ],
      "transaction": {
        "from": "0x34728af7d0fc03cbbdff82b6d52aeda8c999e2b2",
        "to": "0x94baa979f569edb2f33903d9ccec66b31c9620f5",
        "gas": "0x10f3e",
        "value": "0x0",
        "input": "0x095ea7b3000000000000000000000000654837fe31838bd0391188182a3ecdd402846d3a0000000000000000000000000000000000000000000000000de0b6b3a7640000",
        "nonce": "0xc6",
        "chainId": "0x66eee"
      },
      "additionalContracts": [],
      "isFixedGasLimit": false
    },
    {
      "hash": "0xce558df742c7d63d1a90d2e8d272bfcf0d0f7127e9f5fdacd384e98337202e7b",
      "transactionType": "CALL",
      "contractName": null,
      "contractAddress": "0x654837fe31838bd0391188182a3ecdd402846d3a",
      "function": "deposit(uint256,address)",
      "arguments": [
        "1000000000000000000",
        "0x34728aF7D0FC03CbbdFF82b6d52AeDA8C999E2B2"
      ],
      "transaction": {
        "from": "0x34728af7d0fc03cbbdff82b6d52aeda8c999e2b2",
        "to": "0x654837fe31838bd0391188182a3ecdd402846d3a",
        "gas": "0x236a3",
        "value": "0x0",
        "input": "0x6e553f650000000000000000000000000000000000000000000000000de0b6b3a764000000000000000000000000000034728af7d0fc03cbbdff82b6d52aeda8c999e2b2",
        "nonce": "0xc7",
        "chainId": "0x66eee"
      },
      "additionalContracts": [],
      "isFixedGasLimit": false
    },
    {
      "hash": "0xe35df6896c31efd6bf06e878403262869a33611e8bf3d3a537e3b04efdab4ad7",
      "transactionType": "CALL",
      "contractName": null,
      "contractAddress": "0x94baa979f569edb2f33903d9ccec66b31c9620f5",
      "function": "transfer(address,uint256)",
      "arguments": [
        "0x94c83a5137751C4E6acc0cFdB09819B0B83582D1",
        "1000000000000000000"
      ],
      "transaction": {
        "from": "0x34728af7d0fc03cbbdff82b6d52aeda8c999e2b2",
        "to": "0x94baa979f569edb2f33903d9ccec66b31c9620f5",
        "gas": "0x12a66",
        "value": "0x0",
        "input": "0xa9059cbb00000000000000000000000094c83a5137751c4e6acc0cfdb09819b0b83582d10000000000000000000000000000000000000000000000000de0b6b3a7640000",
        "nonce": "0xc8",
        "chainId": "0x66eee"
      },
      "additionalContracts": [],
      "isFixedGasLimit": false
    },
    {
      "hash": "0x4cab48060eadbb679748796458ccaef115059f988438ba34b287c18b908a84d8",
      "transactionType": "CREATE",
      "contractName": "InsuranceFactory",
      "contractAddress": "0x03a393a2407e4b9bca73993a491ab68469e50a6e",
      "function": null,
      "arguments": [
        "0x1767D2eb5b467Bd6D6d150CE0370f17B4b948ca5"
      ],
      "transaction": {
        "from": "0x34728af7d0fc03cbbdff82b6d52aeda8c999e2b2",
        "gas": "0x4bb85c",
        "value": "0x0",
        "input": "0x608034607057601f613eec38819003918201601f19168301916001600160401b03831184841017607457808492602094604052833981010312607057516001600160a01b03811690819003607057600380546001600160a01b031916919091179055604051613e6390816100898239f35b5f80fd5b634e487b7160e01b5f52604160045260245ffdfe6080806040526004361015610012575f80fd5b5f3560e01c9081633998fdd31461063f575080634578d29014610602578063560684ca146105875780636a4d9846146104fc578063a7ddfb6714610144578063ae5745ed146100e25763f7d1517f14610069575f80fd5b346100de5760203660031901126100de576004355f548110156100de575f548110156100ca575f80527f290decd9548b62a8d60345a988386fc84ba6bc95484008f6362f93160ef3e56301546040516001600160a01b039091168152602090f35b634e487b7160e01b5f52603260045260245ffd5b5f80fd5b346100de5760403660031901126100de576100fb610662565b6001600160a01b03165f908152600160205260409020805460243591908210156100de5760209161012b91610730565b905460405160039290921b1c6001600160a01b03168152f35b346100de576102403660031901126100de576004356001600160401b0381116100de576101759036906004016106db565b6024356001600160401b0381116100de576101949036906004016106db565b6044356001600160401b0381116100de576101b39036906004016106db565b916064356001600160401b0381116100de576101d39036906004016106db565b6084356001600160401b0381116100de576101f29036906004016106db565b9360a4356001600160401b0381116100de576102129036906004016106db565b9460c4356001600160401b0381116100de576102329036906004016106db565b9260e4356001600160401b0381116100de576102529036906004016106db565b91610104356001600160401b0381116100de576102739036906004016106db565b90610124356001600160401b0381116100de576102949036906004016106db565b916101e4359760018060a01b0389168099036100de57610204356001600160a01b03811696908790036100de57610224356001600160a01b03811698908990036100de576001600160401b0399604051809e6136c4918281019d8e9182109111176104dd578f9e8f6103a9998f916103b89d61035461038c996103466103709761033861039a9f61037e9c6103629861076a90396102608a526102608a0190610745565b9088820360208a0152610745565b908682036040880152610745565b908482036060860152610745565b916080818403910152610745565b8d810360a08f015290610745565b908b820360c08d0152610745565b9089820360e08b0152610745565b90878203610100890152610745565b90858203610120870152610745565b936101443561014085015261016435610160850152610184356101808501526101a4356101a08501526101c4356101c08501526101e08401526102008301526102208201526102403391015203905ff080156104f15760018060a01b03165f54600160401b8110156104dd5780600161043492015f555f610730565b81549060031b9083821b9160018060a01b03901b1916179055335f52600160205260405f2090815491600160401b8310156104dd578261047b916001602095018155610730565b81549060031b9083821b9160018060a01b03901b1916179055805f526002825260405f20600160ff198254161790556040518181527f1f5025cd4d44bed9127c94acc7130c09bd9ae7c300dcd36dca8aa28d8ec2d2ef833392a2604051908152f35b634e487b7160e01b5f52604160045260245ffd5b6040513d5f823e3d90fd5b346100de5760203660031901126100de576001600160a01b0361051d610662565b165f52600160205260405f206040519081602082549182815201915f5260205f20905f5b8181106105685761056485610558818703826106ba565b60405191829182610678565b0390f35b82546001600160a01b0316845260209093019260019283019201610541565b346100de575f3660031901126100de576040518060205f549182815201905f80527f290decd9548b62a8d60345a988386fc84ba6bc95484008f6362f93160ef3e563905f5b8181106105e35761056485610558818703826106ba565b82546001600160a01b03168452602090930192600192830192016105cc565b346100de5760203660031901126100de576001600160a01b03610623610662565b165f526002602052602060ff60405f2054166040519015158152f35b346100de575f3660031901126100de576003546001600160a01b03168152602090f35b600435906001600160a01b03821682036100de57565b60206040818301928281528451809452019201905f5b81811061069b5750505090565b82516001600160a01b031684526020938401939092019160010161068e565b90601f801991011681019081106001600160401b038211176104dd57604052565b81601f820112156100de578035906001600160401b0382116104dd576040519261070f601f8401601f1916602001856106ba565b828452602083830101116100de57815f926020809301838601378301015290565b80548210156100ca575f5260205f2001905f90565b805180835260209291819084018484015e5f828201840152601f01601f191601019056fe60e060405234610f89576136c4803803809161001a82610f8d565b60c05260c0513960c0510161026060c051820312610f895760c051516001600160401b038111610f8957816100529160c05101610fb2565b60a05260c051602001516001600160401b038111610f8957816100789160c05101610fb2565b60c051604001519091906001600160401b038111610f89578161009e9160c05101610fb2565b60c051606001519091906001600160401b038111610f8957816100c49160c05101610fb2565b60c051608001519091906001600160401b038111610f8957816100ea9160c05101610fb2565b60c05160a001519091906001600160401b038111610f8957816101109160c05101610fb2565b60c0805101516001600160401b038111610f8957826101329160c05101610fb2565b60c05160e001516001600160401b038111610f8957836101559160c05101610fb2565b60c05161010001519093906001600160401b038111610f89578161017c9160c05101610fb2565b60c051610120015190916001600160401b038211610f89576101a19160c05101610fb2565b61014060c05101519061016060c05101519261018060c0510151946101a060c0510151966101c060c0510151996101dd6101e060c05101611003565b9b6101ed61020060c05101611003565b9d6101fd61022060c05101611003565b60805261020f61024060c05101611003565b9f60a0515160018060401b03811161074b57600354600181811c91168015610f7f575b602082101461072d57601f8111610f1c575b50806020601f8211600114610eb4575f91610ea7575b508160011b915f199060031b1c1916176003555b8051906001600160401b03821161074b5760045490600182811c92168015610e9d575b602083101461072d5781601f849311610e2f575b50602090601f8311600114610dc9575f92610dbe575b50508160011b915f199060031b1c1916176004555b8051906001600160401b03821161074b57600c5490600182811c92168015610db4575b602083101461072d5781601f849311610d46575b50602090601f8311600114610ce0575f92610cd5575b50508160011b915f199060031b1c191617600c555b8051906001600160401b03821161074b57600d5490600182811c92168015610ccb575b602083101461072d5781601f849311610c5d575b50602090601f8311600114610bf7575f92610bec575b50508160011b915f199060031b1c191617600d555b8051906001600160401b03821161074b57600e5490600182811c92168015610be2575b602083101461072d5781601f849311610b74575b50602090601f8311600114610b0e575f92610b03575b50508160011b915f199060031b1c191617600e555b8051906001600160401b03821161074b57600f5490600182811c92168015610af9575b602083101461072d5781601f849311610a8b575b50602090601f8311600114610a25575f92610a1a575b50508160011b915f199060031b1c191617600f555b8051906001600160401b03821161074b5760105490600182811c92168015610a10575b602083101461072d5781601f8493116109a2575b50602090601f831160011461093c575f92610931575b50508160011b915f199060031b1c1916176010555b8051906001600160401b03821161074b5760125490600182811c92168015610927575b602083101461072d5781601f8493116108b9575b50602090601f8311600114610853575f92610848575b50508160011b915f199060031b1c1916176012555b8051906001600160401b03821161074b5760115490600182811c9216801561083e575b602083101461072d5781601f8493116107d0575b50602090601f831160011461076a575f9261075f575b50508160011b915f199060031b1c1916176011555b6014556015556016556017558051906001600160401b03821161074b5760135490600182811c92168015610741575b602083101461072d5781601f8493116106bf575b50602090601f8311600114610659575f9261064e575b50508160011b915f199060031b1c1916176013555b601855600680546001600160a01b03199081166001600160a01b039384161790915560058054821693831693909317909255608051600780548416918316919091179055600b805490921692169190911790556040516126ac90816110188239f35b015190505f806105d7565b60135f9081528281209350601f198516905b8181106106a7575090846001959493921061068f575b505050811b016013556105ec565b01515f1960f88460031b161c191690555f8080610681565b9293602060018192878601518155019501930161066b565b60135f529091507f66de8ffda797e3de9c05e8fc57b3bf0ec28a930d40b0d285d93c06501cf6a090601f840160051c81019160208510610723575b90601f859493920160051c01905b81811061071557506105c1565b5f8155849350600101610708565b90915081906106fa565b634e487b7160e01b5f52602260045260245ffd5b91607f16916105ad565b634e487b7160e01b5f52604160045260245ffd5b015190505f80610569565b60115f9081528281209350601f198516905b8181106107b857509084600195949392106107a0575b505050811b0160115561057e565b01515f1960f88460031b161c191690555f8080610792565b9293602060018192878601518155019501930161077c565b60115f529091507f31ecc21a745e3968a04e9570e4425bc18fa8019c68028196b546d1669c200c68601f840160051c81019160208510610834575b90601f859493920160051c01905b8181106108265750610553565b5f8155849350600101610819565b909150819061080b565b91607f169161053f565b015190505f80610507565b60125f9081528281209350601f198516905b8181106108a15750908460019594939210610889575b505050811b0160125561051c565b01515f1960f88460031b161c191690555f808061087b565b92936020600181928786015181550195019301610865565b60125f529091507fbb8a6a4669ba250d26cd7a459eca9d215f8307e33aebe50379bc5a3617ec3444601f840160051c8101916020851061091d575b90601f859493920160051c01905b81811061090f57506104f1565b5f8155849350600101610902565b90915081906108f4565b91607f16916104dd565b015190505f806104a5565b60105f9081528281209350601f198516905b81811061098a5750908460019594939210610972575b505050811b016010556104ba565b01515f1960f88460031b161c191690555f8080610964565b9293602060018192878601518155019501930161094e565b60105f529091507f1b6847dc741a1b0cd08d278845f9d819d87b734759afb55fe2de5cb82a9ae672601f840160051c81019160208510610a06575b90601f859493920160051c01905b8181106109f8575061048f565b5f81558493506001016109eb565b90915081906109dd565b91607f169161047b565b015190505f80610443565b600f5f9081528281209350601f198516905b818110610a735750908460019594939210610a5b575b505050811b01600f55610458565b01515f1960f88460031b161c191690555f8080610a4d565b92936020600181928786015181550195019301610a37565b600f5f529091507f8d1108e10bcb7c27dddfc02ed9d693a074039d026cf4ea4240b40f7d581ac802601f840160051c81019160208510610aef575b90601f859493920160051c01905b818110610ae1575061042d565b5f8155849350600101610ad4565b9091508190610ac6565b91607f1691610419565b015190505f806103e1565b600e5f9081528281209350601f198516905b818110610b5c5750908460019594939210610b44575b505050811b01600e556103f6565b01515f1960f88460031b161c191690555f8080610b36565b92936020600181928786015181550195019301610b20565b600e5f529091507fbb7b4a454dc3493923482f07822329ed19e8244eff582cc204f8554c3620c3fd601f840160051c81019160208510610bd8575b90601f859493920160051c01905b818110610bca57506103cb565b5f8155849350600101610bbd565b9091508190610baf565b91607f16916103b7565b015190505f8061037f565b600d5f9081528281209350601f198516905b818110610c455750908460019594939210610c2d575b505050811b01600d55610394565b01515f1960f88460031b161c191690555f8080610c1f565b92936020600181928786015181550195019301610c09565b600d5f529091507fd7b6990105719101dabeb77144f2a3385c8033acd3af97e9423a695e81ad1eb5601f840160051c81019160208510610cc1575b90601f859493920160051c01905b818110610cb35750610369565b5f8155849350600101610ca6565b9091508190610c98565b91607f1691610355565b015190505f8061031d565b600c5f9081528281209350601f198516905b818110610d2e5750908460019594939210610d16575b505050811b01600c55610332565b01515f1960f88460031b161c191690555f8080610d08565b92936020600181928786015181550195019301610cf2565b600c5f529091507fdf6966c971051c3d54ec59162606531493a51404a002842f56009d7e5cf4a8c7601f840160051c81019160208510610daa575b90601f859493920160051c01905b818110610d9c5750610307565b5f8155849350600101610d8f565b9091508190610d81565b91607f16916102f3565b015190505f806102bb565b60045f9081528281209350601f198516905b818110610e175750908460019594939210610dff575b505050811b016004556102d0565b01515f1960f88460031b161c191690555f8080610df1565b92936020600181928786015181550195019301610ddb565b60045f529091507f8a35acfbc15ff81a39ae7d344fd709f28e8600b4aa8c65c6b64bfe7fe36bd19b601f840160051c81019160208510610e93575b90601f859493920160051c01905b818110610e8557506102a5565b5f8155849350600101610e78565b9091508190610e6a565b91607f1691610291565b905060a05101515f61025a565b60035f9081528181209250601f198416905b818110610f0257509083600194939210610ee8575b5050811b0160035561026e565b60a05101515f1960f88460031b161c191690555f80610edb565b91926020600181928660a051015181550194019201610ec6565b60035f527fc2575a0e9e593c00f959f8c92f12db2869c3395a3b0502d05e2516446f71f85b601f830160051c81019160208410610f75575b601f0160051c01905b818110610f6a5750610244565b5f8155600101610f5d565b9091508190610f54565b90607f1690610232565b5f80fd5b6040519190601f01601f191682016001600160401b0381118382101761074b57604052565b81601f82011215610f89578051906001600160401b03821161074b57610fe1601f8301601f1916602001610f8d565b9282845260208383010111610f8957815f9260208093018386015e8301015290565b51906001600160a01b0382168203610f895756fe60806040526004361015610011575f80fd5b5f5f3560e01c806306fdde0314611ee5578063095ea7b314611e3d57806309a1578514611d4957806318160ddd14611d2c5780631afbd128146119925780632152418c1461190057806321b394bc146118e257806323b872dd146118005780632473c5b7146117435780632881687f14611725578063313ce567146117095780633ccfd60b14611586578063411d90af146114c95780634173fb9d1461145557806347d54bff1461143757806351d8b2c61461141957806352622ffb1461112e5780635600f04f146110715780636178e44c14610d9157806367c0d00f14610d73578063707f67ee14610cb657806370a0823114610c7e5780637bcc180c14610c1a5780637fcfcb7e14610bf357806391ac0cc41461099e57806395d89b41146108e1578063a9059cbb146108af578063af60800714610891578063b3c9b7b214610790578063bb21a99714610652578063cf07491914610595578063dbc837c51461056c578063dd62ed3e14610519578063ddaa1de51461045c578063e037f88914610309578063eaf40bcd146102e5578063f21f537d146102c75763fdfec5dd146101bc575f80fd5b346102c457806003193601126102c4576040519080600c54908160011c916001811680156102ba575b6020841081146102a65783865290811561027f5750600114610222575b61021e8461021281860382612012565b60405191829182611fa0565b0390f35b600c81527fdf6966c971051c3d54ec59162606531493a51404a002842f56009d7e5cf4a8c7939250905b8082106102655750909150810160200161021282610202565b91926001816020925483858801015201910190929161024c565b60ff191660208087019190915292151560051b850190920192506102129150839050610202565b634e487b7160e01b83526022600452602483fd5b92607f16926101e5565b80fd5b50346102c457806003193601126102c4576020601554604051908152f35b50346102c457806003193601126102c457602063ffffffff601a5416604051908152f35b50346102c457806003193601126102c45761032f60018060a01b03600b54163314612064565b600254610417576006546040516370a0823160e01b815233600482015290602090829060249082906001600160a01b03165afa90811561040c5782916103d6575b50601854601454916103828383612138565b1161039c576103999161039491612138565b6123d8565b80f35b60405162461bcd60e51b81526020600482015260126024820152714e6f7420656e6f7567682062616c616e636560701b6044820152606490fd5b90506020813d602011610404575b816103f160209383612012565b8101031261040057515f610370565b5f80fd5b3d91506103e4565b6040513d84823e3d90fd5b60405162461bcd60e51b815260206004820152601d60248201527f496e697469616c206465706f73697420686173206265656e2073656e740000006044820152606490fd5b50346102c457806003193601126102c4576040519080601154908160011c9160018116801561050f575b6020841081146102a65783865290811561027f57506001146104b25761021e8461021281860382612012565b601181527f31ecc21a745e3968a04e9570e4425bc18fa8019c68028196b546d1669c200c68939250905b8082106104f55750909150810160200161021282610202565b9192600181602092548385880101520191019092916104dc565b92607f1692610486565b50346102c45760403660031901126102c4576040610535611fca565b9161053e611fe0565b9260018060a01b031681526001602052209060018060a01b03165f52602052602060405f2054604051908152f35b50346102c457806003193601126102c457600b546040516001600160a01b039091168152602090f35b50346102c457806003193601126102c4576040519080601254908160011c91600181168015610648575b6020841081146102a65783865290811561027f57506001146105eb5761021e8461021281860382612012565b601281527fbb8a6a4669ba250d26cd7a459eca9d215f8307e33aebe50379bc5a3617ec3444939250905b80821061062e5750909150810160200161021282610202565b919260018160209254838588010152019101909291610615565b92607f16926105bf565b50346102c457806003193601126102c4576005546040516370a0823160e01b81523060048201526001600160a01b039091169190602081602481865afa801561040c57829061075d575b6020915060246040518095819363ef8b30f760e01b835260048301525afa91821561075057819261071c575b506008549080610708577fb5caada44c21534f899b80931d6822af878c135819ecf2b62cfb2b81d7f299d46040848460085581519081525f6020820152a1005b634e487b7160e01b81526011600452602490fd5b9091506020813d602011610748575b8161073860209383612012565b810103126104005751905f6106c8565b3d915061072b565b50604051903d90823e3d90fd5b506020813d602011610788575b8161077760209383612012565b81010312610400576020905161069c565b3d915061076a565b50346102c45760203660031901126102c4576004359060606040516107b481611ff6565b8281528260208201528260408201520152601b54811161084c576107d9608091612034565b5060ff6003604051926107eb84611ff6565b60018060a01b03815416845260018101546020850152600281015460408501520154161515606082015261084a60405180926060809160018060a01b038151168452602081015160208501526040810151604085015201511515910152565bf35b60405162461bcd60e51b815260206004820152601b60248201527f436c61696d20696e646578206973206f7574206f662072616e676500000000006044820152606490fd5b50346102c457806003193601126102c4576020601754604051908152f35b50346102c45760403660031901126102c4576108d66108cc611fca565b6024359033612341565b602060405160018152f35b50346102c457806003193601126102c4576040519080600454908160011c91600181168015610994575b6020841081146102a65783865290811561027f57506001146109375761021e8461021281860382612012565b600481527f8a35acfbc15ff81a39ae7d344fd709f28e8600b4aa8c65c6b64bfe7fe36bd19b939250905b80821061097a5750909150810160200161021282610202565b919260018160209254838588010152019101909291610961565b92607f169261090b565b50346102c45760803660031901126102c4576109c560018060a01b036007541633146120d6565b6109cd612176565b6109f26044359160036109df84612034565b50019060ff801983541691151516179055565b60016109fc612176565b151503610b88576005546040516370a0823160e01b81523060048201526001600160a01b0390911690602081602481855afa908115610b7d578491610b49575b50610ab691610a73610a6a602093610a646001610a5889612034565b50015460145490612138565b90612138565b6002549061214b565b90610a7d85612034565b505460405163a9059cbb60e01b81526001600160a01b039091166004820152602481019290925290928391908290879082906044820190565b03925af18015610b3e57610b11575b50610add6001610ad483612034565b500154306121c6565b7fb1d4d5200bdca77843a526a5d9b60e6bdaab3003de654e06dc515a7198b8142060405180610b0b81612185565b0390a280f35b610b329060203d602011610b37575b610b2a8183612012565b8101906120be565b610ac5565b503d610b20565b6040513d85823e3d90fd5b90506020813d602011610b75575b81610b6460209383612012565b810103126104005751610ab6610a3c565b3d9150610b57565b6040513d86823e3d90fd5b610b966001610ad483612034565b6004356001600160a01b0381168103610bef57610bc1906001610bb884612034565b5001549061225d565b7f1547ef68a294755690d97570c56eb7941ccb230cb3cb1c587115a5ebd09c495960405180610b0b81612185565b8280fd5b50346102c45760203660031901126102c4576020610c1260043561259f565b604051908152f35b50346102c45760203660031901126102c45760043590601b548210156102c4576080610c4583612034565b5060018060a01b038154169060018101549060ff6003600283015492015416916040519384526020840152604083015215156060820152f35b50346102c45760203660031901126102c4576020906040906001600160a01b03610ca6611fca565b1681528083522054604051908152f35b50346102c457806003193601126102c4576040519080601054908160011c91600181168015610d69575b6020841081146102a65783865290811561027f5750600114610d0c5761021e8461021281860382612012565b601081527f1b6847dc741a1b0cd08d278845f9d819d87b734759afb55fe2de5cb82a9ae672939250905b808210610d4f5750909150810160200161021282610202565b919260018160209254838588010152019101909291610d36565b92607f1692610ce0565b50346102c457806003193601126102c4576020601454604051908152f35b50346102c45760603660031901126102c4576044356001600160a01b03811690600435906024359083900361106d57601754421015611029578115610fe5578215610fa057601854610de560195484612169565b11610f4a576006546040516370a0823160e01b815233600482015290602090829060249082906001600160a01b03165afa8015610f3f5782918691610f0a575b5010610ec55781610e358261259f565b03610e80577f1ec6ca237cf412015f109db027dc71b2292a20387279781fd699c4ec328a23d791610e676020926123d8565b610e7381601954612169565b601955604051908152a280f35b60405162461bcd60e51b815260206004820152601860248201527f53656e74206173736574732069736e277420656e6f75676800000000000000006044820152606490fd5b60405162461bcd60e51b815260206004820152601d60248201527f596f7520646f6e2774206861766520656e6f7567682062616c616e63650000006044820152606490fd5b9150506020813d602011610f37575b81610f2660209383612012565b81010312610400578190515f610e25565b3d9150610f19565b6040513d87823e3d90fd5b60405162461bcd60e51b815260206004820152602860248201527f4d617820737570706c79206578636565647320746865206d617820706f6c6963604482015267792073686172657360c01b6064820152608490fd5b60405162461bcd60e51b815260206004820152601f60248201527f496e7375726564206d75737420626520612076616c69642061646472657373006044820152606490fd5b606460405162461bcd60e51b815260206004820152602060248201527f416d6f756e74206d7573742062652067726561746572207468616e207a65726f6044820152fd5b606460405162461bcd60e51b815260206004820152602060248201527f506f6c6963792063616e277420626520707572636861736520616e796d6f72656044820152fd5b8380fd5b50346102c457806003193601126102c4576040519080600d54908160011c91600181168015611124575b6020841081146102a65783865290811561027f57506001146110c75761021e8461021281860382612012565b600d81527fd7b6990105719101dabeb77144f2a3385c8033acd3af97e9423a695e81ad1eb5939250905b80821061110a5750909150810160200161021282610202565b9192600181602092548385880101520191019092916110f1565b92607f169261109b565b50346102c45760803660031901126102c4576007546001600160a01b03166111573382146120d6565b6005546040516370a0823160e01b81523060048201526001600160a01b0390911690602081602481855afa908115610b7d5784916113e5575b50610a6a6111a891610a646001610a58604435612034565b916103e88302928084046103e814901517156113d15760405163095ea7b360e01b81526001600160a01b0391909116600482015260248101839052906020908290604490829087905af1908115610b3e5783916113b2575b50156113635760055460405163095ea7b360e01b815233600482015260248101839052906020908290604490829087906001600160a01b03165af1908115610b3e578391611344575b50156112ff5760055460405163095ea7b360e01b815232600482015260248101929092526020908290604490829086906001600160a01b03165af190811561040c5782916112e0575b501561129b5780f35b60405162461bcd60e51b815260206004820152601b60248201527f4661696c656420746f20617070726f76652074782e6f726967696e00000000006044820152606490fd5b6112f9915060203d602011610b3757610b2a8183612012565b5f611292565b60405162461bcd60e51b815260206004820152601c60248201527f4661696c656420746f20617070726f7665206d73672e73656e646572000000006044820152606490fd5b61135d915060203d602011610b3757610b2a8183612012565b5f611249565b60405162461bcd60e51b815260206004820152602160248201527f4661696c656420746f20617070726f76652073657276696365206d616e6167656044820152603960f91b6064820152608490fd5b6113cb915060203d602011610b3757610b2a8183612012565b5f611200565b634e487b7160e01b84526011600452602484fd5b90506020813d602011611411575b8161140060209383612012565b810103126104005751610a6a611190565b3d91506113f3565b50346102c457806003193601126102c4576020601854604051908152f35b50346102c457806003193601126102c4576020601654604051908152f35b50346102c45760203660031901126102c45761146f611fca565b600b546001600160a01b03811691611488338414612064565b6001600160a01b03169182907f155faa1d2e95029c9603f208551520bab524c2a713e5b7710cd39a91c73d281f8580a36001600160a01b03191617600b5580f35b50346102c457806003193601126102c4576040519080601354908160011c9160018116801561157c575b6020841081146102a65783865290811561027f575060011461151f5761021e8461021281860382612012565b601381527f66de8ffda797e3de9c05e8fc57b3bf0ec28a930d40b0d285d93c06501cf6a090939250905b8082106115625750909150810160200161021282610202565b919260018160209254838588010152019101909291611549565b92607f16926114f3565b50346102c457806003193601126102c4576016544211156116b857600b546001600160a01b03166115b8338214612064565b6005546040516370a0823160e01b8152306004820152906001600160a01b0316602082602481845afa918215610b7d578492611682575b506040516323b872dd60e01b81523060048201526001600160a01b039093166024840152604483018290526020908390818681606481015b03925af1908115610b3e577f5b6b431d4476a211bb7d41c20d1aab9ae2321deee0d20be3d9fc9b1093fa6e3d92602092611667575b50604051908152a180f35b61167d90833d8511610b3757610b2a8183612012565b61165c565b9091506020813d6020116116b0575b8161169e60209383612012565b810103126104005751906116276115ef565b3d9150611691565b60405162461bcd60e51b815260206004820152602360248201527f506c65617365207761697420756e74696c2074686520706572696f6420697320604482015262195b9960ea1b6064820152608490fd5b50346102c457806003193601126102c457602060405160128152f35b50346102c457806003193601126102c4576020601954604051908152f35b50346102c457806003193601126102c4576040519080600e54908160011c916001811680156117f6575b6020841081146102a65783865290811561027f57506001146117995761021e8461021281860382612012565b600e81527fbb7b4a454dc3493923482f07822329ed19e8244eff582cc204f8554c3620c3fd939250905b8082106117dc5750909150810160200161021282610202565b9192600181602092548385880101520191019092916117c3565b92607f169261176d565b50346102c45760603660031901126102c45761181a611fca565b611822611fe0565b6001600160a01b038216808452600160209081526040808620335f908152925290205460443593915f19821061185f575b50506108d69350612341565b8482106118c75780156118b357331561189f57856040916108d6975260016020522060018060a01b0333165f526020528360405f20910390555f80611853565b634a1406b160e11b86526004869052602486fd5b63e602df0560e01b86526004869052602486fd5b6064868684637dc7a0d960e11b835233600452602452604452fd5b50346102c457806003193601126102c4576020601b54604051908152f35b50346102c45760203660031901126102c4576004356009546001810180911161197e57600254916001830180931161196a5761193d8383836125d9565b938315611956576020610c128686868609151590612169565b634e487b7160e01b81526012600452602490fd5b634e487b7160e01b5f52601160045260245ffd5b634e487b7160e01b83526011600452602483fd5b5034610400575f36600319011261040057335f525f60205260405f205415611ce757601b545f805b828110611cbb5750611c7657335f525f60205260405f2054604051916119df83611ff6565b3383526020830190828252604084019181835260608501915f835268010000000000000000811015611c6257806001611a1b9201601b55612034565b929092611c4f57611a6b9360039260018060a01b038851166bffffffffffffffffffffffff60a01b86541617855551600185015551600284015551151591019060ff801983541691151516179055565b611a7581336121c6565b611a7f813061225d565b611a88306122cd565b611a91336122cd565b611a9a81612319565b63ffffffff601a541690611aad82612319565b6007546001600160a01b031691823b156104005760845f92836040519586948593630bb54ccf60e41b8552306004860152336024860152604485015260648401525af18015611c4457611c2f575b506040516040810181811067ffffffffffffffff821117611c1b57611b69611b775f938493604052602081527f4166746572207468652073657276696365206d616e616765722063616c6c6564602082015260405192839163104c13eb60e21b602084015260248301611fa0565b03601f198101835282612012565b6020815191016a636f6e736f6c652e6c6f675afa506001601a54917fc271c2ba952861633612aabb311dc0a5d1ea4fd62f563bd43e26a01bcb827a9060a063ffffffff851692611bf96040519185835260208301906060809160018060a01b038151168452602081015160208501526040810151604085015201511515910152565ba10163ffffffff811161197e5763ffffffff169063ffffffff191617601a5580f35b634e487b7160e01b84526041600452602484fd5b611c3c9192505f90612012565b5f905f611afb565b6040513d5f823e3d90fd5b634e487b7160e01b5f525f60045260245ffd5b634e487b7160e01b5f52604160045260245ffd5b60405162461bcd60e51b815260206004820152601860248201527f436c61696d20686173206265656e207375626d697474656400000000000000006044820152606490fd5b611cc481612034565b50546001600160a01b03163314611cde575b6001016119ba565b60019150611cd6565b60405162461bcd60e51b815260206004820152601760248201527f596f7520646f6e2774206861766520706f6c69636965730000000000000000006044820152606490fd5b34610400575f366003190112610400576020600254604051908152f35b34610400575f366003190112610400576040515f600f548060011c90600181168015611e33575b602083108114611e1f57828552908115611dfb5750600114611d9d575b61021e8361021281850382612012565b600f5f9081527f8d1108e10bcb7c27dddfc02ed9d693a074039d026cf4ea4240b40f7d581ac802939250905b808210611de157509091508101602001610212611d8d565b919260018160209254838588010152019101909291611dc9565b60ff191660208086019190915291151560051b840190910191506102129050611d8d565b634e487b7160e01b5f52602260045260245ffd5b91607f1691611d70565b3461040057604036600319011261040057611e56611fca565b602435903315611ed2576001600160a01b0316908115611ebf57335f52600160205260405f20825f526020528060405f20556040519081527f8c5be1e5ebec7d5bd14f71427d1e84f3dd0314c0f7b2291e5b200ac8c7c3b92560203392a3602060405160018152f35b634a1406b160e11b5f525f60045260245ffd5b63e602df0560e01b5f525f60045260245ffd5b34610400575f366003190112610400576040515f6003548060011c90600181168015611f96575b602083108114611e1f57828552908115611dfb5750600114611f385761021e8361021281850382612012565b60035f9081527fc2575a0e9e593c00f959f8c92f12db2869c3395a3b0502d05e2516446f71f85b939250905b808210611f7c57509091508101602001610212611d8d565b919260018160209254838588010152019101909291611f64565b91607f1691611f0c565b602060409281835280519182918282860152018484015e5f828201840152601f01601f1916010190565b600435906001600160a01b038216820361040057565b602435906001600160a01b038216820361040057565b6080810190811067ffffffffffffffff821117611c6257604052565b90601f8019910116810190811067ffffffffffffffff821117611c6257604052565b601b5481101561205057601b5f5260205f209060021b01905f90565b634e487b7160e01b5f52603260045260245ffd5b1561206b57565b60405162461bcd60e51b815260206004820152602560248201527f4f6e6c7920696e73757265722063616e20696e766f6b6520746869732066756e60448201526431ba34b7b760d91b6064820152608490fd5b90816020910312610400575180151581036104005790565b156120dd57565b60405162461bcd60e51b815260206004820152602d60248201527f4f6e6c792073657276696365206d616e616765722063616e20696e766f6b652060448201526c3a3434b990333ab731ba34b7b760991b6064820152608490fd5b8181029291811591840414171561196a57565b8115612155570490565b634e487b7160e01b5f52601260045260245ffd5b9190820180921161196a57565b60643580151581036104005790565b6080810191906004356001600160a01b0381169081900361040057815260243560208201526044356040820152606435908115158092036104005760600152565b9091906001600160a01b0316801561224a57805f525f60205260405f2054838110612230576020845f94957fddf252ad1be2c89b69c2b068fc378daa952ba7f163c4a11628f55a4df523b3ef938587528684520360408620558060025403600255604051908152a3565b915063391434e360e21b5f5260045260245260445260645ffd5b634b637e8f60e11b5f525f60045260245ffd5b6001600160a01b03169081156122ba577fddf252ad1be2c89b69c2b068fc378daa952ba7f163c4a11628f55a4df523b3ef60208261229e5f94600254612169565b60025584845283825260408420818154019055604051908152a3565b63ec442f0560e01b5f525f60045260245ffd5b60405163161765e160e11b60208201526001600160a01b0390911660248083019190915281525f908190612302604482612012565b6020815191016a636f6e736f6c652e6c6f675afa50565b5f80916040519063f82c50f160e01b6020830152602482015260248152612302604482612012565b6001600160a01b031690811561224a576001600160a01b03169182156122ba57815f525f60205260405f20548181106123bf57817fddf252ad1be2c89b69c2b068fc378daa952ba7f163c4a11628f55a4df523b3ef92602092855f525f84520360405f2055845f525f825260405f20818154019055604051908152a3565b8263391434e360e21b5f5260045260245260445260645ffd5b6006546040516323b872dd60e01b81523360048201523060248201526044810183905290602090829060649082905f906001600160a01b03165af18015611c4457612582575b506124288161259f565b60025461257357612439903061225d565b60065460055460405163095ea7b360e01b81526001600160a01b0391821660048201526024810184905291602091839160449183915f91165af18015611c4457612556575b50600554604051636e553f6560e01b81526004810183905230602482015290602090829060449082905f906001600160a01b03165af18015611c4457612527575b507f227a473b70d2f893cc7659219575c030a63b5743024fe1e0c1a680e708b1525a6020604051838152a16124f681600954612169565b6009556040519081527fe1fffcc4923d04b559f4d29a8bfc6cda04eb5b0d3c460751c2402c5c5cc9109c60203392a2565b6020813d60201161254e575b8161254060209383612012565b8101031261040057516124bf565b3d9150612533565b61256e9060203d602011610b3757610b2a8183612012565b61247e565b61257d903361225d565b612439565b61259a9060203d602011610b3757610b2a8183612012565b61241e565b6002546001810180911161196a57600954906001820180921161196a576125c78282856125d9565b6125d693505f92509050612169565b90565b91818302915f198185099383808610950394808603951461266957848311156126515790829109815f0382168092046002816003021880820260020302808202600203028082026002030280820260020302808202600203028091026002030293600183805f03040190848311900302920304170290565b82634e487b715f52156003026011186020526024601cfd5b5050906125d6925061214b56fea2646970667358221220d275994072784293fa861da96981d5ce9b22fb9efab50bf8dea19587dc80c65e64736f6c634300081c0033a2646970667358221220e6f447bc397ec3e8750f71e45bb7601418ea57c56f59c4096c33ab792b01715b64736f6c634300081c00330000000000000000000000001767d2eb5b467bd6d6d150ce0370f17b4b948ca5",
        "nonce": "0xc9",
        "chainId": "0x66eee"
      },
      "additionalContracts": [],
      "isFixedGasLimit": false
    },
    {
      "hash": "0x7057dadd71b6c15d31b8aaf4a7cbcee68f68d112def46d57bbc5837b1a098119",
      "transactionType": "CALL",
      "contractName": null,
      "contractAddress": "0x1767d2eb5b467bd6d6d150ce0370f17b4b948ca5",
      "function": "initialize(address,string)",
      "arguments": [
        "0x03A393A2407E4B9BCa73993a491Ab68469E50A6E",
        "04fb611087908d883d10d1b9633a7301b734eb693888b006a543a04429c6430d829bb4d6dd6eda0e2361ff153c398388f4fc2b7a6b640f6dcb083e763b6be1a568"
      ],
      "transaction": {
        "from": "0x34728af7d0fc03cbbdff82b6d52aeda8c999e2b2",
        "to": "0x1767d2eb5b467bd6d6d150ce0370f17b4b948ca5",
        "gas": "0x40271",
        "value": "0x0",
        "input": "0xf399e22e00000000000000000000000003a393a2407e4b9bca73993a491ab68469e50a6e0000000000000000000000000000000000000000000000000000000000000040000000000000000000000000000000000000000000000000000000000000008230346662363131303837393038643838336431306431623936333361373330316237333465623639333838386230303661353433613034343239633634333064383239626234643664643665646130653233363166663135336333393833383866346663326237613662363430663664636230383365373633623662653161353638000000000000000000000000000000000000000000000000000000000000",
        "nonce": "0xca",
        "chainId": "0x66eee"
      },
      "additionalContracts": [],
      "isFixedGasLimit": false
    },
    {
      "hash": "0x74711c6d186638c7b69b3a8a153bcf78de1b57972bea911003e22e20a7f5b11c",
      "transactionType": "CALL",
      "contractName": "InsuranceFactory",
      "contractAddress": "0x03a393a2407e4b9bca73993a491ab68469e50a6e",
      "function": "createInsurancePool(string,string,string,string,string,string,string,string,string,string,uint256,uint256,uint256,uint256,uint256,address,address,address)",
      "arguments": [
        "Ethereum Insurance",
        "ETHI",
        "https://ethereum.org/id/",
        "https://api.coingecko.com/api/v3/simple/price?ids=ethereum&vs_currencies=usd",
        "0402c06eef0fcd9bce4baed8b933d172fbeb41c2d389ea22196c8b887769424e65f461a72567e8b1ef0234913d6c3048285bf929fd8cf237ce7ee64955d8d66f2c63211f18de8b7fe485d9c16c19db0cf8cc741d626ca7fe7947f7b1669a5da21e",
        "0417096774522c5f341063c67c07197e77ea781d5dc786d738773f5e74bbd44361164670f7ecaff0b65bce8fe6fa9f33c352c29ed93163c4ef9da7059facb55ccf2df1fbfb17253f0bf6de6878cbb6b61222568c15c638acd2aebe78e9e54aa8c46f56c5453aa35cdabad168100d9da96d183046ea913439f614a0264f01ace71f025a97c7d046b63a9c0e",
        "042858572faa7e081d3126e97dce6f54b58e6997c088d3e7161df94f96fb2901ff076c900e04a39d3e569195fee85d44193f731ec5cdffa3ef099f0f41eae14e175fd1477b85e7ff498de1fb5ff64f0d4e4813f06a4c61187c01f058a0f885b2c797ff0dcc42d0e024bd94dbf5023345b821e56fa41ab34c1a743ad6d4b7a5529ac1ab70467604ec610e200bd389fe02891adc4a4750287f1e462d5e39d5e3291e3b31",
        "3200",
        "\\\\{\\\"ethereum\\\":\\\\{\\\"usd\\\":(?<value>[\\\\d\\\\.]+)\\\\}\\\\}",
        ">",
        "3",
        "1732284156",
        "1734876156",
        "1734703356",
        "50000000",
        "0x94BAa979F569eDb2F33903D9cCec66b31c9620F5",
        "0x654837fE31838Bd0391188182a3Ecdd402846D3a",
        "0x1767D2eb5b467Bd6D6d150CE0370f17B4b948ca5"
      ],
      "transaction": {
        "from": "0x34728af7d0fc03cbbdff82b6d52aeda8c999e2b2",
        "to": "0x03a393a2407e4b9bca73993a491ab68469e50a6e",
        "gas": "0x18b8e",
        "value": "0x0",
        "input": "0xa7ddfb670000000000000000000000000000000000000000000000000000000000000240000000000000000000000000000000000000000000000000000000000000028000000000000000000000000000000000000000000000000000000000000002c000000000000000000000000000000000000000000000000000000000000003000000000000000000000000000000000000000000000000000000000000000380000000000000000000000000000000000000000000000000000000000000048000000000000000000000000000000000000000000000000000000000000005c00000000000000000000000000000000000000000000000000000000000000740000000000000000000000000000000000000000000000000000000000000078000000000000000000000000000000000000000000000000000000000000007e000000000000000000000000000000000000000000000000000000000000000030000000000000000000000000000000000000000000000000000000067408efc0000000000000000000000000000000000000000000000000000000067681bfc00000000000000000000000000000000000000000000000000000000676578fc0000000000000000000000000000000000000000000000000000000002faf08000000000000000000000000094baa979f569edb2f33903d9ccec66b31c9620f5000000000000000000000000654837fe31838bd0391188182a3ecdd402846d3a0000000000000000000000001767d2eb5b467bd6d6d150ce0370f17b4b948ca50000000000000000000000000000000000000000000000000000000000000012457468657265756d20496e737572616e6365000000000000000000000000000000000000000000000000000000000000000000000000000000000000000000044554484900000000000000000000000000000000000000000000000000000000000000000000000000000000000000000000000000000000000000000000001868747470733a2f2f657468657265756d2e6f72672f69642f0000000000000000000000000000000000000000000000000000000000000000000000000000004c68747470733a2f2f6170692e636f696e6765636b6f2e636f6d2f6170692f76332f73696d706c652f70726963653f6964733d657468657265756d2676735f63757272656e636965733d757364000000000000000000000000000000000000000000000000000000000000000000000000000000000000000000000000000000c23034303263303665656630666364396263653462616564386239333364313732666265623431633264333839656132323139366338623838373736393432346536356634363161373235363765386231656630323334393133643663333034383238356266393239666438636632333763653765653634393535643864363666326336333231316631386465386237666534383564396331366331396462306366386363373431643632366361376665373934376637623136363961356461323165000000000000000000000000000000000000000000000000000000000000000000000000000000000000000000000000000000000000000000000000011630343137303936373734353232633566333431303633633637633037313937653737656137383164356463373836643733383737336635653734626264343433363131363436373066376563616666306236356263653866653666613966333363333532633239656439333136336334656639646137303539666163623535636366326466316662666231373235336630626636646536383738636262366236313232323536386331356336333861636432616562653738653965353461613863343666353663353435336161333563646162616431363831303064396461393664313833303436656139313334333966363134613032363466303161636537316630323561393763376430343662363361396330650000000000000000000000000000000000000000000000000000000000000000000000000000000001463034323835383537326661613765303831643331323665393764636536663534623538653639393763303838643365373136316466393466393666623239303166663037366339303065303461333964336535363931393566656538356434343139336637333165633563646666613365663039396630663431656165313465313735666431343737623835653766663439386465316662356666363466306434653438313366303661346336313138376330316630353861306638383562326337393766663064636334326430653032346264393464626635303233333435623832316535366661343161623334633161373433616436643462376135353239616331616237303436373630346563363130653230306264333839666530323839316164633461343735303238376631653436326435653339643565333239316533623331000000000000000000000000000000000000000000000000000000000000000000000000000000000000000000000000000000000000000000043332303000000000000000000000000000000000000000000000000000000000000000000000000000000000000000000000000000000000000000000000002a5c7b22657468657265756d223a5c7b22757364223a283f3c76616c75653e5b5c645c2e5d2b295c7d5c7d0000000000000000000000000000000000000000000000000000000000000000000000000000000000000000000000000000000000013e00000000000000000000000000000000000000000000000000000000000000",
        "nonce": "0xcb",
        "chainId": "0x66eee"
      },
      "additionalContracts": [],
      "isFixedGasLimit": false
    },
    {
      "hash": "0x03a66de69f509caec4a5d5ac5a53f58fd625c62f9d0ecc69b6e57ff947ced33f",
      "transactionType": "CALL",
      "contractName": null,
      "contractAddress": "0x94baa979f569edb2f33903d9ccec66b31c9620f5",
      "function": "approve(address,uint256)",
      "arguments": [
        "0x74fB64De6c0136a962198a2ec9E1f971480B6A09",
        "150000000"
      ],
      "transaction": {
        "from": "0x34728af7d0fc03cbbdff82b6d52aeda8c999e2b2",
        "to": "0x94baa979f569edb2f33903d9ccec66b31c9620f5",
        "gas": "0x10f1f",
        "value": "0x0",
        "input": "0x095ea7b300000000000000000000000074fb64de6c0136a962198a2ec9e1f971480b6a090000000000000000000000000000000000000000000000000000000008f0d180",
        "nonce": "0xcc",
        "chainId": "0x66eee"
      },
      "additionalContracts": [],
      "isFixedGasLimit": false
    },
    {
      "hash": "0x72f8c6cc42b5f1c524a23e0f2628222e55789b3e0fe4ec2cacf994a5ce2074c4",
      "transactionType": "CALL",
      "contractName": "InsurancePool",
      "contractAddress": "0x74fb64de6c0136a962198a2ec9e1f971480b6a09",
      "function": "initialDeposit()",
      "arguments": [],
      "transaction": {
        "from": "0x34728af7d0fc03cbbdff82b6d52aeda8c999e2b2",
        "to": "0x74fb64de6c0136a962198a2ec9e1f971480b6a09",
        "gas": "0x841f",
        "value": "0x0",
        "input": "0xe037f889",
        "nonce": "0xcd",
        "chainId": "0x66eee"
      },
      "additionalContracts": [],
      "isFixedGasLimit": false
    },
    {
      "hash": "0xadd3da040c28ae2566c41cbadf6f1e1255bce003e5da927c11d339a512a10628",
      "transactionType": "CALL",
      "contractName": null,
      "contractAddress": "0x94baa979f569edb2f33903d9ccec66b31c9620f5",
      "function": "approve(address,uint256)",
      "arguments": [
        "0x74fB64De6c0136a962198a2ec9E1f971480B6A09",
        "20000000"
      ],
      "transaction": {
        "from": "0x94c83a5137751c4e6acc0cfdb09819b0b83582d1",
        "to": "0x94baa979f569edb2f33903d9ccec66b31c9620f5",
        "gas": "0x10f0f",
        "value": "0x0",
        "input": "0x095ea7b300000000000000000000000074fb64de6c0136a962198a2ec9e1f971480b6a090000000000000000000000000000000000000000000000000000000001312d00",
        "nonce": "0x0",
        "chainId": "0x66eee"
      },
      "additionalContracts": [],
      "isFixedGasLimit": false
    },
    {
      "hash": "0xe3e13350b30ac01bf9a60b4c2c95b992f35fc5d2ed8f04d08b23e152d45b1905",
      "transactionType": "CALL",
      "contractName": "InsurancePool",
      "contractAddress": "0x74fb64de6c0136a962198a2ec9e1f971480b6a09",
      "function": "purchasePolicy(uint256,uint256,address)",
      "arguments": [
        "20000000",
        "20000000",
        "0x94c83a5137751C4E6acc0cFdB09819B0B83582D1"
      ],
      "transaction": {
        "from": "0x94c83a5137751c4e6acc0cfdb09819b0b83582d1",
        "to": "0x74fb64de6c0136a962198a2ec9e1f971480b6a09",
        "gas": "0x9740",
        "value": "0x0",
        "input": "0x6178e44c0000000000000000000000000000000000000000000000000000000001312d000000000000000000000000000000000000000000000000000000000001312d0000000000000000000000000094c83a5137751c4e6acc0cfdb09819b0b83582d1",
        "nonce": "0x1",
        "chainId": "0x66eee"
      },
      "additionalContracts": [],
      "isFixedGasLimit": false
    },
    {
      "hash": "0x9ea97dfd3f505ecbbb161fb952b0d8419dad8afbcd8012472d95b3dcca54669d",
      "transactionType": "CALL",
      "contractName": "InsurancePool",
      "contractAddress": "0x74fb64de6c0136a962198a2ec9e1f971480b6a09",
      "function": "submitClaim()",
      "arguments": [],
      "transaction": {
        "from": "0x94c83a5137751c4e6acc0cfdb09819b0b83582d1",
        "to": "0x74fb64de6c0136a962198a2ec9e1f971480b6a09",
        "gas": "0x841f",
        "value": "0x0",
        "input": "0x1afbd128",
        "nonce": "0x2",
        "chainId": "0x66eee"
      },
      "additionalContracts": [],
      "isFixedGasLimit": false
    }
  ],
  "receipts": [
    {
      "status": "0x1",
      "cumulativeGasUsed": "0xc7d9",
      "logs": [
        {
          "address": "0x94baa979f569edb2f33903d9ccec66b31c9620f5",
          "topics": [
            "0x8c5be1e5ebec7d5bd14f71427d1e84f3dd0314c0f7b2291e5b200ac8c7c3b925",
            "0x00000000000000000000000034728af7d0fc03cbbdff82b6d52aeda8c999e2b2",
            "0x000000000000000000000000654837fe31838bd0391188182a3ecdd402846d3a"
          ],
          "data": "0x0000000000000000000000000000000000000000000000000de0b6b3a7640000",
          "blockHash": "0x457dd40cee8d7516b56a021b82e238e336b5658f8ddf40397bd637c316735b22",
          "blockNumber": "0x5ef54e8",
          "transactionHash": "0x1bd3fea89706dcaa6f3d279e18d87da564ac1f92650b7d48f8a1108502dac348",
          "transactionIndex": "0x1",
          "logIndex": "0x0",
          "removed": false
        }
      ],
      "logsBloom": "0x00000000000000000000000000000000000000000000000000000000000000000000000000000000000000000000000000000000001000000000020000200000000000000000000040000000000000000000000000000000000000000000000000000000000000000000000000000000000000000000000100000000002000000000000000000000000000000000000000000000000000000000000000000800020000000000000000000000000000000000000000000000000000000000000000000000000000000000000000000000000200000000200000000000000000000010000000000000000000000000000000000000000000000000800000000000",
      "type": "0x2",
      "transactionHash": "0x1bd3fea89706dcaa6f3d279e18d87da564ac1f92650b7d48f8a1108502dac348",
      "transactionIndex": "0x1",
      "blockHash": "0x457dd40cee8d7516b56a021b82e238e336b5658f8ddf40397bd637c316735b22",
      "blockNumber": "0x5ef54e8",
      "gasUsed": "0xc7d9",
      "effectiveGasPrice": "0x5f5e100",
      "from": "0x34728af7d0fc03cbbdff82b6d52aeda8c999e2b2",
      "to": "0x94baa979f569edb2f33903d9ccec66b31c9620f5",
      "contractAddress": null,
      "gasUsedForL1": "0x1454",
      "l1BlockNumber": "0x6ccac7"
    },
    {
      "status": "0x1",
      "cumulativeGasUsed": "0x32a2e",
      "logs": [
        {
          "address": "0x94baa979f569edb2f33903d9ccec66b31c9620f5",
          "topics": [
            "0xddf252ad1be2c89b69c2b068fc378daa952ba7f163c4a11628f55a4df523b3ef",
            "0x00000000000000000000000034728af7d0fc03cbbdff82b6d52aeda8c999e2b2",
            "0x000000000000000000000000654837fe31838bd0391188182a3ecdd402846d3a"
          ],
          "data": "0x0000000000000000000000000000000000000000000000000de0b6b3a7640000",
          "blockHash": "0x54aa13b8e0412ea628b592c658a56aab61620f95c733c3a23a3f277b20425aa5",
          "blockNumber": "0x5ef54ef",
          "transactionHash": "0xce558df742c7d63d1a90d2e8d272bfcf0d0f7127e9f5fdacd384e98337202e7b",
          "transactionIndex": "0x2",
          "logIndex": "0x6",
          "removed": false
        },
        {
          "address": "0x654837fe31838bd0391188182a3ecdd402846d3a",
          "topics": [
            "0xddf252ad1be2c89b69c2b068fc378daa952ba7f163c4a11628f55a4df523b3ef",
            "0x0000000000000000000000000000000000000000000000000000000000000000",
            "0x00000000000000000000000034728af7d0fc03cbbdff82b6d52aeda8c999e2b2"
          ],
          "data": "0x0000000000000000000000000000000000000000000000000de0b6b3a7640000",
          "blockHash": "0x54aa13b8e0412ea628b592c658a56aab61620f95c733c3a23a3f277b20425aa5",
          "blockNumber": "0x5ef54ef",
          "transactionHash": "0xce558df742c7d63d1a90d2e8d272bfcf0d0f7127e9f5fdacd384e98337202e7b",
          "transactionIndex": "0x2",
          "logIndex": "0x7",
          "removed": false
        },
        {
          "address": "0x654837fe31838bd0391188182a3ecdd402846d3a",
          "topics": [
            "0xdcbc1c05240f31ff3ad067ef1ee35ce4997762752e3a095284754544f4c709d7",
            "0x00000000000000000000000034728af7d0fc03cbbdff82b6d52aeda8c999e2b2",
            "0x00000000000000000000000034728af7d0fc03cbbdff82b6d52aeda8c999e2b2"
          ],
          "data": "0x0000000000000000000000000000000000000000000000000de0b6b3a76400000000000000000000000000000000000000000000000000000de0b6b3a7640000",
          "blockHash": "0x54aa13b8e0412ea628b592c658a56aab61620f95c733c3a23a3f277b20425aa5",
          "blockNumber": "0x5ef54ef",
          "transactionHash": "0xce558df742c7d63d1a90d2e8d272bfcf0d0f7127e9f5fdacd384e98337202e7b",
          "transactionIndex": "0x2",
          "logIndex": "0x8",
          "removed": false
        }
      ],
      "logsBloom": "0x00000000000000000000000000000000000000000000000000000000000000000000000000000000000000000000000000000000001000000000020000000000000000400000000040000008000000000000000000000000000000000000000000000000020000000000000000000800000000000004000100000010002000000000000000000000000000000000000000000000000000000000000000000800000000000000000000000000000000000000000000000000000000000000000000000002000400000000000000000000000200000008200000000000000020000000000000000000000000000040000000000000000000000400800000000000",
      "type": "0x2",
      "transactionHash": "0xce558df742c7d63d1a90d2e8d272bfcf0d0f7127e9f5fdacd384e98337202e7b",
      "transactionIndex": "0x2",
      "blockHash": "0x54aa13b8e0412ea628b592c658a56aab61620f95c733c3a23a3f277b20425aa5",
      "blockNumber": "0x5ef54ef",
      "gasUsed": "0x1ae91",
      "effectiveGasPrice": "0x5f5e100",
      "from": "0x34728af7d0fc03cbbdff82b6d52aeda8c999e2b2",
      "to": "0x654837fe31838bd0391188182a3ecdd402846d3a",
      "contractAddress": null,
      "gasUsedForL1": "0x1454",
      "l1BlockNumber": "0x6ccac7"
    },
    {
      "status": "0x1",
      "cumulativeGasUsed": "0xdca8",
      "logs": [
        {
          "address": "0x94baa979f569edb2f33903d9ccec66b31c9620f5",
          "topics": [
            "0xddf252ad1be2c89b69c2b068fc378daa952ba7f163c4a11628f55a4df523b3ef",
            "0x00000000000000000000000034728af7d0fc03cbbdff82b6d52aeda8c999e2b2",
            "0x00000000000000000000000094c83a5137751c4e6acc0cfdb09819b0b83582d1"
          ],
          "data": "0x0000000000000000000000000000000000000000000000000de0b6b3a7640000",
          "blockHash": "0x20f6ea7ec68f2b10f94c14daf37ac6f7583e9b6024a5f9c6b18c60844c1a51bf",
          "blockNumber": "0x5ef54f5",
          "transactionHash": "0xe35df6896c31efd6bf06e878403262869a33611e8bf3d3a537e3b04efdab4ad7",
          "transactionIndex": "0x1",
          "logIndex": "0x0",
          "removed": false
        }
      ],
      "logsBloom": "0x00000000000000000000000000000000000000000000000000000000000020000000000000000000000000000000000000000000001000000000020000000000000000000000000040000008000000000000000000000000000000000000000000000000000000000000000000000000000000000000000100000010000000000000000000000000000000000000000000000000000000000000000000000000000000000000000000000000000000000000000000000000000000000000000000000002000000000000000000000000000200000000200000000000000000000002000000000000000000000000000000000000000000000010000000000000",
      "type": "0x2",
      "transactionHash": "0xe35df6896c31efd6bf06e878403262869a33611e8bf3d3a537e3b04efdab4ad7",
      "transactionIndex": "0x1",
      "blockHash": "0x20f6ea7ec68f2b10f94c14daf37ac6f7583e9b6024a5f9c6b18c60844c1a51bf",
      "blockNumber": "0x5ef54f5",
      "gasUsed": "0xdca8",
      "effectiveGasPrice": "0x5f5e100",
      "from": "0x34728af7d0fc03cbbdff82b6d52aeda8c999e2b2",
      "to": "0x94baa979f569edb2f33903d9ccec66b31c9620f5",
      "contractAddress": null,
      "gasUsedForL1": "0x1454",
      "l1BlockNumber": "0x6ccac7"
    },
    {
      "status": "0x1",
      "cumulativeGasUsed": "0x395eed",
      "logs": [],
      "logsBloom": "0x00000000000000000000000000000000000000000000000000000000000000000000000000000000000000000000000000000000000000000000000000000000000000000000000000000000000000000000000000000000000000000000000000000000000000000000000000000000000000000000000000000000000000000000000000000000000000000000000000000000000000000000000000000000000000000000000000000000000000000000000000000000000000000000000000000000000000000000000000000000000000000000000000000000000000000000000000000000000000000000000000000000000000000000000000000000",
      "type": "0x2",
      "transactionHash": "0x4cab48060eadbb679748796458ccaef115059f988438ba34b287c18b908a84d8",
      "transactionIndex": "0x1",
      "blockHash": "0x6a762225569625590435d860bfec7444bf4498c0cc49fdfd7f1e1049024a5aea",
      "blockNumber": "0x5ef54fe",
      "gasUsed": "0x395eed",
      "effectiveGasPrice": "0x5f5e100",
      "from": "0x34728af7d0fc03cbbdff82b6d52aeda8c999e2b2",
      "to": null,
      "contractAddress": "0x03a393a2407e4b9bca73993a491ab68469e50a6e",
      "gasUsedForL1": "0x3802c",
      "l1BlockNumber": "0x6ccac8"
    },
    {
      "status": "0x1",
      "cumulativeGasUsed": "0x302d4",
      "logs": [],
      "logsBloom": "0x00000000000000000000000000000000000000000000000000000000000000000000000000000000000000000000000000000000000000000000000000000000000000000000000000000000000000000000000000000000000000000000000000000000000000000000000000000000000000000000000000000000000000000000000000000000000000000000000000000000000000000000000000000000000000000000000000000000000000000000000000000000000000000000000000000000000000000000000000000000000000000000000000000000000000000000000000000000000000000000000000000000000000000000000000000000",
      "type": "0x2",
      "transactionHash": "0x7057dadd71b6c15d31b8aaf4a7cbcee68f68d112def46d57bbc5837b1a098119",
      "transactionIndex": "0x1",
      "blockHash": "0xc40b369edaddf2fd5fb0bd16683709bcfe68ea620320a2ae51acc659b848844c",
      "blockNumber": "0x5ef5502",
      "gasUsed": "0x302d4",
      "effectiveGasPrice": "0x5f5e100",
      "from": "0x34728af7d0fc03cbbdff82b6d52aeda8c999e2b2",
      "to": "0x1767d2eb5b467bd6d6d150ce0370f17b4b948ca5",
      "contractAddress": null,
      "gasUsedForL1": "0x26c5",
      "l1BlockNumber": "0x6ccac8"
    },
    {
      "status": "0x1",
      "cumulativeGasUsed": "0x331931",
      "logs": [
        {
          "address": "0x03a393a2407e4b9bca73993a491ab68469e50a6e",
          "topics": [
            "0x1f5025cd4d44bed9127c94acc7130c09bd9ae7c300dcd36dca8aa28d8ec2d2ef",
            "0x00000000000000000000000034728af7d0fc03cbbdff82b6d52aeda8c999e2b2"
          ],
          "data": "0x00000000000000000000000074fb64de6c0136a962198a2ec9e1f971480b6a09",
          "blockHash": "0x67c9e55411c25f28d01d0c43a3f90220ec1b2ec22e7eb9e7a7158a35acf380f3",
          "blockNumber": "0x5ef5508",
          "transactionHash": "0x74711c6d186638c7b69b3a8a153bcf78de1b57972bea911003e22e20a7f5b11c",
          "transactionIndex": "0x1",
          "logIndex": "0x0",
          "removed": false
        }
      ],
      "logsBloom": "0x00000000000000000000000000000000000000000000000000000000000000000000000000000000000000000000000000000000001000000000040000000000000000000000000040000000000000000400000000000000000000000000000000000000000000000000000000000000000000000000000000000000000000000000000000000000000000000000204000000000000000000000000000000000000000000000000000000000000000000000000000000000000000000000100000000000000000000000000000000000000000000000200000004000000000000000000000000000000000000000000000000000000000000000000000000000",
      "type": "0x2",
      "transactionHash": "0x74711c6d186638c7b69b3a8a153bcf78de1b57972bea911003e22e20a7f5b11c",
      "transactionIndex": "0x1",
      "blockHash": "0x67c9e55411c25f28d01d0c43a3f90220ec1b2ec22e7eb9e7a7158a35acf380f3",
      "blockNumber": "0x5ef5508",
      "gasUsed": "0x331931",
      "effectiveGasPrice": "0x5f5e100",
      "from": "0x34728af7d0fc03cbbdff82b6d52aeda8c999e2b2",
      "to": "0x03a393a2407e4b9bca73993a491ab68469e50a6e",
      "contractAddress": null,
      "gasUsedForL1": "0x7716",
      "l1BlockNumber": "0x6ccac8"
    },
    {
      "status": "0x1",
      "cumulativeGasUsed": "0xc7c1",
      "logs": [
        {
          "address": "0x94baa979f569edb2f33903d9ccec66b31c9620f5",
          "topics": [
            "0x8c5be1e5ebec7d5bd14f71427d1e84f3dd0314c0f7b2291e5b200ac8c7c3b925",
            "0x00000000000000000000000034728af7d0fc03cbbdff82b6d52aeda8c999e2b2",
            "0x00000000000000000000000074fb64de6c0136a962198a2ec9e1f971480b6a09"
          ],
          "data": "0x0000000000000000000000000000000000000000000000000000000008f0d180",
          "blockHash": "0x7a62df5819a77082f217dbd2bb31daebbedaba5196ee86c23af382e6e52e2024",
          "blockNumber": "0x5ef550f",
          "transactionHash": "0x03a66de69f509caec4a5d5ac5a53f58fd625c62f9d0ecc69b6e57ff947ced33f",
          "transactionIndex": "0x1",
          "logIndex": "0x0",
          "removed": false
        }
      ],
      "logsBloom": "0x00000000000000000000000000000000000000000000000000000000000000000000000000000000000000000000000000000000001000000000020000200000000000000000000040000000000000000000000000000000000000000000000000000000000000000000000000000000000000000000000100000000000000000000000000000000000000004000001000000000000000000000000000000000020000000000000000000000000000000000000000000000000000000000000000000000000000000000000000000000000200000000200000000000000000000010000000000000000000000000000000000000000000000000040000000000",
      "type": "0x2",
      "transactionHash": "0x03a66de69f509caec4a5d5ac5a53f58fd625c62f9d0ecc69b6e57ff947ced33f",
      "transactionIndex": "0x1",
      "blockHash": "0x7a62df5819a77082f217dbd2bb31daebbedaba5196ee86c23af382e6e52e2024",
      "blockNumber": "0x5ef550f",
      "gasUsed": "0xc7c1",
      "effectiveGasPrice": "0x5f5e100",
      "from": "0x34728af7d0fc03cbbdff82b6d52aeda8c999e2b2",
      "to": "0x94baa979f569edb2f33903d9ccec66b31c9620f5",
      "contractAddress": null,
      "gasUsedForL1": "0x1454",
      "l1BlockNumber": "0x6ccac8"
    },
    {
      "status": "0x1",
      "cumulativeGasUsed": "0x2a767",
      "logs": [
        {
          "address": "0x94baa979f569edb2f33903d9ccec66b31c9620f5",
          "topics": [
            "0xddf252ad1be2c89b69c2b068fc378daa952ba7f163c4a11628f55a4df523b3ef",
            "0x00000000000000000000000034728af7d0fc03cbbdff82b6d52aeda8c999e2b2",
            "0x00000000000000000000000074fb64de6c0136a962198a2ec9e1f971480b6a09"
          ],
          "data": "0x0000000000000000000000000000000000000000000000000000000008f0d180",
          "blockHash": "0x6d31e21f5a8c4e065dec227b8b525e9183344de5b38646305ad4a1b3758e854f",
          "blockNumber": "0x5ef5514",
          "transactionHash": "0x72f8c6cc42b5f1c524a23e0f2628222e55789b3e0fe4ec2cacf994a5ce2074c4",
          "transactionIndex": "0x1",
          "logIndex": "0x0",
          "removed": false
        },
        {
          "address": "0x74fb64de6c0136a962198a2ec9e1f971480b6a09",
          "topics": [
            "0xddf252ad1be2c89b69c2b068fc378daa952ba7f163c4a11628f55a4df523b3ef",
            "0x0000000000000000000000000000000000000000000000000000000000000000",
            "0x00000000000000000000000074fb64de6c0136a962198a2ec9e1f971480b6a09"
          ],
          "data": "0x0000000000000000000000000000000000000000000000000000000008f0d180",
          "blockHash": "0x6d31e21f5a8c4e065dec227b8b525e9183344de5b38646305ad4a1b3758e854f",
          "blockNumber": "0x5ef5514",
          "transactionHash": "0x72f8c6cc42b5f1c524a23e0f2628222e55789b3e0fe4ec2cacf994a5ce2074c4",
          "transactionIndex": "0x1",
          "logIndex": "0x1",
          "removed": false
        },
        {
          "address": "0x94baa979f569edb2f33903d9ccec66b31c9620f5",
          "topics": [
            "0x8c5be1e5ebec7d5bd14f71427d1e84f3dd0314c0f7b2291e5b200ac8c7c3b925",
            "0x00000000000000000000000074fb64de6c0136a962198a2ec9e1f971480b6a09",
            "0x000000000000000000000000654837fe31838bd0391188182a3ecdd402846d3a"
          ],
          "data": "0x0000000000000000000000000000000000000000000000000000000008f0d180",
          "blockHash": "0x6d31e21f5a8c4e065dec227b8b525e9183344de5b38646305ad4a1b3758e854f",
          "blockNumber": "0x5ef5514",
          "transactionHash": "0x72f8c6cc42b5f1c524a23e0f2628222e55789b3e0fe4ec2cacf994a5ce2074c4",
          "transactionIndex": "0x1",
          "logIndex": "0x2",
          "removed": false
        },
        {
          "address": "0x94baa979f569edb2f33903d9ccec66b31c9620f5",
          "topics": [
            "0xddf252ad1be2c89b69c2b068fc378daa952ba7f163c4a11628f55a4df523b3ef",
            "0x00000000000000000000000074fb64de6c0136a962198a2ec9e1f971480b6a09",
            "0x000000000000000000000000654837fe31838bd0391188182a3ecdd402846d3a"
          ],
          "data": "0x0000000000000000000000000000000000000000000000000000000008f0d180",
          "blockHash": "0x6d31e21f5a8c4e065dec227b8b525e9183344de5b38646305ad4a1b3758e854f",
          "blockNumber": "0x5ef5514",
          "transactionHash": "0x72f8c6cc42b5f1c524a23e0f2628222e55789b3e0fe4ec2cacf994a5ce2074c4",
          "transactionIndex": "0x1",
          "logIndex": "0x3",
          "removed": false
        },
        {
          "address": "0x654837fe31838bd0391188182a3ecdd402846d3a",
          "topics": [
            "0xddf252ad1be2c89b69c2b068fc378daa952ba7f163c4a11628f55a4df523b3ef",
            "0x0000000000000000000000000000000000000000000000000000000000000000",
            "0x00000000000000000000000074fb64de6c0136a962198a2ec9e1f971480b6a09"
          ],
          "data": "0x0000000000000000000000000000000000000000000000000000000008f0d180",
          "blockHash": "0x6d31e21f5a8c4e065dec227b8b525e9183344de5b38646305ad4a1b3758e854f",
          "blockNumber": "0x5ef5514",
          "transactionHash": "0x72f8c6cc42b5f1c524a23e0f2628222e55789b3e0fe4ec2cacf994a5ce2074c4",
          "transactionIndex": "0x1",
          "logIndex": "0x4",
          "removed": false
        },
        {
          "address": "0x654837fe31838bd0391188182a3ecdd402846d3a",
          "topics": [
            "0xdcbc1c05240f31ff3ad067ef1ee35ce4997762752e3a095284754544f4c709d7",
            "0x00000000000000000000000074fb64de6c0136a962198a2ec9e1f971480b6a09",
            "0x00000000000000000000000074fb64de6c0136a962198a2ec9e1f971480b6a09"
          ],
          "data": "0x0000000000000000000000000000000000000000000000000000000008f0d1800000000000000000000000000000000000000000000000000000000008f0d180",
          "blockHash": "0x6d31e21f5a8c4e065dec227b8b525e9183344de5b38646305ad4a1b3758e854f",
          "blockNumber": "0x5ef5514",
          "transactionHash": "0x72f8c6cc42b5f1c524a23e0f2628222e55789b3e0fe4ec2cacf994a5ce2074c4",
          "transactionIndex": "0x1",
          "logIndex": "0x5",
          "removed": false
        },
        {
          "address": "0x74fb64de6c0136a962198a2ec9e1f971480b6a09",
          "topics": [
            "0x227a473b70d2f893cc7659219575c030a63b5743024fe1e0c1a680e708b1525a"
          ],
          "data": "0x0000000000000000000000000000000000000000000000000000000008f0d180",
          "blockHash": "0x6d31e21f5a8c4e065dec227b8b525e9183344de5b38646305ad4a1b3758e854f",
          "blockNumber": "0x5ef5514",
          "transactionHash": "0x72f8c6cc42b5f1c524a23e0f2628222e55789b3e0fe4ec2cacf994a5ce2074c4",
          "transactionIndex": "0x1",
          "logIndex": "0x6",
          "removed": false
        },
        {
          "address": "0x74fb64de6c0136a962198a2ec9e1f971480b6a09",
          "topics": [
            "0xe1fffcc4923d04b559f4d29a8bfc6cda04eb5b0d3c460751c2402c5c5cc9109c",
            "0x00000000000000000000000034728af7d0fc03cbbdff82b6d52aeda8c999e2b2"
          ],
          "data": "0x0000000000000000000000000000000000000000000000000000000008f0d180",
          "blockHash": "0x6d31e21f5a8c4e065dec227b8b525e9183344de5b38646305ad4a1b3758e854f",
          "blockNumber": "0x5ef5514",
          "transactionHash": "0x72f8c6cc42b5f1c524a23e0f2628222e55789b3e0fe4ec2cacf994a5ce2074c4",
          "transactionIndex": "0x1",
          "logIndex": "0x7",
          "removed": false
        }
      ],
      "logsBloom": "0x00000000000000000000000000000000000000000000000000000000000000000000000000000000000000000000000000000000001000000000020000200000000000400000000040000008000000000000000000000000000000008000000000000000020000000000000000008800000000000004000100000010022000000000000000000000000000004000001000000001000000000000000000000800020000000000000000000000000001000000000008000000000000000000000000000002000400000000000000000000000200000008200000000000000020000010000000000000000000000040000100008000000000400400840000000000",
      "type": "0x2",
      "transactionHash": "0x72f8c6cc42b5f1c524a23e0f2628222e55789b3e0fe4ec2cacf994a5ce2074c4",
      "transactionIndex": "0x1",
      "blockHash": "0x6d31e21f5a8c4e065dec227b8b525e9183344de5b38646305ad4a1b3758e854f",
      "blockNumber": "0x5ef5514",
      "gasUsed": "0x2a767",
      "effectiveGasPrice": "0x5f5e100",
      "from": "0x34728af7d0fc03cbbdff82b6d52aeda8c999e2b2",
      "to": "0x74fb64de6c0136a962198a2ec9e1f971480b6a09",
      "contractAddress": null,
      "gasUsedForL1": "0xd1b",
      "l1BlockNumber": "0x6ccac8"
    },
    {
      "status": "0x1",
      "cumulativeGasUsed": "0xc798",
      "logs": [
        {
          "address": "0x94baa979f569edb2f33903d9ccec66b31c9620f5",
          "topics": [
            "0x8c5be1e5ebec7d5bd14f71427d1e84f3dd0314c0f7b2291e5b200ac8c7c3b925",
            "0x00000000000000000000000094c83a5137751c4e6acc0cfdb09819b0b83582d1",
            "0x00000000000000000000000074fb64de6c0136a962198a2ec9e1f971480b6a09"
          ],
          "data": "0x0000000000000000000000000000000000000000000000000000000001312d00",
          "blockHash": "0x0041b1937339dde0dace857775cc465329ab9ff2e0428e2ae8b8a36865eaf47e",
          "blockNumber": "0x5ef5519",
          "transactionHash": "0xadd3da040c28ae2566c41cbadf6f1e1255bce003e5da927c11d339a512a10628",
          "transactionIndex": "0x1",
          "logIndex": "0x0",
          "removed": false
        }
      ],
      "logsBloom": "0x00000000000000000000000000000000000000000000000000000000000020000000000000000000000000000000000000000000000000000000020000200000000000000000000000000000000000000000000000000000000000000000000000000000000000000000000000000000000000000000000100000000000000000000000000000000000000004000001000000000000000000000000000000000020000000000000000000000000000000000000000000000000000000000000000000000000000000000000000000000000200000000000000000000000000000012000000000000000000000000000000000000000000000010040000000000",
      "type": "0x2",
      "transactionHash": "0xadd3da040c28ae2566c41cbadf6f1e1255bce003e5da927c11d339a512a10628",
      "transactionIndex": "0x1",
      "blockHash": "0x0041b1937339dde0dace857775cc465329ab9ff2e0428e2ae8b8a36865eaf47e",
      "blockNumber": "0x5ef5519",
      "gasUsed": "0xc798",
      "effectiveGasPrice": "0x5f5e100",
      "from": "0x94c83a5137751c4e6acc0cfdb09819b0b83582d1",
      "to": "0x94baa979f569edb2f33903d9ccec66b31c9620f5",
      "contractAddress": null,
      "gasUsedForL1": "0x1437",
      "l1BlockNumber": "0x6ccac8"
    },
    {
      "status": "0x1",
      "cumulativeGasUsed": "0x257b1",
      "logs": [
        {
          "address": "0x94baa979f569edb2f33903d9ccec66b31c9620f5",
          "topics": [
            "0xddf252ad1be2c89b69c2b068fc378daa952ba7f163c4a11628f55a4df523b3ef",
            "0x00000000000000000000000094c83a5137751c4e6acc0cfdb09819b0b83582d1",
            "0x00000000000000000000000074fb64de6c0136a962198a2ec9e1f971480b6a09"
          ],
          "data": "0x0000000000000000000000000000000000000000000000000000000001312d00",
          "blockHash": "0x80fe4ffa81982ae4e28f8b5ff1be76ff7ac9bd7b9d2728ec8fa645a148415b6c",
          "blockNumber": "0x5ef551f",
          "transactionHash": "0xe3e13350b30ac01bf9a60b4c2c95b992f35fc5d2ed8f04d08b23e152d45b1905",
          "transactionIndex": "0x1",
          "logIndex": "0x0",
          "removed": false
        },
        {
          "address": "0x74fb64de6c0136a962198a2ec9e1f971480b6a09",
          "topics": [
            "0xddf252ad1be2c89b69c2b068fc378daa952ba7f163c4a11628f55a4df523b3ef",
            "0x0000000000000000000000000000000000000000000000000000000000000000",
            "0x00000000000000000000000094c83a5137751c4e6acc0cfdb09819b0b83582d1"
          ],
          "data": "0x0000000000000000000000000000000000000000000000000000000001312d00",
          "blockHash": "0x80fe4ffa81982ae4e28f8b5ff1be76ff7ac9bd7b9d2728ec8fa645a148415b6c",
          "blockNumber": "0x5ef551f",
          "transactionHash": "0xe3e13350b30ac01bf9a60b4c2c95b992f35fc5d2ed8f04d08b23e152d45b1905",
          "transactionIndex": "0x1",
          "logIndex": "0x1",
          "removed": false
        },
        {
          "address": "0x94baa979f569edb2f33903d9ccec66b31c9620f5",
          "topics": [
            "0x8c5be1e5ebec7d5bd14f71427d1e84f3dd0314c0f7b2291e5b200ac8c7c3b925",
            "0x00000000000000000000000074fb64de6c0136a962198a2ec9e1f971480b6a09",
            "0x000000000000000000000000654837fe31838bd0391188182a3ecdd402846d3a"
          ],
          "data": "0x0000000000000000000000000000000000000000000000000000000001312d00",
          "blockHash": "0x80fe4ffa81982ae4e28f8b5ff1be76ff7ac9bd7b9d2728ec8fa645a148415b6c",
          "blockNumber": "0x5ef551f",
          "transactionHash": "0xe3e13350b30ac01bf9a60b4c2c95b992f35fc5d2ed8f04d08b23e152d45b1905",
          "transactionIndex": "0x1",
          "logIndex": "0x2",
          "removed": false
        },
        {
          "address": "0x94baa979f569edb2f33903d9ccec66b31c9620f5",
          "topics": [
            "0xddf252ad1be2c89b69c2b068fc378daa952ba7f163c4a11628f55a4df523b3ef",
            "0x00000000000000000000000074fb64de6c0136a962198a2ec9e1f971480b6a09",
            "0x000000000000000000000000654837fe31838bd0391188182a3ecdd402846d3a"
          ],
          "data": "0x0000000000000000000000000000000000000000000000000000000001312d00",
          "blockHash": "0x80fe4ffa81982ae4e28f8b5ff1be76ff7ac9bd7b9d2728ec8fa645a148415b6c",
          "blockNumber": "0x5ef551f",
          "transactionHash": "0xe3e13350b30ac01bf9a60b4c2c95b992f35fc5d2ed8f04d08b23e152d45b1905",
          "transactionIndex": "0x1",
          "logIndex": "0x3",
          "removed": false
        },
        {
          "address": "0x654837fe31838bd0391188182a3ecdd402846d3a",
          "topics": [
            "0xddf252ad1be2c89b69c2b068fc378daa952ba7f163c4a11628f55a4df523b3ef",
            "0x0000000000000000000000000000000000000000000000000000000000000000",
            "0x00000000000000000000000074fb64de6c0136a962198a2ec9e1f971480b6a09"
          ],
          "data": "0x0000000000000000000000000000000000000000000000000000000001312d00",
          "blockHash": "0x80fe4ffa81982ae4e28f8b5ff1be76ff7ac9bd7b9d2728ec8fa645a148415b6c",
          "blockNumber": "0x5ef551f",
          "transactionHash": "0xe3e13350b30ac01bf9a60b4c2c95b992f35fc5d2ed8f04d08b23e152d45b1905",
          "transactionIndex": "0x1",
          "logIndex": "0x4",
          "removed": false
        },
        {
          "address": "0x654837fe31838bd0391188182a3ecdd402846d3a",
          "topics": [
            "0xdcbc1c05240f31ff3ad067ef1ee35ce4997762752e3a095284754544f4c709d7",
            "0x00000000000000000000000074fb64de6c0136a962198a2ec9e1f971480b6a09",
            "0x00000000000000000000000074fb64de6c0136a962198a2ec9e1f971480b6a09"
          ],
          "data": "0x0000000000000000000000000000000000000000000000000000000001312d000000000000000000000000000000000000000000000000000000000001312d00",
          "blockHash": "0x80fe4ffa81982ae4e28f8b5ff1be76ff7ac9bd7b9d2728ec8fa645a148415b6c",
          "blockNumber": "0x5ef551f",
          "transactionHash": "0xe3e13350b30ac01bf9a60b4c2c95b992f35fc5d2ed8f04d08b23e152d45b1905",
          "transactionIndex": "0x1",
          "logIndex": "0x5",
          "removed": false
        },
        {
          "address": "0x74fb64de6c0136a962198a2ec9e1f971480b6a09",
          "topics": [
            "0x227a473b70d2f893cc7659219575c030a63b5743024fe1e0c1a680e708b1525a"
          ],
          "data": "0x0000000000000000000000000000000000000000000000000000000001312d00",
          "blockHash": "0x80fe4ffa81982ae4e28f8b5ff1be76ff7ac9bd7b9d2728ec8fa645a148415b6c",
          "blockNumber": "0x5ef551f",
          "transactionHash": "0xe3e13350b30ac01bf9a60b4c2c95b992f35fc5d2ed8f04d08b23e152d45b1905",
          "transactionIndex": "0x1",
          "logIndex": "0x6",
          "removed": false
        },
        {
          "address": "0x74fb64de6c0136a962198a2ec9e1f971480b6a09",
          "topics": [
            "0xe1fffcc4923d04b559f4d29a8bfc6cda04eb5b0d3c460751c2402c5c5cc9109c",
            "0x00000000000000000000000094c83a5137751c4e6acc0cfdb09819b0b83582d1"
          ],
          "data": "0x0000000000000000000000000000000000000000000000000000000001312d00",
          "blockHash": "0x80fe4ffa81982ae4e28f8b5ff1be76ff7ac9bd7b9d2728ec8fa645a148415b6c",
          "blockNumber": "0x5ef551f",
          "transactionHash": "0xe3e13350b30ac01bf9a60b4c2c95b992f35fc5d2ed8f04d08b23e152d45b1905",
          "transactionIndex": "0x1",
          "logIndex": "0x7",
          "removed": false
        },
        {
          "address": "0x74fb64de6c0136a962198a2ec9e1f971480b6a09",
          "topics": [
            "0x1ec6ca237cf412015f109db027dc71b2292a20387279781fd699c4ec328a23d7",
            "0x00000000000000000000000094c83a5137751c4e6acc0cfdb09819b0b83582d1"
          ],
          "data": "0x0000000000000000000000000000000000000000000000000000000001312d00",
          "blockHash": "0x80fe4ffa81982ae4e28f8b5ff1be76ff7ac9bd7b9d2728ec8fa645a148415b6c",
          "blockNumber": "0x5ef551f",
          "transactionHash": "0xe3e13350b30ac01bf9a60b4c2c95b992f35fc5d2ed8f04d08b23e152d45b1905",
          "transactionIndex": "0x1",
          "logIndex": "0x8",
          "removed": false
        }
      ],
      "logsBloom": "0x00000000000000000000000000000000000000000000000000000000000020000000000000000000000000000000000000000000000000000000020000200000000000400000000000000008000000000000000000000000000000008000000000000000020000000000000000008800000000000004000100000010022000000000000000000000000000004000001000000001000000000000000000000800020000000000000000000000000001000000000008000000000000000000000000000002000400000000000000000004000200000008000000000000000020000812000000000000000000000840000100008000000000400410840000000000",
      "type": "0x2",
      "transactionHash": "0xe3e13350b30ac01bf9a60b4c2c95b992f35fc5d2ed8f04d08b23e152d45b1905",
      "transactionIndex": "0x1",
      "blockHash": "0x80fe4ffa81982ae4e28f8b5ff1be76ff7ac9bd7b9d2728ec8fa645a148415b6c",
      "blockNumber": "0x5ef551f",
      "gasUsed": "0x257b1",
      "effectiveGasPrice": "0x5f5e100",
      "from": "0x94c83a5137751c4e6acc0cfdb09819b0b83582d1",
      "to": "0x74fb64de6c0136a962198a2ec9e1f971480b6a09",
      "contractAddress": null,
      "gasUsedForL1": "0x17c6",
      "l1BlockNumber": "0x6ccac8"
    },
    {
      "status": "0x1",
      "cumulativeGasUsed": "0x709f5",
      "logs": [
        {
          "address": "0x74fb64de6c0136a962198a2ec9e1f971480b6a09",
          "topics": [
            "0xddf252ad1be2c89b69c2b068fc378daa952ba7f163c4a11628f55a4df523b3ef",
            "0x00000000000000000000000094c83a5137751c4e6acc0cfdb09819b0b83582d1",
            "0x0000000000000000000000000000000000000000000000000000000000000000"
          ],
          "data": "0x0000000000000000000000000000000000000000000000000000000001312d00",
          "blockHash": "0x41cd6011d99e55cadaf9208e580acada310c6fe4f488fbad989e18f1c9d4b782",
          "blockNumber": "0x5ef5526",
          "transactionHash": "0x9ea97dfd3f505ecbbb161fb952b0d8419dad8afbcd8012472d95b3dcca54669d",
          "transactionIndex": "0x2",
          "logIndex": "0x1",
          "removed": false
        },
        {
          "address": "0x74fb64de6c0136a962198a2ec9e1f971480b6a09",
          "topics": [
            "0xddf252ad1be2c89b69c2b068fc378daa952ba7f163c4a11628f55a4df523b3ef",
            "0x0000000000000000000000000000000000000000000000000000000000000000",
            "0x00000000000000000000000074fb64de6c0136a962198a2ec9e1f971480b6a09"
          ],
          "data": "0x0000000000000000000000000000000000000000000000000000000001312d00",
          "blockHash": "0x41cd6011d99e55cadaf9208e580acada310c6fe4f488fbad989e18f1c9d4b782",
          "blockNumber": "0x5ef5526",
          "transactionHash": "0x9ea97dfd3f505ecbbb161fb952b0d8419dad8afbcd8012472d95b3dcca54669d",
          "transactionIndex": "0x2",
          "logIndex": "0x2",
          "removed": false
        },
        {
          "address": "0x1767d2eb5b467bd6d6d150ce0370f17b4b948ca5",
          "topics": [
            "0xb40ce3699dc0e09be7202845d63e813e35ba6c676bccffadf460462c2ad29c82",
            "0x0000000000000000000000000000000000000000000000000000000000000000"
          ],
          "data": "0x00000000000000000000000074fb64de6c0136a962198a2ec9e1f971480b6a0900000000000000000000000094c83a5137751c4e6acc0cfdb09819b0b83582d10000000000000000000000000000000000000000000000000000000001312d00000000000000000000000000000000000000000000000000000000000000000000000000000000000000000000000000000000000000000000000000006ccac80000000000000000000000000000000000000000000000000000000000000000",
          "blockHash": "0x41cd6011d99e55cadaf9208e580acada310c6fe4f488fbad989e18f1c9d4b782",
          "blockNumber": "0x5ef5526",
          "transactionHash": "0x9ea97dfd3f505ecbbb161fb952b0d8419dad8afbcd8012472d95b3dcca54669d",
          "transactionIndex": "0x2",
          "logIndex": "0x3",
          "removed": false
        },
        {
          "address": "0x74fb64de6c0136a962198a2ec9e1f971480b6a09",
          "topics": [
            "0xc271c2ba952861633612aabb311dc0a5d1ea4fd62f563bd43e26a01bcb827a90"
          ],
          "data": "0x000000000000000000000000000000000000000000000000000000000000000000000000000000000000000094c83a5137751c4e6acc0cfdb09819b0b83582d10000000000000000000000000000000000000000000000000000000001312d0000000000000000000000000000000000000000000000000000000000000000000000000000000000000000000000000000000000000000000000000000000000",
          "blockHash": "0x41cd6011d99e55cadaf9208e580acada310c6fe4f488fbad989e18f1c9d4b782",
          "blockNumber": "0x5ef5526",
          "transactionHash": "0x9ea97dfd3f505ecbbb161fb952b0d8419dad8afbcd8012472d95b3dcca54669d",
          "transactionIndex": "0x2",
          "logIndex": "0x4",
          "removed": false
        }
      ],
      "logsBloom": "0x000000000000000000000000000020000000000000002000000000000000200002000000000000000000000000000000000000000000000000010000000000000000000000000000000000080000000000000000000000000000000000000000000000000e0000000000000000008800000000000000000000000010000000000000000000000000000000004000005000000000000000000000000000000000000000000000000000000000000000000000000008000001000000000000000000000002000000000000000000000000000000000000000000000000000020000002000000000000000000000000000100000000000000800010040000000000",
      "type": "0x2",
      "transactionHash": "0x9ea97dfd3f505ecbbb161fb952b0d8419dad8afbcd8012472d95b3dcca54669d",
      "transactionIndex": "0x2",
      "blockHash": "0x41cd6011d99e55cadaf9208e580acada310c6fe4f488fbad989e18f1c9d4b782",
      "blockNumber": "0x5ef5526",
      "gasUsed": "0x30373",
      "effectiveGasPrice": "0x5f5e100",
      "from": "0x94c83a5137751c4e6acc0cfdb09819b0b83582d1",
      "to": "0x74fb64de6c0136a962198a2ec9e1f971480b6a09",
      "contractAddress": null,
      "gasUsedForL1": "0xcff",
      "l1BlockNumber": "0x6ccac8"
    }
  ],
  "libraries": [],
  "pending": [],
  "returns": {},
  "timestamp": 1732284198,
  "chain": 421614,
  "commit": "597d48a"
}