{
  "transactions": [
    {
      "hash": "0x788937ad972f5738a19978f458a55b87a7f103808beb5d42ae031b48ec440a4d",
      "transactionType": "CALL",
      "contractName": null,
      "contractAddress": "0xc83af6561ad7b6f395b0d827f950308bdaeff6b3",
      "function": "mint(address,uint256)",
      "arguments": [
        "0x34728aF7D0FC03CbbdFF82b6d52AeDA8C999E2B2",
        "10000000000000000000000"
      ],
      "transaction": {
        "from": "0x34728af7d0fc03cbbdff82b6d52aeda8c999e2b2",
        "to": "0xc83af6561ad7b6f395b0d827f950308bdaeff6b3",
        "gas": "0xc09b",
        "value": "0x0",
        "input": "0x40c10f1900000000000000000000000034728af7d0fc03cbbdff82b6d52aeda8c999e2b200000000000000000000000000000000000000000000021e19e0c9bab2400000",
        "nonce": "0x71b",
        "chainId": "0x66eee"
      },
      "additionalContracts": [],
      "isFixedGasLimit": false
    },
    {
      "hash": "0x53b53ab192aee17603a55423997ef0f0b1185cdc64a05b8908ec7d7cc61e20ff",
      "transactionType": "CALL",
      "contractName": null,
      "contractAddress": "0xc83af6561ad7b6f395b0d827f950308bdaeff6b3",
      "function": "mint(address,uint256)",
      "arguments": [
        "0x94c83a5137751C4E6acc0cFdB09819B0B83582D1",
        "1000000000000000000000"
      ],
      "transaction": {
        "from": "0x34728af7d0fc03cbbdff82b6d52aeda8c999e2b2",
        "to": "0xc83af6561ad7b6f395b0d827f950308bdaeff6b3",
        "gas": "0xc08c",
        "value": "0x0",
        "input": "0x40c10f1900000000000000000000000094c83a5137751c4e6acc0cfdb09819b0b83582d100000000000000000000000000000000000000000000003635c9adc5dea00000",
        "nonce": "0x71c",
        "chainId": "0x66eee"
      },
      "additionalContracts": [],
      "isFixedGasLimit": false
    },
    {
      "hash": "0x6ff558eb1b247e6a12499123777ee3c2fbccbf55e3523bce5b217b4c38408d47",
      "transactionType": "CALL",
      "contractName": null,
      "contractAddress": "0xc83af6561ad7b6f395b0d827f950308bdaeff6b3",
      "function": "approve(address,uint256)",
      "arguments": [
        "0x1cEF01bb6844254Eea3701f026D6e873007711Ce",
        "10000000000000000000"
      ],
      "transaction": {
        "from": "0x34728af7d0fc03cbbdff82b6d52aeda8c999e2b2",
        "to": "0xc83af6561ad7b6f395b0d827f950308bdaeff6b3",
        "gas": "0xf2dc",
        "value": "0x0",
        "input": "0x095ea7b30000000000000000000000001cef01bb6844254eea3701f026d6e873007711ce0000000000000000000000000000000000000000000000008ac7230489e80000",
        "nonce": "0x71d",
        "chainId": "0x66eee"
      },
      "additionalContracts": [],
      "isFixedGasLimit": false
    },
    {
      "hash": "0xfed0b50389ee8529c2828f167846f4624aba7062a0c8e6c56f93f668dc0c1880",
      "transactionType": "CALL",
      "contractName": null,
      "contractAddress": "0x1cef01bb6844254eea3701f026d6e873007711ce",
      "function": "deposit(uint256,address)",
      "arguments": [
        "10000000000000000000",
        "0x34728aF7D0FC03CbbdFF82b6d52AeDA8C999E2B2"
      ],
      "transaction": {
        "from": "0x34728af7d0fc03cbbdff82b6d52aeda8c999e2b2",
        "to": "0x1cef01bb6844254eea3701f026d6e873007711ce",
        "gas": "0x138ca",
        "value": "0x0",
        "input": "0x6e553f650000000000000000000000000000000000000000000000008ac7230489e8000000000000000000000000000034728af7d0fc03cbbdff82b6d52aeda8c999e2b2",
        "nonce": "0x71e",
        "chainId": "0x66eee"
      },
      "additionalContracts": [],
      "isFixedGasLimit": false
    },
    {
      "hash": "0xf4aa1cd971ed3277d65cbdb4c2ab5978cdc2e3c9f25d55f0bb97130af3afe080",
      "transactionType": "CREATE",
      "contractName": "InsuranceFactory",
      "contractAddress": "0xbeef7a71cc53eb15a9e36032771a49b315d6e225",
      "function": null,
      "arguments": [
        "0xC83af6561Ad7b6f395B0d827F950308BdaeFf6b3",
        "0x1cEF01bb6844254Eea3701f026D6e873007711Ce",
        "0x7e3C9076431D2ea36af5fC917a2edaD1C8EBcAB2",
        "5",
        "10"
      ],
      "transaction": {
        "from": "0x34728af7d0fc03cbbdff82b6d52aeda8c999e2b2",
        "gas": "0x5d20d5",
        "value": "0x0",
        "input": "0x60803460c257601f61504f38819003918201601f19168301916001600160401b0383118484101760c65780849260a09460405283398101031260c25760428160da565b90604d6020820160da565b60576040830160da565b606083015160809390930151600580546001600160a01b03199081166001600160a01b039788161790915560068054821694871694909417909355600380548416331790556004805490931694909116939093179055600855600955604051614f6190816100ee8239f35b5f80fd5b634e487b7160e01b5f52604160045260245ffd5b51906001600160a01b038216820360c25756fe6080806040526004361015610012575f80fd5b5f3560e01c9081630fd761e014610aba575080633998fdd314610a925780633ccfd60b146109975780634352976c146109695780634578d2901461092c5780634e575d4b14610904578063507817bb14610445578063560684ca146103ca5780636a4d984614610343578063773f0b18146103265780638da5cb5b146102fe578063ae5745ed1461029c578063af38c76114610190578063daf635de14610162578063e941fa78146101455763f7d1517f146100cc575f80fd5b34610141576020366003190112610141576004355f54811015610141575f5481101561012d575f80527f290decd9548b62a8d60345a988386fc84ba6bc95484008f6362f93160ef3e56301546040516001600160a01b039091168152602090f35b634e487b7160e01b5f52603260045260245ffd5b5f80fd5b34610141575f366003190112610141576020600954604051908152f35b346101415760203660031901126101415761018860018060a01b03600354163314610be4565b600435600955005b34610141575f366003190112610141576040515f6007548060011c90600181168015610292575b60208310811461027e5782855290811561025a57506001146101fc575b6101f8836101e481850382610af3565b604051918291602083526020830190610bc0565b0390f35b91905060075f527fa66cc928b5edb82af9bd49922954155ab7b0942694bea4ce44661d9a8736c688915f905b808210610240575090915081016020016101e46101d4565b919260018160209254838588010152019101909291610228565b60ff191660208086019190915291151560051b840190910191506101e490506101d4565b634e487b7160e01b5f52602260045260245ffd5b91607f16916101b7565b34610141576040366003190112610141576102b5610add565b6001600160a01b03165f90815260016020526040902080546024359190821015610141576020916102e591610bab565b905460405160039290921b1c6001600160a01b03168152f35b34610141575f366003190112610141576003546040516001600160a01b039091168152602090f35b34610141575f366003190112610141576020600854604051908152f35b34610141576020366003190112610141576001600160a01b03610364610add565b165f52600160205260405f206040519081602082549182815201915f5260205f20905f5b8181106103ab576101f88561039f81870382610af3565b60405191829182610b69565b82546001600160a01b0316845260209093019260019283019201610388565b34610141575f366003190112610141576040518060205f549182815201905f80527f290decd9548b62a8d60345a988386fc84ba6bc95484008f6362f93160ef3e563905f5b818110610426576101f88561039f81870382610af3565b82546001600160a01b031684526020909301926001928301920161040f565b3461014157610200366003190112610141576004356001600160401b03811161014157610476903690600401610b14565b6024356001600160401b03811161014157610495903690600401610b14565b906044356001600160401b038111610141576104b5903690600401610b14565b6064356001600160401b038111610141576104d4903690600401610b14565b6084356001600160401b038111610141576104f3903690600401610b14565b60a4356001600160401b03811161014157610512903690600401610b14565b60c4356001600160401b03811161014157610531903690600401610b14565b9060e4356001600160401b03811161014157610551903690600401610b14565b92610104356001600160401b03811161014157610572903690600401610b14565b94610124356001600160401b03811161014157610593903690600401610b14565b96604051806142ef8101106001600160401b036142ef830111176108e557806106b76106a06106896106738f8f61063161061b61060561065d946105ef610647956142ef8d610c3d90396102206142ef8e018181520190610bc0565b906142ef8c01820360208d6142ef010152610bc0565b6142ef8a01810360406142ef8c0101528b610bc0565b6142ef8901810360606142ef8b0101528b610bc0565b6142ef8801810360806142ef8a0101528b610bc0565b6142ef8701810360a06142ef890101528b610bc0565b6142ef8601810360c06142ef880101528b610bc0565b6142ef8501810360e06142ef870101528b610bc0565b6142ef840181036101006142ef860101528b610bc0565b6142ef830181036101206142ef850101528b610bc0565b610144356142ef830161014081019190915261016435610160820152610184356101808201526101a4356101a08201526101c4356101c08201526101e4356101e0820152336102009091015203905ff0998a156108f9575f54600160401b8110156108e55780600161072c92015f555f610bab565b81546001600160a01b038e811660039390931b92831b921b1916179055335f9081526001602052604090208054600160401b8110156108e55760018101825561077491610bab565b81546001600160a01b038e811660039390931b83811b91901b19909116179091555f9081526002602052604090819020805460ff1916600117905551610200808252909a6107c4918c0190610bc0565b8a810360208c01526107d591610bc0565b89810360408b01526107e691610bc0565b88810360608a01526107f791610bc0565b878103608089015261080891610bc0565b86810360a088015261081991610bc0565b85810360c087015261082a91610bc0565b84810360e086015261083b91610bc0565b83810361010085015261084d91610bc0565b82810361012084015261085f91610bc0565b6101443561014083015261016435610160830152610184356101808301526101a4356101a08301526101c4356101c08301526101e4356101e08301526001600160a01b0383169133917fdb952deb284a7ca1809707c5a72df8b398c71835d54ca9755ffe994e8baa2aa1919081900390a36040516001600160a01b039091168152602090f35b634e487b7160e01b5f52604160045260245ffd5b6040513d5f823e3d90fd5b34610141575f366003190112610141576006546040516001600160a01b039091168152602090f35b34610141576020366003190112610141576001600160a01b0361094d610add565b165f526002602052602060ff60405f2054166040519015158152f35b346101415760203660031901126101415761098f60018060a01b03600354163314610be4565b600435600855005b34610141575f366003190112610141576003546001600160a01b03166109be338214610be4565b6005546040516370a0823160e01b81523060048201526001600160a01b0390911691602082602481865afa9182156108f9575f92610a5d575b509060446020925f604051958694859363a9059cbb60e01b8552600485015260248401525af180156108f957610a2957005b6020813d602011610a55575b81610a4260209383610af3565b8101031261014157518015150361014157005b3d9150610a35565b91506020823d602011610a8a575b81610a7860209383610af3565b810103126101415790519060446109f7565b3d9150610a6b565b34610141575f366003190112610141576004546040516001600160a01b039091168152602090f35b34610141575f366003190112610141576005546001600160a01b03168152602090f35b600435906001600160a01b038216820361014157565b90601f801991011681019081106001600160401b038211176108e557604052565b81601f82011215610141578035906001600160401b0382116108e55760405192610b48601f8401601f191660200185610af3565b8284526020838301011161014157815f926020809301838601378301015290565b60206040818301928281528451809452019201905f5b818110610b8c5750505090565b82516001600160a01b0316845260209384019390920191600101610b7f565b805482101561012d575f5260205f2001905f90565b805180835260209291819084018484015e5f828201840152601f01601f1916010190565b15610beb57565b60405162461bcd60e51b815260206004820152602360248201527f4f6e6c79206f776e65722063616e20696e766f6b6520746869732066756e637460448201526234b7b760e91b6064820152608490fdfe60a060405234610f24576142ef8038038061001981610f28565b928339810161022082820312610f245781516001600160401b038111610f245781610045918401610f4d565b60208301519091906001600160401b038111610f245781610067918501610f4d565b60408401519092906001600160401b038111610f245782610089918601610f4d565b60608501519091906001600160401b038111610f2457836100ab918701610f4d565b60808601519094906001600160401b038111610f2457846100cd918801610f4d565b60a08701519093906001600160401b038111610f2457856100ef918901610f4d565b60c08801516001600160401b038111610f24578661010e918a01610f4d565b60e08901516001600160401b038111610f24578761012d918b01610f4d565b6101008a01519091906001600160401b038111610f245788610150918c01610f4d565b6101208b0151979093906001600160401b038911610f24578b9a8b9a8b9a8b019061017a91610f4d565b966101408b0151986101608c01519a6101808d01519c6101a001519d6101c001519e6101e001519f6102000151608052600160a01b600190036080511660805103610f24578051906001600160401b0382116106df5760035490600182811c92168015610f1a575b60208310146106c15781601f849311610eac575b50602090601f8311600114610e46575f92610e3b575b50508160011b915f199060031b1c1916176003555b8051906001600160401b0382116106df5760045490600182811c92168015610e31575b60208310146106c15781601f849311610dc3575b50602090601f8311600114610d5d575f92610d52575b50508160011b915f199060031b1c1916176004555b8051906001600160401b0382116106df5760095490600182811c92168015610d48575b60208310146106c15781601f849311610cda575b50602090601f8311600114610c74575f92610c69575b50508160011b915f199060031b1c1916176009555b8051906001600160401b0382116106df57600a5490600182811c92168015610c5f575b60208310146106c15781601f849311610bf1575b50602090601f8311600114610b8b575f92610b80575b50508160011b915f199060031b1c191617600a555b8051906001600160401b0382116106df57600b5490600182811c92168015610b76575b60208310146106c15781601f849311610b08575b50602090601f8311600114610aa2575f92610a97575b50508160011b915f199060031b1c191617600b555b8051906001600160401b0382116106df57600c5490600182811c92168015610a8d575b60208310146106c15781601f849311610a1f575b50602090601f83116001146109b9575f926109ae575b50508160011b915f199060031b1c191617600c555b8051906001600160401b0382116106df57600d5490600182811c921680156109a4575b60208310146106c15781601f849311610936575b50602090601f83116001146108d0575f926108c5575b50508160011b915f199060031b1c191617600d555b8051906001600160401b0382116106df57600e5490600182811c921680156108bb575b60208310146106c15781601f84931161084d575b50602090601f83116001146107e7575f926107dc575b50508160011b915f199060031b1c191617600e555b8051906001600160401b0382116106df5760105490600182811c921680156107d2575b60208310146106c15781601f849311610764575b50602090601f83116001146106fe575f926106f3575b50508160011b915f199060031b1c1916176010555b8051906001600160401b0382116106df57600f5490600182811c921680156106d5575b60208310146106c15781601f849311610653575b50602090601f83116001146105ed575f926105e2575b50508160011b915f199060031b1c191617600f555b601255601355601455601555601655601755608051600880546001600160a01b039092166001600160a01b0319928316179055600580543392169190911790556040516133509081610f9f8239f35b015190505f8061057e565b600f5f9081528281209350601f198516905b81811061063b5750908460019594939210610623575b505050811b01600f55610593565b01515f1960f88460031b161c191690555f8080610615565b929360206001819287860151815501950193016105ff565b600f5f529091507f8d1108e10bcb7c27dddfc02ed9d693a074039d026cf4ea4240b40f7d581ac802601f840160051c810191602085106106b7575b90601f859493920160051c01905b8181106106a95750610568565b5f815584935060010161069c565b909150819061068e565b634e487b7160e01b5f52602260045260245ffd5b91607f1691610554565b634e487b7160e01b5f52604160045260245ffd5b015190505f8061051c565b60105f9081528281209350601f198516905b81811061074c5750908460019594939210610734575b505050811b01601055610531565b01515f1960f88460031b161c191690555f8080610726565b92936020600181928786015181550195019301610710565b60105f529091507f1b6847dc741a1b0cd08d278845f9d819d87b734759afb55fe2de5cb82a9ae672601f840160051c810191602085106107c8575b90601f859493920160051c01905b8181106107ba5750610506565b5f81558493506001016107ad565b909150819061079f565b91607f16916104f2565b015190505f806104ba565b600e5f9081528281209350601f198516905b818110610835575090846001959493921061081d575b505050811b01600e556104cf565b01515f1960f88460031b161c191690555f808061080f565b929360206001819287860151815501950193016107f9565b600e5f529091507fbb7b4a454dc3493923482f07822329ed19e8244eff582cc204f8554c3620c3fd601f840160051c810191602085106108b1575b90601f859493920160051c01905b8181106108a357506104a4565b5f8155849350600101610896565b9091508190610888565b91607f1691610490565b015190505f80610458565b600d5f9081528281209350601f198516905b81811061091e5750908460019594939210610906575b505050811b01600d5561046d565b01515f1960f88460031b161c191690555f80806108f8565b929360206001819287860151815501950193016108e2565b600d5f529091507fd7b6990105719101dabeb77144f2a3385c8033acd3af97e9423a695e81ad1eb5601f840160051c8101916020851061099a575b90601f859493920160051c01905b81811061098c5750610442565b5f815584935060010161097f565b9091508190610971565b91607f169161042e565b015190505f806103f6565b600c5f9081528281209350601f198516905b818110610a0757509084600195949392106109ef575b505050811b01600c5561040b565b01515f1960f88460031b161c191690555f80806109e1565b929360206001819287860151815501950193016109cb565b600c5f529091507fdf6966c971051c3d54ec59162606531493a51404a002842f56009d7e5cf4a8c7601f840160051c81019160208510610a83575b90601f859493920160051c01905b818110610a7557506103e0565b5f8155849350600101610a68565b9091508190610a5a565b91607f16916103cc565b015190505f80610394565b600b5f9081528281209350601f198516905b818110610af05750908460019594939210610ad8575b505050811b01600b556103a9565b01515f1960f88460031b161c191690555f8080610aca565b92936020600181928786015181550195019301610ab4565b600b5f529091507f0175b7a638427703f0dbe7bb9bbf987a2551717b34e79f33b5b1008d1fa01db9601f840160051c81019160208510610b6c575b90601f859493920160051c01905b818110610b5e575061037e565b5f8155849350600101610b51565b9091508190610b43565b91607f169161036a565b015190505f80610332565b600a5f9081528281209350601f198516905b818110610bd95750908460019594939210610bc1575b505050811b01600a55610347565b01515f1960f88460031b161c191690555f8080610bb3565b92936020600181928786015181550195019301610b9d565b600a5f529091507fc65a7bb8d6351c1cf70c95a316cc6a92839c986682d98bc35f958f4883f9d2a8601f840160051c81019160208510610c55575b90601f859493920160051c01905b818110610c47575061031c565b5f8155849350600101610c3a565b9091508190610c2c565b91607f1691610308565b015190505f806102d0565b60095f9081528281209350601f198516905b818110610cc25750908460019594939210610caa575b505050811b016009556102e5565b01515f1960f88460031b161c191690555f8080610c9c565b92936020600181928786015181550195019301610c86565b60095f529091507f6e1540171b6c0c960b71a7020d9f60077f6af931a8bbf590da0223dacf75c7af601f840160051c81019160208510610d3e575b90601f859493920160051c01905b818110610d3057506102ba565b5f8155849350600101610d23565b9091508190610d15565b91607f16916102a6565b015190505f8061026e565b60045f9081528281209350601f198516905b818110610dab5750908460019594939210610d93575b505050811b01600455610283565b01515f1960f88460031b161c191690555f8080610d85565b92936020600181928786015181550195019301610d6f565b60045f529091507f8a35acfbc15ff81a39ae7d344fd709f28e8600b4aa8c65c6b64bfe7fe36bd19b601f840160051c81019160208510610e27575b90601f859493920160051c01905b818110610e195750610258565b5f8155849350600101610e0c565b9091508190610dfe565b91607f1691610244565b015190505f8061020c565b60035f9081528281209350601f198516905b818110610e945750908460019594939210610e7c575b505050811b01600355610221565b01515f1960f88460031b161c191690555f8080610e6e565b92936020600181928786015181550195019301610e58565b60035f529091507fc2575a0e9e593c00f959f8c92f12db2869c3395a3b0502d05e2516446f71f85b601f840160051c81019160208510610f10575b90601f859493920160051c01905b818110610f0257506101f6565b5f8155849350600101610ef5565b9091508190610ee7565b91607f16916101e2565b5f80fd5b6040519190601f01601f191682016001600160401b038111838210176106df57604052565b81601f82011215610f24578051906001600160401b0382116106df57610f7c601f8301601f1916602001610f28565b9282845260208383010111610f2457815f9260208093018386015e830101529056fe6080806040526004361015610012575f80fd5b5f905f3560e01c908163021146c6146129ed5750806306fdde0314612948578063095ea7b3146128a057806309a15785146127d6578063104ffbbe1461252f57806318160ddd146125125780631afbd12814611b8c5780631fb6112e14611ae55780632152418c14611a5357806321b394bc14611a3557806323b872dd146119535780632881687f146119355780632e5113b714611917578063313ce567146118fb5780633ccfd60b146114b0578063411d90af146114095780634173fb9d1461139557806341e0080b146112ee57806347d54bff146112d05780634bff95ba1461122957806351d8b2c61461120b5780636178e44c14610ee857806365c33d8714610b43578063707f67ee14610a9c57806370a0823114610a645780637bcc180c146109da5780637fcfcb7e146109b357806394bca6961461099557806395d89b41146108ee57806398d191101461084757806399d32fc414610829578063a9059cbb146107f7578063af608007146107d9578063b3c9b7b2146106e2578063c45a0155146106b9578063dbc837c514610690578063dd62ed3e1461063d578063e037f889146103be578063eaf40bcd1461039a578063f21f537d1461037c578063f40430d2146102d55763fdfec5dd146101ec575f80fd5b346102d257806003193601126102d25760405190806009549061020e82612a57565b80855291600181169081156102ab575060011461024e575b61024a8461023681860382612aab565b604051918291602083526020830190612a07565b0390f35b600981527f6e1540171b6c0c960b71a7020d9f60077f6af931a8bbf590da0223dacf75c7af939250905b8082106102915750909150810160200161023682610226565b919260018160209254838588010152019101909291610278565b60ff191660208087019190915292151560051b850190920192506102369150839050610226565b80fd5b50346102d257806003193601126102d2576040519080600c54906102f882612a57565b80855291600181169081156102ab575060011461031f5761024a8461023681860382612aab565b600c81527fdf6966c971051c3d54ec59162606531493a51404a002842f56009d7e5cf4a8c7939250905b8082106103625750909150810160200161023682610226565b919260018160209254838588010152019101909291610349565b50346102d257806003193601126102d2576020601454604051908152f35b50346102d257806003193601126102d257602063ffffffff60195416604051908152f35b50346102d257806003193601126102d2576103e460018060a01b03600854163314612d94565b6002546105f857600554604051627ebb0f60e51b8152906001600160a01b0316602082600481845afa9081156105995760049284926105d6575b5060209060405193848092634e575d4b60e01b82525afa9081156105995760249284926105a4575b506040516370a0823160e01b81523360048201529260209184919082906001600160a01b03165afa918215610599578392610565575b50601754906013549261048f8484612d4b565b1161052b576104aa6104a5602494602094612d4b565b612f99565b6040516303d1689d60e11b8152670de0b6b3a7640000600482015292839182906001600160a01b03165afa9081156105205782916104ea575b5060075580f35b90506020813d602011610518575b8161050560209383612aab565b8101031261051457515f6104e3565b5f80fd5b3d91506104f8565b6040513d84823e3d90fd5b60405162461bcd60e51b81526020600482015260126024820152714e6f7420656e6f7567682062616c616e636560701b6044820152606490fd5b9091506020813d602011610591575b8161058160209383612aab565b810103126105145751905f61047c565b3d9150610574565b6040513d85823e3d90fd5b60209192506105c890823d84116105cf575b6105c08183612aab565b810190612c19565b9190610446565b503d6105b6565b60209192506105f190823d84116105cf576105c08183612aab565b919061041e565b60405162461bcd60e51b815260206004820152601d60248201527f496e697469616c206465706f73697420686173206265656e2073656e740000006044820152606490fd5b50346102d25760403660031901126102d2576040610659612a2b565b91610662612a41565b9260018060a01b031681526001602052209060018060a01b03165f52602052602060405f2054604051908152f35b50346102d257806003193601126102d2576008546040516001600160a01b039091168152602090f35b50346102d257806003193601126102d2576005546040516001600160a01b039091168152602090f35b50346102d25760203660031901126102d25760043590608060405161070681612a8f565b8281528260208201528260408201526060808201520152601a5481116107945761073261024a91612ba1565b5060ff60046040519261074484612a8f565b80546001600160a01b03168452600181015460208501526002810154604085015261077160038201612acd565b606085015201541615156080820152604051918291602083526020830190612bd1565b60405162461bcd60e51b815260206004820152601b60248201527f436c61696d20696e646578206973206f7574206f662072616e676500000000006044820152606490fd5b50346102d257806003193601126102d2576020601654604051908152f35b50346102d25760403660031901126102d25761081e610814612a2b565b6024359033612f02565b602060405160018152f35b50346102d257806003193601126102d2576020601254604051908152f35b50346102d257806003193601126102d2576040519080600f549061086a82612a57565b80855291600181169081156102ab57506001146108915761024a8461023681860382612aab565b600f81527f8d1108e10bcb7c27dddfc02ed9d693a074039d026cf4ea4240b40f7d581ac802939250905b8082106108d45750909150810160200161023682610226565b9192600181602092548385880101520191019092916108bb565b50346102d257806003193601126102d25760405190806004549061091182612a57565b80855291600181169081156102ab57506001146109385761024a8461023681860382612aab565b600481527f8a35acfbc15ff81a39ae7d344fd709f28e8600b4aa8c65c6b64bfe7fe36bd19b939250905b80821061097b5750909150810160200161023682610226565b919260018160209254838588010152019101909291610962565b50346102d257806003193601126102d2576020600654604051908152f35b50346102d25760203660031901126102d25760206109d2600435613243565b604051908152f35b50346102d25760203660031901126102d257600435601a54811015610a6057610a0290612ba1565b5060018060a01b03815416600182015491610a5460028201549160ff6004610a2c60038401612acd565b920154169260405195869586526020860152604085015260a0606085015260a0840190612a07565b90151560808301520390f35b5080fd5b50346102d25760203660031901126102d2576020906040906001600160a01b03610a8c612a2b565b1681528083522054604051908152f35b50346102d257806003193601126102d2576040519080600e5490610abf82612a57565b80855291600181169081156102ab5750600114610ae65761024a8461023681860382612aab565b600e81527fbb7b4a454dc3493923482f07822329ed19e8244eff582cc204f8554c3620c3fd939250905b808210610b295750909150810160200161023682610226565b919260018160209254838588010152019101909291610b10565b50346102d257610b5236612b6d565b600554604051633998fdd360e01b815291906001600160a01b0316602083600481845afa928315610dd8578493610ec3575b50600490602090610b9f336001600160a01b03871614612c38565b604051634e575d4b60e01b815292839182905afa908115610dd8578491610ea4575b506040516370a0823160e01b81523060048201526001600160a01b03919091169190602081602481865afa908115610e99578591610e65575b50610c2690610c206001610c146040610c2f960135612ba1565b50015460135490612d4b565b90612d4b565b60025490612d5e565b916103e88302928084046103e81490151715610e515760405163095ea7b360e01b81526001600160a01b039190911660048201526024810183905260208160448187865af1908115610dd8578491610e32575b5015610de35760405163095ea7b360e01b81523360048201526024810183905260208160448187865af1908115610dd8578491610db9575b5015610d745760405163095ea7b360e01b815232600482015260248101929092526020908290604490829086905af1908115610520578291610d45575b5015610d005780f35b60405162461bcd60e51b815260206004820152601b60248201527f4661696c656420746f20617070726f76652074782e6f726967696e00000000006044820152606490fd5b610d67915060203d602011610d6d575b610d5f8183612aab565b810190612d7c565b5f610cf7565b503d610d55565b60405162461bcd60e51b815260206004820152601c60248201527f4661696c656420746f20617070726f7665206d73672e73656e646572000000006044820152606490fd5b610dd2915060203d602011610d6d57610d5f8183612aab565b5f610cba565b6040513d86823e3d90fd5b60405162461bcd60e51b815260206004820152602160248201527f4661696c656420746f20617070726f76652073657276696365206d616e6167656044820152603960f91b6064820152608490fd5b610e4b915060203d602011610d6d57610d5f8183612aab565b5f610c82565b634e487b7160e01b84526011600452602484fd5b90506020813d602011610e91575b81610e8060209383612aab565b810103126105145751610c2f610bfa565b3d9150610e73565b6040513d87823e3d90fd5b610ebd915060203d6020116105cf576105c08183612aab565b5f610bc1565b6004919350610ee0602091823d84116105cf576105c08183612aab565b939150610b84565b50346102d25760603660031901126102d2576044356001600160a01b038116906004359060243590839003611207576016544210156111c357811561117f57821561113a57601754610f3c60185484612dee565b116110e457600554604051627ebb0f60e51b815290602090829060049082906001600160a01b03165afa908115610e995760249160209187916110c7575b506040516370a0823160e01b815233600482015292839182906001600160a01b03165afa8015610e995782918691611092575b501061104d5781610fbd82613243565b03611008577f1ec6ca237cf412015f109db027dc71b2292a20387279781fd699c4ec328a23d791610fef602092612f99565b610ffb81601854612dee565b601855604051908152a280f35b60405162461bcd60e51b815260206004820152601860248201527f53656e74206173736574732069736e277420656e6f75676800000000000000006044820152606490fd5b60405162461bcd60e51b815260206004820152601d60248201527f596f7520646f6e2774206861766520656e6f7567682062616c616e63650000006044820152606490fd5b9150506020813d6020116110bf575b816110ae60209383612aab565b81010312610514578190515f610fad565b3d91506110a1565b6110de9150823d84116105cf576105c08183612aab565b5f610f7a565b60405162461bcd60e51b815260206004820152602860248201527f4d617820737570706c79206578636565647320746865206d617820706f6c6963604482015267792073686172657360c01b6064820152608490fd5b60405162461bcd60e51b815260206004820152601f60248201527f496e7375726564206d75737420626520612076616c69642061646472657373006044820152606490fd5b606460405162461bcd60e51b815260206004820152602060248201527f416d6f756e74206d7573742062652067726561746572207468616e207a65726f6044820152fd5b606460405162461bcd60e51b815260206004820152602060248201527f506f6c6963792063616e277420626520707572636861736520616e796d6f72656044820152fd5b8380fd5b50346102d257806003193601126102d2576020601754604051908152f35b50346102d257806003193601126102d2576040519080600a549061124c82612a57565b80855291600181169081156102ab57506001146112735761024a8461023681860382612aab565b600a81527fc65a7bb8d6351c1cf70c95a316cc6a92839c986682d98bc35f958f4883f9d2a8939250905b8082106112b65750909150810160200161023682610226565b91926001816020925483858801015201910190929161129d565b50346102d257806003193601126102d2576020601554604051908152f35b50346102d257806003193601126102d2576040519080600b549061131182612a57565b80855291600181169081156102ab57506001146113385761024a8461023681860382612aab565b600b81527f0175b7a638427703f0dbe7bb9bbf987a2551717b34e79f33b5b1008d1fa01db9939250905b80821061137b5750909150810160200161023682610226565b919260018160209254838588010152019101909291611362565b50346102d25760203660031901126102d2576113af612a2b565b6008546001600160a01b038116916113c8338414612d94565b6001600160a01b03169182907f155faa1d2e95029c9603f208551520bab524c2a713e5b7710cd39a91c73d281f8580a36001600160a01b0319161760085580f35b50346102d257806003193601126102d25760405190806011549061142c82612a57565b80855291600181169081156102ab57506001146114535761024a8461023681860382612aab565b601181527f31ecc21a745e3968a04e9570e4425bc18fa8019c68028196b546d1669c200c68939250905b8082106114965750909150810160200161023682610226565b91926001816020925483858801015201910190929161147d565b50346102d257806003193601126102d2576015544211156118aa576114e060018060a01b03600854163314612d94565b600554604051634e575d4b60e01b81526001600160a01b0390911690602081600481855afa90811561059957839161188b575b506040516303d1689d60e11b8152670de0b6b3a764000060048201526001600160a01b039190911691602082602481865afa918215610dd8578492611857575b506007548203918211610e51578391602060049260405193848092631d283f4f60e31b82525afa91821561059957839261181e575b5060649161159591612d4b565b04916040516370a0823160e01b8152306004820152602081602481855afa9081156105995783916117e6575b509060646020926040519485938492632d182be560e21b845260048401523060248401523060448401525af19081156105995783916117b4575b50600554604051627ebb0f60e51b81526001600160a01b039091169290602081600481875afa918215610e995761166c926020928791611797575b5060405163a9059cbb60e01b81526001600160a01b03968716600482015260248101929092529094169391829081906044820190565b038187875af18015610dd85761177a575b506008546040516370a0823160e01b8152306004820152906001600160a01b0316602082602481875afa918215610e99578592611744575b5060405163a9059cbb60e01b81526001600160a01b0390911660048201526024810191909152916020908390818681604481015b03925af1908115610599577f5b6b431d4476a211bb7d41c20d1aab9ae2321deee0d20be3d9fc9b1093fa6e3d92602092611729575b50604051908152a180f35b61173f90833d8511610d6d57610d5f8183612aab565b61171e565b91506020823d602011611772575b8161175f60209383612aab565b81010312610514579051906116e96116b5565b3d9150611752565b6117929060203d602011610d6d57610d5f8183612aab565b61167d565b6117ae9150833d85116105cf576105c08183612aab565b5f611636565b90506020813d6020116117de575b816117cf60209383612aab565b8101031261051457515f6115fb565b3d91506117c2565b919250506020813d602011611816575b8161180360209383612aab565b81010312610514575183919060646115c1565b3d91506117f6565b925090506020823d60201161184f575b8161183b60209383612aab565b810103126105145790518391611595611588565b3d915061182e565b9091506020813d602011611883575b8161187360209383612aab565b810103126105145751905f611553565b3d9150611866565b6118a4915060203d6020116105cf576105c08183612aab565b5f611513565b60405162461bcd60e51b815260206004820152602360248201527f506c65617365207761697420756e74696c2074686520706572696f6420697320604482015262195b9960ea1b6064820152608490fd5b50346102d257806003193601126102d257602060405160128152f35b50346102d257806003193601126102d2576020601354604051908152f35b50346102d257806003193601126102d2576020601854604051908152f35b50346102d25760603660031901126102d25761196d612a2b565b611975612a41565b6001600160a01b038216808452600160209081526040808620335f908152925290205460443593915f1982106119b2575b505061081e9350612f02565b848210611a1a578015611a065733156119f2578560409161081e975260016020522060018060a01b0333165f526020528360405f20910390555f806119a6565b634a1406b160e11b86526004869052602486fd5b63e602df0560e01b86526004869052602486fd5b6064868684637dc7a0d960e11b835233600452602452604452fd5b50346102d257806003193601126102d2576020601a54604051908152f35b50346102d25760203660031901126102d25760043560065460018101809111611ad1576002549160018301809311611abd57611a9083838361327d565b938315611aa95760206109d28686868609151590612dee565b634e487b7160e01b81526012600452602490fd5b634e487b7160e01b5f52601160045260245ffd5b634e487b7160e01b83526011600452602483fd5b50346102d257806003193601126102d257604051908060105490611b0882612a57565b80855291600181169081156102ab5750600114611b2f5761024a8461023681860382612aab565b601081527f1b6847dc741a1b0cd08d278845f9d819d87b734759afb55fe2de5cb82a9ae672939250905b808210611b725750909150810160200161023682610226565b919260018160209254838588010152019101909291611b59565b5034610514575f36600319011261051457335f525f60205260405f2054156124cd57600554604051627ebb0f60e51b81526001600160a01b0390911690602081600481855afa908115611fdb575f916124ae575b506040516370a0823160e01b81523360048201526001600160a01b039190911690602081602481855afa908115611fdb575f9161247c575b5060125480911061242057604051636eb1769f60e11b8152336004820152306024820152602081604481865afa8015611fdb5782915f916123eb575b501061238757602060049360405194858092630ee7e16360e31b82525afa928315611fdb575f93612353575b506040516370a0823160e01b8152336004820152602081602481865afa8015611fdb5784915f9161231e575b50106122c057604051636eb1769f60e11b8152336004820152306024820152602081604481865afa8015611fdb5784915f9161228b575b5010612220576008546040516323b872dd60e01b81523360048201526001600160a01b03909116602482015260448101919091526020816064815f865af1908115611fdb575f91612201575b50156121bc576005546040516323b872dd60e01b81523360048201526001600160a01b0390911660248201526044810192909252602090829060649082905f905af1908115611fdb575f9161219d575b501561215857601a545f805b82811061212c57506120e757335f525f60205260405f205460405191611db083612a8f565b338352602083019082825260408401818152604051906020820182811067ffffffffffffffff8211176120c0576040525f82526060860191825260808601925f8452680100000000000000008110156120c057806001611e139201601a55612ba1565b9490946120d457865185546001600160a01b0319166001600160a01b0391909116178555516001850155516002840155518051600384019167ffffffffffffffff82116120c057611e648354612a57565b601f811161207b575b50602090601f831160011461201057918060049492611eb99796945f92612005575b50508160011b915f199060031b1c19161790555b51151591019060ff801983541691151516179055565b611ec38133612dfb565b611ecd8130612e92565b600554604051633998fdd360e01b815290602090829060049082906001600160a01b03165afa908115611fdb575f91611fe6575b5060018060a01b03169063ffffffff60195416823b156105145760845f92836040519586948593630bb54ccf60e41b8552306004860152336024860152604485015260648401525af18015611fdb57611fc6575b506001601954917f16540b30944d4a001747daed1f3b0be02461ddc7221558400f55bb848bf4fd79611fa263ffffffff851692604051918291858352604060208401526040830190612bd1565b0390a10163ffffffff8111611ad15763ffffffff169063ffffffff19161760195580f35b611fd39192505f90612aab565b5f905f611f55565b6040513d5f823e3d90fd5b611fff915060203d6020116105cf576105c08183612aab565b5f611f01565b015190505f80611e8f565b90601f19831691845f52815f20925f5b8181106120635750926001928592611eb9999896600498961061204b575b505050811b019055611ea3565b01515f1960f88460031b161c191690555f808061203e565b92936020600181928786015181550195019301612020565b835f5260205f20601f840160051c810191602085106120b6575b601f0160051c01905b8181106120ab5750611e6d565b5f815560010161209e565b9091508190612095565b634e487b7160e01b5f52604160045260245ffd5b634e487b7160e01b5f525f60045260245ffd5b60405162461bcd60e51b815260206004820152601860248201527f436c61696d20686173206265656e207375626d697474656400000000000000006044820152606490fd5b61213581612ba1565b50546001600160a01b0316331461214f575b600101611d8b565b60019150612147565b60405162461bcd60e51b815260206004820152601960248201527f4661696c656420746f207061792073746f7261676520666565000000000000006044820152606490fd5b6121b6915060203d602011610d6d57610d5f8183612aab565b5f611d7f565b60405162461bcd60e51b815260206004820152601760248201527f4661696c656420746f2070617920636c61696d206665650000000000000000006044820152606490fd5b61221a915060203d602011610d6d57610d5f8183612aab565b5f611d2f565b60405162461bcd60e51b815260206004820152603860248201527f596f757220616c6c6f7765642062616c616e63652069736e277420656e6f756760448201527f6820746f20706179207468652073746f726167652066656500000000000000006064820152608490fd5b9150506020813d6020116122b8575b816122a760209383612aab565b81010312610514578390515f611ce3565b3d915061229a565b60405162461bcd60e51b815260206004820152603060248201527f596f75722062616c616e63652069736e277420656e6f75676820746f2070617960448201526f207468652073746f726167652066656560801b6064820152608490fd5b9150506020813d60201161234b575b8161233a60209383612aab565b81010312610514578390515f611cac565b3d915061232d565b9092506020813d60201161237f575b8161236f60209383612aab565b810103126105145751915f611c80565b3d9150612362565b60405162461bcd60e51b815260206004820152603660248201527f596f757220616c6c6f7765642062616c616e63652069736e277420656e6f75676044820152756820746f207061792074686520636c61696d2066656560501b6064820152608490fd5b9150506020813d602011612418575b8161240760209383612aab565b81010312610514578190515f611c54565b3d91506123fa565b60405162461bcd60e51b815260206004820152602e60248201527f596f75722062616c616e63652069736e277420656e6f75676820746f2070617960448201526d2074686520636c61696d2066656560901b6064820152608490fd5b90506020813d6020116124a6575b8161249760209383612aab565b8101031261051457515f611c18565b3d915061248a565b6124c7915060203d6020116105cf576105c08183612aab565b5f611be0565b60405162461bcd60e51b815260206004820152601760248201527f596f7520646f6e2774206861766520706f6c69636965730000000000000000006044820152606490fd5b34610514575f366003190112610514576020600254604051908152f35b346105145761253d36612b6d565b600554604051633998fdd360e01b815291906001600160a01b0316602083600481845afa908115611fdb576125896020926004955f916127b9575b506001600160a01b03163314612c38565b604051634e575d4b60e01b815293849182905afa918215611fdb575f92612798575b50608081019160016125ec6125bf85612c9a565b946125e760408601359660046125d489612ba1565b50019060ff801983541691151516179055565b612c9a565b15150361273a576040516370a0823160e01b81523060048201526001600160a01b03919091169190602081602481865afa908115611fdb575f91612706575b5061268a92612647610c26602093610c206001610c148a612ba1565b9061265186612ba1565b505460405163a9059cbb60e01b81526001600160a01b0390911660048201526024810192909252909384919082905f9082906044820190565b03925af1908115611fdb577f2f45553926686d2a9ec600d35f1be18eca3b5bd14fa37dbfa886a92c6fe4353d926126e4926126e9575b506126d860016126cf86612ba1565b50015430612dfb565b60405191829182612ca7565b0390a2005b6127019060203d602011610d6d57610d5f8183612aab565b6126c0565b90506020813d602011612732575b8161272160209383612aab565b81010312610514575161268a61262b565b3d9150612714565b5061274960016126cf84612ba1565b80356001600160a01b0381168103610514577f229be430f7d9e5e210ad1203cf877ccb11cc2352f89daddc654b7d433a5b0962916126d86126e492600161278f87612ba1565b50015490612e92565b6127b291925060203d6020116105cf576105c08183612aab565b90826125ab565b6127d09150843d86116105cf576105c08183612aab565b86612578565b34610514575f366003190112610514576040515f600d546127f681612a57565b808452906001811690811561287c575060011461281e575b61024a8361023681850382612aab565b600d5f9081527fd7b6990105719101dabeb77144f2a3385c8033acd3af97e9423a695e81ad1eb5939250905b8082106128625750909150810160200161023661280e565b91926001816020925483858801015201910190929161284a565b60ff191660208086019190915291151560051b84019091019150610236905061280e565b34610514576040366003190112610514576128b9612a2b565b602435903315612935576001600160a01b031690811561292257335f52600160205260405f20825f526020528060405f20556040519081527f8c5be1e5ebec7d5bd14f71427d1e84f3dd0314c0f7b2291e5b200ac8c7c3b92560203392a3602060405160018152f35b634a1406b160e11b5f525f60045260245ffd5b63e602df0560e01b5f525f60045260245ffd5b34610514575f366003190112610514576040515f60035461296881612a57565b808452906001811690811561287c575060011461298f5761024a8361023681850382612aab565b60035f9081527fc2575a0e9e593c00f959f8c92f12db2869c3395a3b0502d05e2516446f71f85b939250905b8082106129d35750909150810160200161023661280e565b9192600181602092548385880101520191019092916129bb565b34610514575f366003190112610514576020906007548152f35b805180835260209291819084018484015e5f828201840152601f01601f1916010190565b600435906001600160a01b038216820361051457565b602435906001600160a01b038216820361051457565b90600182811c92168015612a85575b6020831014612a7157565b634e487b7160e01b5f52602260045260245ffd5b91607f1691612a66565b60a0810190811067ffffffffffffffff8211176120c057604052565b90601f8019910116810190811067ffffffffffffffff8211176120c057604052565b9060405191825f825492612ae084612a57565b8084529360018116908115612b4b5750600114612b07575b50612b0592500383612aab565b565b90505f9291925260205f20905f915b818310612b2f575050906020612b05928201015f612af8565b6020919350806001915483858901015201910190918492612b16565b905060209250612b0594915060ff191682840152151560051b8201015f612af8565b6020600319820112610514576004359067ffffffffffffffff82116105145760a09082900360031901126105145760040190565b601a54811015612bbd57601a5f52600560205f20910201905f90565b634e487b7160e01b5f52603260045260245ffd5b9060018060a01b0382511681526020820151602082015260408201516040820152608080612c0e606085015160a0606086015260a0850190612a07565b930151151591015290565b9081602091031261051457516001600160a01b03811681036105145790565b15612c3f57565b60405162461bcd60e51b815260206004820152602d60248201527f4f6e6c792073657276696365206d616e616765722063616e20696e766f6b652060448201526c3a3434b990333ab731ba34b7b760991b6064820152608490fd5b3580151581036105145790565b6020815281356001600160a01b0381169081900361051457602082015260208201356040820152604082013560608201526060820135601e1983360301811215610514578201916020833593019067ffffffffffffffff8411610514578336038213610514578360809260a0848601528160c086015260e08501375f60e085850101520135918215158093036105145760e09260a0830152601f8019910116010190565b81810292918115918404141715611abd57565b8115612d68570490565b634e487b7160e01b5f52601260045260245ffd5b90816020910312610514575180151581036105145790565b15612d9b57565b60405162461bcd60e51b815260206004820152602560248201527f4f6e6c7920696e73757265722063616e20696e766f6b6520746869732066756e60448201526431ba34b7b760d91b6064820152608490fd5b91908201809211611abd57565b9091906001600160a01b03168015612e7f57805f525f60205260405f2054838110612e65576020845f94957fddf252ad1be2c89b69c2b068fc378daa952ba7f163c4a11628f55a4df523b3ef938587528684520360408620558060025403600255604051908152a3565b915063391434e360e21b5f5260045260245260445260645ffd5b634b637e8f60e11b5f525f60045260245ffd5b6001600160a01b0316908115612eef577fddf252ad1be2c89b69c2b068fc378daa952ba7f163c4a11628f55a4df523b3ef602082612ed35f94600254612dee565b60025584845283825260408420818154019055604051908152a3565b63ec442f0560e01b5f525f60045260245ffd5b6001600160a01b0316908115612e7f576001600160a01b0316918215612eef57815f525f60205260405f2054818110612f8057817fddf252ad1be2c89b69c2b068fc378daa952ba7f163c4a11628f55a4df523b3ef92602092855f525f84520360405f2055845f525f825260405f20818154019055604051908152a3565b8263391434e360e21b5f5260045260245260445260645ffd5b600554604051627ebb0f60e51b815290602090829060049082906001600160a01b03165afa908115611fdb575f91613224575b506040516323b872dd60e01b81523360048201523060248201526044810183905290602090829060649082905f906001600160a01b03165af18015611fdb57613207575b5061301a81613243565b6002546131f85761302b9030612e92565b600554604051627ebb0f60e51b8152906001600160a01b0316602082600481845afa918215611fdb575f926131d3575b50602060049160405192838092634e575d4b60e01b82525afa908115611fdb575f916131b4575b5060405163095ea7b360e01b81526001600160a01b038281166004830152602482018590529092602091849160449183915f91165af1908115611fdb575f92602092613199575b50604051636e553f6560e01b81526004810185905230602482015292839160449183916001600160a01b03165af18015611fdb5761316a575b507f227a473b70d2f893cc7659219575c030a63b5743024fe1e0c1a680e708b1525a6020604051838152a161313981600654612dee565b6006556040519081527fe1fffcc4923d04b559f4d29a8bfc6cda04eb5b0d3c460751c2402c5c5cc9109c60203392a2565b6020813d602011613191575b8161318360209383612aab565b810103126105145751613102565b3d9150613176565b6131af90833d8511610d6d57610d5f8183612aab565b6130c9565b6131cd915060203d6020116105cf576105c08183612aab565b5f613082565b60049192506131f0602091823d84116105cf576105c08183612aab565b92915061305b565b6132029033612e92565b61302b565b61321f9060203d602011610d6d57610d5f8183612aab565b613010565b61323d915060203d6020116105cf576105c08183612aab565b5f612fcc565b60025460018101809111611abd576006549060018201809211611abd5761326b82828561327d565b61327a93505f92509050612dee565b90565b91818302915f198185099383808610950394808603951461330d57848311156132f55790829109815f0382168092046002816003021880820260020302808202600203028082026002030280820260020302808202600203028091026002030293600183805f03040190848311900302920304170290565b82634e487b715f52156003026011186020526024601cfd5b50509061327a9250612d5e56fea264697066735822122018d4e02454ff5cb5298cf2b5704f2bb15258ec6348264e9c2b046d773bad600364736f6c634300081c0033a26469706673582212203c92e0eaf0cb7eae19f12e8b3af59b625db27dd8414bceb4db09aba1b7241bfc64736f6c634300081c0033000000000000000000000000c83af6561ad7b6f395b0d827f950308bdaeff6b30000000000000000000000001cef01bb6844254eea3701f026d6e873007711ce0000000000000000000000007e3c9076431d2ea36af5fc917a2edad1c8ebcab20000000000000000000000000000000000000000000000000000000000000005000000000000000000000000000000000000000000000000000000000000000a",
        "nonce": "0x71f",
        "chainId": "0x66eee"
      },
      "additionalContracts": [],
      "isFixedGasLimit": false
    },
    {
      "hash": "0xdc6c27af1da1789f7a1f8b6213669abaa91d44160b2092de152d1a3e1c0bd135",
      "transactionType": "CALL",
      "contractName": null,
      "contractAddress": "0x7e3c9076431d2ea36af5fc917a2edad1c8ebcab2",
      "function": "initialize(address,string)",
      "arguments": [
        "0xBeeF7A71CC53eb15A9e36032771a49B315d6e225",
        "04fb611087908d883d10d1b9633a7301b734eb693888b006a543a04429c6430d829bb4d6dd6eda0e2361ff153c398388f4fc2b7a6b640f6dcb083e763b6be1a568"
      ],
      "transaction": {
        "from": "0x34728af7d0fc03cbbdff82b6d52aeda8c999e2b2",
        "to": "0x7e3c9076431d2ea36af5fc917a2edad1c8ebcab2",
        "gas": "0x12af3",
        "value": "0x0",
        "input": "0xf399e22e000000000000000000000000beef7a71cc53eb15a9e36032771a49b315d6e2250000000000000000000000000000000000000000000000000000000000000040000000000000000000000000000000000000000000000000000000000000008230346662363131303837393038643838336431306431623936333361373330316237333465623639333838386230303661353433613034343239633634333064383239626234643664643665646130653233363166663135336333393833383866346663326237613662363430663664636230383365373633623662653161353638000000000000000000000000000000000000000000000000000000000000",
        "nonce": "0x720",
        "chainId": "0x66eee"
      },
      "additionalContracts": [],
      "isFixedGasLimit": false
    },
    {
      "hash": "0x04caf90a22eb889aa643ffacd65080ecf3b6dd3392160711a4360b68beb07a43",
      "transactionType": "CALL",
      "contractName": "InsuranceFactory",
      "contractAddress": "0xbeef7a71cc53eb15a9e36032771a49b315d6e225",
      "function": "createInsurancePool(string,string,string,string,string,string,string,string,string,string,uint256,uint256,uint256,uint256,uint256,uint256)",
      "arguments": [
        "USDT Price Stability Insurance",
        "USDTI",
        "http://res.cloudinary.com/renakaagusta/raw/upload/v1732642263/usdt.md",
        "https://res.cloudinary.com/renakaagusta/raw/upload/v1732642264/indodax.json",
        "curl -X GET \\'https://api.coingecko.com/api/v3/simple/price?ids=tether&vs_currencies=usd\\' --header \\'content-type: application/json\\'",
        "04278d1a2ff5452c89e714699a77f81627a9a5875104c0809cf9e0f6dacf5a2c0dd840586a64cfa89b2d104107b5cfd8569f965e6f75cc4eac59955f28d7f1cc70570e667caf233e4eacbc8ebf952fa581e53dae7153515992c681d9df58acfb42",
        "04fab08cf72b5eac277e68f04b45e288d2ee68c4f1696e442e8c03ec7274c7d9da83c0dc614b840e518a4d4fd255a7ee8c9cdb04ceba84eea621ac41265c5a5ac80eacdfe3dd294d813774c1a1ccaedf95e967cbaf554b6c577555e4f64fbd265d4dbf5365c722956afe93d7ad66ca2a87090ddc38e504d6388e6a919b347d2655588e6a11231d2406ddce",
        "04927edf4654b8f312250ff8fd6c03cc4fbfdcbfc2d5a27985942bf3921131fac7073d4e9ad43a5c679c3f172e487405aa149b04a6ed907bbbcd33ed2d60cb46720e027bdf21c27ec15469e5f63b1228a75fa641a55b5bcb3feb37dfa050fa987a14c27dca48b92eea19181c325e76d9d3f751018e8743c45fa66fea07f5f0151aab335a14fe29a7ecc2a28c01910fbe5f541ce1f3a1eb4625fbcd824a35503a4d002b",
        "\\\\{\\\"tether\\\":\\\\{\\\"usd\\\":(?<price>[\\\\d.]+)\\\\}\\\\}",
        "^(?:0\\\\.(?:9[5-9]|9\\\\d)|1\\\\.(?:0[0-5]|00))$",
        "4000000000",
        "4",
        "1732988800",
        "1734716800",
        "1734284800",
        "2000000000000000000"
      ],
      "transaction": {
        "from": "0x34728af7d0fc03cbbdff82b6d52aeda8c999e2b2",
        "to": "0xbeef7a71cc53eb15a9e36032771a49b315d6e225",
        "gas": "0x11235",
        "value": "0x0",
        "input": "0x507817bb000000000000000000000000000000000000000000000000000000000000020000000000000000000000000000000000000000000000000000000000000002400000000000000000000000000000000000000000000000000000000000000280000000000000000000000000000000000000000000000000000000000000030000000000000000000000000000000000000000000000000000000000000003800000000000000000000000000000000000000000000000000000000000000440000000000000000000000000000000000000000000000000000000000000054000000000000000000000000000000000000000000000000000000000000006800000000000000000000000000000000000000000000000000000000000000800000000000000000000000000000000000000000000000000000000000000086000000000000000000000000000000000000000000000000000000000ee6b2800000000000000000000000000000000000000000000000000000000000000000400000000000000000000000000000000000000000000000000000000674b4f80000000000000000000000000000000000000000000000000000000006765ad8000000000000000000000000000000000000000000000000000000000675f16000000000000000000000000000000000000000000000000001bc16d674ec80000000000000000000000000000000000000000000000000000000000000000001e555344542050726963652053746162696c69747920496e737572616e63650000000000000000000000000000000000000000000000000000000000000000000555534454490000000000000000000000000000000000000000000000000000000000000000000000000000000000000000000000000000000000000000000045687474703a2f2f7265732e636c6f7564696e6172792e636f6d2f72656e616b616167757374612f7261772f75706c6f61642f76313733323634323236332f757364742e6d64000000000000000000000000000000000000000000000000000000000000000000000000000000000000000000000000000000000000000000004b68747470733a2f2f7265732e636c6f7564696e6172792e636f6d2f72656e616b616167757374612f7261772f75706c6f61642f76313733323634323236342f696e646f6461782e6a736f6e00000000000000000000000000000000000000000000000000000000000000000000000000000000000000000000000000000000826375726c202d5820474554202768747470733a2f2f6170692e636f696e6765636b6f2e636f6d2f6170692f76332f73696d706c652f70726963653f6964733d7465746865722676735f63757272656e636965733d75736427202d2d6865616465722027636f6e74656e742d747970653a206170706c69636174696f6e2f6a736f6e2700000000000000000000000000000000000000000000000000000000000000000000000000000000000000000000000000000000000000000000000000c23034323738643161326666353435326338396537313436393961373766383136323761396135383735313034633038303963663965306636646163663561326330646438343035383661363463666138396232643130343130376235636664383536396639363565366637356363346561633539393535663238643766316363373035373065363637636166323333653465616362633865626639353266613538316535336461653731353335313539393263363831643964663538616366623432000000000000000000000000000000000000000000000000000000000000000000000000000000000000000000000000000000000000000000000000011630346661623038636637326235656163323737653638663034623435653238386432656536386334663136393665343432653863303365633732373463376439646138336330646336313462383430653531386134643466643235356137656538633963646230346365626138346565613632316163343132363563356135616338306561636466653364643239346438313337373463316131636361656466393565393637636261663535346236633537373535356534663634666264323635643464626635333635633732323935366166653933643761643636636132613837303930646463333865353034643633383865366139313962333437643236353535383865366131313233316432343036646463650000000000000000000000000000000000000000000000000000000000000000000000000000000001463034393237656466343635346238663331323235306666386664366330336363346662666463626663326435613237393835393432626633393231313331666163373037336434653961643433613563363739633366313732653438373430356161313439623034613665643930376262626364333365643264363063623436373230653032376264663231633237656331353436396535663633623132323861373566613634316135356235626362336665623337646661303530666139383761313463323764636134386239326565613139313831633332356537366439643366373531303138653837343363343566613636666561303766356630313531616162333335613134666532396137656363326132386330313931306662653566353431636531663361316562343632356662636438323461333535303361346430303262000000000000000000000000000000000000000000000000000000000000000000000000000000000000000000000000000000000000000000275c7b22746574686572223a5c7b22757364223a283f3c70726963653e5b5c642e5d2b295c7d5c7d0000000000000000000000000000000000000000000000000000000000000000000000000000000000000000000000000000000000000000285e283f3a305c2e283f3a395b352d395d7c395c64297c315c2e283f3a305b302d355d7c3030292924000000000000000000000000000000000000000000000000",
        "nonce": "0x721",
        "chainId": "0x66eee"
      },
      "additionalContracts": [],
      "isFixedGasLimit": false
    },
    {
      "hash": "0x448f4b9ee2dbff15caeae5ece96d2608ddc0b6886d728b986bd8fbda09ca8d44",
      "transactionType": "CALL",
      "contractName": null,
      "contractAddress": "0xc83af6561ad7b6f395b0d827f950308bdaeff6b3",
      "function": "approve(address,uint256)",
      "arguments": [
        "0xa1111562Cfddc33ADFeC9608567620afc01e1E9e",
        "8000000000000000000"
      ],
      "transaction": {
        "from": "0x34728af7d0fc03cbbdff82b6d52aeda8c999e2b2",
        "to": "0xc83af6561ad7b6f395b0d827f950308bdaeff6b3",
        "gas": "0xf2ec",
        "value": "0x0",
        "input": "0x095ea7b3000000000000000000000000a1111562cfddc33adfec9608567620afc01e1e9e0000000000000000000000000000000000000000000000006f05b59d3b200000",
        "nonce": "0x722",
        "chainId": "0x66eee"
      },
      "additionalContracts": [],
      "isFixedGasLimit": false
    },
    {
      "hash": "0x492b2232f29635914e160ec4372552b0ca71d812e773ab968c016810170bdb13",
      "transactionType": "CALL",
      "contractName": "InsurancePool",
      "contractAddress": "0xa1111562cfddc33adfec9608567620afc01e1e9e",
      "function": "initialDeposit()",
      "arguments": [],
      "transaction": {
        "from": "0x34728af7d0fc03cbbdff82b6d52aeda8c999e2b2",
        "to": "0xa1111562cfddc33adfec9608567620afc01e1e9e",
        "gas": "0x71ea",
        "value": "0x0",
        "input": "0xe037f889",
        "nonce": "0x723",
        "chainId": "0x66eee"
      },
      "additionalContracts": [],
      "isFixedGasLimit": false
    },
    {
      "hash": "0x3713636624944c1781dc53757618d4eb26cf9af4bcd511b61e9bf285e89f2b50",
      "transactionType": "CALL",
      "contractName": null,
      "contractAddress": "0xc83af6561ad7b6f395b0d827f950308bdaeff6b3",
      "function": "approve(address,uint256)",
      "arguments": [
        "0xa1111562Cfddc33ADFeC9608567620afc01e1E9e",
        "2000000000000000000"
      ],
      "transaction": {
        "from": "0x94c83a5137751c4e6acc0cfdb09819b0b83582d1",
        "to": "0xc83af6561ad7b6f395b0d827f950308bdaeff6b3",
        "gas": "0xf2ec",
        "value": "0x0",
        "input": "0x095ea7b3000000000000000000000000a1111562cfddc33adfec9608567620afc01e1e9e0000000000000000000000000000000000000000000000001bc16d674ec80000",
        "nonce": "0x58",
        "chainId": "0x66eee"
      },
      "additionalContracts": [],
      "isFixedGasLimit": false
    },
    {
      "hash": "0x84f000bb61943779b67b315ea11f1dbe2806450b531a1f4c266c6855ad49ad47",
      "transactionType": "CALL",
      "contractName": "InsurancePool",
      "contractAddress": "0xa1111562cfddc33adfec9608567620afc01e1e9e",
      "function": "purchasePolicy(uint256,uint256,address)",
      "arguments": [
        "2000000000000000000",
        "2000000000000000000",
        "0x94c83a5137751C4E6acc0cFdB09819B0B83582D1"
      ],
      "transaction": {
        "from": "0x94c83a5137751c4e6acc0cfdb09819b0b83582d1",
        "to": "0xa1111562cfddc33adfec9608567620afc01e1e9e",
        "gas": "0x7951",
        "value": "0x0",
        "input": "0x6178e44c0000000000000000000000000000000000000000000000001bc16d674ec800000000000000000000000000000000000000000000000000001bc16d674ec8000000000000000000000000000094c83a5137751c4e6acc0cfdb09819b0b83582d1",
        "nonce": "0x59",
        "chainId": "0x66eee"
      },
      "additionalContracts": [],
      "isFixedGasLimit": false
    },
    {
      "hash": "0xfc008160807bf9f3c2416df273e2a7e5f4724bd9804e77d9d9415417a7ce468e",
      "transactionType": "CALL",
      "contractName": null,
      "contractAddress": "0xc83af6561ad7b6f395b0d827f950308bdaeff6b3",
      "function": "approve(address,uint256)",
      "arguments": [
        "0xa1111562Cfddc33ADFeC9608567620afc01e1E9e",
        "4000000005"
      ],
      "transaction": {
        "from": "0x94c83a5137751c4e6acc0cfdb09819b0b83582d1",
        "to": "0xc83af6561ad7b6f395b0d827f950308bdaeff6b3",
        "gas": "0xf2cc",
        "value": "0x0",
        "input": "0x095ea7b3000000000000000000000000a1111562cfddc33adfec9608567620afc01e1e9e00000000000000000000000000000000000000000000000000000000ee6b2805",
        "nonce": "0x5a",
        "chainId": "0x66eee"
      },
      "additionalContracts": [],
      "isFixedGasLimit": false
    },
    {
      "hash": "0x111b3c304c3c091ab9a1fb47e173c27f5dcd3996d6b2aa2eaf6c25362f722836",
      "transactionType": "CALL",
      "contractName": "InsurancePool",
      "contractAddress": "0xa1111562cfddc33adfec9608567620afc01e1e9e",
      "function": "submitClaim()",
      "arguments": [],
      "transaction": {
        "from": "0x94c83a5137751c4e6acc0cfdb09819b0b83582d1",
        "to": "0xa1111562cfddc33adfec9608567620afc01e1e9e",
        "gas": "0x71ea",
        "value": "0x0",
        "input": "0x1afbd128",
        "nonce": "0x5b",
        "chainId": "0x66eee"
      },
      "additionalContracts": [],
      "isFixedGasLimit": false
    }
  ],
  "receipts": [
    {
      "status": "0x1",
      "cumulativeGasUsed": "0x9174",
      "logs": [
        {
          "address": "0xc83af6561ad7b6f395b0d827f950308bdaeff6b3",
          "topics": [
            "0xddf252ad1be2c89b69c2b068fc378daa952ba7f163c4a11628f55a4df523b3ef",
            "0x0000000000000000000000000000000000000000000000000000000000000000",
            "0x00000000000000000000000034728af7d0fc03cbbdff82b6d52aeda8c999e2b2"
          ],
          "data": "0x00000000000000000000000000000000000000000000021e19e0c9bab2400000",
          "blockHash": "0x898ddb2182455ecd6ccad9e8c0e5643cc5e7b961fa6060e4b9cc06768aeeb87b",
          "blockNumber": "0x616d1b0",
          "transactionHash": "0x788937ad972f5738a19978f458a55b87a7f103808beb5d42ae031b48ec440a4d",
          "transactionIndex": "0x1",
          "logIndex": "0x0",
          "removed": false
        }
      ],
      "logsBloom": "0x00000000000000000000000000000000000000000000000000000000000000000000000000000000000000000000000000000000001000000000000000000000000000000000000040000008000000000000000000000000000000020000000004000000020000000000000000000800000000000000000000000010000000000000000000000000000000000000000000000800000000000000000000000000000000000000000000000000000000000000000000000000000000000000000000000002000000000000000000000000000000000000200000000000000020000000000000000000000000000000000000000000000000000000000000000000",
      "type": "0x2",
      "transactionHash": "0x788937ad972f5738a19978f458a55b87a7f103808beb5d42ae031b48ec440a4d",
      "transactionIndex": "0x1",
      "blockHash": "0x898ddb2182455ecd6ccad9e8c0e5643cc5e7b961fa6060e4b9cc06768aeeb87b",
      "blockNumber": "0x616d1b0",
      "gasUsed": "0x9174",
      "effectiveGasPrice": "0x5f5e100",
      "from": "0x34728af7d0fc03cbbdff82b6d52aeda8c999e2b2",
      "to": "0xc83af6561ad7b6f395b0d827f950308bdaeff6b3",
      "contractAddress": null,
      "gasUsedForL1": "0x48f",
      "l1BlockNumber": "0x6da12c"
    },
    {
      "status": "0x1",
      "cumulativeGasUsed": "0x1688f",
      "logs": [
        {
          "address": "0xc83af6561ad7b6f395b0d827f950308bdaeff6b3",
          "topics": [
            "0xddf252ad1be2c89b69c2b068fc378daa952ba7f163c4a11628f55a4df523b3ef",
            "0x0000000000000000000000000000000000000000000000000000000000000000",
            "0x00000000000000000000000094c83a5137751c4e6acc0cfdb09819b0b83582d1"
          ],
          "data": "0x00000000000000000000000000000000000000000000003635c9adc5dea00000",
          "blockHash": "0x61898aaed38afe9d562af84f910261d19659bbefaa4c89acf06aff1998f1451d",
          "blockNumber": "0x616d1be",
          "transactionHash": "0x53b53ab192aee17603a55423997ef0f0b1185cdc64a05b8908ec7d7cc61e20ff",
          "transactionIndex": "0x2",
          "logIndex": "0x1",
          "removed": false
        }
      ],
      "logsBloom": "0x00000000000000000000000000000000000000000000000000000000000020000000000000000000000000000000000000000000000000000000000000000000000000000000000000000008000000000000000000000000000000020000000004000000020000000000000000000800000000000000000000000010000000000000000000000000000000000000000000000800000000000000000000000000000000000000000000000000000000000000000000000000000000000000000000000002000000000000000000000000000000000000000000000000000020000002000000000000000000000000000000000000000000000010000000000000",
      "type": "0x2",
      "transactionHash": "0x53b53ab192aee17603a55423997ef0f0b1185cdc64a05b8908ec7d7cc61e20ff",
      "transactionIndex": "0x2",
      "blockHash": "0x61898aaed38afe9d562af84f910261d19659bbefaa4c89acf06aff1998f1451d",
      "blockNumber": "0x616d1be",
      "gasUsed": "0x9168",
      "effectiveGasPrice": "0x5f5e100",
      "from": "0x34728af7d0fc03cbbdff82b6d52aeda8c999e2b2",
      "to": "0xc83af6561ad7b6f395b0d827f950308bdaeff6b3",
      "contractAddress": null,
      "gasUsedForL1": "0x48f",
      "l1BlockNumber": "0x6da12c"
    },
    {
      "status": "0x1",
      "cumulativeGasUsed": "0xb808",
      "logs": [
        {
          "address": "0xc83af6561ad7b6f395b0d827f950308bdaeff6b3",
          "topics": [
            "0x8c5be1e5ebec7d5bd14f71427d1e84f3dd0314c0f7b2291e5b200ac8c7c3b925",
            "0x00000000000000000000000034728af7d0fc03cbbdff82b6d52aeda8c999e2b2",
            "0x0000000000000000000000001cef01bb6844254eea3701f026d6e873007711ce"
          ],
          "data": "0x0000000000000000000000000000000000000000000000008ac7230489e80000",
          "blockHash": "0xf12985115eb450c16e8ba733196dcce227f84857e82931d32f3bee6d356bf124",
          "blockNumber": "0x616d1cd",
          "transactionHash": "0x6ff558eb1b247e6a12499123777ee3c2fbccbf55e3523bce5b217b4c38408d47",
          "transactionIndex": "0x1",
          "logIndex": "0x0",
          "removed": false
        }
      ],
      "logsBloom": "0x00000000000000000000000000000000010000000000000000000000000000000000000000000000000000000000000000000000001000000000000000200000000000000000000040000000000000000000000000000000000000020000000004000000000000000000000000000000000000000000000000000000000000000000000000000000000000000000000000000800000000000000000000000000020000000000000000000000000000000000000000000000000000000000010000000000000000000000000000000000000000000000200000000000000000000010000000000000000000000000000100000000000000000000000000000000",
      "type": "0x2",
      "transactionHash": "0x6ff558eb1b247e6a12499123777ee3c2fbccbf55e3523bce5b217b4c38408d47",
      "transactionIndex": "0x1",
      "blockHash": "0xf12985115eb450c16e8ba733196dcce227f84857e82931d32f3bee6d356bf124",
      "blockNumber": "0x616d1cd",
      "gasUsed": "0xb808",
      "effectiveGasPrice": "0x5f5e100",
      "from": "0x34728af7d0fc03cbbdff82b6d52aeda8c999e2b2",
      "to": "0xc83af6561ad7b6f395b0d827f950308bdaeff6b3",
      "contractAddress": null,
      "gasUsedForL1": "0x48f",
      "l1BlockNumber": "0x6da12c"
    },
    {
      "status": "0x1",
      "cumulativeGasUsed": "0xe70a",
      "logs": [
        {
          "address": "0xc83af6561ad7b6f395b0d827f950308bdaeff6b3",
          "topics": [
            "0xddf252ad1be2c89b69c2b068fc378daa952ba7f163c4a11628f55a4df523b3ef",
            "0x00000000000000000000000034728af7d0fc03cbbdff82b6d52aeda8c999e2b2",
            "0x0000000000000000000000001cef01bb6844254eea3701f026d6e873007711ce"
          ],
          "data": "0x0000000000000000000000000000000000000000000000008ac7230489e80000",
          "blockHash": "0x9405695c10243a13aab3a1f05982268f728c349765bcde1982d8410a08a8ca2a",
          "blockNumber": "0x616d1d4",
          "transactionHash": "0xfed0b50389ee8529c2828f167846f4624aba7062a0c8e6c56f93f668dc0c1880",
          "transactionIndex": "0x1",
          "logIndex": "0x0",
          "removed": false
        },
        {
          "address": "0x1cef01bb6844254eea3701f026d6e873007711ce",
          "topics": [
            "0xddf252ad1be2c89b69c2b068fc378daa952ba7f163c4a11628f55a4df523b3ef",
            "0x0000000000000000000000000000000000000000000000000000000000000000",
            "0x00000000000000000000000034728af7d0fc03cbbdff82b6d52aeda8c999e2b2"
          ],
          "data": "0x0000000000000000000000000000000000000000000000008ac7230489e80000",
          "blockHash": "0x9405695c10243a13aab3a1f05982268f728c349765bcde1982d8410a08a8ca2a",
          "blockNumber": "0x616d1d4",
          "transactionHash": "0xfed0b50389ee8529c2828f167846f4624aba7062a0c8e6c56f93f668dc0c1880",
          "transactionIndex": "0x1",
          "logIndex": "0x1",
          "removed": false
        },
        {
          "address": "0x1cef01bb6844254eea3701f026d6e873007711ce",
          "topics": [
            "0xdcbc1c05240f31ff3ad067ef1ee35ce4997762752e3a095284754544f4c709d7",
            "0x00000000000000000000000034728af7d0fc03cbbdff82b6d52aeda8c999e2b2",
            "0x00000000000000000000000034728af7d0fc03cbbdff82b6d52aeda8c999e2b2"
          ],
          "data": "0x0000000000000000000000000000000000000000000000008ac7230489e800000000000000000000000000000000000000000000000000008ac7230489e80000",
          "blockHash": "0x9405695c10243a13aab3a1f05982268f728c349765bcde1982d8410a08a8ca2a",
          "blockNumber": "0x616d1d4",
          "transactionHash": "0xfed0b50389ee8529c2828f167846f4624aba7062a0c8e6c56f93f668dc0c1880",
          "transactionIndex": "0x1",
          "logIndex": "0x2",
          "removed": false
        }
      ],
      "logsBloom": "0x00000000000000000000000000000000010000000000000000000000000000000000000000000000000000000000001000000000001000000000000000000000000000400000000040000008000000000000000000000000000000020000000004000000020000000000000000000800000000000004000000000010000000000000000000000000000000000000000000000800000000000000000000000000004000000000000000000000000000000000000000000000000000000000010000000002000000000000000000000000000000000008280000000000000020000000000000000000000000000000000100000000000000000000000000000000",
      "type": "0x2",
      "transactionHash": "0xfed0b50389ee8529c2828f167846f4624aba7062a0c8e6c56f93f668dc0c1880",
      "transactionIndex": "0x1",
      "blockHash": "0x9405695c10243a13aab3a1f05982268f728c349765bcde1982d8410a08a8ca2a",
      "blockNumber": "0x616d1d4",
      "gasUsed": "0xe70a",
      "effectiveGasPrice": "0x5f5e100",
      "from": "0x34728af7d0fc03cbbdff82b6d52aeda8c999e2b2",
      "to": "0x1cef01bb6844254eea3701f026d6e873007711ce",
      "contractAddress": null,
      "gasUsedForL1": "0x495",
      "l1BlockNumber": "0x6da12c"
    },
    {
      "status": "0x1",
      "cumulativeGasUsed": "0x46f1bb",
      "logs": [],
      "logsBloom": "0x00000000000000000000000000000000000000000000000000000000000000000000000000000000000000000000000000000000000000000000000000000000000000000000000000000000000000000000000000000000000000000000000000000000000000000000000000000000000000000000000000000000000000000000000000000000000000000000000000000000000000000000000000000000000000000000000000000000000000000000000000000000000000000000000000000000000000000000000000000000000000000000000000000000000000000000000000000000000000000000000000000000000000000000000000000000",
      "type": "0x2",
      "transactionHash": "0xf4aa1cd971ed3277d65cbdb4c2ab5978cdc2e3c9f25d55f0bb97130af3afe080",
      "transactionIndex": "0x1",
      "blockHash": "0x201b85df8c2ac80405f235fe4d6a2111663415b2378e698a98338d903faad4e4",
      "blockNumber": "0x616d1e0",
      "gasUsed": "0x46f1bb",
      "effectiveGasPrice": "0x5f5e100",
      "from": "0x34728af7d0fc03cbbdff82b6d52aeda8c999e2b2",
      "to": null,
      "contractAddress": "0xbeef7a71cc53eb15a9e36032771a49b315d6e225",
      "gasUsedForL1": "0xfa8c",
      "l1BlockNumber": "0x6da12d"
    },
    {
      "status": "0x1",
      "cumulativeGasUsed": "0xe0f4",
      "logs": [
        {
          "address": "0x7e3c9076431d2ea36af5fc917a2edad1c8ebcab2",
          "topics": [
            "0xe67ddf372291fd94b39c4645817076a797a73cfdfbbf169187f7e5c374dfaeb0"
          ],
          "data": "0x000000000000000000000000beef7a71cc53eb15a9e36032771a49b315d6e2250000000000000000000000000000000000000000000000000000000000000040000000000000000000000000000000000000000000000000000000000000008230346662363131303837393038643838336431306431623936333361373330316237333465623639333838386230303661353433613034343239633634333064383239626234643664643665646130653233363166663135336333393833383866346663326237613662363430663664636230383365373633623662653161353638000000000000000000000000000000000000000000000000000000000000",
          "blockHash": "0xf3e4d978e8f790bbbf3ac5ae02bb9ddf72210b222a954f71bf6803350c07bbf2",
          "blockNumber": "0x616d1ea",
          "transactionHash": "0xdc6c27af1da1789f7a1f8b6213669abaa91d44160b2092de152d1a3e1c0bd135",
          "transactionIndex": "0x1",
          "logIndex": "0x0",
          "removed": false
        }
      ],
      "logsBloom": "0x00000000000000000000000000000000000100000000000000000000000000000000800000000000000000000000000000000000000000000000002000000000000000000000000000000000000000000000000000000000000000000000000000000000000000000000000000000000000000000000000000000000000000000000000000000000000000000000000000000000000000000000000000000000000000000000000000002000000000000000000000000000000000000000000000000000000000000000000000000000000000000000000000000000000000000000000000000000000000000000000000000000000400000000000000000008",
      "type": "0x2",
      "transactionHash": "0xdc6c27af1da1789f7a1f8b6213669abaa91d44160b2092de152d1a3e1c0bd135",
      "transactionIndex": "0x1",
      "blockHash": "0xf3e4d978e8f790bbbf3ac5ae02bb9ddf72210b222a954f71bf6803350c07bbf2",
      "blockNumber": "0x616d1ea",
      "gasUsed": "0xe0f4",
      "effectiveGasPrice": "0x5f5e100",
      "from": "0x34728af7d0fc03cbbdff82b6d52aeda8c999e2b2",
      "to": "0x7e3c9076431d2ea36af5fc917a2edad1c8ebcab2",
      "contractAddress": null,
      "gasUsedForL1": "0x8be",
      "l1BlockNumber": "0x6da12d"
    },
    {
      "status": "0x1",
      "cumulativeGasUsed": "0x400896",
      "logs": [
        {
          "address": "0xbeef7a71cc53eb15a9e36032771a49b315d6e225",
          "topics": [
            "0xdb952deb284a7ca1809707c5a72df8b398c71835d54ca9755ffe994e8baa2aa1",
            "0x00000000000000000000000034728af7d0fc03cbbdff82b6d52aeda8c999e2b2",
            "0x000000000000000000000000a1111562cfddc33adfec9608567620afc01e1e9e"
          ],
          "data": "0x000000000000000000000000000000000000000000000000000000000000020000000000000000000000000000000000000000000000000000000000000002400000000000000000000000000000000000000000000000000000000000000280000000000000000000000000000000000000000000000000000000000000030000000000000000000000000000000000000000000000000000000000000003800000000000000000000000000000000000000000000000000000000000000440000000000000000000000000000000000000000000000000000000000000054000000000000000000000000000000000000000000000000000000000000006800000000000000000000000000000000000000000000000000000000000000800000000000000000000000000000000000000000000000000000000000000086000000000000000000000000000000000000000000000000000000000ee6b2800000000000000000000000000000000000000000000000000000000000000000400000000000000000000000000000000000000000000000000000000674b4f80000000000000000000000000000000000000000000000000000000006765ad8000000000000000000000000000000000000000000000000000000000675f16000000000000000000000000000000000000000000000000001bc16d674ec80000000000000000000000000000000000000000000000000000000000000000001e555344542050726963652053746162696c69747920496e737572616e63650000000000000000000000000000000000000000000000000000000000000000000555534454490000000000000000000000000000000000000000000000000000000000000000000000000000000000000000000000000000000000000000000045687474703a2f2f7265732e636c6f7564696e6172792e636f6d2f72656e616b616167757374612f7261772f75706c6f61642f76313733323634323236332f757364742e6d64000000000000000000000000000000000000000000000000000000000000000000000000000000000000000000000000000000000000000000004b68747470733a2f2f7265732e636c6f7564696e6172792e636f6d2f72656e616b616167757374612f7261772f75706c6f61642f76313733323634323236342f696e646f6461782e6a736f6e00000000000000000000000000000000000000000000000000000000000000000000000000000000000000000000000000000000826375726c202d5820474554202768747470733a2f2f6170692e636f696e6765636b6f2e636f6d2f6170692f76332f73696d706c652f70726963653f6964733d7465746865722676735f63757272656e636965733d75736427202d2d6865616465722027636f6e74656e742d747970653a206170706c69636174696f6e2f6a736f6e2700000000000000000000000000000000000000000000000000000000000000000000000000000000000000000000000000000000000000000000000000c23034323738643161326666353435326338396537313436393961373766383136323761396135383735313034633038303963663965306636646163663561326330646438343035383661363463666138396232643130343130376235636664383536396639363565366637356363346561633539393535663238643766316363373035373065363637636166323333653465616362633865626639353266613538316535336461653731353335313539393263363831643964663538616366623432000000000000000000000000000000000000000000000000000000000000000000000000000000000000000000000000000000000000000000000000011630346661623038636637326235656163323737653638663034623435653238386432656536386334663136393665343432653863303365633732373463376439646138336330646336313462383430653531386134643466643235356137656538633963646230346365626138346565613632316163343132363563356135616338306561636466653364643239346438313337373463316131636361656466393565393637636261663535346236633537373535356534663634666264323635643464626635333635633732323935366166653933643761643636636132613837303930646463333865353034643633383865366139313962333437643236353535383865366131313233316432343036646463650000000000000000000000000000000000000000000000000000000000000000000000000000000001463034393237656466343635346238663331323235306666386664366330336363346662666463626663326435613237393835393432626633393231313331666163373037336434653961643433613563363739633366313732653438373430356161313439623034613665643930376262626364333365643264363063623436373230653032376264663231633237656331353436396535663633623132323861373566613634316135356235626362336665623337646661303530666139383761313463323764636134386239326565613139313831633332356537366439643366373531303138653837343363343566613636666561303766356630313531616162333335613134666532396137656363326132386330313931306662653566353431636531663361316562343632356662636438323461333535303361346430303262000000000000000000000000000000000000000000000000000000000000000000000000000000000000000000000000000000000000000000275c7b22746574686572223a5c7b22757364223a283f3c70726963653e5b5c642e5d2b295c7d5c7d0000000000000000000000000000000000000000000000000000000000000000000000000000000000000000000000000000000000000000285e283f3a305c2e283f3a395b352d395d7c395c64297c315c2e283f3a305b302d355d7c3030292924000000000000000000000000000000000000000000000000",
          "blockHash": "0xbfd579d5395240c20d6f3f9b7d435016da9349a7bdd202fb460ae79b443f3843",
          "blockNumber": "0x616d1f2",
          "transactionHash": "0x04caf90a22eb889aa643ffacd65080ecf3b6dd3392160711a4360b68beb07a43",
          "transactionIndex": "0x1",
          "logIndex": "0x0",
          "removed": false
        }
      ],
      "logsBloom": "0x00000000000000000000000000020000000000000000000000000000000000000000000000000000000000000000000000008000001000000000000000000000000000000000000040000000000000000000000000000000000000000000000000000000000000000000000000000000000000000000000000000000000000000000000000000000000000000000000000000000000000000000000001000000000000000000000000000000000000000000000000000800000008000000000000000000000000000000000000000000004000000000208000000000000000000000000000000000000000000000400000008000000000000000000000000000",
      "type": "0x2",
      "transactionHash": "0x04caf90a22eb889aa643ffacd65080ecf3b6dd3392160711a4360b68beb07a43",
      "transactionIndex": "0x1",
      "blockHash": "0xbfd579d5395240c20d6f3f9b7d435016da9349a7bdd202fb460ae79b443f3843",
      "blockNumber": "0x616d1f2",
      "gasUsed": "0x400896",
      "effectiveGasPrice": "0x5f5e100",
      "from": "0x34728af7d0fc03cbbdff82b6d52aeda8c999e2b2",
      "to": "0xbeef7a71cc53eb15a9e36032771a49b315d6e225",
      "contractAddress": null,
      "gasUsedForL1": "0x1c3b",
      "l1BlockNumber": "0x6da12d"
    },
    {
      "status": "0x1",
      "cumulativeGasUsed": "0xb814",
      "logs": [
        {
          "address": "0xc83af6561ad7b6f395b0d827f950308bdaeff6b3",
          "topics": [
            "0x8c5be1e5ebec7d5bd14f71427d1e84f3dd0314c0f7b2291e5b200ac8c7c3b925",
            "0x00000000000000000000000034728af7d0fc03cbbdff82b6d52aeda8c999e2b2",
            "0x000000000000000000000000a1111562cfddc33adfec9608567620afc01e1e9e"
          ],
          "data": "0x0000000000000000000000000000000000000000000000006f05b59d3b200000",
          "blockHash": "0xe1a7f31438e4f444c90086e5ff5fc84db163f454effcc4f8d2c1e794f2eb12b3",
          "blockNumber": "0x616d1fb",
          "transactionHash": "0x448f4b9ee2dbff15caeae5ece96d2608ddc0b6886d728b986bd8fbda09ca8d44",
          "transactionIndex": "0x1",
          "logIndex": "0x0",
          "removed": false
        }
      ],
      "logsBloom": "0x00000000000000000000000000020000000000000000000000000000000000000000000000000000000000000000000000000000001000000000000000200000000000000000000040000000000000000000000000000000000000020000000004000000000000000000000000000000000000000000000000000000000000000000000000000000000000000000000000000800000000000000000001000000020000000000000000000000000000000000000000000000000000000000000000000000000000000000000000000000000000000000208000000000000000000010000000000000000000000000000000000000000000000000000000000000",
      "type": "0x2",
      "transactionHash": "0x448f4b9ee2dbff15caeae5ece96d2608ddc0b6886d728b986bd8fbda09ca8d44",
      "transactionIndex": "0x1",
      "blockHash": "0xe1a7f31438e4f444c90086e5ff5fc84db163f454effcc4f8d2c1e794f2eb12b3",
      "blockNumber": "0x616d1fb",
      "gasUsed": "0xb814",
      "effectiveGasPrice": "0x5f5e100",
      "from": "0x34728af7d0fc03cbbdff82b6d52aeda8c999e2b2",
      "to": "0xc83af6561ad7b6f395b0d827f950308bdaeff6b3",
      "contractAddress": null,
      "gasUsedForL1": "0x48f",
      "l1BlockNumber": "0x6da12d"
    },
    {
      "status": "0x1",
      "cumulativeGasUsed": "0x57d78",
      "logs": [
        {
          "address": "0xc83af6561ad7b6f395b0d827f950308bdaeff6b3",
          "topics": [
            "0xddf252ad1be2c89b69c2b068fc378daa952ba7f163c4a11628f55a4df523b3ef",
            "0x00000000000000000000000034728af7d0fc03cbbdff82b6d52aeda8c999e2b2",
            "0x000000000000000000000000a1111562cfddc33adfec9608567620afc01e1e9e"
          ],
          "data": "0x0000000000000000000000000000000000000000000000006f05b59d3b200000",
          "blockHash": "0x5100470d24e243b09cefc30ae9f54518c82be36779cc0d1424269019fc6b69e0",
          "blockNumber": "0x616d203",
          "transactionHash": "0x492b2232f29635914e160ec4372552b0ca71d812e773ab968c016810170bdb13",
          "transactionIndex": "0x2",
          "logIndex": "0x5",
          "removed": false
        },
        {
          "address": "0xa1111562cfddc33adfec9608567620afc01e1e9e",
          "topics": [
            "0xddf252ad1be2c89b69c2b068fc378daa952ba7f163c4a11628f55a4df523b3ef",
            "0x0000000000000000000000000000000000000000000000000000000000000000",
            "0x000000000000000000000000a1111562cfddc33adfec9608567620afc01e1e9e"
          ],
          "data": "0x0000000000000000000000000000000000000000000000006f05b59d3b200000",
          "blockHash": "0x5100470d24e243b09cefc30ae9f54518c82be36779cc0d1424269019fc6b69e0",
          "blockNumber": "0x616d203",
          "transactionHash": "0x492b2232f29635914e160ec4372552b0ca71d812e773ab968c016810170bdb13",
          "transactionIndex": "0x2",
          "logIndex": "0x6",
          "removed": false
        },
        {
          "address": "0xc83af6561ad7b6f395b0d827f950308bdaeff6b3",
          "topics": [
            "0x8c5be1e5ebec7d5bd14f71427d1e84f3dd0314c0f7b2291e5b200ac8c7c3b925",
            "0x000000000000000000000000a1111562cfddc33adfec9608567620afc01e1e9e",
            "0x0000000000000000000000001cef01bb6844254eea3701f026d6e873007711ce"
          ],
          "data": "0x0000000000000000000000000000000000000000000000006f05b59d3b200000",
          "blockHash": "0x5100470d24e243b09cefc30ae9f54518c82be36779cc0d1424269019fc6b69e0",
          "blockNumber": "0x616d203",
          "transactionHash": "0x492b2232f29635914e160ec4372552b0ca71d812e773ab968c016810170bdb13",
          "transactionIndex": "0x2",
          "logIndex": "0x7",
          "removed": false
        },
        {
          "address": "0xc83af6561ad7b6f395b0d827f950308bdaeff6b3",
          "topics": [
            "0xddf252ad1be2c89b69c2b068fc378daa952ba7f163c4a11628f55a4df523b3ef",
            "0x000000000000000000000000a1111562cfddc33adfec9608567620afc01e1e9e",
            "0x0000000000000000000000001cef01bb6844254eea3701f026d6e873007711ce"
          ],
          "data": "0x0000000000000000000000000000000000000000000000006f05b59d3b200000",
          "blockHash": "0x5100470d24e243b09cefc30ae9f54518c82be36779cc0d1424269019fc6b69e0",
          "blockNumber": "0x616d203",
          "transactionHash": "0x492b2232f29635914e160ec4372552b0ca71d812e773ab968c016810170bdb13",
          "transactionIndex": "0x2",
          "logIndex": "0x8",
          "removed": false
        },
        {
          "address": "0x1cef01bb6844254eea3701f026d6e873007711ce",
          "topics": [
            "0xddf252ad1be2c89b69c2b068fc378daa952ba7f163c4a11628f55a4df523b3ef",
            "0x0000000000000000000000000000000000000000000000000000000000000000",
            "0x000000000000000000000000a1111562cfddc33adfec9608567620afc01e1e9e"
          ],
          "data": "0x0000000000000000000000000000000000000000000000006f05b59d3b200000",
          "blockHash": "0x5100470d24e243b09cefc30ae9f54518c82be36779cc0d1424269019fc6b69e0",
          "blockNumber": "0x616d203",
          "transactionHash": "0x492b2232f29635914e160ec4372552b0ca71d812e773ab968c016810170bdb13",
          "transactionIndex": "0x2",
          "logIndex": "0x9",
          "removed": false
        },
        {
          "address": "0x1cef01bb6844254eea3701f026d6e873007711ce",
          "topics": [
            "0xdcbc1c05240f31ff3ad067ef1ee35ce4997762752e3a095284754544f4c709d7",
            "0x000000000000000000000000a1111562cfddc33adfec9608567620afc01e1e9e",
            "0x000000000000000000000000a1111562cfddc33adfec9608567620afc01e1e9e"
          ],
          "data": "0x0000000000000000000000000000000000000000000000006f05b59d3b2000000000000000000000000000000000000000000000000000006f05b59d3b200000",
          "blockHash": "0x5100470d24e243b09cefc30ae9f54518c82be36779cc0d1424269019fc6b69e0",
          "blockNumber": "0x616d203",
          "transactionHash": "0x492b2232f29635914e160ec4372552b0ca71d812e773ab968c016810170bdb13",
          "transactionIndex": "0x2",
          "logIndex": "0xa",
          "removed": false
        },
        {
          "address": "0xa1111562cfddc33adfec9608567620afc01e1e9e",
          "topics": [
            "0x227a473b70d2f893cc7659219575c030a63b5743024fe1e0c1a680e708b1525a"
          ],
          "data": "0x0000000000000000000000000000000000000000000000006f05b59d3b200000",
          "blockHash": "0x5100470d24e243b09cefc30ae9f54518c82be36779cc0d1424269019fc6b69e0",
          "blockNumber": "0x616d203",
          "transactionHash": "0x492b2232f29635914e160ec4372552b0ca71d812e773ab968c016810170bdb13",
          "transactionIndex": "0x2",
          "logIndex": "0xb",
          "removed": false
        },
        {
          "address": "0xa1111562cfddc33adfec9608567620afc01e1e9e",
          "topics": [
            "0xe1fffcc4923d04b559f4d29a8bfc6cda04eb5b0d3c460751c2402c5c5cc9109c",
            "0x00000000000000000000000034728af7d0fc03cbbdff82b6d52aeda8c999e2b2"
          ],
          "data": "0x0000000000000000000000000000000000000000000000006f05b59d3b200000",
          "blockHash": "0x5100470d24e243b09cefc30ae9f54518c82be36779cc0d1424269019fc6b69e0",
          "blockNumber": "0x616d203",
          "transactionHash": "0x492b2232f29635914e160ec4372552b0ca71d812e773ab968c016810170bdb13",
          "transactionIndex": "0x2",
          "logIndex": "0xc",
          "removed": false
        }
      ],
      "logsBloom": "0x00000000000000000000000000020000010000000040000000000000000000000000000000000000000000000000001000000000001000000000000000200000000000400010000040000008000000000000000000000000000000028000000004000000020000000000000000000800000000000004000000000010020000000000000000000000000000000000000000000801000000000000000001000000024000000000000000000000000001000000000000000000000000000000010000000002000000000000000000000000000000000008288000000000000020000010000000000000400000000000000100008000000000400000000000000000",
      "type": "0x2",
      "transactionHash": "0x492b2232f29635914e160ec4372552b0ca71d812e773ab968c016810170bdb13",
      "transactionIndex": "0x2",
      "blockHash": "0x5100470d24e243b09cefc30ae9f54518c82be36779cc0d1424269019fc6b69e0",
      "blockNumber": "0x616d203",
      "gasUsed": "0x321d9",
      "effectiveGasPrice": "0x5f5e100",
      "from": "0x34728af7d0fc03cbbdff82b6d52aeda8c999e2b2",
      "to": "0xa1111562cfddc33adfec9608567620afc01e1e9e",
      "contractAddress": null,
      "gasUsedForL1": "0x2f7",
      "l1BlockNumber": "0x6da12d"
    },
    {
      "status": "0x1",
      "cumulativeGasUsed": "0xb807",
      "logs": [
        {
          "address": "0xc83af6561ad7b6f395b0d827f950308bdaeff6b3",
          "topics": [
            "0x8c5be1e5ebec7d5bd14f71427d1e84f3dd0314c0f7b2291e5b200ac8c7c3b925",
            "0x00000000000000000000000094c83a5137751c4e6acc0cfdb09819b0b83582d1",
            "0x000000000000000000000000a1111562cfddc33adfec9608567620afc01e1e9e"
          ],
          "data": "0x0000000000000000000000000000000000000000000000001bc16d674ec80000",
          "blockHash": "0x980079dd1db91613ec12ed04966189727e14df5a721e27af548d21ae1915b3f7",
          "blockNumber": "0x616d20a",
          "transactionHash": "0x3713636624944c1781dc53757618d4eb26cf9af4bcd511b61e9bf285e89f2b50",
          "transactionIndex": "0x1",
          "logIndex": "0x0",
          "removed": false
        }
      ],
      "logsBloom": "0x00000000000000000000000000020000000000000000000000000000000020000000000000000000000000000000000000000000000000000000000000200000000000000000000000000000000000000000000000000000000000020000000004000000000000000000000000000000000000000000000000000000000000000000000000000000000000000000000000000800000000000000000001000000020000000000000000000000000000000000000000000000000000000000000000000000000000000000000000000000000000000000008000000000000000000012000000000000000000000000000000000000000000000010000000000000",
      "type": "0x2",
      "transactionHash": "0x3713636624944c1781dc53757618d4eb26cf9af4bcd511b61e9bf285e89f2b50",
      "transactionIndex": "0x1",
      "blockHash": "0x980079dd1db91613ec12ed04966189727e14df5a721e27af548d21ae1915b3f7",
      "blockNumber": "0x616d20a",
      "gasUsed": "0xb807",
      "effectiveGasPrice": "0x5f5e100",
      "from": "0x94c83a5137751c4e6acc0cfdb09819b0b83582d1",
      "to": "0xc83af6561ad7b6f395b0d827f950308bdaeff6b3",
      "contractAddress": null,
      "gasUsedForL1": "0x482",
      "l1BlockNumber": "0x6da12d"
    },
    {
      "status": "0x1",
      "cumulativeGasUsed": "0x55bf7",
      "logs": [
        {
          "address": "0xc83af6561ad7b6f395b0d827f950308bdaeff6b3",
          "topics": [
            "0xddf252ad1be2c89b69c2b068fc378daa952ba7f163c4a11628f55a4df523b3ef",
            "0x00000000000000000000000094c83a5137751c4e6acc0cfdb09819b0b83582d1",
            "0x000000000000000000000000a1111562cfddc33adfec9608567620afc01e1e9e"
          ],
          "data": "0x0000000000000000000000000000000000000000000000001bc16d674ec80000",
          "blockHash": "0xa3ca293894f5d256e4ce22645bfb4a25c83563ce851f6ed4f08ab403cdeb4af6",
          "blockNumber": "0x616d211",
          "transactionHash": "0x84f000bb61943779b67b315ea11f1dbe2806450b531a1f4c266c6855ad49ad47",
          "transactionIndex": "0x3",
          "logIndex": "0x3",
          "removed": false
        },
        {
          "address": "0xa1111562cfddc33adfec9608567620afc01e1e9e",
          "topics": [
            "0xddf252ad1be2c89b69c2b068fc378daa952ba7f163c4a11628f55a4df523b3ef",
            "0x0000000000000000000000000000000000000000000000000000000000000000",
            "0x00000000000000000000000094c83a5137751c4e6acc0cfdb09819b0b83582d1"
          ],
          "data": "0x0000000000000000000000000000000000000000000000001bc16d674ec80000",
          "blockHash": "0xa3ca293894f5d256e4ce22645bfb4a25c83563ce851f6ed4f08ab403cdeb4af6",
          "blockNumber": "0x616d211",
          "transactionHash": "0x84f000bb61943779b67b315ea11f1dbe2806450b531a1f4c266c6855ad49ad47",
          "transactionIndex": "0x3",
          "logIndex": "0x4",
          "removed": false
        },
        {
          "address": "0xc83af6561ad7b6f395b0d827f950308bdaeff6b3",
          "topics": [
            "0x8c5be1e5ebec7d5bd14f71427d1e84f3dd0314c0f7b2291e5b200ac8c7c3b925",
            "0x000000000000000000000000a1111562cfddc33adfec9608567620afc01e1e9e",
            "0x0000000000000000000000001cef01bb6844254eea3701f026d6e873007711ce"
          ],
          "data": "0x0000000000000000000000000000000000000000000000001bc16d674ec80000",
          "blockHash": "0xa3ca293894f5d256e4ce22645bfb4a25c83563ce851f6ed4f08ab403cdeb4af6",
          "blockNumber": "0x616d211",
          "transactionHash": "0x84f000bb61943779b67b315ea11f1dbe2806450b531a1f4c266c6855ad49ad47",
          "transactionIndex": "0x3",
          "logIndex": "0x5",
          "removed": false
        },
        {
          "address": "0xc83af6561ad7b6f395b0d827f950308bdaeff6b3",
          "topics": [
            "0xddf252ad1be2c89b69c2b068fc378daa952ba7f163c4a11628f55a4df523b3ef",
            "0x000000000000000000000000a1111562cfddc33adfec9608567620afc01e1e9e",
            "0x0000000000000000000000001cef01bb6844254eea3701f026d6e873007711ce"
          ],
          "data": "0x0000000000000000000000000000000000000000000000001bc16d674ec80000",
          "blockHash": "0xa3ca293894f5d256e4ce22645bfb4a25c83563ce851f6ed4f08ab403cdeb4af6",
          "blockNumber": "0x616d211",
          "transactionHash": "0x84f000bb61943779b67b315ea11f1dbe2806450b531a1f4c266c6855ad49ad47",
          "transactionIndex": "0x3",
          "logIndex": "0x6",
          "removed": false
        },
        {
          "address": "0x1cef01bb6844254eea3701f026d6e873007711ce",
          "topics": [
            "0xddf252ad1be2c89b69c2b068fc378daa952ba7f163c4a11628f55a4df523b3ef",
            "0x0000000000000000000000000000000000000000000000000000000000000000",
            "0x000000000000000000000000a1111562cfddc33adfec9608567620afc01e1e9e"
          ],
          "data": "0x0000000000000000000000000000000000000000000000001bc16d674ec80000",
          "blockHash": "0xa3ca293894f5d256e4ce22645bfb4a25c83563ce851f6ed4f08ab403cdeb4af6",
          "blockNumber": "0x616d211",
          "transactionHash": "0x84f000bb61943779b67b315ea11f1dbe2806450b531a1f4c266c6855ad49ad47",
          "transactionIndex": "0x3",
          "logIndex": "0x7",
          "removed": false
        },
        {
          "address": "0x1cef01bb6844254eea3701f026d6e873007711ce",
          "topics": [
            "0xdcbc1c05240f31ff3ad067ef1ee35ce4997762752e3a095284754544f4c709d7",
            "0x000000000000000000000000a1111562cfddc33adfec9608567620afc01e1e9e",
            "0x000000000000000000000000a1111562cfddc33adfec9608567620afc01e1e9e"
          ],
          "data": "0x0000000000000000000000000000000000000000000000001bc16d674ec800000000000000000000000000000000000000000000000000001bc16d674ec80000",
          "blockHash": "0xa3ca293894f5d256e4ce22645bfb4a25c83563ce851f6ed4f08ab403cdeb4af6",
          "blockNumber": "0x616d211",
          "transactionHash": "0x84f000bb61943779b67b315ea11f1dbe2806450b531a1f4c266c6855ad49ad47",
          "transactionIndex": "0x3",
          "logIndex": "0x8",
          "removed": false
        },
        {
          "address": "0xa1111562cfddc33adfec9608567620afc01e1e9e",
          "topics": [
            "0x227a473b70d2f893cc7659219575c030a63b5743024fe1e0c1a680e708b1525a"
          ],
          "data": "0x0000000000000000000000000000000000000000000000001bc16d674ec80000",
          "blockHash": "0xa3ca293894f5d256e4ce22645bfb4a25c83563ce851f6ed4f08ab403cdeb4af6",
          "blockNumber": "0x616d211",
          "transactionHash": "0x84f000bb61943779b67b315ea11f1dbe2806450b531a1f4c266c6855ad49ad47",
          "transactionIndex": "0x3",
          "logIndex": "0x9",
          "removed": false
        },
        {
          "address": "0xa1111562cfddc33adfec9608567620afc01e1e9e",
          "topics": [
            "0xe1fffcc4923d04b559f4d29a8bfc6cda04eb5b0d3c460751c2402c5c5cc9109c",
            "0x00000000000000000000000094c83a5137751c4e6acc0cfdb09819b0b83582d1"
          ],
          "data": "0x0000000000000000000000000000000000000000000000001bc16d674ec80000",
          "blockHash": "0xa3ca293894f5d256e4ce22645bfb4a25c83563ce851f6ed4f08ab403cdeb4af6",
          "blockNumber": "0x616d211",
          "transactionHash": "0x84f000bb61943779b67b315ea11f1dbe2806450b531a1f4c266c6855ad49ad47",
          "transactionIndex": "0x3",
          "logIndex": "0xa",
          "removed": false
        },
        {
          "address": "0xa1111562cfddc33adfec9608567620afc01e1e9e",
          "topics": [
            "0x1ec6ca237cf412015f109db027dc71b2292a20387279781fd699c4ec328a23d7",
            "0x00000000000000000000000094c83a5137751c4e6acc0cfdb09819b0b83582d1"
          ],
          "data": "0x0000000000000000000000000000000000000000000000001bc16d674ec80000",
          "blockHash": "0xa3ca293894f5d256e4ce22645bfb4a25c83563ce851f6ed4f08ab403cdeb4af6",
          "blockNumber": "0x616d211",
          "transactionHash": "0x84f000bb61943779b67b315ea11f1dbe2806450b531a1f4c266c6855ad49ad47",
          "transactionIndex": "0x3",
          "logIndex": "0xb",
          "removed": false
        }
      ],
      "logsBloom": "0x00000000000000000000000000020000010000000040000000000000000020000000000000000000000000000000001000000000000000000000000000200000000000400010000000000008000000000000000000000000000000028000000004000000020000000000000000000800000000000004000000000010020000000000000000000000000000000000000000000801000000000000000001000000024000000000000000000000000001000000000000000000000000000000010000000002000000000000000000000004000000000008088000000000000020000812000000000000400000000800000100008000000000400010000000000000",
      "type": "0x2",
      "transactionHash": "0x84f000bb61943779b67b315ea11f1dbe2806450b531a1f4c266c6855ad49ad47",
      "transactionIndex": "0x3",
      "blockHash": "0xa3ca293894f5d256e4ce22645bfb4a25c83563ce851f6ed4f08ab403cdeb4af6",
      "blockNumber": "0x616d211",
      "gasUsed": "0x269e9",
      "effectiveGasPrice": "0x5f5e100",
      "from": "0x94c83a5137751c4e6acc0cfdb09819b0b83582d1",
      "to": "0xa1111562cfddc33adfec9608567620afc01e1e9e",
      "contractAddress": null,
      "gasUsedForL1": "0x555",
      "l1BlockNumber": "0x6da12d"
    },
    {
      "status": "0x1",
      "cumulativeGasUsed": "0xb7ef",
      "logs": [
        {
          "address": "0xc83af6561ad7b6f395b0d827f950308bdaeff6b3",
          "topics": [
            "0x8c5be1e5ebec7d5bd14f71427d1e84f3dd0314c0f7b2291e5b200ac8c7c3b925",
            "0x00000000000000000000000094c83a5137751c4e6acc0cfdb09819b0b83582d1",
            "0x000000000000000000000000a1111562cfddc33adfec9608567620afc01e1e9e"
          ],
          "data": "0x00000000000000000000000000000000000000000000000000000000ee6b2805",
          "blockHash": "0xaf3c8f154b1b36629b5949aa100abe0dc52f68496419c49cde68cc32732c61b0",
          "blockNumber": "0x616d21a",
          "transactionHash": "0xfc008160807bf9f3c2416df273e2a7e5f4724bd9804e77d9d9415417a7ce468e",
          "transactionIndex": "0x1",
          "logIndex": "0x0",
          "removed": false
        }
      ],
      "logsBloom": "0x00000000000000000000000000020000000000000000000000000000000020000000000000000000000000000000000000000000000000000000000000200000000000000000000000000000000000000000000000000000000000020000000004000000000000000000000000000000000000000000000000000000000000000000000000000000000000000000000000000800000000000000000001000000020000000000000000000000000000000000000000000000000000000000000000000000000000000000000000000000000000000000008000000000000000000012000000000000000000000000000000000000000000000010000000000000",
      "type": "0x2",
      "transactionHash": "0xfc008160807bf9f3c2416df273e2a7e5f4724bd9804e77d9d9415417a7ce468e",
      "transactionIndex": "0x1",
      "blockHash": "0xaf3c8f154b1b36629b5949aa100abe0dc52f68496419c49cde68cc32732c61b0",
      "blockNumber": "0x616d21a",
      "gasUsed": "0xb7ef",
      "effectiveGasPrice": "0x5f5e100",
      "from": "0x94c83a5137751c4e6acc0cfdb09819b0b83582d1",
      "to": "0xc83af6561ad7b6f395b0d827f950308bdaeff6b3",
      "contractAddress": null,
      "gasUsedForL1": "0x482",
      "l1BlockNumber": "0x6da12e"
    },
    {
      "status": "0x1",
      "cumulativeGasUsed": "0x4c792",
      "logs": [
        {
          "address": "0xc83af6561ad7b6f395b0d827f950308bdaeff6b3",
          "topics": [
            "0xddf252ad1be2c89b69c2b068fc378daa952ba7f163c4a11628f55a4df523b3ef",
            "0x00000000000000000000000094c83a5137751c4e6acc0cfdb09819b0b83582d1",
            "0x00000000000000000000000034728af7d0fc03cbbdff82b6d52aeda8c999e2b2"
          ],
          "data": "0x00000000000000000000000000000000000000000000000000000000ee6b2800",
          "blockHash": "0x780349e28afbb08baff3c335e8381fa567fb63b3132a75a53eb108990b769d25",
          "blockNumber": "0x616d222",
          "transactionHash": "0x111b3c304c3c091ab9a1fb47e173c27f5dcd3996d6b2aa2eaf6c25362f722836",
          "transactionIndex": "0x3",
          "logIndex": "0x0",
          "removed": false
        },
        {
          "address": "0xc83af6561ad7b6f395b0d827f950308bdaeff6b3",
          "topics": [
            "0xddf252ad1be2c89b69c2b068fc378daa952ba7f163c4a11628f55a4df523b3ef",
            "0x00000000000000000000000094c83a5137751c4e6acc0cfdb09819b0b83582d1",
            "0x000000000000000000000000beef7a71cc53eb15a9e36032771a49b315d6e225"
          ],
          "data": "0x0000000000000000000000000000000000000000000000000000000000000005",
          "blockHash": "0x780349e28afbb08baff3c335e8381fa567fb63b3132a75a53eb108990b769d25",
          "blockNumber": "0x616d222",
          "transactionHash": "0x111b3c304c3c091ab9a1fb47e173c27f5dcd3996d6b2aa2eaf6c25362f722836",
          "transactionIndex": "0x3",
          "logIndex": "0x1",
          "removed": false
        },
        {
          "address": "0xa1111562cfddc33adfec9608567620afc01e1e9e",
          "topics": [
            "0xddf252ad1be2c89b69c2b068fc378daa952ba7f163c4a11628f55a4df523b3ef",
            "0x00000000000000000000000094c83a5137751c4e6acc0cfdb09819b0b83582d1",
            "0x0000000000000000000000000000000000000000000000000000000000000000"
          ],
          "data": "0x0000000000000000000000000000000000000000000000001bc16d674ec80000",
          "blockHash": "0x780349e28afbb08baff3c335e8381fa567fb63b3132a75a53eb108990b769d25",
          "blockNumber": "0x616d222",
          "transactionHash": "0x111b3c304c3c091ab9a1fb47e173c27f5dcd3996d6b2aa2eaf6c25362f722836",
          "transactionIndex": "0x3",
          "logIndex": "0x2",
          "removed": false
        },
        {
          "address": "0xa1111562cfddc33adfec9608567620afc01e1e9e",
          "topics": [
            "0xddf252ad1be2c89b69c2b068fc378daa952ba7f163c4a11628f55a4df523b3ef",
            "0x0000000000000000000000000000000000000000000000000000000000000000",
            "0x000000000000000000000000a1111562cfddc33adfec9608567620afc01e1e9e"
          ],
          "data": "0x0000000000000000000000000000000000000000000000001bc16d674ec80000",
          "blockHash": "0x780349e28afbb08baff3c335e8381fa567fb63b3132a75a53eb108990b769d25",
          "blockNumber": "0x616d222",
          "transactionHash": "0x111b3c304c3c091ab9a1fb47e173c27f5dcd3996d6b2aa2eaf6c25362f722836",
          "transactionIndex": "0x3",
          "logIndex": "0x3",
          "removed": false
        },
        {
          "address": "0x7e3c9076431d2ea36af5fc917a2edad1c8ebcab2",
          "topics": [
            "0x445c94111ba1ba3f9276ecf50724c543641c207bb13dcd43a0c35ddf17ab3123",
            "0x0000000000000000000000000000000000000000000000000000000000000002"
          ],
          "data": "0x0000000000000000000000000000000000000000000000000000000000000020000000000000000000000000a1111562cfddc33adfec9608567620afc01e1e9e00000000000000000000000094c83a5137751c4e6acc0cfdb09819b0b83582d10000000000000000000000000000000000000000000000001bc16d674ec80000000000000000000000000000000000000000000000000000000000000000000000000000000000000000000000000000000000000000000000000000000000e000000000000000000000000000000000000000000000000000000000006da12e00000000000000000000000000000000000000000000000000000000000000000000000000000000000000000000000000000000000000000000000000000000",
          "blockHash": "0x780349e28afbb08baff3c335e8381fa567fb63b3132a75a53eb108990b769d25",
          "blockNumber": "0x616d222",
          "transactionHash": "0x111b3c304c3c091ab9a1fb47e173c27f5dcd3996d6b2aa2eaf6c25362f722836",
          "transactionIndex": "0x3",
          "logIndex": "0x4",
          "removed": false
        },
        {
          "address": "0xa1111562cfddc33adfec9608567620afc01e1e9e",
          "topics": [
            "0x16540b30944d4a001747daed1f3b0be02461ddc7221558400f55bb848bf4fd79"
          ],
          "data": "0x0000000000000000000000000000000000000000000000000000000000000000000000000000000000000000000000000000000000000000000000000000004000000000000000000000000094c83a5137751c4e6acc0cfdb09819b0b83582d10000000000000000000000000000000000000000000000001bc16d674ec80000000000000000000000000000000000000000000000000000000000000000000000000000000000000000000000000000000000000000000000000000000000a000000000000000000000000000000000000000000000000000000000000000000000000000000000000000000000000000000000000000000000000000000000",
          "blockHash": "0x780349e28afbb08baff3c335e8381fa567fb63b3132a75a53eb108990b769d25",
          "blockNumber": "0x616d222",
          "transactionHash": "0x111b3c304c3c091ab9a1fb47e173c27f5dcd3996d6b2aa2eaf6c25362f722836",
          "transactionIndex": "0x3",
          "logIndex": "0x5",
          "removed": false
        }
      ],
      "logsBloom": "0x04000000000000000000000000020000000000000040000000000000000020000000800000000000000000000000000000000000001000000000002000000000000000000010000040000008000000000000000000004000000000020001000004004000020000000000000002000800000000000000000000000012000000000000000000000000000000000000000000000800000000000000000001000000080000000000000000000100000000000000000000000000000000200000000010000002000000000000000000000000000000000000208040000000000020000002000000000000400000000000000000000000008400000010000000000000",
      "type": "0x2",
      "transactionHash": "0x111b3c304c3c091ab9a1fb47e173c27f5dcd3996d6b2aa2eaf6c25362f722836",
      "transactionIndex": "0x3",
      "blockHash": "0x780349e28afbb08baff3c335e8381fa567fb63b3132a75a53eb108990b769d25",
      "blockNumber": "0x616d222",
      "gasUsed": "0x3a857",
      "effectiveGasPrice": "0x5f5e100",
      "from": "0x94c83a5137751c4e6acc0cfdb09819b0b83582d1",
      "to": "0xa1111562cfddc33adfec9608567620afc01e1e9e",
      "contractAddress": null,
      "gasUsedForL1": "0x2ea",
      "l1BlockNumber": "0x6da12e"
    }
  ],
  "libraries": [],
  "pending": [],
  "returns": {},
  "timestamp": 1732988877,
  "chain": 421614,
  "commit": null
}