{
  "transactions": [
    {
      "hash": "0xd7afb857d58972e129244669a62174c754dc3d8091c3bc88aa89d6825e734155",
      "transactionType": "CALL",
      "contractName": null,
      "contractAddress": "0x94baa979f569edb2f33903d9ccec66b31c9620f5",
      "function": "mint(address,uint256)",
      "arguments": [
        "0x34728aF7D0FC03CbbdFF82b6d52AeDA8C999E2B2",
        "10000000000000000000"
      ],
      "transaction": {
        "from": "0x34728af7d0fc03cbbdff82b6d52aeda8c999e2b2",
        "to": "0x94baa979f569edb2f33903d9ccec66b31c9620f5",
        "gas": "0xd71d",
        "value": "0x0",
        "input": "0x40c10f1900000000000000000000000034728af7d0fc03cbbdff82b6d52aeda8c999e2b20000000000000000000000000000000000000000000000008ac7230489e80000",
        "nonce": "0x647",
        "chainId": "0x66eee"
      },
      "additionalContracts": [],
      "isFixedGasLimit": false
    },
    {
      "hash": "0x187d50056a5a0db376e9fcc2a5d9ca0e10854150df35708c16a49d2ea99a411f",
      "transactionType": "CALL",
      "contractName": null,
      "contractAddress": "0x94baa979f569edb2f33903d9ccec66b31c9620f5",
      "function": "approve(address,uint256)",
      "arguments": [
        "0x654837fE31838Bd0391188182a3Ecdd402846D3a",
        "10000000000000000000"
      ],
      "transaction": {
        "from": "0x34728af7d0fc03cbbdff82b6d52aeda8c999e2b2",
        "to": "0x94baa979f569edb2f33903d9ccec66b31c9620f5",
        "gas": "0x10b8e",
        "value": "0x0",
        "input": "0x095ea7b3000000000000000000000000654837fe31838bd0391188182a3ecdd402846d3a0000000000000000000000000000000000000000000000008ac7230489e80000",
        "nonce": "0x648",
        "chainId": "0x66eee"
      },
      "additionalContracts": [],
      "isFixedGasLimit": false
    },
    {
      "hash": "0x4b110c80dec0d46c3daddc9c05a832d7814d07b9be45cf29b86b8b2d6e45cb17",
      "transactionType": "CALL",
      "contractName": null,
      "contractAddress": "0x654837fe31838bd0391188182a3ecdd402846d3a",
      "function": "deposit(uint256,address)",
      "arguments": [
        "10000000000000000000",
        "0x34728aF7D0FC03CbbdFF82b6d52AeDA8C999E2B2"
      ],
      "transaction": {
        "from": "0x34728af7d0fc03cbbdff82b6d52aeda8c999e2b2",
        "to": "0x654837fe31838bd0391188182a3ecdd402846d3a",
        "gas": "0x132e6",
        "value": "0x0",
        "input": "0x6e553f650000000000000000000000000000000000000000000000008ac7230489e8000000000000000000000000000034728af7d0fc03cbbdff82b6d52aeda8c999e2b2",
        "nonce": "0x649",
        "chainId": "0x66eee"
      },
      "additionalContracts": [],
      "isFixedGasLimit": false
    },
    {
      "hash": "0xdf4f6990ec53dc11a2a7bcf23ac1b21ef3e24bc5627d70bf4c83eb91b9bdb552",
      "transactionType": "CALL",
      "contractName": null,
      "contractAddress": "0x94baa979f569edb2f33903d9ccec66b31c9620f5",
      "function": "transfer(address,uint256)",
      "arguments": [
        "0x94c83a5137751C4E6acc0cFdB09819B0B83582D1",
        "1000000000000000000"
      ],
      "transaction": {
        "from": "0x34728af7d0fc03cbbdff82b6d52aeda8c999e2b2",
        "to": "0x94baa979f569edb2f33903d9ccec66b31c9620f5",
        "gas": "0xcda4",
        "value": "0x0",
        "input": "0xa9059cbb00000000000000000000000094c83a5137751c4e6acc0cfdb09819b0b83582d10000000000000000000000000000000000000000000000000de0b6b3a7640000",
        "nonce": "0x64a",
        "chainId": "0x66eee"
      },
      "additionalContracts": [],
      "isFixedGasLimit": false
    },
    {
      "hash": "0x831dc0fda9265bce34ffe0801ae6f9bb52412cfa063e901e2a848733de31a587",
      "transactionType": "CREATE",
      "contractName": "InsuranceFactory",
      "contractAddress": "0x35b5da7f73425e823a7b1d6d209246913d3c33c6",
      "function": null,
      "arguments": [
        "0x94BAa979F569eDb2F33903D9cCec66b31c9620F5",
        "0x654837fE31838Bd0391188182a3Ecdd402846D3a",
        "0x514e98BF82E864F64a53C85f0276832388F2Baa0",
        "5",
        "10"
      ],
      "transaction": {
        "from": "0x34728af7d0fc03cbbdff82b6d52aeda8c999e2b2",
        "gas": "0x6022b4",
        "value": "0x0",
        "input": "0x60803460c257601f614f4138819003918201601f19168301916001600160401b0383118484101760c65780849260a09460405283398101031260c25760428160da565b90604d6020820160da565b60576040830160da565b606083015160809390930151600580546001600160a01b03199081166001600160a01b039788161790915560068054821694871694909417909355600380548416331790556004805490931694909116939093179055600755600855604051614e5390816100ee8239f35b5f80fd5b634e487b7160e01b5f52604160045260245ffd5b51906001600160a01b038216820360c25756fe6080806040526004361015610012575f80fd5b5f3560e01c9081630fd761e0146109a7575080633998fdd31461097f5780633ccfd60b146108845780634352976c146108565780634578d290146108195780634e575d4b146107f1578063507817bb14610332578063560684ca146102b75780636a4d98461461022c578063773f0b181461020f5780638da5cb5b146101e7578063ae5745ed14610185578063daf635de14610157578063e941fa781461013a5763f7d1517f146100c1575f80fd5b34610136576020366003190112610136576004355f54811015610136575f54811015610122575f80527f290decd9548b62a8d60345a988386fc84ba6bc95484008f6362f93160ef3e56301546040516001600160a01b039091168152602090f35b634e487b7160e01b5f52603260045260245ffd5b5f80fd5b34610136575f366003190112610136576020600854604051908152f35b346101365760203660031901126101365761017d60018060a01b03600354163314610aad565b600435600855005b346101365760403660031901126101365761019e6109ca565b6001600160a01b03165f90815260016020526040902080546024359190821015610136576020916101ce91610a98565b905460405160039290921b1c6001600160a01b03168152f35b34610136575f366003190112610136576003546040516001600160a01b039091168152602090f35b34610136575f366003190112610136576020600754604051908152f35b34610136576020366003190112610136576001600160a01b0361024d6109ca565b165f52600160205260405f206040519081602082549182815201915f5260205f20905f5b8181106102985761029485610288818703826109e0565b60405191829182610a56565b0390f35b82546001600160a01b0316845260209093019260019283019201610271565b34610136575f366003190112610136576040518060205f549182815201905f80527f290decd9548b62a8d60345a988386fc84ba6bc95484008f6362f93160ef3e563905f5b8181106103135761029485610288818703826109e0565b82546001600160a01b03168452602090930192600192830192016102fc565b3461013657610200366003190112610136576004356001600160401b03811161013657610363903690600401610a01565b6024356001600160401b03811161013657610382903690600401610a01565b906044356001600160401b038111610136576103a2903690600401610a01565b6064356001600160401b038111610136576103c1903690600401610a01565b6084356001600160401b038111610136576103e0903690600401610a01565b60a4356001600160401b038111610136576103ff903690600401610a01565b60c4356001600160401b0381116101365761041e903690600401610a01565b9060e4356001600160401b0381116101365761043e903690600401610a01565b92610104356001600160401b0381116101365761045f903690600401610a01565b94610124356001600160401b03811161013657610480903690600401610a01565b96604051806142f48101106001600160401b036142f4830111176107d257806105a461058d6105766105608f8f61051e6105086104f261054a946104dc610534956142f48d610b2a90396102206142f48e018181520190610b05565b906142f48c01820360208d6142f4010152610b05565b6142f48a01810360406142f48c0101528b610b05565b6142f48901810360606142f48b0101528b610b05565b6142f48801810360806142f48a0101528b610b05565b6142f48701810360a06142f4890101528b610b05565b6142f48601810360c06142f4880101528b610b05565b6142f48501810360e06142f4870101528b610b05565b6142f4840181036101006142f4860101528b610b05565b6142f4830181036101206142f4850101528b610b05565b610144356142f4830161014081019190915261016435610160820152610184356101808201526101a4356101a08201526101c4356101c08201526101e4356101e0820152336102009091015203905ff0998a156107e6575f54600160401b8110156107d25780600161061992015f555f610a98565b81546001600160a01b038e811660039390931b92831b921b1916179055335f9081526001602052604090208054600160401b8110156107d25760018101825561066191610a98565b81546001600160a01b038e811660039390931b83811b91901b19909116179091555f9081526002602052604090819020805460ff1916600117905551610200808252909a6106b1918c0190610b05565b8a810360208c01526106c291610b05565b89810360408b01526106d391610b05565b88810360608a01526106e491610b05565b87810360808901526106f591610b05565b86810360a088015261070691610b05565b85810360c087015261071791610b05565b84810360e086015261072891610b05565b83810361010085015261073a91610b05565b82810361012084015261074c91610b05565b6101443561014083015261016435610160830152610184356101808301526101a4356101a08301526101c4356101c08301526101e4356101e08301526001600160a01b0383169133917fdb952deb284a7ca1809707c5a72df8b398c71835d54ca9755ffe994e8baa2aa1919081900390a36040516001600160a01b039091168152602090f35b634e487b7160e01b5f52604160045260245ffd5b6040513d5f823e3d90fd5b34610136575f366003190112610136576006546040516001600160a01b039091168152602090f35b34610136576020366003190112610136576001600160a01b0361083a6109ca565b165f526002602052602060ff60405f2054166040519015158152f35b346101365760203660031901126101365761087c60018060a01b03600354163314610aad565b600435600755005b34610136575f366003190112610136576003546001600160a01b03166108ab338214610aad565b6005546040516370a0823160e01b81523060048201526001600160a01b0390911691602082602481865afa9182156107e6575f9261094a575b509060446020925f604051958694859363a9059cbb60e01b8552600485015260248401525af180156107e65761091657005b6020813d602011610942575b8161092f602093836109e0565b8101031261013657518015150361013657005b3d9150610922565b91506020823d602011610977575b81610965602093836109e0565b810103126101365790519060446108e4565b3d9150610958565b34610136575f366003190112610136576004546040516001600160a01b039091168152602090f35b34610136575f366003190112610136576005546001600160a01b03168152602090f35b600435906001600160a01b038216820361013657565b90601f801991011681019081106001600160401b038211176107d257604052565b81601f82011215610136578035906001600160401b0382116107d25760405192610a35601f8401601f1916602001856109e0565b8284526020838301011161013657815f926020809301838601378301015290565b60206040818301928281528451809452019201905f5b818110610a795750505090565b82516001600160a01b0316845260209384019390920191600101610a6c565b8054821015610122575f5260205f2001905f90565b15610ab457565b60405162461bcd60e51b815260206004820152602360248201527f4f6e6c79206f776e65722063616e20696e766f6b6520746869732066756e637460448201526234b7b760e91b6064820152608490fd5b805180835260209291819084018484015e5f828201840152601f01601f191601019056fe60a060405234610f24576142f48038038061001981610f28565b928339810161022082820312610f245781516001600160401b038111610f245781610045918401610f4d565b60208301519091906001600160401b038111610f245781610067918501610f4d565b60408401519092906001600160401b038111610f245782610089918601610f4d565b60608501519091906001600160401b038111610f2457836100ab918701610f4d565b60808601519094906001600160401b038111610f2457846100cd918801610f4d565b60a08701519093906001600160401b038111610f2457856100ef918901610f4d565b60c08801516001600160401b038111610f24578661010e918a01610f4d565b60e08901516001600160401b038111610f24578761012d918b01610f4d565b6101008a01519091906001600160401b038111610f245788610150918c01610f4d565b6101208b0151979093906001600160401b038911610f24578b9a8b9a8b9a8b019061017a91610f4d565b966101408b0151986101608c01519a6101808d01519c6101a001519d6101c001519e6101e001519f6102000151608052600160a01b600190036080511660805103610f24578051906001600160401b0382116106df5760035490600182811c92168015610f1a575b60208310146106c15781601f849311610eac575b50602090601f8311600114610e46575f92610e3b575b50508160011b915f199060031b1c1916176003555b8051906001600160401b0382116106df5760045490600182811c92168015610e31575b60208310146106c15781601f849311610dc3575b50602090601f8311600114610d5d575f92610d52575b50508160011b915f199060031b1c1916176004555b8051906001600160401b0382116106df57600a5490600182811c92168015610d48575b60208310146106c15781601f849311610cda575b50602090601f8311600114610c74575f92610c69575b50508160011b915f199060031b1c191617600a555b8051906001600160401b0382116106df57600b5490600182811c92168015610c5f575b60208310146106c15781601f849311610bf1575b50602090601f8311600114610b8b575f92610b80575b50508160011b915f199060031b1c191617600b555b8051906001600160401b0382116106df57600c5490600182811c92168015610b76575b60208310146106c15781601f849311610b08575b50602090601f8311600114610aa2575f92610a97575b50508160011b915f199060031b1c191617600c555b8051906001600160401b0382116106df57600d5490600182811c92168015610a8d575b60208310146106c15781601f849311610a1f575b50602090601f83116001146109b9575f926109ae575b50508160011b915f199060031b1c191617600d555b8051906001600160401b0382116106df57600e5490600182811c921680156109a4575b60208310146106c15781601f849311610936575b50602090601f83116001146108d0575f926108c5575b50508160011b915f199060031b1c191617600e555b8051906001600160401b0382116106df57600f5490600182811c921680156108bb575b60208310146106c15781601f84931161084d575b50602090601f83116001146107e7575f926107dc575b50508160011b915f199060031b1c191617600f555b8051906001600160401b0382116106df5760115490600182811c921680156107d2575b60208310146106c15781601f849311610764575b50602090601f83116001146106fe575f926106f3575b50508160011b915f199060031b1c1916176011555b8051906001600160401b0382116106df5760105490600182811c921680156106d5575b60208310146106c15781601f849311610653575b50602090601f83116001146105ed575f926105e2575b50508160011b915f199060031b1c1916176010555b601355601455601555601655601755601855608051600980546001600160a01b039092166001600160a01b0319928316179055600580543392169190911790556040516133559081610f9f8239f35b015190505f8061057e565b60105f9081528281209350601f198516905b81811061063b5750908460019594939210610623575b505050811b01601055610593565b01515f1960f88460031b161c191690555f8080610615565b929360206001819287860151815501950193016105ff565b60105f529091507f1b6847dc741a1b0cd08d278845f9d819d87b734759afb55fe2de5cb82a9ae672601f840160051c810191602085106106b7575b90601f859493920160051c01905b8181106106a95750610568565b5f815584935060010161069c565b909150819061068e565b634e487b7160e01b5f52602260045260245ffd5b91607f1691610554565b634e487b7160e01b5f52604160045260245ffd5b015190505f8061051c565b60115f9081528281209350601f198516905b81811061074c5750908460019594939210610734575b505050811b01601155610531565b01515f1960f88460031b161c191690555f8080610726565b92936020600181928786015181550195019301610710565b60115f529091507f31ecc21a745e3968a04e9570e4425bc18fa8019c68028196b546d1669c200c68601f840160051c810191602085106107c8575b90601f859493920160051c01905b8181106107ba5750610506565b5f81558493506001016107ad565b909150819061079f565b91607f16916104f2565b015190505f806104ba565b600f5f9081528281209350601f198516905b818110610835575090846001959493921061081d575b505050811b01600f556104cf565b01515f1960f88460031b161c191690555f808061080f565b929360206001819287860151815501950193016107f9565b600f5f529091507f8d1108e10bcb7c27dddfc02ed9d693a074039d026cf4ea4240b40f7d581ac802601f840160051c810191602085106108b1575b90601f859493920160051c01905b8181106108a357506104a4565b5f8155849350600101610896565b9091508190610888565b91607f1691610490565b015190505f80610458565b600e5f9081528281209350601f198516905b81811061091e5750908460019594939210610906575b505050811b01600e5561046d565b01515f1960f88460031b161c191690555f80806108f8565b929360206001819287860151815501950193016108e2565b600e5f529091507fbb7b4a454dc3493923482f07822329ed19e8244eff582cc204f8554c3620c3fd601f840160051c8101916020851061099a575b90601f859493920160051c01905b81811061098c5750610442565b5f815584935060010161097f565b9091508190610971565b91607f169161042e565b015190505f806103f6565b600d5f9081528281209350601f198516905b818110610a0757509084600195949392106109ef575b505050811b01600d5561040b565b01515f1960f88460031b161c191690555f80806109e1565b929360206001819287860151815501950193016109cb565b600d5f529091507fd7b6990105719101dabeb77144f2a3385c8033acd3af97e9423a695e81ad1eb5601f840160051c81019160208510610a83575b90601f859493920160051c01905b818110610a7557506103e0565b5f8155849350600101610a68565b9091508190610a5a565b91607f16916103cc565b015190505f80610394565b600c5f9081528281209350601f198516905b818110610af05750908460019594939210610ad8575b505050811b01600c556103a9565b01515f1960f88460031b161c191690555f8080610aca565b92936020600181928786015181550195019301610ab4565b600c5f529091507fdf6966c971051c3d54ec59162606531493a51404a002842f56009d7e5cf4a8c7601f840160051c81019160208510610b6c575b90601f859493920160051c01905b818110610b5e575061037e565b5f8155849350600101610b51565b9091508190610b43565b91607f169161036a565b015190505f80610332565b600b5f9081528281209350601f198516905b818110610bd95750908460019594939210610bc1575b505050811b01600b55610347565b01515f1960f88460031b161c191690555f8080610bb3565b92936020600181928786015181550195019301610b9d565b600b5f529091507f0175b7a638427703f0dbe7bb9bbf987a2551717b34e79f33b5b1008d1fa01db9601f840160051c81019160208510610c55575b90601f859493920160051c01905b818110610c47575061031c565b5f8155849350600101610c3a565b9091508190610c2c565b91607f1691610308565b015190505f806102d0565b600a5f9081528281209350601f198516905b818110610cc25750908460019594939210610caa575b505050811b01600a556102e5565b01515f1960f88460031b161c191690555f8080610c9c565b92936020600181928786015181550195019301610c86565b600a5f529091507fc65a7bb8d6351c1cf70c95a316cc6a92839c986682d98bc35f958f4883f9d2a8601f840160051c81019160208510610d3e575b90601f859493920160051c01905b818110610d3057506102ba565b5f8155849350600101610d23565b9091508190610d15565b91607f16916102a6565b015190505f8061026e565b60045f9081528281209350601f198516905b818110610dab5750908460019594939210610d93575b505050811b01600455610283565b01515f1960f88460031b161c191690555f8080610d85565b92936020600181928786015181550195019301610d6f565b60045f529091507f8a35acfbc15ff81a39ae7d344fd709f28e8600b4aa8c65c6b64bfe7fe36bd19b601f840160051c81019160208510610e27575b90601f859493920160051c01905b818110610e195750610258565b5f8155849350600101610e0c565b9091508190610dfe565b91607f1691610244565b015190505f8061020c565b60035f9081528281209350601f198516905b818110610e945750908460019594939210610e7c575b505050811b01600355610221565b01515f1960f88460031b161c191690555f8080610e6e565b92936020600181928786015181550195019301610e58565b60035f529091507fc2575a0e9e593c00f959f8c92f12db2869c3395a3b0502d05e2516446f71f85b601f840160051c81019160208510610f10575b90601f859493920160051c01905b818110610f0257506101f6565b5f8155849350600101610ef5565b9091508190610ee7565b91607f16916101e2565b5f80fd5b6040519190601f01601f191682016001600160401b038111838210176106df57604052565b81601f82011215610f24578051906001600160401b0382116106df57610f7c601f8301601f1916602001610f28565b9282845260208383010111610f2457815f9260208093018386015e830101529056fe60806040526004361015610011575f80fd5b5f5f3560e01c806306fdde03146129c9578063095ea7b31461292157806309a1578514612857578063104ffbbe1461255757806318160ddd1461253a5780631afbd12814611bb45780631fb6112e14611b0d5780632152418c14611a7b57806321b394bc14611a5d57806323b872dd1461197b5780632881687f1461195d5780632e5113b71461193f578063313ce567146119235780633ccfd60b14611481578063411d90af146113da5780634173fb9d1461136657806341e0080b146112bf57806347d54bff146112a15780634bff95ba146111fa57806351d8b2c6146111dc5780636178e44c14610eb957806365c33d8714610b2a578063707f67ee14610a8357806370a0823114610a4b5780637bcc180c146109c15780637fcfcb7e1461099a57806395d89b41146108f357806398d191101461084c57806399d32fc41461082e578063a9059cbb146107fc578063af608007146107de578063b3c9b7b2146106e7578063dbc837c5146106be578063dd62ed3e1461066b578063e037f88914610399578063eaf40bcd14610375578063f21f537d14610357578063f40430d2146102b05763fdfec5dd146101c7575f80fd5b346102ad57806003193601126102ad576040519080600a54906101e982612abe565b80855291600181169081156102865750600114610229575b6102258461021181860382612b12565b604051918291602083526020830190612a6e565b0390f35b600a81527fc65a7bb8d6351c1cf70c95a316cc6a92839c986682d98bc35f958f4883f9d2a8939250905b80821061026c5750909150810160200161021182610201565b919260018160209254838588010152019101909291610253565b60ff191660208087019190915292151560051b850190920192506102119150839050610201565b80fd5b50346102ad57806003193601126102ad576040519080600d54906102d382612abe565b808552916001811690811561028657506001146102fa576102258461021181860382612b12565b600d81527fd7b6990105719101dabeb77144f2a3385c8033acd3af97e9423a695e81ad1eb5939250905b80821061033d5750909150810160200161021182610201565b919260018160209254838588010152019101909291610324565b50346102ad57806003193601126102ad576020601554604051908152f35b50346102ad57806003193601126102ad57602063ffffffff601a5416604051908152f35b50346102ad57806003193601126102ad576103bf60018060a01b03600954163314612d99565b60025461062657600554604051627ebb0f60e51b8152906001600160a01b0316602082600481845afa908115610558576004928492610604575b5060209060405193848092634e575d4b60e01b82525afa9182156105585783926105cf575b506040516370a0823160e01b815233600482015290602090829060249082906001600160a01b03165afa90811561055857839161059d575b50601854601454916104688383612d50565b116105635761047f9161047a91612d50565b612f9e565b6040516370a0823160e01b81523060048201526001600160a01b039190911690602081602481855afa801561055857610529575b506020600854602460405180948193630a28a47760e01b835260048301525afa90811561051e5782916104e8575b5060075580f35b90506020813d602011610516575b8161050360209383612b12565b8101031261051257515f6104e1565b5f80fd5b3d91506104f6565b6040513d84823e3d90fd5b6020813d602011610550575b8161054260209383612b12565b8101031261051257516104b3565b3d9150610535565b6040513d85823e3d90fd5b60405162461bcd60e51b81526020600482015260126024820152714e6f7420656e6f7567682062616c616e636560701b6044820152606490fd5b90506020813d6020116105c7575b816105b860209383612b12565b8101031261051257515f610456565b3d91506105ab565b60249192506105f5602091823d84116105fd575b6105ed8183612b12565b810190612c80565b92915061041e565b503d6105e3565b602091925061061f90823d84116105fd576105ed8183612b12565b91906103f9565b60405162461bcd60e51b815260206004820152601d60248201527f496e697469616c206465706f73697420686173206265656e2073656e740000006044820152606490fd5b50346102ad5760403660031901126102ad576040610687612a92565b91610690612aa8565b9260018060a01b031681526001602052209060018060a01b03165f52602052602060405f2054604051908152f35b50346102ad57806003193601126102ad576009546040516001600160a01b039091168152602090f35b50346102ad5760203660031901126102ad5760043590608060405161070b81612af6565b8281528260208201528260408201526060808201520152601b5481116107995761073761022591612c08565b5060ff60046040519261074984612af6565b80546001600160a01b03168452600181015460208501526002810154604085015261077660038201612b34565b606085015201541615156080820152604051918291602083526020830190612c38565b60405162461bcd60e51b815260206004820152601b60248201527f436c61696d20696e646578206973206f7574206f662072616e676500000000006044820152606490fd5b50346102ad57806003193601126102ad576020601754604051908152f35b50346102ad5760403660031901126102ad57610823610819612a92565b6024359033612f07565b602060405160018152f35b50346102ad57806003193601126102ad576020601354604051908152f35b50346102ad57806003193601126102ad5760405190806010549061086f82612abe565b80855291600181169081156102865750600114610896576102258461021181860382612b12565b601081527f1b6847dc741a1b0cd08d278845f9d819d87b734759afb55fe2de5cb82a9ae672939250905b8082106108d95750909150810160200161021182610201565b9192600181602092548385880101520191019092916108c0565b50346102ad57806003193601126102ad5760405190806004549061091682612abe565b8085529160018116908115610286575060011461093d576102258461021181860382612b12565b600481527f8a35acfbc15ff81a39ae7d344fd709f28e8600b4aa8c65c6b64bfe7fe36bd19b939250905b8082106109805750909150810160200161021182610201565b919260018160209254838588010152019101909291610967565b50346102ad5760203660031901126102ad5760206109b9600435613248565b604051908152f35b50346102ad5760203660031901126102ad57600435601b54811015610a47576109e990612c08565b5060018060a01b03815416600182015491610a3b60028201549160ff6004610a1360038401612b34565b920154169260405195869586526020860152604085015260a0606085015260a0840190612a6e565b90151560808301520390f35b5080fd5b50346102ad5760203660031901126102ad576020906040906001600160a01b03610a73612a92565b1681528083522054604051908152f35b50346102ad57806003193601126102ad576040519080600f5490610aa682612abe565b80855291600181169081156102865750600114610acd576102258461021181860382612b12565b600f81527f8d1108e10bcb7c27dddfc02ed9d693a074039d026cf4ea4240b40f7d581ac802939250905b808210610b105750909150810160200161021182610201565b919260018160209254838588010152019101909291610af7565b50346102ad57610b3936612bd4565b600554604051633998fdd360e01b815291906001600160a01b0316602083600481845afa928315610da9578493610e94575b50602060049160405192838092634e575d4b60e01b82525afa908115610da9578491610e75575b506040516370a0823160e01b81523060048201526001600160a01b03919091169190602081602481865afa908115610e6a578591610e36575b50610bf790610bf16001610be56040610c00960135612c08565b50015460145490612d50565b90612d50565b60025490612d63565b916103e88302928084046103e81490151715610e225760405163095ea7b360e01b81526001600160a01b039190911660048201526024810183905260208160448187865af1908115610da9578491610e03575b5015610db45760405163095ea7b360e01b81523360048201526024810183905260208160448187865af1908115610da9578491610d8a575b5015610d455760405163095ea7b360e01b815232600482015260248101929092526020908290604490829086905af190811561051e578291610d16575b5015610cd15780f35b60405162461bcd60e51b815260206004820152601b60248201527f4661696c656420746f20617070726f76652074782e6f726967696e00000000006044820152606490fd5b610d38915060203d602011610d3e575b610d308183612b12565b810190612d81565b5f610cc8565b503d610d26565b60405162461bcd60e51b815260206004820152601c60248201527f4661696c656420746f20617070726f7665206d73672e73656e646572000000006044820152606490fd5b610da3915060203d602011610d3e57610d308183612b12565b5f610c8b565b6040513d86823e3d90fd5b60405162461bcd60e51b815260206004820152602160248201527f4661696c656420746f20617070726f76652073657276696365206d616e6167656044820152603960f91b6064820152608490fd5b610e1c915060203d602011610d3e57610d308183612b12565b5f610c53565b634e487b7160e01b84526011600452602484fd5b90506020813d602011610e62575b81610e5160209383612b12565b810103126105125751610c00610bcb565b3d9150610e44565b6040513d87823e3d90fd5b610e8e915060203d6020116105fd576105ed8183612b12565b5f610b92565b6004919350610eb1602091823d84116105fd576105ed8183612b12565b939150610b6b565b50346102ad5760603660031901126102ad576044356001600160a01b0381169060043590602435908390036111d85760175442101561119457811561115057821561110b57601854610f0d60195484612df3565b116110b557600554604051627ebb0f60e51b815290602090829060049082906001600160a01b03165afa908115610e6a576024916020918791611098575b506040516370a0823160e01b815233600482015292839182906001600160a01b03165afa8015610e6a5782918691611063575b501061101e5781610f8e82613248565b03610fd9577f1ec6ca237cf412015f109db027dc71b2292a20387279781fd699c4ec328a23d791610fc0602092612f9e565b610fcc81601954612df3565b601955604051908152a280f35b60405162461bcd60e51b815260206004820152601860248201527f53656e74206173736574732069736e277420656e6f75676800000000000000006044820152606490fd5b60405162461bcd60e51b815260206004820152601d60248201527f596f7520646f6e2774206861766520656e6f7567682062616c616e63650000006044820152606490fd5b9150506020813d602011611090575b8161107f60209383612b12565b81010312610512578190515f610f7e565b3d9150611072565b6110af9150823d84116105fd576105ed8183612b12565b5f610f4b565b60405162461bcd60e51b815260206004820152602860248201527f4d617820737570706c79206578636565647320746865206d617820706f6c6963604482015267792073686172657360c01b6064820152608490fd5b60405162461bcd60e51b815260206004820152601f60248201527f496e7375726564206d75737420626520612076616c69642061646472657373006044820152606490fd5b606460405162461bcd60e51b815260206004820152602060248201527f416d6f756e74206d7573742062652067726561746572207468616e207a65726f6044820152fd5b606460405162461bcd60e51b815260206004820152602060248201527f506f6c6963792063616e277420626520707572636861736520616e796d6f72656044820152fd5b8380fd5b50346102ad57806003193601126102ad576020601854604051908152f35b50346102ad57806003193601126102ad576040519080600b549061121d82612abe565b80855291600181169081156102865750600114611244576102258461021181860382612b12565b600b81527f0175b7a638427703f0dbe7bb9bbf987a2551717b34e79f33b5b1008d1fa01db9939250905b8082106112875750909150810160200161021182610201565b91926001816020925483858801015201910190929161126e565b50346102ad57806003193601126102ad576020601654604051908152f35b50346102ad57806003193601126102ad576040519080600c54906112e282612abe565b80855291600181169081156102865750600114611309576102258461021181860382612b12565b600c81527fdf6966c971051c3d54ec59162606531493a51404a002842f56009d7e5cf4a8c7939250905b80821061134c5750909150810160200161021182610201565b919260018160209254838588010152019101909291611333565b50346102ad5760203660031901126102ad57611380612a92565b6009546001600160a01b03811691611399338414612d99565b6001600160a01b03169182907f155faa1d2e95029c9603f208551520bab524c2a713e5b7710cd39a91c73d281f8580a36001600160a01b0319161760095580f35b50346102ad57806003193601126102ad576040519080601254906113fd82612abe565b80855291600181169081156102865750600114611424576102258461021181860382612b12565b601281527fbb8a6a4669ba250d26cd7a459eca9d215f8307e33aebe50379bc5a3617ec3444939250905b8082106114675750909150810160200161021182610201565b91926001816020925483858801015201910190929161144e565b50346102ad57806003193601126102ad576016544211156118d2576114b160018060a01b03600954163314612d99565b600554604051634e575d4b60e01b81526001600160a01b0390911690602081600481855afa9081156105585783916118b3575b506040516370a0823160e01b81523060048201526001600160a01b039190911691602082602481865afa918215610da957849261187f575b506040519163266d6a8360e11b83526004830152602082602481865afa918215610da957849261184b575b506007548203918211610e22578391602060049260405193848092631d283f4f60e31b82525afa918215610558578392611812575b5060649161158991612d50565b04916040516370a0823160e01b8152306004820152602081602481855afa9081156105585783916117da575b509060646020926040519485938492632d182be560e21b845260048401523060248401523060448401525af19081156105585783916117a8575b50600554604051627ebb0f60e51b81526001600160a01b039091169290602081600481875afa918215610e6a5761166092602092879161178b575b5060405163a9059cbb60e01b81526001600160a01b03968716600482015260248101929092529094169391829081906044820190565b038187875af18015610da95761176e575b506009546040516370a0823160e01b8152306004820152906001600160a01b0316602082602481875afa918215610e6a578592611738575b5060405163a9059cbb60e01b81526001600160a01b0390911660048201526024810191909152916020908390818681604481015b03925af1908115610558577f5b6b431d4476a211bb7d41c20d1aab9ae2321deee0d20be3d9fc9b1093fa6e3d9260209261171d575b50604051908152a180f35b61173390833d8511610d3e57610d308183612b12565b611712565b91506020823d602011611766575b8161175360209383612b12565b81010312610512579051906116dd6116a9565b3d9150611746565b6117869060203d602011610d3e57610d308183612b12565b611671565b6117a29150833d85116105fd576105ed8183612b12565b5f61162a565b90506020813d6020116117d2575b816117c360209383612b12565b8101031261051257515f6115ef565b3d91506117b6565b919250506020813d60201161180a575b816117f760209383612b12565b81010312610512575183919060646115b5565b3d91506117ea565b925090506020823d602011611843575b8161182f60209383612b12565b81010312610512579051839161158961157c565b3d9150611822565b9091506020813d602011611877575b8161186760209383612b12565b810103126105125751905f611547565b3d915061185a565b9091506020813d6020116118ab575b8161189b60209383612b12565b810103126105125751905f61151c565b3d915061188e565b6118cc915060203d6020116105fd576105ed8183612b12565b5f6114e4565b60405162461bcd60e51b815260206004820152602360248201527f506c65617365207761697420756e74696c2074686520706572696f6420697320604482015262195b9960ea1b6064820152608490fd5b50346102ad57806003193601126102ad57602060405160128152f35b50346102ad57806003193601126102ad576020601454604051908152f35b50346102ad57806003193601126102ad576020601954604051908152f35b50346102ad5760603660031901126102ad57611995612a92565b61199d612aa8565b6001600160a01b038216808452600160209081526040808620335f908152925290205460443593915f1982106119da575b50506108239350612f07565b848210611a42578015611a2e573315611a1a5785604091610823975260016020522060018060a01b0333165f526020528360405f20910390555f806119ce565b634a1406b160e11b86526004869052602486fd5b63e602df0560e01b86526004869052602486fd5b6064868684637dc7a0d960e11b835233600452602452604452fd5b50346102ad57806003193601126102ad576020601b54604051908152f35b50346102ad5760203660031901126102ad5760043560065460018101809111611af9576002549160018301809311611ae557611ab8838383613282565b938315611ad15760206109b98686868609151590612df3565b634e487b7160e01b81526012600452602490fd5b634e487b7160e01b5f52601160045260245ffd5b634e487b7160e01b83526011600452602483fd5b50346102ad57806003193601126102ad57604051908060115490611b3082612abe565b80855291600181169081156102865750600114611b57576102258461021181860382612b12565b601181527f31ecc21a745e3968a04e9570e4425bc18fa8019c68028196b546d1669c200c68939250905b808210611b9a5750909150810160200161021182610201565b919260018160209254838588010152019101909291611b81565b5034610512575f36600319011261051257335f525f60205260405f2054156124f557600554604051627ebb0f60e51b81526001600160a01b0390911690602081600481855afa908115612003575f916124d6575b506040516370a0823160e01b81523360048201526001600160a01b039190911690602081602481855afa908115612003575f916124a4575b5060135480911061244857604051636eb1769f60e11b8152336004820152306024820152602081604481865afa80156120035782915f91612413575b50106123af57602060049360405194858092630ee7e16360e31b82525afa928315612003575f9361237b575b506040516370a0823160e01b8152336004820152602081602481865afa80156120035784915f91612346575b50106122e857604051636eb1769f60e11b8152336004820152306024820152602081604481865afa80156120035784915f916122b3575b5010612248576009546040516323b872dd60e01b81523360048201526001600160a01b03909116602482015260448101919091526020816064815f865af1908115612003575f91612229575b50156121e4576005546040516323b872dd60e01b81523360048201526001600160a01b0390911660248201526044810192909252602090829060649082905f905af1908115612003575f916121c5575b501561218057601b545f805b828110612154575061210f57335f525f60205260405f205460405191611dd883612af6565b338352602083019082825260408401818152604051906020820182811067ffffffffffffffff8211176120e8576040525f82526060860191825260808601925f8452680100000000000000008110156120e857806001611e3b9201601b55612c08565b9490946120fc57865185546001600160a01b0319166001600160a01b0391909116178555516001850155516002840155518051600384019167ffffffffffffffff82116120e857611e8c8354612abe565b601f81116120a3575b50602090601f831160011461203857918060049492611ee19796945f9261202d575b50508160011b915f199060031b1c19161790555b51151591019060ff801983541691151516179055565b611eeb8133612e00565b611ef58130612e97565b600554604051633998fdd360e01b815290602090829060049082906001600160a01b03165afa908115612003575f9161200e575b5060018060a01b03169063ffffffff601a5416823b156105125760845f92836040519586948593630bb54ccf60e41b8552306004860152336024860152604485015260648401525af1801561200357611fee575b506001601a54917f16540b30944d4a001747daed1f3b0be02461ddc7221558400f55bb848bf4fd79611fca63ffffffff851692604051918291858352604060208401526040830190612c38565b0390a10163ffffffff8111611af95763ffffffff169063ffffffff191617601a5580f35b611ffb9192505f90612b12565b5f905f611f7d565b6040513d5f823e3d90fd5b612027915060203d6020116105fd576105ed8183612b12565b5f611f29565b015190505f80611eb7565b90601f19831691845f52815f20925f5b81811061208b5750926001928592611ee19998966004989610612073575b505050811b019055611ecb565b01515f1960f88460031b161c191690555f8080612066565b92936020600181928786015181550195019301612048565b835f5260205f20601f840160051c810191602085106120de575b601f0160051c01905b8181106120d35750611e95565b5f81556001016120c6565b90915081906120bd565b634e487b7160e01b5f52604160045260245ffd5b634e487b7160e01b5f525f60045260245ffd5b60405162461bcd60e51b815260206004820152601860248201527f436c61696d20686173206265656e207375626d697474656400000000000000006044820152606490fd5b61215d81612c08565b50546001600160a01b03163314612177575b600101611db3565b6001915061216f565b60405162461bcd60e51b815260206004820152601960248201527f4661696c656420746f207061792073746f7261676520666565000000000000006044820152606490fd5b6121de915060203d602011610d3e57610d308183612b12565b5f611da7565b60405162461bcd60e51b815260206004820152601760248201527f4661696c656420746f2070617920636c61696d206665650000000000000000006044820152606490fd5b612242915060203d602011610d3e57610d308183612b12565b5f611d57565b60405162461bcd60e51b815260206004820152603860248201527f596f757220616c6c6f7765642062616c616e63652069736e277420656e6f756760448201527f6820746f20706179207468652073746f726167652066656500000000000000006064820152608490fd5b9150506020813d6020116122e0575b816122cf60209383612b12565b81010312610512578390515f611d0b565b3d91506122c2565b60405162461bcd60e51b815260206004820152603060248201527f596f75722062616c616e63652069736e277420656e6f75676820746f2070617960448201526f207468652073746f726167652066656560801b6064820152608490fd5b9150506020813d602011612373575b8161236260209383612b12565b81010312610512578390515f611cd4565b3d9150612355565b9092506020813d6020116123a7575b8161239760209383612b12565b810103126105125751915f611ca8565b3d915061238a565b60405162461bcd60e51b815260206004820152603660248201527f596f757220616c6c6f7765642062616c616e63652069736e277420656e6f75676044820152756820746f207061792074686520636c61696d2066656560501b6064820152608490fd5b9150506020813d602011612440575b8161242f60209383612b12565b81010312610512578190515f611c7c565b3d9150612422565b60405162461bcd60e51b815260206004820152602e60248201527f596f75722062616c616e63652069736e277420656e6f75676820746f2070617960448201526d2074686520636c61696d2066656560901b6064820152608490fd5b90506020813d6020116124ce575b816124bf60209383612b12565b8101031261051257515f611c40565b3d91506124b2565b6124ef915060203d6020116105fd576105ed8183612b12565b5f611c08565b60405162461bcd60e51b815260206004820152601760248201527f596f7520646f6e2774206861766520706f6c69636965730000000000000000006044820152606490fd5b34610512575f366003190112610512576020600254604051908152f35b346105125761256536612bd4565b600554604051633998fdd360e01b81526001600160a01b039091169190602081600481865afa908115612003575f91612838575b506001600160a01b031633036127dd57602060049260405193848092634e575d4b60e01b82525afa918215612003575f926127bc575b50608081019160016126106125e385612c9f565b9461260b60408601359660046125f889612c08565b50019060ff801983541691151516179055565b612c9f565b15150361275e576040516370a0823160e01b81523060048201526001600160a01b03919091169190602081602481865afa908115612003575f9161272a575b506126ae9261266b610bf7602093610bf16001610be58a612c08565b9061267586612c08565b505460405163a9059cbb60e01b81526001600160a01b0390911660048201526024810192909252909384919082905f9082906044820190565b03925af1908115612003577f2f45553926686d2a9ec600d35f1be18eca3b5bd14fa37dbfa886a92c6fe4353d926127089261270d575b506126fc60016126f386612c08565b50015430612e00565b60405191829182612cac565b0390a2005b6127259060203d602011610d3e57610d308183612b12565b6126e4565b90506020813d602011612756575b8161274560209383612b12565b8101031261051257516126ae61264f565b3d9150612738565b5061276d60016126f384612c08565b80356001600160a01b0381168103610512577f229be430f7d9e5e210ad1203cf877ccb11cc2352f89daddc654b7d433a5b0962916126fc6127089260016127b387612c08565b50015490612e97565b6127d691925060203d6020116105fd576105ed8183612b12565b90826125cf565b60405162461bcd60e51b815260206004820152602d60248201527f4f6e6c792073657276696365206d616e616765722063616e20696e766f6b652060448201526c3a3434b990333ab731ba34b7b760991b6064820152608490fd5b612851915060203d6020116105fd576105ed8183612b12565b83612599565b34610512575f366003190112610512576040515f600e5461287781612abe565b80845290600181169081156128fd575060011461289f575b6102258361021181850382612b12565b600e5f9081527fbb7b4a454dc3493923482f07822329ed19e8244eff582cc204f8554c3620c3fd939250905b8082106128e35750909150810160200161021161288f565b9192600181602092548385880101520191019092916128cb565b60ff191660208086019190915291151560051b84019091019150610211905061288f565b346105125760403660031901126105125761293a612a92565b6024359033156129b6576001600160a01b03169081156129a357335f52600160205260405f20825f526020528060405f20556040519081527f8c5be1e5ebec7d5bd14f71427d1e84f3dd0314c0f7b2291e5b200ac8c7c3b92560203392a3602060405160018152f35b634a1406b160e11b5f525f60045260245ffd5b63e602df0560e01b5f525f60045260245ffd5b34610512575f366003190112610512576040515f6003546129e981612abe565b80845290600181169081156128fd5750600114612a10576102258361021181850382612b12565b60035f9081527fc2575a0e9e593c00f959f8c92f12db2869c3395a3b0502d05e2516446f71f85b939250905b808210612a545750909150810160200161021161288f565b919260018160209254838588010152019101909291612a3c565b805180835260209291819084018484015e5f828201840152601f01601f1916010190565b600435906001600160a01b038216820361051257565b602435906001600160a01b038216820361051257565b90600182811c92168015612aec575b6020831014612ad857565b634e487b7160e01b5f52602260045260245ffd5b91607f1691612acd565b60a0810190811067ffffffffffffffff8211176120e857604052565b90601f8019910116810190811067ffffffffffffffff8211176120e857604052565b9060405191825f825492612b4784612abe565b8084529360018116908115612bb25750600114612b6e575b50612b6c92500383612b12565b565b90505f9291925260205f20905f915b818310612b96575050906020612b6c928201015f612b5f565b6020919350806001915483858901015201910190918492612b7d565b905060209250612b6c94915060ff191682840152151560051b8201015f612b5f565b6020600319820112610512576004359067ffffffffffffffff82116105125760a09082900360031901126105125760040190565b601b54811015612c2457601b5f52600560205f20910201905f90565b634e487b7160e01b5f52603260045260245ffd5b9060018060a01b0382511681526020820151602082015260408201516040820152608080612c75606085015160a0606086015260a0850190612a6e565b930151151591015290565b9081602091031261051257516001600160a01b03811681036105125790565b3580151581036105125790565b6020815281356001600160a01b0381169081900361051257602082015260208201356040820152604082013560608201526060820135601e1983360301811215610512578201916020833593019067ffffffffffffffff8411610512578336038213610512578360809260a0848601528160c086015260e08501375f60e085850101520135918215158093036105125760e09260a0830152601f8019910116010190565b81810292918115918404141715611ae557565b8115612d6d570490565b634e487b7160e01b5f52601260045260245ffd5b90816020910312610512575180151581036105125790565b15612da057565b60405162461bcd60e51b815260206004820152602560248201527f4f6e6c7920696e73757265722063616e20696e766f6b6520746869732066756e60448201526431ba34b7b760d91b6064820152608490fd5b91908201809211611ae557565b9091906001600160a01b03168015612e8457805f525f60205260405f2054838110612e6a576020845f94957fddf252ad1be2c89b69c2b068fc378daa952ba7f163c4a11628f55a4df523b3ef938587528684520360408620558060025403600255604051908152a3565b915063391434e360e21b5f5260045260245260445260645ffd5b634b637e8f60e11b5f525f60045260245ffd5b6001600160a01b0316908115612ef4577fddf252ad1be2c89b69c2b068fc378daa952ba7f163c4a11628f55a4df523b3ef602082612ed85f94600254612df3565b60025584845283825260408420818154019055604051908152a3565b63ec442f0560e01b5f525f60045260245ffd5b6001600160a01b0316908115612e84576001600160a01b0316918215612ef457815f525f60205260405f2054818110612f8557817fddf252ad1be2c89b69c2b068fc378daa952ba7f163c4a11628f55a4df523b3ef92602092855f525f84520360405f2055845f525f825260405f20818154019055604051908152a3565b8263391434e360e21b5f5260045260245260445260645ffd5b600554604051627ebb0f60e51b815290602090829060049082906001600160a01b03165afa908115612003575f91613229575b506040516323b872dd60e01b81523360048201523060248201526044810183905290602090829060649082905f906001600160a01b03165af180156120035761320c575b5061301f81613248565b6002546131fd576130309030612e97565b600554604051627ebb0f60e51b8152906001600160a01b0316602082600481845afa918215612003575f926131d8575b50602060049160405192838092634e575d4b60e01b82525afa908115612003575f916131b9575b5060405163095ea7b360e01b81526001600160a01b038281166004830152602482018590529092602091849160449183915f91165af1908115612003575f9260209261319e575b50604051636e553f6560e01b81526004810185905230602482015292839160449183916001600160a01b03165af180156120035761316f575b507f227a473b70d2f893cc7659219575c030a63b5743024fe1e0c1a680e708b1525a6020604051838152a161313e81600654612df3565b6006556040519081527fe1fffcc4923d04b559f4d29a8bfc6cda04eb5b0d3c460751c2402c5c5cc9109c60203392a2565b6020813d602011613196575b8161318860209383612b12565b810103126105125751613107565b3d915061317b565b6131b490833d8511610d3e57610d308183612b12565b6130ce565b6131d2915060203d6020116105fd576105ed8183612b12565b5f613087565b60049192506131f5602091823d84116105fd576105ed8183612b12565b929150613060565b6132079033612e97565b613030565b6132249060203d602011610d3e57610d308183612b12565b613015565b613242915060203d6020116105fd576105ed8183612b12565b5f612fd1565b60025460018101809111611ae5576006549060018201809211611ae557613270828285613282565b61327f93505f92509050612df3565b90565b91818302915f198185099383808610950394808603951461331257848311156132fa5790829109815f0382168092046002816003021880820260020302808202600203028082026002030280820260020302808202600203028091026002030293600183805f03040190848311900302920304170290565b82634e487b715f52156003026011186020526024601cfd5b50509061327f9250612d6356fea2646970667358221220daeae922a3ceec541343afc23ef3d6960dbd800ff64bc36d2a16fe82b364d65164736f6c634300081c0033a2646970667358221220840be29738a5a8e6a94c8702e132825a35b951657a1928f316829b95a669068164736f6c634300081c003300000000000000000000000094baa979f569edb2f33903d9ccec66b31c9620f5000000000000000000000000654837fe31838bd0391188182a3ecdd402846d3a000000000000000000000000514e98bf82e864f64a53c85f0276832388f2baa00000000000000000000000000000000000000000000000000000000000000005000000000000000000000000000000000000000000000000000000000000000a",
        "nonce": "0x64b",
        "chainId": "0x66eee"
      },
      "additionalContracts": [],
      "isFixedGasLimit": false
    },
    {
      "hash": "0x767bce7f5dac8a29790b0a432c5e4d323ea8ec0e839e3bababa2670df638d37e",
      "transactionType": "CALL",
      "contractName": null,
      "contractAddress": "0x514e98bf82e864f64a53c85f0276832388f2baa0",
      "function": "initialize(address,string)",
      "arguments": [
        "0x35b5DA7F73425e823a7b1d6d209246913D3C33C6",
        "04fb611087908d883d10d1b9633a7301b734eb693888b006a543a04429c6430d829bb4d6dd6eda0e2361ff153c398388f4fc2b7a6b640f6dcb083e763b6be1a568"
      ],
      "transaction": {
        "from": "0x34728af7d0fc03cbbdff82b6d52aeda8c999e2b2",
        "to": "0x514e98bf82e864f64a53c85f0276832388f2baa0",
        "gas": "0x412a6",
        "value": "0x0",
        "input": "0xf399e22e00000000000000000000000035b5da7f73425e823a7b1d6d209246913d3c33c60000000000000000000000000000000000000000000000000000000000000040000000000000000000000000000000000000000000000000000000000000008230346662363131303837393038643838336431306431623936333361373330316237333465623639333838386230303661353433613034343239633634333064383239626234643664643665646130653233363166663135336333393833383866346663326237613662363430663664636230383365373633623662653161353638000000000000000000000000000000000000000000000000000000000000",
        "nonce": "0x64c",
        "chainId": "0x66eee"
      },
      "additionalContracts": [],
      "isFixedGasLimit": false
    },
    {
      "hash": "0xffd7dfc49540d07021e66333c172cc55a71a52a6433a90e12711385da8f057b3",
      "transactionType": "CALL",
      "contractName": "InsuranceFactory",
      "contractAddress": "0x35b5da7f73425e823a7b1d6d209246913d3c33c6",
      "function": "createInsurancePool(string,string,string,string,string,string,string,string,string,string,uint256,uint256,uint256,uint256,uint256,uint256)",
      "arguments": [
        "Indodax Insurance",
        "IDXI",
        "http://res.cloudinary.com/renakaagusta/raw/upload/v1732642263/indodax.md",
        "https://res.cloudinary.com/renakaagusta/raw/upload/v1732642264/indodax.json",
        "curl -X GET \\'https://api.npoint.io/c9aa3e8003aceb1b9b52\\' --header \\'content-type: application/json\\' --header \\'x-api-key: SECRET_KEY\\'",
        "04278d1a2ff5452c89e714699a77f81627a9a5875104c0809cf9e0f6dacf5a2c0dd840586a64cfa89b2d104107b5cfd8569f965e6f75cc4eac59955f28d7f1cc70570e667caf233e4eacbc8ebf952fa581e53dae7153515992c681d9df58acfb42",
        "04fab08cf72b5eac277e68f04b45e288d2ee68c4f1696e442e8c03ec7274c7d9da83c0dc614b840e518a4d4fd255a7ee8c9cdb04ceba84eea621ac41265c5a5ac80eacdfe3dd294d813774c1a1ccaedf95e967cbaf554b6c577555e4f64fbd265d4dbf5365c722956afe93d7ad66ca2a87090ddc38e504d6388e6a919b347d2655588e6a11231d2406ddce",
        "04927edf4654b8f312250ff8fd6c03cc4fbfdcbfc2d5a27985942bf3921131fac7073d4e9ad43a5c679c3f172e487405aa149b04a6ed907bbbcd33ed2d60cb46720e027bdf21c27ec15469e5f63b1228a75fa641a55b5bcb3feb37dfa050fa987a14c27dca48b92eea19181c325e76d9d3f751018e8743c45fa66fea07f5f0151aab335a14fe29a7ecc2a28c01910fbe5f541ce1f3a1eb4625fbcd824a35503a4d002b",
        "\\\\{\\\"data\\\":\\\\{\\\"rekts\\\":\\\\[(?<extractedValue>.*?)\\\\]\\\\}\\\\}",
        "\\\"projectName\\\"\\\\s*:\\\\s*\\\"Indodax\\\",\\\\s*\\\"fundsLost\\\"\\\\s*:\\\\s*\\\"([0-9]{8,})\\\"",
        "5000000000",
        "3",
        "1732721054",
        "1735313054",
        "1735140254",
        "5000000000000000000"
      ],
      "transaction": {
        "from": "0x34728af7d0fc03cbbdff82b6d52aeda8c999e2b2",
        "to": "0x35b5da7f73425e823a7b1d6d209246913d3c33c6",
        "gas": "0x19291",
        "value": "0x0",
        "input": "0x507817bb0000000000000000000000000000000000000000000000000000000000000200000000000000000000000000000000000000000000000000000000000000024000000000000000000000000000000000000000000000000000000000000002800000000000000000000000000000000000000000000000000000000000000300000000000000000000000000000000000000000000000000000000000000038000000000000000000000000000000000000000000000000000000000000004400000000000000000000000000000000000000000000000000000000000000540000000000000000000000000000000000000000000000000000000000000068000000000000000000000000000000000000000000000000000000000000008000000000000000000000000000000000000000000000000000000000000000860000000000000000000000000000000000000000000000000000000012a05f2000000000000000000000000000000000000000000000000000000000000000003000000000000000000000000000000000000000000000000000000006747399e00000000000000000000000000000000000000000000000000000000676ec69e00000000000000000000000000000000000000000000000000000000676c239e0000000000000000000000000000000000000000000000004563918244f400000000000000000000000000000000000000000000000000000000000000000011496e646f64617820496e737572616e6365000000000000000000000000000000000000000000000000000000000000000000000000000000000000000000000449445849000000000000000000000000000000000000000000000000000000000000000000000000000000000000000000000000000000000000000000000048687474703a2f2f7265732e636c6f7564696e6172792e636f6d2f72656e616b616167757374612f7261772f75706c6f61642f76313733323634323236332f696e646f6461782e6d64000000000000000000000000000000000000000000000000000000000000000000000000000000000000000000000000000000000000004b68747470733a2f2f7265732e636c6f7564696e6172792e636f6d2f72656e616b616167757374612f7261772f75706c6f61642f76313733323634323236342f696e646f6461782e6a736f6e00000000000000000000000000000000000000000000000000000000000000000000000000000000000000000000000000000000836375726c202d5820474554202768747470733a2f2f6170692e6e706f696e742e696f2f633961613365383030336163656231623962353227202d2d6865616465722027636f6e74656e742d747970653a206170706c69636174696f6e2f6a736f6e27202d2d6865616465722027782d6170692d6b65793a205345435245545f4b455927000000000000000000000000000000000000000000000000000000000000000000000000000000000000000000000000000000000000000000000000c23034323738643161326666353435326338396537313436393961373766383136323761396135383735313034633038303963663965306636646163663561326330646438343035383661363463666138396232643130343130376235636664383536396639363565366637356363346561633539393535663238643766316363373035373065363637636166323333653465616362633865626639353266613538316535336461653731353335313539393263363831643964663538616366623432000000000000000000000000000000000000000000000000000000000000000000000000000000000000000000000000000000000000000000000000011630346661623038636637326235656163323737653638663034623435653238386432656536386334663136393665343432653863303365633732373463376439646138336330646336313462383430653531386134643466643235356137656538633963646230346365626138346565613632316163343132363563356135616338306561636466653364643239346438313337373463316131636361656466393565393637636261663535346236633537373535356534663634666264323635643464626635333635633732323935366166653933643761643636636132613837303930646463333865353034643633383865366139313962333437643236353535383865366131313233316432343036646463650000000000000000000000000000000000000000000000000000000000000000000000000000000001463034393237656466343635346238663331323235306666386664366330336363346662666463626663326435613237393835393432626633393231313331666163373037336434653961643433613563363739633366313732653438373430356161313439623034613665643930376262626364333365643264363063623436373230653032376264663231633237656331353436396535663633623132323861373566613634316135356235626362336665623337646661303530666139383761313463323764636134386239326565613139313831633332356537366439643366373531303138653837343363343566613636666561303766356630313531616162333335613134666532396137656363326132386330313931306662653566353431636531663361316562343632356662636438323461333535303361346430303262000000000000000000000000000000000000000000000000000000000000000000000000000000000000000000000000000000000000000000315c7b2264617461223a5c7b2272656b7473223a5c5b283f3c65787472616374656456616c75653e2e2a3f295c5d5c7d5c7d00000000000000000000000000000000000000000000000000000000000000000000000000000000000000000000402270726f6a6563744e616d65225c732a3a5c732a22496e646f646178222c5c732a2266756e64734c6f7374225c732a3a5c732a22285b302d395d7b382c7d2922",
        "nonce": "0x64d",
        "chainId": "0x66eee"
      },
      "additionalContracts": [],
      "isFixedGasLimit": false
    },
    {
      "hash": "0xbf0c835fec218946b4a913d9efc734c20e8fa382e36563889a3e5de2fc019c69",
      "transactionType": "CALL",
      "contractName": null,
      "contractAddress": "0x94baa979f569edb2f33903d9ccec66b31c9620f5",
      "function": "approve(address,uint256)",
      "arguments": [
        "0x803c421eB97093a7F094E3d25bAB90eddc995D8e",
        "15000000000000000000"
      ],
      "transaction": {
        "from": "0x34728af7d0fc03cbbdff82b6d52aeda8c999e2b2",
        "to": "0x94baa979f569edb2f33903d9ccec66b31c9620f5",
        "gas": "0x10b8e",
        "value": "0x0",
        "input": "0x095ea7b3000000000000000000000000803c421eb97093a7f094e3d25bab90eddc995d8e000000000000000000000000000000000000000000000000d02ab486cedc0000",
        "nonce": "0x64e",
        "chainId": "0x66eee"
      },
      "additionalContracts": [],
      "isFixedGasLimit": false
    },
    {
      "hash": "0x7a4a8ea36f0007249b526a067b53048ecced8df714160f3b30cfe68d151fb396",
      "transactionType": "CALL",
      "contractName": "InsurancePool",
      "contractAddress": "0x803c421eb97093a7f094e3d25bab90eddc995d8e",
      "function": "initialDeposit()",
      "arguments": [],
      "transaction": {
        "from": "0x34728af7d0fc03cbbdff82b6d52aeda8c999e2b2",
        "to": "0x803c421eb97093a7f094e3d25bab90eddc995d8e",
        "gas": "0x8194",
        "value": "0x0",
        "input": "0xe037f889",
        "nonce": "0x64f",
        "chainId": "0x66eee"
      },
      "additionalContracts": [],
      "isFixedGasLimit": false
    },
    {
      "hash": "0x5f5a6497670fea04f56774f3c34c10df86d617cc6b8b11b660fa8f33d8388fe1",
      "transactionType": "CALL",
      "contractName": null,
      "contractAddress": "0x94baa979f569edb2f33903d9ccec66b31c9620f5",
      "function": "approve(address,uint256)",
      "arguments": [
        "0x803c421eB97093a7F094E3d25bAB90eddc995D8e",
        "2000000000000000000"
      ],
      "transaction": {
        "from": "0x94c83a5137751c4e6acc0cfdb09819b0b83582d1",
        "to": "0x94baa979f569edb2f33903d9ccec66b31c9620f5",
        "gas": "0x10b8e",
        "value": "0x0",
        "input": "0x095ea7b3000000000000000000000000803c421eb97093a7f094e3d25bab90eddc995d8e0000000000000000000000000000000000000000000000001bc16d674ec80000",
        "nonce": "0x48",
        "chainId": "0x66eee"
      },
      "additionalContracts": [],
      "isFixedGasLimit": false
    },
    {
      "hash": "0x5753dc15acca149a073ebfd1d32919af3f863c127683d21fcda57ff2c4e0516c",
      "transactionType": "CALL",
      "contractName": "InsurancePool",
      "contractAddress": "0x803c421eb97093a7f094e3d25bab90eddc995d8e",
      "function": "purchasePolicy(uint256,uint256,address)",
      "arguments": [
        "2000000000000000000",
        "2000000000000000000",
        "0x94c83a5137751C4E6acc0cFdB09819B0B83582D1"
      ],
      "transaction": {
        "from": "0x94c83a5137751c4e6acc0cfdb09819b0b83582d1",
        "to": "0x803c421eb97093a7f094e3d25bab90eddc995d8e",
        "gas": "0x9363",
        "value": "0x0",
        "input": "0x6178e44c0000000000000000000000000000000000000000000000001bc16d674ec800000000000000000000000000000000000000000000000000001bc16d674ec8000000000000000000000000000094c83a5137751c4e6acc0cfdb09819b0b83582d1",
        "nonce": "0x49",
        "chainId": "0x66eee"
      },
      "additionalContracts": [],
      "isFixedGasLimit": false
    },
    {
      "hash": "0x083ebb5fb7f801a1b7d1001c0a8f12f3181e19251c8fed0dac82ea53b092d825",
      "transactionType": "CALL",
      "contractName": null,
      "contractAddress": "0x94baa979f569edb2f33903d9ccec66b31c9620f5",
      "function": "approve(address,uint256)",
      "arguments": [
        "0x803c421eB97093a7F094E3d25bAB90eddc995D8e",
        "5000000005"
      ],
      "transaction": {
        "from": "0x94c83a5137751c4e6acc0cfdb09819b0b83582d1",
        "to": "0x94baa979f569edb2f33903d9ccec66b31c9620f5",
        "gas": "0x10b7e",
        "value": "0x0",
        "input": "0x095ea7b3000000000000000000000000803c421eb97093a7f094e3d25bab90eddc995d8e000000000000000000000000000000000000000000000000000000012a05f205",
        "nonce": "0x4a",
        "chainId": "0x66eee"
      },
      "additionalContracts": [],
      "isFixedGasLimit": false
    },
    {
      "hash": "0x67d022b899749003723fd9315cf59bff00e7f553e7be97c99c7076592a2bb2aa",
      "transactionType": "CALL",
      "contractName": "InsurancePool",
      "contractAddress": "0x803c421eb97093a7f094e3d25bab90eddc995d8e",
      "function": "submitClaim()",
      "arguments": [],
      "transaction": {
        "from": "0x94c83a5137751c4e6acc0cfdb09819b0b83582d1",
        "to": "0x803c421eb97093a7f094e3d25bab90eddc995d8e",
        "gas": "0x8194",
        "value": "0x0",
        "input": "0x1afbd128",
        "nonce": "0x4b",
        "chainId": "0x66eee"
      },
      "additionalContracts": [],
      "isFixedGasLimit": false
    }
  ],
  "receipts": [
    {
      "status": "0x1",
      "cumulativeGasUsed": "0x45056",
      "logs": [
        {
          "address": "0x94baa979f569edb2f33903d9ccec66b31c9620f5",
          "topics": [
            "0xddf252ad1be2c89b69c2b068fc378daa952ba7f163c4a11628f55a4df523b3ef",
            "0x0000000000000000000000000000000000000000000000000000000000000000",
            "0x00000000000000000000000034728af7d0fc03cbbdff82b6d52aeda8c999e2b2"
          ],
          "data": "0x0000000000000000000000000000000000000000000000008ac7230489e80000",
          "blockHash": "0xde42155d8204698c2f6c85744dcf159759fd041186e7fb5e2b040e0e4df5652b",
          "blockNumber": "0x6071469",
          "transactionHash": "0xd7afb857d58972e129244669a62174c754dc3d8091c3bc88aa89d6825e734155",
          "transactionIndex": "0x2",
          "logIndex": "0x2",
          "removed": false
        }
      ],
      "logsBloom": "0x00000000000000000000000000000000000000000000000000000000000000000000000000000000000000000000000000000000001000000000020000000000000000000000000040000008000000000000000000000000000000000000000000000000020000000000000000000800000000000000000100000010000000000000000000000000000000000000000000000000000000000000000000000000000000000000000000000000000000000000000000000000000000000000000000000002000000000000000000000000000200000000200000000000000020000000000000000000000000000000000000000000000000000000000000000000",
      "type": "0x2",
      "transactionHash": "0xd7afb857d58972e129244669a62174c754dc3d8091c3bc88aa89d6825e734155",
      "transactionIndex": "0x2",
      "blockHash": "0xde42155d8204698c2f6c85744dcf159759fd041186e7fb5e2b040e0e4df5652b",
      "blockNumber": "0x6071469",
      "gasUsed": "0x9eed",
      "effectiveGasPrice": "0x5f5e100",
      "from": "0x34728af7d0fc03cbbdff82b6d52aeda8c999e2b2",
      "to": "0x94baa979f569edb2f33903d9ccec66b31c9620f5",
      "contractAddress": null,
      "gasUsedForL1": "0x1220",
      "l1BlockNumber": "0x6d504c"
    },
    {
      "status": "0x1",
      "cumulativeGasUsed": "0xcb28c",
      "logs": [
        {
          "address": "0x94baa979f569edb2f33903d9ccec66b31c9620f5",
          "topics": [
            "0x8c5be1e5ebec7d5bd14f71427d1e84f3dd0314c0f7b2291e5b200ac8c7c3b925",
            "0x00000000000000000000000034728af7d0fc03cbbdff82b6d52aeda8c999e2b2",
            "0x000000000000000000000000654837fe31838bd0391188182a3ecdd402846d3a"
          ],
          "data": "0x0000000000000000000000000000000000000000000000008ac7230489e80000",
          "blockHash": "0xe949435989467275d103297f2b09aa12a86658b18f94856291f0a6d08eb547b1",
          "blockNumber": "0x6071470",
          "transactionHash": "0x187d50056a5a0db376e9fcc2a5d9ca0e10854150df35708c16a49d2ea99a411f",
          "transactionIndex": "0x4",
          "logIndex": "0xe",
          "removed": false
        }
      ],
      "logsBloom": "0x00000000000000000000000000000000000000000000000000000000000000000000000000000000000000000000000000000000001000000000020000200000000000000000000040000000000000000000000000000000000000000000000000000000000000000000000000000000000000000000000100000000002000000000000000000000000000000000000000000000000000000000000000000800020000000000000000000000000000000000000000000000000000000000000000000000000000000000000000000000000200000000200000000000000000000010000000000000000000000000000000000000000000000000800000000000",
      "type": "0x2",
      "transactionHash": "0x187d50056a5a0db376e9fcc2a5d9ca0e10854150df35708c16a49d2ea99a411f",
      "transactionIndex": "0x4",
      "blockHash": "0xe949435989467275d103297f2b09aa12a86658b18f94856291f0a6d08eb547b1",
      "blockNumber": "0x6071470",
      "gasUsed": "0xc5be",
      "effectiveGasPrice": "0x5f5e100",
      "from": "0x34728af7d0fc03cbbdff82b6d52aeda8c999e2b2",
      "to": "0x94baa979f569edb2f33903d9ccec66b31c9620f5",
      "contractAddress": null,
      "gasUsedForL1": "0x1239",
      "l1BlockNumber": "0x6d504c"
    },
    {
      "status": "0x1",
      "cumulativeGasUsed": "0x453c1",
      "logs": [
        {
          "address": "0x94baa979f569edb2f33903d9ccec66b31c9620f5",
          "topics": [
            "0xddf252ad1be2c89b69c2b068fc378daa952ba7f163c4a11628f55a4df523b3ef",
            "0x00000000000000000000000034728af7d0fc03cbbdff82b6d52aeda8c999e2b2",
            "0x000000000000000000000000654837fe31838bd0391188182a3ecdd402846d3a"
          ],
          "data": "0x0000000000000000000000000000000000000000000000008ac7230489e80000",
          "blockHash": "0xb1b5f2f577a02a2580ff9d16b8bd195fb73995919d1ffaa844a4c896ef842eef",
          "blockNumber": "0x6071477",
          "transactionHash": "0x4b110c80dec0d46c3daddc9c05a832d7814d07b9be45cf29b86b8b2d6e45cb17",
          "transactionIndex": "0x4",
          "logIndex": "0x1",
          "removed": false
        },
        {
          "address": "0x654837fe31838bd0391188182a3ecdd402846d3a",
          "topics": [
            "0xddf252ad1be2c89b69c2b068fc378daa952ba7f163c4a11628f55a4df523b3ef",
            "0x0000000000000000000000000000000000000000000000000000000000000000",
            "0x00000000000000000000000034728af7d0fc03cbbdff82b6d52aeda8c999e2b2"
          ],
          "data": "0x0000000000000000000000000000000000000000000000008ac7230489e80000",
          "blockHash": "0xb1b5f2f577a02a2580ff9d16b8bd195fb73995919d1ffaa844a4c896ef842eef",
          "blockNumber": "0x6071477",
          "transactionHash": "0x4b110c80dec0d46c3daddc9c05a832d7814d07b9be45cf29b86b8b2d6e45cb17",
          "transactionIndex": "0x4",
          "logIndex": "0x2",
          "removed": false
        },
        {
          "address": "0x654837fe31838bd0391188182a3ecdd402846d3a",
          "topics": [
            "0xdcbc1c05240f31ff3ad067ef1ee35ce4997762752e3a095284754544f4c709d7",
            "0x00000000000000000000000034728af7d0fc03cbbdff82b6d52aeda8c999e2b2",
            "0x00000000000000000000000034728af7d0fc03cbbdff82b6d52aeda8c999e2b2"
          ],
          "data": "0x0000000000000000000000000000000000000000000000008ac7230489e800000000000000000000000000000000000000000000000000008ac7230489e80000",
          "blockHash": "0xb1b5f2f577a02a2580ff9d16b8bd195fb73995919d1ffaa844a4c896ef842eef",
          "blockNumber": "0x6071477",
          "transactionHash": "0x4b110c80dec0d46c3daddc9c05a832d7814d07b9be45cf29b86b8b2d6e45cb17",
          "transactionIndex": "0x4",
          "logIndex": "0x3",
          "removed": false
        }
      ],
      "logsBloom": "0x00000000000000000000000000000000000000000000000000000000000000000000000000000000000000000000000000000000001000000000020000000000000000400000000040000008000000000000000000000000000000000000000000000000020000000000000000000800000000000004000100000010002000000000000000000000000000000000000000000000000000000000000000000800000000000000000000000000000000000000000000000000000000000000000000000002000400000000000000000000000200000008200000000000000020000000000000000000000000000040000000000000000000000400800000000000",
      "type": "0x2",
      "transactionHash": "0x4b110c80dec0d46c3daddc9c05a832d7814d07b9be45cf29b86b8b2d6e45cb17",
      "transactionIndex": "0x4",
      "blockHash": "0xb1b5f2f577a02a2580ff9d16b8bd195fb73995919d1ffaa844a4c896ef842eef",
      "blockNumber": "0x6071477",
      "gasUsed": "0xe412",
      "effectiveGasPrice": "0x5f5e100",
      "from": "0x34728af7d0fc03cbbdff82b6d52aeda8c999e2b2",
      "to": "0x654837fe31838bd0391188182a3ecdd402846d3a",
      "contractAddress": null,
      "gasUsedForL1": "0x1239",
      "l1BlockNumber": "0x6d504d"
    },
    {
      "status": "0x1",
      "cumulativeGasUsed": "0x6c1ef",
      "logs": [
        {
          "address": "0x94baa979f569edb2f33903d9ccec66b31c9620f5",
          "topics": [
            "0xddf252ad1be2c89b69c2b068fc378daa952ba7f163c4a11628f55a4df523b3ef",
            "0x00000000000000000000000034728af7d0fc03cbbdff82b6d52aeda8c999e2b2",
            "0x00000000000000000000000094c83a5137751c4e6acc0cfdb09819b0b83582d1"
          ],
          "data": "0x0000000000000000000000000000000000000000000000000de0b6b3a7640000",
          "blockHash": "0x34131804a9d15331ea86be245730ed1d18a1df8a695800b03f79f93357ff0d6e",
          "blockNumber": "0x6071480",
          "transactionHash": "0xdf4f6990ec53dc11a2a7bcf23ac1b21ef3e24bc5627d70bf4c83eb91b9bdb552",
          "transactionIndex": "0x3",
          "logIndex": "0x5",
          "removed": false
        }
      ],
      "logsBloom": "0x00000000000000000000000000000000000000000000000000000000000020000000000000000000000000000000000000000000001000000000020000000000000000000000000040000008000000000000000000000000000000000000000000000000000000000000000000000000000000000000000100000010000000000000000000000000000000000000000000000000000000000000000000000000000000000000000000000000000000000000000000000000000000000000000000000002000000000000000000000000000200000000200000000000000000000002000000000000000000000000000000000000000000000010000000000000",
      "type": "0x2",
      "transactionHash": "0xdf4f6990ec53dc11a2a7bcf23ac1b21ef3e24bc5627d70bf4c83eb91b9bdb552",
      "transactionIndex": "0x3",
      "blockHash": "0x34131804a9d15331ea86be245730ed1d18a1df8a695800b03f79f93357ff0d6e",
      "blockNumber": "0x6071480",
      "gasUsed": "0x97a8",
      "effectiveGasPrice": "0x5f5e100",
      "from": "0x34728af7d0fc03cbbdff82b6d52aeda8c999e2b2",
      "to": "0x94baa979f569edb2f33903d9ccec66b31c9620f5",
      "contractAddress": null,
      "gasUsedForL1": "0x1220",
      "l1BlockNumber": "0x6d504d"
    },
    {
      "status": "0x1",
      "cumulativeGasUsed": "0x4c2e5e",
      "logs": [],
      "logsBloom": "0x00000000000000000000000000000000000000000000000000000000000000000000000000000000000000000000000000000000000000000000000000000000000000000000000000000000000000000000000000000000000000000000000000000000000000000000000000000000000000000000000000000000000000000000000000000000000000000000000000000000000000000000000000000000000000000000000000000000000000000000000000000000000000000000000000000000000000000000000000000000000000000000000000000000000000000000000000000000000000000000000000000000000000000000000000000000",
      "type": "0x2",
      "transactionHash": "0x831dc0fda9265bce34ffe0801ae6f9bb52412cfa063e901e2a848733de31a587",
      "transactionIndex": "0x3",
      "blockHash": "0x7bc01b533b059ae6b55538b5fca08ae55f1beeb488b2fdb54d53567652468c40",
      "blockNumber": "0x607148a",
      "gasUsed": "0x48e97d",
      "effectiveGasPrice": "0x5f5e100",
      "from": "0x34728af7d0fc03cbbdff82b6d52aeda8c999e2b2",
      "to": null,
      "contractAddress": "0x35b5da7f73425e823a7b1d6d209246913d3c33c6",
      "gasUsedForL1": "0x3d662",
      "l1BlockNumber": "0x6d504d"
    },
    {
      "status": "0x1",
      "cumulativeGasUsed": "0x65eee",
      "logs": [
        {
          "address": "0x514e98bf82e864f64a53c85f0276832388f2baa0",
          "topics": [
            "0xe67ddf372291fd94b39c4645817076a797a73cfdfbbf169187f7e5c374dfaeb0"
          ],
          "data": "0x00000000000000000000000035b5da7f73425e823a7b1d6d209246913d3c33c60000000000000000000000000000000000000000000000000000000000000040000000000000000000000000000000000000000000000000000000000000008230346662363131303837393038643838336431306431623936333361373330316237333465623639333838386230303661353433613034343239633634333064383239626234643664643665646130653233363166663135336333393833383866346663326237613662363430663664636230383365373633623662653161353638000000000000000000000000000000000000000000000000000000000000",
          "blockHash": "0x422dca4811ff8b2fc73a4ef7c207e4618575153815cf6bf6276c4dc56e716f4f",
          "blockNumber": "0x6071492",
          "transactionHash": "0x767bce7f5dac8a29790b0a432c5e4d323ea8ec0e839e3bababa2670df638d37e",
          "transactionIndex": "0x3",
          "logIndex": "0x3",
          "removed": false
        }
      ],
      "logsBloom": "0x00000000000000000000000000000000000100000000000000000000000000000000000000000000000000000000000000000000000000000000000000000000000000000000000000000000000000000000000000000000000000000000000000000002000000000010000000000000000000000000000000000000000000000000000000000000000000000000000000000000000000000000000000000000000000000000000000002000000000000000000000000000000000000000000000000000000000000000000000000000000000000000000000200000000000000000000000000000000000000000000000000000000000000000000000000008",
      "type": "0x2",
      "transactionHash": "0x767bce7f5dac8a29790b0a432c5e4d323ea8ec0e839e3bababa2670df638d37e",
      "transactionIndex": "0x3",
      "blockHash": "0x422dca4811ff8b2fc73a4ef7c207e4618575153815cf6bf6276c4dc56e716f4f",
      "blockNumber": "0x6071492",
      "gasUsed": "0x31002",
      "effectiveGasPrice": "0x5f5e100",
      "from": "0x34728af7d0fc03cbbdff82b6d52aeda8c999e2b2",
      "to": "0x514e98bf82e864f64a53c85f0276832388f2baa0",
      "contractAddress": null,
      "gasUsedForL1": "0x2310",
      "l1BlockNumber": "0x6d504d"
    },
    {
      "status": "0x1",
      "cumulativeGasUsed": "0x4410b8",
      "logs": [
        {
          "address": "0x35b5da7f73425e823a7b1d6d209246913d3c33c6",
          "topics": [
            "0xdb952deb284a7ca1809707c5a72df8b398c71835d54ca9755ffe994e8baa2aa1",
            "0x00000000000000000000000034728af7d0fc03cbbdff82b6d52aeda8c999e2b2",
            "0x000000000000000000000000803c421eb97093a7f094e3d25bab90eddc995d8e"
          ],
          "data": "0x0000000000000000000000000000000000000000000000000000000000000200000000000000000000000000000000000000000000000000000000000000024000000000000000000000000000000000000000000000000000000000000002800000000000000000000000000000000000000000000000000000000000000300000000000000000000000000000000000000000000000000000000000000038000000000000000000000000000000000000000000000000000000000000004400000000000000000000000000000000000000000000000000000000000000540000000000000000000000000000000000000000000000000000000000000068000000000000000000000000000000000000000000000000000000000000008000000000000000000000000000000000000000000000000000000000000000860000000000000000000000000000000000000000000000000000000012a05f2000000000000000000000000000000000000000000000000000000000000000003000000000000000000000000000000000000000000000000000000006747399e00000000000000000000000000000000000000000000000000000000676ec69e00000000000000000000000000000000000000000000000000000000676c239e0000000000000000000000000000000000000000000000004563918244f400000000000000000000000000000000000000000000000000000000000000000011496e646f64617820496e737572616e6365000000000000000000000000000000000000000000000000000000000000000000000000000000000000000000000449445849000000000000000000000000000000000000000000000000000000000000000000000000000000000000000000000000000000000000000000000048687474703a2f2f7265732e636c6f7564696e6172792e636f6d2f72656e616b616167757374612f7261772f75706c6f61642f76313733323634323236332f696e646f6461782e6d64000000000000000000000000000000000000000000000000000000000000000000000000000000000000000000000000000000000000004b68747470733a2f2f7265732e636c6f7564696e6172792e636f6d2f72656e616b616167757374612f7261772f75706c6f61642f76313733323634323236342f696e646f6461782e6a736f6e00000000000000000000000000000000000000000000000000000000000000000000000000000000000000000000000000000000836375726c202d5820474554202768747470733a2f2f6170692e6e706f696e742e696f2f633961613365383030336163656231623962353227202d2d6865616465722027636f6e74656e742d747970653a206170706c69636174696f6e2f6a736f6e27202d2d6865616465722027782d6170692d6b65793a205345435245545f4b455927000000000000000000000000000000000000000000000000000000000000000000000000000000000000000000000000000000000000000000000000c23034323738643161326666353435326338396537313436393961373766383136323761396135383735313034633038303963663965306636646163663561326330646438343035383661363463666138396232643130343130376235636664383536396639363565366637356363346561633539393535663238643766316363373035373065363637636166323333653465616362633865626639353266613538316535336461653731353335313539393263363831643964663538616366623432000000000000000000000000000000000000000000000000000000000000000000000000000000000000000000000000000000000000000000000000011630346661623038636637326235656163323737653638663034623435653238386432656536386334663136393665343432653863303365633732373463376439646138336330646336313462383430653531386134643466643235356137656538633963646230346365626138346565613632316163343132363563356135616338306561636466653364643239346438313337373463316131636361656466393565393637636261663535346236633537373535356534663634666264323635643464626635333635633732323935366166653933643761643636636132613837303930646463333865353034643633383865366139313962333437643236353535383865366131313233316432343036646463650000000000000000000000000000000000000000000000000000000000000000000000000000000001463034393237656466343635346238663331323235306666386664366330336363346662666463626663326435613237393835393432626633393231313331666163373037336434653961643433613563363739633366313732653438373430356161313439623034613665643930376262626364333365643264363063623436373230653032376264663231633237656331353436396535663633623132323861373566613634316135356235626362336665623337646661303530666139383761313463323764636134386239326565613139313831633332356537366439643366373531303138653837343363343566613636666561303766356630313531616162333335613134666532396137656363326132386330313931306662653566353431636531663361316562343632356662636438323461333535303361346430303262000000000000000000000000000000000000000000000000000000000000000000000000000000000000000000000000000000000000000000315c7b2264617461223a5c7b2272656b7473223a5c5b283f3c65787472616374656456616c75653e2e2a3f295c5d5c7d5c7d00000000000000000000000000000000000000000000000000000000000000000000000000000000000000000000402270726f6a6563744e616d65225c732a3a5c732a22496e646f646178222c5c732a2266756e64734c6f7374225c732a3a5c732a22285b302d395d7b382c7d2922",
          "blockHash": "0xc8f1ed6f687df92c4c84f83840ecaac5ca4ccfb38f0aaa183832b6eb2cafe7f2",
          "blockNumber": "0x60714a0",
          "transactionHash": "0xffd7dfc49540d07021e66333c172cc55a71a52a6433a90e12711385da8f057b3",
          "transactionIndex": "0x2",
          "logIndex": "0x2",
          "removed": false
        }
      ],
      "logsBloom": "0x00000000000000000000000000000000000000000000000000000000000000000000001000000000000000000000000000008000001000000000000000000000000000000000000040000000000000000000000000000000000000000000000000000000000000000001000000000000000000000000000000000000000000000000000000000000000000000000000000001000000000000000000000000000010000000000000000000000000000000000000000000000000008000000000000000000000000000000000000000000000000000010200000008000000000000000000000000000000000000000000000008000000000000000000000000000",
      "type": "0x2",
      "transactionHash": "0xffd7dfc49540d07021e66333c172cc55a71a52a6433a90e12711385da8f057b3",
      "transactionIndex": "0x2",
      "blockHash": "0xc8f1ed6f687df92c4c84f83840ecaac5ca4ccfb38f0aaa183832b6eb2cafe7f2",
      "blockNumber": "0x60714a0",
      "gasUsed": "0x4061d3",
      "effectiveGasPrice": "0x5f5e100",
      "from": "0x34728af7d0fc03cbbdff82b6d52aeda8c999e2b2",
      "to": "0x35b5da7f73425e823a7b1d6d209246913d3c33c6",
      "contractAddress": null,
      "gasUsedForL1": "0x7039",
      "l1BlockNumber": "0x6d504d"
    },
    {
      "status": "0x1",
      "cumulativeGasUsed": "0x5e641",
      "logs": [
        {
          "address": "0x94baa979f569edb2f33903d9ccec66b31c9620f5",
          "topics": [
            "0x8c5be1e5ebec7d5bd14f71427d1e84f3dd0314c0f7b2291e5b200ac8c7c3b925",
            "0x00000000000000000000000034728af7d0fc03cbbdff82b6d52aeda8c999e2b2",
            "0x000000000000000000000000803c421eb97093a7f094e3d25bab90eddc995d8e"
          ],
          "data": "0x000000000000000000000000000000000000000000000000d02ab486cedc0000",
          "blockHash": "0xf42c5226d654627347b73d7d136b8ca464ce17d19943f5496a6b6a8f835dd7b9",
          "blockNumber": "0x60714a8",
          "transactionHash": "0xbf0c835fec218946b4a913d9efc734c20e8fa382e36563889a3e5de2fc019c69",
          "transactionIndex": "0x2",
          "logIndex": "0x4",
          "removed": false
        }
      ],
      "logsBloom": "0x00000000000000000000000000000000000000000000000000000000000000000000000000000000000000000000000000000000001000000000020000200000000000000000000040000000000000000000000000000000000000000000000000000000000000000001000000000000000000000000000100000000000000000000000000000000000000000000000000001000000000000000000000000000020000000000000000000000000000000000000000000000000000000000000000000000000000000000000000000000000200000010200000000000000000000010000000000000000000000000000000000000000000000000000000000000",
      "type": "0x2",
      "transactionHash": "0xbf0c835fec218946b4a913d9efc734c20e8fa382e36563889a3e5de2fc019c69",
      "transactionIndex": "0x2",
      "blockHash": "0xf42c5226d654627347b73d7d136b8ca464ce17d19943f5496a6b6a8f835dd7b9",
      "blockNumber": "0x60714a8",
      "gasUsed": "0xc5be",
      "effectiveGasPrice": "0x5f5e100",
      "from": "0x34728af7d0fc03cbbdff82b6d52aeda8c999e2b2",
      "to": "0x94baa979f569edb2f33903d9ccec66b31c9620f5",
      "contractAddress": null,
      "gasUsedForL1": "0x1239",
      "l1BlockNumber": "0x6d504d"
    },
    {
      "status": "0x1",
      "cumulativeGasUsed": "0x72f39",
      "logs": [
        {
          "address": "0x94baa979f569edb2f33903d9ccec66b31c9620f5",
          "topics": [
            "0xddf252ad1be2c89b69c2b068fc378daa952ba7f163c4a11628f55a4df523b3ef",
            "0x00000000000000000000000034728af7d0fc03cbbdff82b6d52aeda8c999e2b2",
            "0x000000000000000000000000803c421eb97093a7f094e3d25bab90eddc995d8e"
          ],
          "data": "0x000000000000000000000000000000000000000000000000d02ab486cedc0000",
          "blockHash": "0x78059b53c446a6e07d21fb1a593cb0c66a35456a8839984b405fbf69d42385d8",
          "blockNumber": "0x60714b0",
          "transactionHash": "0x7a4a8ea36f0007249b526a067b53048ecced8df714160f3b30cfe68d151fb396",
          "transactionIndex": "0x3",
          "logIndex": "0x3",
          "removed": false
        },
        {
          "address": "0x803c421eb97093a7f094e3d25bab90eddc995d8e",
          "topics": [
            "0xddf252ad1be2c89b69c2b068fc378daa952ba7f163c4a11628f55a4df523b3ef",
            "0x0000000000000000000000000000000000000000000000000000000000000000",
            "0x000000000000000000000000803c421eb97093a7f094e3d25bab90eddc995d8e"
          ],
          "data": "0x000000000000000000000000000000000000000000000000d02ab486cedc0000",
          "blockHash": "0x78059b53c446a6e07d21fb1a593cb0c66a35456a8839984b405fbf69d42385d8",
          "blockNumber": "0x60714b0",
          "transactionHash": "0x7a4a8ea36f0007249b526a067b53048ecced8df714160f3b30cfe68d151fb396",
          "transactionIndex": "0x3",
          "logIndex": "0x4",
          "removed": false
        },
        {
          "address": "0x94baa979f569edb2f33903d9ccec66b31c9620f5",
          "topics": [
            "0x8c5be1e5ebec7d5bd14f71427d1e84f3dd0314c0f7b2291e5b200ac8c7c3b925",
            "0x000000000000000000000000803c421eb97093a7f094e3d25bab90eddc995d8e",
            "0x000000000000000000000000654837fe31838bd0391188182a3ecdd402846d3a"
          ],
          "data": "0x000000000000000000000000000000000000000000000000d02ab486cedc0000",
          "blockHash": "0x78059b53c446a6e07d21fb1a593cb0c66a35456a8839984b405fbf69d42385d8",
          "blockNumber": "0x60714b0",
          "transactionHash": "0x7a4a8ea36f0007249b526a067b53048ecced8df714160f3b30cfe68d151fb396",
          "transactionIndex": "0x3",
          "logIndex": "0x5",
          "removed": false
        },
        {
          "address": "0x94baa979f569edb2f33903d9ccec66b31c9620f5",
          "topics": [
            "0xddf252ad1be2c89b69c2b068fc378daa952ba7f163c4a11628f55a4df523b3ef",
            "0x000000000000000000000000803c421eb97093a7f094e3d25bab90eddc995d8e",
            "0x000000000000000000000000654837fe31838bd0391188182a3ecdd402846d3a"
          ],
          "data": "0x000000000000000000000000000000000000000000000000d02ab486cedc0000",
          "blockHash": "0x78059b53c446a6e07d21fb1a593cb0c66a35456a8839984b405fbf69d42385d8",
          "blockNumber": "0x60714b0",
          "transactionHash": "0x7a4a8ea36f0007249b526a067b53048ecced8df714160f3b30cfe68d151fb396",
          "transactionIndex": "0x3",
          "logIndex": "0x6",
          "removed": false
        },
        {
          "address": "0x654837fe31838bd0391188182a3ecdd402846d3a",
          "topics": [
            "0xddf252ad1be2c89b69c2b068fc378daa952ba7f163c4a11628f55a4df523b3ef",
            "0x0000000000000000000000000000000000000000000000000000000000000000",
            "0x000000000000000000000000803c421eb97093a7f094e3d25bab90eddc995d8e"
          ],
          "data": "0x000000000000000000000000000000000000000000000000d02ab486cedc0000",
          "blockHash": "0x78059b53c446a6e07d21fb1a593cb0c66a35456a8839984b405fbf69d42385d8",
          "blockNumber": "0x60714b0",
          "transactionHash": "0x7a4a8ea36f0007249b526a067b53048ecced8df714160f3b30cfe68d151fb396",
          "transactionIndex": "0x3",
          "logIndex": "0x7",
          "removed": false
        },
        {
          "address": "0x654837fe31838bd0391188182a3ecdd402846d3a",
          "topics": [
            "0xdcbc1c05240f31ff3ad067ef1ee35ce4997762752e3a095284754544f4c709d7",
            "0x000000000000000000000000803c421eb97093a7f094e3d25bab90eddc995d8e",
            "0x000000000000000000000000803c421eb97093a7f094e3d25bab90eddc995d8e"
          ],
          "data": "0x000000000000000000000000000000000000000000000000d02ab486cedc0000000000000000000000000000000000000000000000000000d02ab486cedc0000",
          "blockHash": "0x78059b53c446a6e07d21fb1a593cb0c66a35456a8839984b405fbf69d42385d8",
          "blockNumber": "0x60714b0",
          "transactionHash": "0x7a4a8ea36f0007249b526a067b53048ecced8df714160f3b30cfe68d151fb396",
          "transactionIndex": "0x3",
          "logIndex": "0x8",
          "removed": false
        },
        {
          "address": "0x803c421eb97093a7f094e3d25bab90eddc995d8e",
          "topics": [
            "0x227a473b70d2f893cc7659219575c030a63b5743024fe1e0c1a680e708b1525a"
          ],
          "data": "0x000000000000000000000000000000000000000000000000d02ab486cedc0000",
          "blockHash": "0x78059b53c446a6e07d21fb1a593cb0c66a35456a8839984b405fbf69d42385d8",
          "blockNumber": "0x60714b0",
          "transactionHash": "0x7a4a8ea36f0007249b526a067b53048ecced8df714160f3b30cfe68d151fb396",
          "transactionIndex": "0x3",
          "logIndex": "0x9",
          "removed": false
        },
        {
          "address": "0x803c421eb97093a7f094e3d25bab90eddc995d8e",
          "topics": [
            "0xe1fffcc4923d04b559f4d29a8bfc6cda04eb5b0d3c460751c2402c5c5cc9109c",
            "0x00000000000000000000000034728af7d0fc03cbbdff82b6d52aeda8c999e2b2"
          ],
          "data": "0x000000000000000000000000000000000000000000000000d02ab486cedc0000",
          "blockHash": "0x78059b53c446a6e07d21fb1a593cb0c66a35456a8839984b405fbf69d42385d8",
          "blockNumber": "0x60714b0",
          "transactionHash": "0x7a4a8ea36f0007249b526a067b53048ecced8df714160f3b30cfe68d151fb396",
          "transactionIndex": "0x3",
          "logIndex": "0xa",
          "removed": false
        }
      ],
      "logsBloom": "0x00000000000000000000000000000000000000000000000000000000000000000000040000000000000000000000000000000000001000000000020000200000000000400000000040000008000000000000000000000000000000008000000000000000020000000001000000000800000000000004000100000010022000000004000000000000000000000000000000001001000000000000000000000800020000000000000800000000000001000000000000000000000000000000000000000002000400000000000000000000000200000018200000000000000020000010000000000000000000000040000000008000000000400400800000000000",
      "type": "0x2",
      "transactionHash": "0x7a4a8ea36f0007249b526a067b53048ecced8df714160f3b30cfe68d151fb396",
      "transactionIndex": "0x3",
      "blockHash": "0x78059b53c446a6e07d21fb1a593cb0c66a35456a8839984b405fbf69d42385d8",
      "blockNumber": "0x60714b0",
      "gasUsed": "0x2dbde",
      "effectiveGasPrice": "0x5f5e100",
      "from": "0x34728af7d0fc03cbbdff82b6d52aeda8c999e2b2",
      "to": "0x803c421eb97093a7f094e3d25bab90eddc995d8e",
      "contractAddress": null,
      "gasUsedForL1": "0xbc9",
      "l1BlockNumber": "0x6d504d"
    },
    {
      "status": "0x1",
      "cumulativeGasUsed": "0x47b27",
      "logs": [
        {
          "address": "0x94baa979f569edb2f33903d9ccec66b31c9620f5",
          "topics": [
            "0x8c5be1e5ebec7d5bd14f71427d1e84f3dd0314c0f7b2291e5b200ac8c7c3b925",
            "0x00000000000000000000000094c83a5137751c4e6acc0cfdb09819b0b83582d1",
            "0x000000000000000000000000803c421eb97093a7f094e3d25bab90eddc995d8e"
          ],
          "data": "0x0000000000000000000000000000000000000000000000001bc16d674ec80000",
          "blockHash": "0x0c1cfc9fd26db08e25a3b9e3a50e3dded1240c182c9a41fb36a471af1e73fffb",
          "blockNumber": "0x60714b8",
          "transactionHash": "0x5f5a6497670fea04f56774f3c34c10df86d617cc6b8b11b660fa8f33d8388fe1",
          "transactionIndex": "0x2",
          "logIndex": "0x2",
          "removed": false
        }
      ],
      "logsBloom": "0x00000000000000000000000000000000000000000000000000000000000020000000000000000000000000000000000000000000000000000000020000200000000000000000000000000000000000000000000000000000000000000000000000000000000000000001000000000000000000000000000100000000000000000000000000000000000000000000000000001000000000000000000000000000020000000000000000000000000000000000000000000000000000000000000000000000000000000000000000000000000200000010000000000000000000000012000000000000000000000000000000000000000000000010000000000000",
      "type": "0x2",
      "transactionHash": "0x5f5a6497670fea04f56774f3c34c10df86d617cc6b8b11b660fa8f33d8388fe1",
      "transactionIndex": "0x2",
      "blockHash": "0x0c1cfc9fd26db08e25a3b9e3a50e3dded1240c182c9a41fb36a471af1e73fffb",
      "blockNumber": "0x60714b8",
      "gasUsed": "0xc58b",
      "effectiveGasPrice": "0x5f5e100",
      "from": "0x94c83a5137751c4e6acc0cfdb09819b0b83582d1",
      "to": "0x94baa979f569edb2f33903d9ccec66b31c9620f5",
      "contractAddress": null,
      "gasUsedForL1": "0x1206",
      "l1BlockNumber": "0x6d504f"
    },
    {
      "status": "0x1",
      "cumulativeGasUsed": "0xc74f2",
      "logs": [
        {
          "address": "0x94baa979f569edb2f33903d9ccec66b31c9620f5",
          "topics": [
            "0xddf252ad1be2c89b69c2b068fc378daa952ba7f163c4a11628f55a4df523b3ef",
            "0x00000000000000000000000094c83a5137751c4e6acc0cfdb09819b0b83582d1",
            "0x000000000000000000000000803c421eb97093a7f094e3d25bab90eddc995d8e"
          ],
          "data": "0x0000000000000000000000000000000000000000000000001bc16d674ec80000",
          "blockHash": "0x74cd7e6b2b7d7876d6aaaf0d78129eeb8a5b45466552629c6fc75669098a3a46",
          "blockNumber": "0x60714bf",
          "transactionHash": "0x5753dc15acca149a073ebfd1d32919af3f863c127683d21fcda57ff2c4e0516c",
          "transactionIndex": "0x5",
          "logIndex": "0x8",
          "removed": false
        },
        {
          "address": "0x803c421eb97093a7f094e3d25bab90eddc995d8e",
          "topics": [
            "0xddf252ad1be2c89b69c2b068fc378daa952ba7f163c4a11628f55a4df523b3ef",
            "0x0000000000000000000000000000000000000000000000000000000000000000",
            "0x00000000000000000000000094c83a5137751c4e6acc0cfdb09819b0b83582d1"
          ],
          "data": "0x0000000000000000000000000000000000000000000000001bc16d674ec80000",
          "blockHash": "0x74cd7e6b2b7d7876d6aaaf0d78129eeb8a5b45466552629c6fc75669098a3a46",
          "blockNumber": "0x60714bf",
          "transactionHash": "0x5753dc15acca149a073ebfd1d32919af3f863c127683d21fcda57ff2c4e0516c",
          "transactionIndex": "0x5",
          "logIndex": "0x9",
          "removed": false
        },
        {
          "address": "0x94baa979f569edb2f33903d9ccec66b31c9620f5",
          "topics": [
            "0x8c5be1e5ebec7d5bd14f71427d1e84f3dd0314c0f7b2291e5b200ac8c7c3b925",
            "0x000000000000000000000000803c421eb97093a7f094e3d25bab90eddc995d8e",
            "0x000000000000000000000000654837fe31838bd0391188182a3ecdd402846d3a"
          ],
          "data": "0x0000000000000000000000000000000000000000000000001bc16d674ec80000",
          "blockHash": "0x74cd7e6b2b7d7876d6aaaf0d78129eeb8a5b45466552629c6fc75669098a3a46",
          "blockNumber": "0x60714bf",
          "transactionHash": "0x5753dc15acca149a073ebfd1d32919af3f863c127683d21fcda57ff2c4e0516c",
          "transactionIndex": "0x5",
          "logIndex": "0xa",
          "removed": false
        },
        {
          "address": "0x94baa979f569edb2f33903d9ccec66b31c9620f5",
          "topics": [
            "0xddf252ad1be2c89b69c2b068fc378daa952ba7f163c4a11628f55a4df523b3ef",
            "0x000000000000000000000000803c421eb97093a7f094e3d25bab90eddc995d8e",
            "0x000000000000000000000000654837fe31838bd0391188182a3ecdd402846d3a"
          ],
          "data": "0x0000000000000000000000000000000000000000000000001bc16d674ec80000",
          "blockHash": "0x74cd7e6b2b7d7876d6aaaf0d78129eeb8a5b45466552629c6fc75669098a3a46",
          "blockNumber": "0x60714bf",
          "transactionHash": "0x5753dc15acca149a073ebfd1d32919af3f863c127683d21fcda57ff2c4e0516c",
          "transactionIndex": "0x5",
          "logIndex": "0xb",
          "removed": false
        },
        {
          "address": "0x654837fe31838bd0391188182a3ecdd402846d3a",
          "topics": [
            "0xddf252ad1be2c89b69c2b068fc378daa952ba7f163c4a11628f55a4df523b3ef",
            "0x0000000000000000000000000000000000000000000000000000000000000000",
            "0x000000000000000000000000803c421eb97093a7f094e3d25bab90eddc995d8e"
          ],
          "data": "0x0000000000000000000000000000000000000000000000001bc16d674ec80000",
          "blockHash": "0x74cd7e6b2b7d7876d6aaaf0d78129eeb8a5b45466552629c6fc75669098a3a46",
          "blockNumber": "0x60714bf",
          "transactionHash": "0x5753dc15acca149a073ebfd1d32919af3f863c127683d21fcda57ff2c4e0516c",
          "transactionIndex": "0x5",
          "logIndex": "0xc",
          "removed": false
        },
        {
          "address": "0x654837fe31838bd0391188182a3ecdd402846d3a",
          "topics": [
            "0xdcbc1c05240f31ff3ad067ef1ee35ce4997762752e3a095284754544f4c709d7",
            "0x000000000000000000000000803c421eb97093a7f094e3d25bab90eddc995d8e",
            "0x000000000000000000000000803c421eb97093a7f094e3d25bab90eddc995d8e"
          ],
          "data": "0x0000000000000000000000000000000000000000000000001bc16d674ec800000000000000000000000000000000000000000000000000001bc16d674ec80000",
          "blockHash": "0x74cd7e6b2b7d7876d6aaaf0d78129eeb8a5b45466552629c6fc75669098a3a46",
          "blockNumber": "0x60714bf",
          "transactionHash": "0x5753dc15acca149a073ebfd1d32919af3f863c127683d21fcda57ff2c4e0516c",
          "transactionIndex": "0x5",
          "logIndex": "0xd",
          "removed": false
        },
        {
          "address": "0x803c421eb97093a7f094e3d25bab90eddc995d8e",
          "topics": [
            "0x227a473b70d2f893cc7659219575c030a63b5743024fe1e0c1a680e708b1525a"
          ],
          "data": "0x0000000000000000000000000000000000000000000000001bc16d674ec80000",
          "blockHash": "0x74cd7e6b2b7d7876d6aaaf0d78129eeb8a5b45466552629c6fc75669098a3a46",
          "blockNumber": "0x60714bf",
          "transactionHash": "0x5753dc15acca149a073ebfd1d32919af3f863c127683d21fcda57ff2c4e0516c",
          "transactionIndex": "0x5",
          "logIndex": "0xe",
          "removed": false
        },
        {
          "address": "0x803c421eb97093a7f094e3d25bab90eddc995d8e",
          "topics": [
            "0xe1fffcc4923d04b559f4d29a8bfc6cda04eb5b0d3c460751c2402c5c5cc9109c",
            "0x00000000000000000000000094c83a5137751c4e6acc0cfdb09819b0b83582d1"
          ],
          "data": "0x0000000000000000000000000000000000000000000000001bc16d674ec80000",
          "blockHash": "0x74cd7e6b2b7d7876d6aaaf0d78129eeb8a5b45466552629c6fc75669098a3a46",
          "blockNumber": "0x60714bf",
          "transactionHash": "0x5753dc15acca149a073ebfd1d32919af3f863c127683d21fcda57ff2c4e0516c",
          "transactionIndex": "0x5",
          "logIndex": "0xf",
          "removed": false
        },
        {
          "address": "0x803c421eb97093a7f094e3d25bab90eddc995d8e",
          "topics": [
            "0x1ec6ca237cf412015f109db027dc71b2292a20387279781fd699c4ec328a23d7",
            "0x00000000000000000000000094c83a5137751c4e6acc0cfdb09819b0b83582d1"
          ],
          "data": "0x0000000000000000000000000000000000000000000000001bc16d674ec80000",
          "blockHash": "0x74cd7e6b2b7d7876d6aaaf0d78129eeb8a5b45466552629c6fc75669098a3a46",
          "blockNumber": "0x60714bf",
          "transactionHash": "0x5753dc15acca149a073ebfd1d32919af3f863c127683d21fcda57ff2c4e0516c",
          "transactionIndex": "0x5",
          "logIndex": "0x10",
          "removed": false
        }
      ],
      "logsBloom": "0x00000000000000000000000000000000000000000000000000000000000020000000040000000000000000000000000000000000000000000000020000200000000000400000000000000008000000000000000000000000000000008000000000000000020000000001000000000800000000000004000100000010022000000004000000000000000000000000000000001001000000000000000000000800020000000000000800000000000001000000000000000000000000000000000000000002000400000000000000000004000200000018000000000000000020000812000000000000000000000840000000008000000000400410800000000000",
      "type": "0x2",
      "transactionHash": "0x5753dc15acca149a073ebfd1d32919af3f863c127683d21fcda57ff2c4e0516c",
      "transactionIndex": "0x5",
      "blockHash": "0x74cd7e6b2b7d7876d6aaaf0d78129eeb8a5b45466552629c6fc75669098a3a46",
      "blockNumber": "0x60714bf",
      "gasUsed": "0x26c62",
      "effectiveGasPrice": "0x5f5e100",
      "from": "0x94c83a5137751c4e6acc0cfdb09819b0b83582d1",
      "to": "0x803c421eb97093a7f094e3d25bab90eddc995d8e",
      "contractAddress": null,
      "gasUsedForL1": "0x1532",
      "l1BlockNumber": "0x6d504f"
    },
    {
      "status": "0x1",
      "cumulativeGasUsed": "0x47743",
      "logs": [
        {
          "address": "0x94baa979f569edb2f33903d9ccec66b31c9620f5",
          "topics": [
            "0x8c5be1e5ebec7d5bd14f71427d1e84f3dd0314c0f7b2291e5b200ac8c7c3b925",
            "0x00000000000000000000000094c83a5137751c4e6acc0cfdb09819b0b83582d1",
            "0x000000000000000000000000803c421eb97093a7f094e3d25bab90eddc995d8e"
          ],
          "data": "0x000000000000000000000000000000000000000000000000000000012a05f205",
          "blockHash": "0x7cd5d364e6b1c0e03549de5c329b7d4b54a37fa4bd5003bda3d2217ab8584d81",
          "blockNumber": "0x60714c7",
          "transactionHash": "0x083ebb5fb7f801a1b7d1001c0a8f12f3181e19251c8fed0dac82ea53b092d825",
          "transactionIndex": "0x2",
          "logIndex": "0x2",
          "removed": false
        }
      ],
      "logsBloom": "0x00000000000000000000000000000000000000000000000000000000000020000000000000000000000000000000000000000000000000000000020000200000000000000000000000000000000000000000000000000000000000000000000000000000000000000001000000000000000000000000000100000000000000000000000000000000000000000000000000001000000000000000000000000000020000000000000000000000000000000000000000000000000000000000000000000000000000000000000000000000000200000010000000000000000000000012000000000000000000000000000000000000000000000010000000000000",
      "type": "0x2",
      "transactionHash": "0x083ebb5fb7f801a1b7d1001c0a8f12f3181e19251c8fed0dac82ea53b092d825",
      "transactionIndex": "0x2",
      "blockHash": "0x7cd5d364e6b1c0e03549de5c329b7d4b54a37fa4bd5003bda3d2217ab8584d81",
      "blockNumber": "0x60714c7",
      "gasUsed": "0xc57f",
      "effectiveGasPrice": "0x5f5e100",
      "from": "0x94c83a5137751c4e6acc0cfdb09819b0b83582d1",
      "to": "0x94baa979f569edb2f33903d9ccec66b31c9620f5",
      "contractAddress": null,
      "gasUsedForL1": "0x1206",
      "l1BlockNumber": "0x6d504f"
    },
    {
      "status": "0x1",
      "cumulativeGasUsed": "0x7a4d5",
      "logs": [
        {
          "address": "0x94baa979f569edb2f33903d9ccec66b31c9620f5",
          "topics": [
            "0xddf252ad1be2c89b69c2b068fc378daa952ba7f163c4a11628f55a4df523b3ef",
            "0x00000000000000000000000094c83a5137751c4e6acc0cfdb09819b0b83582d1",
            "0x00000000000000000000000034728af7d0fc03cbbdff82b6d52aeda8c999e2b2"
          ],
          "data": "0x000000000000000000000000000000000000000000000000000000012a05f200",
          "blockHash": "0xad79bbedf81c7b3b40b793b2d44459e2fe49ba8b3bd7bd4dd9fe05163d8e5aa2",
          "blockNumber": "0x60714ce",
          "transactionHash": "0x67d022b899749003723fd9315cf59bff00e7f553e7be97c99c7076592a2bb2aa",
          "transactionIndex": "0x2",
          "logIndex": "0x2",
          "removed": false
        },
        {
          "address": "0x94baa979f569edb2f33903d9ccec66b31c9620f5",
          "topics": [
            "0xddf252ad1be2c89b69c2b068fc378daa952ba7f163c4a11628f55a4df523b3ef",
            "0x00000000000000000000000094c83a5137751c4e6acc0cfdb09819b0b83582d1",
            "0x00000000000000000000000035b5da7f73425e823a7b1d6d209246913d3c33c6"
          ],
          "data": "0x0000000000000000000000000000000000000000000000000000000000000005",
          "blockHash": "0xad79bbedf81c7b3b40b793b2d44459e2fe49ba8b3bd7bd4dd9fe05163d8e5aa2",
          "blockNumber": "0x60714ce",
          "transactionHash": "0x67d022b899749003723fd9315cf59bff00e7f553e7be97c99c7076592a2bb2aa",
          "transactionIndex": "0x2",
          "logIndex": "0x3",
          "removed": false
        },
        {
          "address": "0x803c421eb97093a7f094e3d25bab90eddc995d8e",
          "topics": [
            "0xddf252ad1be2c89b69c2b068fc378daa952ba7f163c4a11628f55a4df523b3ef",
            "0x00000000000000000000000094c83a5137751c4e6acc0cfdb09819b0b83582d1",
            "0x0000000000000000000000000000000000000000000000000000000000000000"
          ],
          "data": "0x0000000000000000000000000000000000000000000000001bc16d674ec80000",
          "blockHash": "0xad79bbedf81c7b3b40b793b2d44459e2fe49ba8b3bd7bd4dd9fe05163d8e5aa2",
          "blockNumber": "0x60714ce",
          "transactionHash": "0x67d022b899749003723fd9315cf59bff00e7f553e7be97c99c7076592a2bb2aa",
          "transactionIndex": "0x2",
          "logIndex": "0x4",
          "removed": false
        },
        {
          "address": "0x803c421eb97093a7f094e3d25bab90eddc995d8e",
          "topics": [
            "0xddf252ad1be2c89b69c2b068fc378daa952ba7f163c4a11628f55a4df523b3ef",
            "0x0000000000000000000000000000000000000000000000000000000000000000",
            "0x000000000000000000000000803c421eb97093a7f094e3d25bab90eddc995d8e"
          ],
          "data": "0x0000000000000000000000000000000000000000000000001bc16d674ec80000",
          "blockHash": "0xad79bbedf81c7b3b40b793b2d44459e2fe49ba8b3bd7bd4dd9fe05163d8e5aa2",
          "blockNumber": "0x60714ce",
          "transactionHash": "0x67d022b899749003723fd9315cf59bff00e7f553e7be97c99c7076592a2bb2aa",
          "transactionIndex": "0x2",
          "logIndex": "0x5",
          "removed": false
        },
        {
          "address": "0x514e98bf82e864f64a53c85f0276832388f2baa0",
          "topics": [
            "0x445c94111ba1ba3f9276ecf50724c543641c207bb13dcd43a0c35ddf17ab3123",
            "0x0000000000000000000000000000000000000000000000000000000000000000"
          ],
          "data": "0x0000000000000000000000000000000000000000000000000000000000000020000000000000000000000000803c421eb97093a7f094e3d25bab90eddc995d8e00000000000000000000000094c83a5137751c4e6acc0cfdb09819b0b83582d10000000000000000000000000000000000000000000000001bc16d674ec80000000000000000000000000000000000000000000000000000000000000000000000000000000000000000000000000000000000000000000000000000000000e000000000000000000000000000000000000000000000000000000000006d504f00000000000000000000000000000000000000000000000000000000000000000000000000000000000000000000000000000000000000000000000000000000",
          "blockHash": "0xad79bbedf81c7b3b40b793b2d44459e2fe49ba8b3bd7bd4dd9fe05163d8e5aa2",
          "blockNumber": "0x60714ce",
          "transactionHash": "0x67d022b899749003723fd9315cf59bff00e7f553e7be97c99c7076592a2bb2aa",
          "transactionIndex": "0x2",
          "logIndex": "0x6",
          "removed": false
        },
        {
          "address": "0x803c421eb97093a7f094e3d25bab90eddc995d8e",
          "topics": [
            "0x16540b30944d4a001747daed1f3b0be02461ddc7221558400f55bb848bf4fd79"
          ],
          "data": "0x0000000000000000000000000000000000000000000000000000000000000000000000000000000000000000000000000000000000000000000000000000004000000000000000000000000094c83a5137751c4e6acc0cfdb09819b0b83582d10000000000000000000000000000000000000000000000001bc16d674ec80000000000000000000000000000000000000000000000000000000000000000000000000000000000000000000000000000000000000000000000000000000000a000000000000000000000000000000000000000000000000000000000000000000000000000000000000000000000000000000000000000000000000000000000",
          "blockHash": "0xad79bbedf81c7b3b40b793b2d44459e2fe49ba8b3bd7bd4dd9fe05163d8e5aa2",
          "blockNumber": "0x60714ce",
          "transactionHash": "0x67d022b899749003723fd9315cf59bff00e7f553e7be97c99c7076592a2bb2aa",
          "transactionIndex": "0x2",
          "logIndex": "0x7",
          "removed": false
        }
      ],
      "logsBloom": "0x00000000000000000000000000000000000000000000000000040000000020000000040000000000000000000000000000000000001000000000020000000000000000000000000040000008000010000000100000004000000000000001000000000002020000000011000002000800000000000000000100000012000000000004000000000000000000000000000000001000000000000000000000000000080000000000000800000000000000000000000000000000000000000000000000000002000000000000000000000000000200000010200040200000000020000002000000000000000000000000000000000000000000000010000000000000",
      "type": "0x2",
      "transactionHash": "0x67d022b899749003723fd9315cf59bff00e7f553e7be97c99c7076592a2bb2aa",
      "transactionIndex": "0x2",
      "blockHash": "0xad79bbedf81c7b3b40b793b2d44459e2fe49ba8b3bd7bd4dd9fe05163d8e5aa2",
      "blockNumber": "0x60714ce",
      "gasUsed": "0x3f3ae",
      "effectiveGasPrice": "0x5f5e100",
      "from": "0x94c83a5137751c4e6acc0cfdb09819b0b83582d1",
      "to": "0x803c421eb97093a7f094e3d25bab90eddc995d8e",
      "contractAddress": null,
      "gasUsedForL1": "0xb96",
      "l1BlockNumber": "0x6d504f"
    }
  ],
  "libraries": [],
  "pending": [],
  "returns": {},
  "timestamp": 1732721133,
  "chain": 421614,
  "commit": null
}