{
  "transactions": [
    {
      "hash": "0xb6290341d63070c342228999d354bd0e11d01f843e01af9434e5095cedb86344",
      "transactionType": "CALL",
      "contractName": null,
      "contractAddress": "0x7c4e0800cc6ba4cfebcdd357afe8baf65de95ff3",
      "function": "approve(address,uint256)",
      "arguments": [
        "0x19c96df21f73948C65d084e22720eD5e4D78D8cc",
        "1000000000000000000000000"
      ],
      "transaction": {
        "from": "0x34728af7d0fc03cbbdff82b6d52aeda8c999e2b2",
        "to": "0x7c4e0800cc6ba4cfebcdd357afe8baf65de95ff3",
        "gas": "0xa0e5",
        "value": "0x0",
        "input": "0x095ea7b300000000000000000000000019c96df21f73948c65d084e22720ed5e4d78d8cc00000000000000000000000000000000000000000000d3c21bcecceda1000000",
        "nonce": "0x7de",
        "chainId": "0x66eee"
      },
      "additionalContracts": [],
      "isFixedGasLimit": false
    }
  ],
  "receipts": [
    {
      "status": "0x1",
      "cumulativeGasUsed": "0x43620",
      "logs": [
        {
          "address": "0x7c4e0800cc6ba4cfebcdd357afe8baf65de95ff3",
          "topics": [
            "0x8c5be1e5ebec7d5bd14f71427d1e84f3dd0314c0f7b2291e5b200ac8c7c3b925",
            "0x00000000000000000000000034728af7d0fc03cbbdff82b6d52aeda8c999e2b2",
            "0x00000000000000000000000019c96df21f73948c65d084e22720ed5e4d78d8cc"
          ],
          "data": "0x00000000000000000000000000000000000000000000d3c21bcecceda1000000",
          "blockHash": "0xe7c05f05749ae5743ce873786589c5818c9f535b38948dd73325c26a4fbebab2",
          "blockNumber": "0x61ad0b6",
          "transactionHash": "0xb6290341d63070c342228999d354bd0e11d01f843e01af9434e5095cedb86344",
          "transactionIndex": "0x2",
          "logIndex": "0x2",
          "removed": false
        }
      ],
      "logsBloom": "0x00000000000000000000000000000008000000000000400000000000000000000000000000000000000000000000002000000000001000000000000000200000000000000000000040000000000000000000000000000000000000000000000001000000000000000000000000000000000000000000000000000000000000000000000000000000000000000000000000000000000000000000000000000000020000000000000000000000000000000000000000000000000000000000000000010000000000000000000000000000000000000000200000000000000000000010000000000000000000080000000000000000000000000000000000000000",
      "type": "0x2",
      "transactionHash": "0xb6290341d63070c342228999d354bd0e11d01f843e01af9434e5095cedb86344",
      "transactionIndex": "0x2",
      "blockHash": "0xe7c05f05749ae5743ce873786589c5818c9f535b38948dd73325c26a4fbebab2",
      "blockNumber": "0x61ad0b6",
      "gasUsed": "0x75e2",
      "effectiveGasPrice": "0x5f5e100",
      "from": "0x34728af7d0fc03cbbdff82b6d52aeda8c999e2b2",
      "to": "0x7c4e0800cc6ba4cfebcdd357afe8baf65de95ff3",
      "contractAddress": null,
      "gasUsedForL1": "0x100d",
      "l1BlockNumber": "0x6db598"
    }
  ],
  "libraries": [],
  "pending": [],
  "returns": {},
  "timestamp": 1733059871,
  "chain": 421614,
  "commit": null
}