{
  "transactions": [
    {
      "hash": "0x01be6f3c098111f87f2510e8f9938d13985fd4e1b4796de715d72662542f0c27",
      "transactionType": "CALL",
      "contractName": null,
      "contractAddress": "0x7c4e0800cc6ba4cfebcdd357afe8baf65de95ff3",
      "function": "approve(address,uint256)",
      "arguments": [
        "0x837700C4401C9b95f89eF81990Aa619a3023d78D",
        "1000000000000000000000000000"
      ],
      "transaction": {
        "from": "0x34728af7d0fc03cbbdff82b6d52aeda8c999e2b2",
        "to": "0x7c4e0800cc6ba4cfebcdd357afe8baf65de95ff3",
        "gas": "0xaf76",
        "value": "0x0",
        "input": "0x095ea7b3000000000000000000000000837700c4401c9b95f89ef81990aa619a3023d78d0000000000000000000000000000000000000000033b2e3c9fd0803ce8000000",
        "nonce": "0x7e1",
        "chainId": "0x66eee"
      },
      "additionalContracts": [],
      "isFixedGasLimit": false
    }
  ],
  "receipts": [
    {
      "status": "0x1",
      "cumulativeGasUsed": "0x1791c",
      "logs": [
        {
          "address": "0x7c4e0800cc6ba4cfebcdd357afe8baf65de95ff3",
          "topics": [
            "0x8c5be1e5ebec7d5bd14f71427d1e84f3dd0314c0f7b2291e5b200ac8c7c3b925",
            "0x00000000000000000000000034728af7d0fc03cbbdff82b6d52aeda8c999e2b2",
            "0x000000000000000000000000837700c4401c9b95f89ef81990aa619a3023d78d"
          ],
          "data": "0x0000000000000000000000000000000000000000033b2e3c9fd0803ce8000000",
          "blockHash": "0x3560fc964eb0a8517e2b070a89fbdc844470d0dd5739632ff11e118632d56589",
          "blockNumber": "0x61ad30f",
          "transactionHash": "0x01be6f3c098111f87f2510e8f9938d13985fd4e1b4796de715d72662542f0c27",
          "transactionIndex": "0x2",
          "logIndex": "0x1",
          "removed": false
        }
      ],
      "logsBloom": "0x00000000000000000000000000000008000000000000000000000000000000000000000000000000000000000000002000000000001000000000000000200000000000000000000040000000000000000000000000000000000000000000000000000000000000000000000000000000000000000000000000000000000004000000000000000000000000000000000010000000000000000000000000000000020000000000000000000000000000000000000004000000000000000000000000000000000000000000000000000000000000000000200000000000000000000010000000000000000000080000000000000000000000000000000000000000",
      "type": "0x2",
      "transactionHash": "0x01be6f3c098111f87f2510e8f9938d13985fd4e1b4796de715d72662542f0c27",
      "transactionIndex": "0x2",
      "blockHash": "0x3560fc964eb0a8517e2b070a89fbdc844470d0dd5739632ff11e118632d56589",
      "blockNumber": "0x61ad30f",
      "gasUsed": "0x8106",
      "effectiveGasPrice": "0x5f5e100",
      "from": "0x34728af7d0fc03cbbdff82b6d52aeda8c999e2b2",
      "to": "0x7c4e0800cc6ba4cfebcdd357afe8baf65de95ff3",
      "contractAddress": null,
      "gasUsedForL1": "0x1035",
      "l1BlockNumber": "0x6db5a4"
    }
  ],
  "libraries": [],
  "pending": [],
  "returns": {},
  "timestamp": 1733060019,
  "chain": 421614,
  "commit": null
}