{
  "transactions": [
    {
      "hash": "0x3a45500f80fc6237aeb274a33ac6a9db3d7abe0c0263bc2d7eea2db66d901190",
      "transactionType": "CALL",
      "contractName": null,
      "contractAddress": "0xc83af6561ad7b6f395b0d827f950308bdaeff6b3",
      "function": "transfer(address,uint256)",
      "arguments": [
        "0x1cEF01bb6844254Eea3701f026D6e873007711Ce",
        "100"
      ],
      "transaction": {
        "from": "0x34728af7d0fc03cbbdff82b6d52aeda8c999e2b2",
        "to": "0xc83af6561ad7b6f395b0d827f950308bdaeff6b3",
        "gas": "0xb94e",
        "value": "0x0",
        "input": "0xa9059cbb0000000000000000000000001cef01bb6844254eea3701f026d6e873007711ce0000000000000000000000000000000000000000000000000000000000000064",
        "nonce": "0x75b",
        "chainId": "0x66eee"
      },
      "additionalContracts": [],
      "isFixedGasLimit": false
    }
  ],
  "receipts": [
    {
      "status": "0x1",
      "cumulativeGasUsed": "0x98aea",
      "logs": [
        {
          "address": "0xc83af6561ad7b6f395b0d827f950308bdaeff6b3",
          "topics": [
            "0xddf252ad1be2c89b69c2b068fc378daa952ba7f163c4a11628f55a4df523b3ef",
            "0x00000000000000000000000034728af7d0fc03cbbdff82b6d52aeda8c999e2b2",
            "0x0000000000000000000000001cef01bb6844254eea3701f026d6e873007711ce"
          ],
          "data": "0x0000000000000000000000000000000000000000000000000000000000000064",
          "blockHash": "0xd3f8854d35e8fb29ade62a2db7ceb5fd20877ea3849f5e4ecb6b6390aa443d23",
          "blockNumber": "0x61a42bc",
          "transactionHash": "0x3a45500f80fc6237aeb274a33ac6a9db3d7abe0c0263bc2d7eea2db66d901190",
          "transactionIndex": "0x4",
          "logIndex": "0x4",
          "removed": false
        }
      ],
      "logsBloom": "0x00000000000000000000000000000000010000000000000000000000000000000000000000000000000000000000000000000000001000000000000000000000000000000000000040000008000000000000000000000000000000020000000004000000000000000000000000000000000000000000000000000010000000000000000000000000000000000000000000000800000000000000000000000000000000000000000000000000000000000000000000000000000000000000010000000002000000000000000000000000000000000000200000000000000000000000000000000000000000000000000100000000000000000000000000000000",
      "type": "0x2",
      "transactionHash": "0x3a45500f80fc6237aeb274a33ac6a9db3d7abe0c0263bc2d7eea2db66d901190",
      "transactionIndex": "0x4",
      "blockHash": "0xd3f8854d35e8fb29ade62a2db7ceb5fd20877ea3849f5e4ecb6b6390aa443d23",
      "blockNumber": "0x61a42bc",
      "gasUsed": "0x8ac2",
      "effectiveGasPrice": "0x6a77dc0",
      "from": "0x34728af7d0fc03cbbdff82b6d52aeda8c999e2b2",
      "to": "0xc83af6561ad7b6f395b0d827f950308bdaeff6b3",
      "contractAddress": null,
      "gasUsedForL1": "0x582",
      "l1BlockNumber": "0x6db2f6"
    }
  ],
  "libraries": [],
  "pending": [],
  "returns": {},
  "timestamp": 1733050810,
  "chain": 421614,
  "commit": null
}