{
  "transactions": [
    {
      "hash": "0x2c22e2830595d3176b90c682a11f8768de961ad43646cf4e50f26d110a00ef53",
      "transactionType": "CALL",
      "contractName": null,
      "contractAddress": "0xc83af6561ad7b6f395b0d827f950308bdaeff6b3",
      "function": "transfer(address,uint256)",
      "arguments": [
        "0x1cEF01bb6844254Eea3701f026D6e873007711Ce",
        "1000000000000000000000"
      ],
      "transaction": {
        "from": "0x34728af7d0fc03cbbdff82b6d52aeda8c999e2b2",
        "to": "0xc83af6561ad7b6f395b0d827f950308bdaeff6b3",
        "gas": "0xb9ad",
        "value": "0x0",
        "input": "0xa9059cbb0000000000000000000000001cef01bb6844254eea3701f026d6e873007711ce00000000000000000000000000000000000000000000003635c9adc5dea00000",
        "nonce": "0x75c",
        "chainId": "0x66eee"
      },
      "additionalContracts": [],
      "isFixedGasLimit": false
    }
  ],
  "receipts": [
    {
      "status": "0x1",
      "cumulativeGasUsed": "0x43324",
      "logs": [
        {
          "address": "0xc83af6561ad7b6f395b0d827f950308bdaeff6b3",
          "topics": [
            "0xddf252ad1be2c89b69c2b068fc378daa952ba7f163c4a11628f55a4df523b3ef",
            "0x00000000000000000000000034728af7d0fc03cbbdff82b6d52aeda8c999e2b2",
            "0x0000000000000000000000001cef01bb6844254eea3701f026d6e873007711ce"
          ],
          "data": "0x00000000000000000000000000000000000000000000003635c9adc5dea00000",
          "blockHash": "0xe25908681bff221ab47d5700c6cbffd37bcd8682dcbd80990133a47b432f2735",
          "blockNumber": "0x61a43a5",
          "transactionHash": "0x2c22e2830595d3176b90c682a11f8768de961ad43646cf4e50f26d110a00ef53",
          "transactionIndex": "0x2",
          "logIndex": "0x2",
          "removed": false
        }
      ],
      "logsBloom": "0x00000000000000000000000000000000010000000000000000000000000000000000000000000000000000000000000000000000001000000000000000000000000000000000000040000008000000000000000000000000000000020000000004000000000000000000000000000000000000000000000000000010000000000000000000000000000000000000000000000800000000000000000000000000000000000000000000000000000000000000000000000000000000000000010000000002000000000000000000000000000000000000200000000000000000000000000000000000000000000000000100000000000000000000000000000000",
      "type": "0x2",
      "transactionHash": "0x2c22e2830595d3176b90c682a11f8768de961ad43646cf4e50f26d110a00ef53",
      "transactionIndex": "0x2",
      "blockHash": "0xe25908681bff221ab47d5700c6cbffd37bcd8682dcbd80990133a47b432f2735",
      "blockNumber": "0x61a43a5",
      "gasUsed": "0x8b97",
      "effectiveGasPrice": "0x60d1280",
      "from": "0x34728af7d0fc03cbbdff82b6d52aeda8c999e2b2",
      "to": "0xc83af6561ad7b6f395b0d827f950308bdaeff6b3",
      "contractAddress": null,
      "gasUsedForL1": "0x60f",
      "l1BlockNumber": "0x6db2f9"
    }
  ],
  "libraries": [],
  "pending": [],
  "returns": {},
  "timestamp": 1733050869,
  "chain": 421614,
  "commit": null
}