{
  "transactions": [
    {
      "hash": "0x075dcdc03b8b17403421eea02c541b193af3a79eace868f2fe7a6c7ca5392326",
      "transactionType": "CALL",
      "contractName": null,
      "contractAddress": "0x0e0d9103efca8731621dbf690e2442782c5b4f6f",
      "function": "approve(address,uint256)",
      "arguments": [
        "0x49D4E03F0b4D641622b331340636b266fedBdda7",
        "1000000000000000000"
      ],
      "transaction": {
        "from": "0x34728af7d0fc03cbbdff82b6d52aeda8c999e2b2",
        "to": "0x0e0d9103efca8731621dbf690e2442782c5b4f6f",
        "gas": "0x15982",
        "value": "0x0",
        "input": "0x095ea7b300000000000000000000000049d4e03f0b4d641622b331340636b266fedbdda70000000000000000000000000000000000000000000000000de0b6b3a7640000",
        "nonce": "0x336",
        "chainId": "0x66eee"
      },
      "additionalContracts": [],
      "isFixedGasLimit": false
    },
    {
      "hash": "0x157d27f79ef91f2b9b6d70d4b00fffb86427969acfde60e70571b66ba2d06cc3",
      "transactionType": "CALL",
      "contractName": null,
      "contractAddress": "0x49d4e03f0b4d641622b331340636b266fedbdda7",
      "function": "deposit(uint256,address)",
      "arguments": [
        "1000000000000000000",
        "0x34728aF7D0FC03CbbdFF82b6d52AeDA8C999E2B2"
      ],
      "transaction": {
        "from": "0x34728af7d0fc03cbbdff82b6d52aeda8c999e2b2",
        "to": "0x49d4e03f0b4d641622b331340636b266fedbdda7",
        "gas": "0x17e1d",
        "value": "0x0",
        "input": "0x6e553f650000000000000000000000000000000000000000000000000de0b6b3a764000000000000000000000000000034728af7d0fc03cbbdff82b6d52aeda8c999e2b2",
        "nonce": "0x337",
        "chainId": "0x66eee"
      },
      "additionalContracts": [],
      "isFixedGasLimit": false
    },
    {
      "hash": "0x20a9f2c4e6feeb8f7950ba1603e884aa97239a5308d038285622f19d29c2c608",
      "transactionType": "CALL",
      "contractName": null,
      "contractAddress": "0x0e0d9103efca8731621dbf690e2442782c5b4f6f",
      "function": "transfer(address,uint256)",
      "arguments": [
        "0x94c83a5137751C4E6acc0cFdB09819B0B83582D1",
        "1000000000000000000"
      ],
      "transaction": {
        "from": "0x34728af7d0fc03cbbdff82b6d52aeda8c999e2b2",
        "to": "0x0e0d9103efca8731621dbf690e2442782c5b4f6f",
        "gas": "0x174ab",
        "value": "0x0",
        "input": "0xa9059cbb00000000000000000000000094c83a5137751c4e6acc0cfdb09819b0b83582d10000000000000000000000000000000000000000000000000de0b6b3a7640000",
        "nonce": "0x338",
        "chainId": "0x66eee"
      },
      "additionalContracts": [],
      "isFixedGasLimit": false
    },
    {
      "hash": "0x8dac137d365ee069f515a8d6f70a0428ecde5672de1f53b39e33605c9b8dfcda",
      "transactionType": "CALL",
      "contractName": null,
      "contractAddress": "0x0e0d9103efca8731621dbf690e2442782c5b4f6f",
      "function": "approve(address,uint256)",
      "arguments": [
        "0xe3Eb4d433e9139C98A73102C1208e7917ee0ecBC",
        "20000000"
      ],
      "transaction": {
        "from": "0x34728af7d0fc03cbbdff82b6d52aeda8c999e2b2",
        "to": "0x0e0d9103efca8731621dbf690e2442782c5b4f6f",
        "gas": "0x15952",
        "value": "0x0",
        "input": "0x095ea7b3000000000000000000000000e3eb4d433e9139c98a73102c1208e7917ee0ecbc0000000000000000000000000000000000000000000000000000000001312d00",
        "nonce": "0x339",
        "chainId": "0x66eee"
      },
      "additionalContracts": [],
      "isFixedGasLimit": false
    },
    {
      "hash": "0x87f268cc0966c3d4088bae35bed72871d92f72b62cfea6ac7706b794ee804884",
      "transactionType": "CALL",
      "contractName": null,
      "contractAddress": "0xe3eb4d433e9139c98a73102c1208e7917ee0ecbc",
      "function": "purchasePolicy(uint256,uint256,address)",
      "arguments": [
        "20000000",
        "20000000",
        "0x94c83a5137751C4E6acc0cFdB09819B0B83582D1"
      ],
      "transaction": {
        "from": "0x34728af7d0fc03cbbdff82b6d52aeda8c999e2b2",
        "to": "0xe3eb4d433e9139c98a73102c1208e7917ee0ecbc",
        "gas": "0x34a47",
        "value": "0x0",
        "input": "0x6178e44c0000000000000000000000000000000000000000000000000000000001312d000000000000000000000000000000000000000000000000000000000001312d0000000000000000000000000094c83a5137751c4e6acc0cfdb09819b0b83582d1",
        "nonce": "0x33a",
        "chainId": "0x66eee"
      },
      "additionalContracts": [],
      "isFixedGasLimit": false
    }
  ],
  "receipts": [
    {
      "status": "0x1",
      "cumulativeGasUsed": "0xf4a2",
      "logs": [
        {
          "address": "0x0e0d9103efca8731621dbf690e2442782c5b4f6f",
          "topics": [
            "0x8c5be1e5ebec7d5bd14f71427d1e84f3dd0314c0f7b2291e5b200ac8c7c3b925",
            "0x00000000000000000000000034728af7d0fc03cbbdff82b6d52aeda8c999e2b2",
            "0x00000000000000000000000049d4e03f0b4d641622b331340636b266fedbdda7"
          ],
          "data": "0x0000000000000000000000000000000000000000000000000de0b6b3a7640000",
          "blockHash": "0xee1b433808c21b7c730fa29aba68dad9bb78bca47e9f0633219cd9ac128d7891",
          "blockNumber": "0x5f4414c",
          "transactionHash": "0x075dcdc03b8b17403421eea02c541b193af3a79eace868f2fe7a6c7ca5392326",
          "transactionIndex": "0x1",
          "logIndex": "0x0",
          "removed": false
        }
      ],
      "logsBloom": "0x00000000000000000000000000000000000000000000000004000000000000000800000000000000000000000000000000000000001000000000000000200000000000000000000240000000000000000000000000000000000000000000000000000000000000000000000000000000000000000000000000000000000000000000000000000000000000000000000000000000000000000000000000000000020000000000000000000000000000100000000000000000000000000000000000000000000000000000008000000000000000000000200000000000000000000010000000000000000000000000002000000000000000000000000000000000",
      "type": "0x2",
      "transactionHash": "0x075dcdc03b8b17403421eea02c541b193af3a79eace868f2fe7a6c7ca5392326",
      "transactionIndex": "0x1",
      "blockHash": "0xee1b433808c21b7c730fa29aba68dad9bb78bca47e9f0633219cd9ac128d7891",
      "blockNumber": "0x5f4414c",
      "gasUsed": "0xf4a2",
      "effectiveGasPrice": "0x5f5e100",
      "from": "0x34728af7d0fc03cbbdff82b6d52aeda8c999e2b2",
      "to": "0x0e0d9103efca8731621dbf690e2442782c5b4f6f",
      "contractAddress": null,
      "gasUsedForL1": "0x411d",
      "l1BlockNumber": "0x6ce8ac"
    },
    {
      "status": "0x1",
      "cumulativeGasUsed": "0x61933",
      "logs": [
        {
          "address": "0x0e0d9103efca8731621dbf690e2442782c5b4f6f",
          "topics": [
            "0xddf252ad1be2c89b69c2b068fc378daa952ba7f163c4a11628f55a4df523b3ef",
            "0x00000000000000000000000034728af7d0fc03cbbdff82b6d52aeda8c999e2b2",
            "0x00000000000000000000000049d4e03f0b4d641622b331340636b266fedbdda7"
          ],
          "data": "0x0000000000000000000000000000000000000000000000000de0b6b3a7640000",
          "blockHash": "0x7a9626b70878036f6ce0568d2804246a89f6f8c442c577861a4cbc2516570edc",
          "blockNumber": "0x5f44153",
          "transactionHash": "0x157d27f79ef91f2b9b6d70d4b00fffb86427969acfde60e70571b66ba2d06cc3",
          "transactionIndex": "0x3",
          "logIndex": "0x5",
          "removed": false
        },
        {
          "address": "0x49d4e03f0b4d641622b331340636b266fedbdda7",
          "topics": [
            "0xddf252ad1be2c89b69c2b068fc378daa952ba7f163c4a11628f55a4df523b3ef",
            "0x0000000000000000000000000000000000000000000000000000000000000000",
            "0x00000000000000000000000034728af7d0fc03cbbdff82b6d52aeda8c999e2b2"
          ],
          "data": "0x0000000000000000000000000000000000000000000000000de0b6b3a7640000",
          "blockHash": "0x7a9626b70878036f6ce0568d2804246a89f6f8c442c577861a4cbc2516570edc",
          "blockNumber": "0x5f44153",
          "transactionHash": "0x157d27f79ef91f2b9b6d70d4b00fffb86427969acfde60e70571b66ba2d06cc3",
          "transactionIndex": "0x3",
          "logIndex": "0x6",
          "removed": false
        },
        {
          "address": "0x49d4e03f0b4d641622b331340636b266fedbdda7",
          "topics": [
            "0xdcbc1c05240f31ff3ad067ef1ee35ce4997762752e3a095284754544f4c709d7",
            "0x00000000000000000000000034728af7d0fc03cbbdff82b6d52aeda8c999e2b2",
            "0x00000000000000000000000034728af7d0fc03cbbdff82b6d52aeda8c999e2b2"
          ],
          "data": "0x0000000000000000000000000000000000000000000000000de0b6b3a76400000000000000000000000000000000000000000000000000000de0b6b3a7640000",
          "blockHash": "0x7a9626b70878036f6ce0568d2804246a89f6f8c442c577861a4cbc2516570edc",
          "blockNumber": "0x5f44153",
          "transactionHash": "0x157d27f79ef91f2b9b6d70d4b00fffb86427969acfde60e70571b66ba2d06cc3",
          "transactionIndex": "0x3",
          "logIndex": "0x7",
          "removed": false
        }
      ],
      "logsBloom": "0x00000000000000000000000000000000000000000000000004000000000000000800000000000000000000000000000000000000001000000000000000000000000000400000000240000008000000000000000000000000000000000000001000000000020000000000000000000800000000000004000000000010000000000000000000200000000000000000000000000000000000000000000000000000000000000000000000000000000000100000000000000000000000000000000000000002000000000000008000000000000000000008200000000000000020000000000000000000000000000000002000000000000000100000000000000000",
      "type": "0x2",
      "transactionHash": "0x157d27f79ef91f2b9b6d70d4b00fffb86427969acfde60e70571b66ba2d06cc3",
      "transactionIndex": "0x3",
      "blockHash": "0x7a9626b70878036f6ce0568d2804246a89f6f8c442c577861a4cbc2516570edc",
      "blockNumber": "0x5f44153",
      "gasUsed": "0x155c2",
      "effectiveGasPrice": "0x5f5e100",
      "from": "0x34728af7d0fc03cbbdff82b6d52aeda8c999e2b2",
      "to": "0x49d4e03f0b4d641622b331340636b266fedbdda7",
      "contractAddress": null,
      "gasUsedForL1": "0x411d",
      "l1BlockNumber": "0x6ce8ac"
    },
    {
      "status": "0x1",
      "cumulativeGasUsed": "0x3ffc4",
      "logs": [
        {
          "address": "0x0e0d9103efca8731621dbf690e2442782c5b4f6f",
          "topics": [
            "0xddf252ad1be2c89b69c2b068fc378daa952ba7f163c4a11628f55a4df523b3ef",
            "0x00000000000000000000000034728af7d0fc03cbbdff82b6d52aeda8c999e2b2",
            "0x00000000000000000000000094c83a5137751c4e6acc0cfdb09819b0b83582d1"
          ],
          "data": "0x0000000000000000000000000000000000000000000000000de0b6b3a7640000",
          "blockHash": "0x1f6e288544059a69173581d295d6df5e4bdcfe2258a20bee761b27955f5410f5",
          "blockNumber": "0x5f4415b",
          "transactionHash": "0x20a9f2c4e6feeb8f7950ba1603e884aa97239a5308d038285622f19d29c2c608",
          "transactionIndex": "0x2",
          "logIndex": "0x1",
          "removed": false
        }
      ],
      "logsBloom": "0x00000000000000000000000000000000000000000000000000000000000020000000000000000000000000000000000000000000001000000000000000000000000000000000000040000008000000000000000000000000000000000000000000000000000000000000000000000000000000000000000000000010000000000000000000000000000000000000000000000000000000000000000000000000000000000000000000000000000000100000000000000000000000000000000000000002000000000000008000000000000000000000200000000000000000000002000000000000000000000000002000000000000000000010000000000000",
      "type": "0x2",
      "transactionHash": "0x20a9f2c4e6feeb8f7950ba1603e884aa97239a5308d038285622f19d29c2c608",
      "transactionIndex": "0x2",
      "blockHash": "0x1f6e288544059a69173581d295d6df5e4bdcfe2258a20bee761b27955f5410f5",
      "blockNumber": "0x5f4415b",
      "gasUsed": "0x10971",
      "effectiveGasPrice": "0x5f5e100",
      "from": "0x34728af7d0fc03cbbdff82b6d52aeda8c999e2b2",
      "to": "0x0e0d9103efca8731621dbf690e2442782c5b4f6f",
      "contractAddress": null,
      "gasUsedForL1": "0x411d",
      "l1BlockNumber": "0x6ce8ac"
    },
    {
      "status": "0x1",
      "cumulativeGasUsed": "0x3dd7fb",
      "logs": [
        {
          "address": "0x0e0d9103efca8731621dbf690e2442782c5b4f6f",
          "topics": [
            "0x8c5be1e5ebec7d5bd14f71427d1e84f3dd0314c0f7b2291e5b200ac8c7c3b925",
            "0x00000000000000000000000034728af7d0fc03cbbdff82b6d52aeda8c999e2b2",
            "0x000000000000000000000000e3eb4d433e9139c98a73102c1208e7917ee0ecbc"
          ],
          "data": "0x0000000000000000000000000000000000000000000000000000000001312d00",
          "blockHash": "0x56e8a13cc16cadb2a3c7b546373aca4c49cf5ea959566ae09db4f93b3daab45e",
          "blockNumber": "0x5f4415e",
          "transactionHash": "0x8dac137d365ee069f515a8d6f70a0428ecde5672de1f53b39e33605c9b8dfcda",
          "transactionIndex": "0x3",
          "logIndex": "0x36",
          "removed": false
        }
      ],
      "logsBloom": "0x00000000000000000000000000000000000000000000000000000000000000000000000000000000000000000000000002000000001000000000000000200000000000000000000040000000000000000000000000000000000000000000000000000000000000000000000000000000000000000000000000000000000000000000000000000000000000000000000000000000000000000000000000000000020000000000000002000000000000100000000000000000000000000000000000000000000000000000008000000000000000000000200000000000000000200010000000000000000000000000002000000000000000000000000000000000",
      "type": "0x2",
      "transactionHash": "0x8dac137d365ee069f515a8d6f70a0428ecde5672de1f53b39e33605c9b8dfcda",
      "transactionIndex": "0x3",
      "blockHash": "0x56e8a13cc16cadb2a3c7b546373aca4c49cf5ea959566ae09db4f93b3daab45e",
      "blockNumber": "0x5f4415e",
      "gasUsed": "0xf47e",
      "effectiveGasPrice": "0x5f5e100",
      "from": "0x34728af7d0fc03cbbdff82b6d52aeda8c999e2b2",
      "to": "0x0e0d9103efca8731621dbf690e2442782c5b4f6f",
      "contractAddress": null,
      "gasUsedForL1": "0x411d",
      "l1BlockNumber": "0x6ce8ac"
    },
    {
      "status": "0x1",
      "cumulativeGasUsed": "0x28c5b",
      "logs": [
        {
          "address": "0x0e0d9103efca8731621dbf690e2442782c5b4f6f",
          "topics": [
            "0xddf252ad1be2c89b69c2b068fc378daa952ba7f163c4a11628f55a4df523b3ef",
            "0x00000000000000000000000034728af7d0fc03cbbdff82b6d52aeda8c999e2b2",
            "0x000000000000000000000000e3eb4d433e9139c98a73102c1208e7917ee0ecbc"
          ],
          "data": "0x0000000000000000000000000000000000000000000000000000000001312d00",
          "blockHash": "0xa7c95712d6abd05f7b34022c22c47d682ae7114098e4c0dadaf115e624e6bb07",
          "blockNumber": "0x5f44166",
          "transactionHash": "0x87f268cc0966c3d4088bae35bed72871d92f72b62cfea6ac7706b794ee804884",
          "transactionIndex": "0x1",
          "logIndex": "0x0",
          "removed": false
        },
        {
          "address": "0xe3eb4d433e9139c98a73102c1208e7917ee0ecbc",
          "topics": [
            "0xddf252ad1be2c89b69c2b068fc378daa952ba7f163c4a11628f55a4df523b3ef",
            "0x0000000000000000000000000000000000000000000000000000000000000000",
            "0x00000000000000000000000034728af7d0fc03cbbdff82b6d52aeda8c999e2b2"
          ],
          "data": "0x0000000000000000000000000000000000000000000000000000000001312d00",
          "blockHash": "0xa7c95712d6abd05f7b34022c22c47d682ae7114098e4c0dadaf115e624e6bb07",
          "blockNumber": "0x5f44166",
          "transactionHash": "0x87f268cc0966c3d4088bae35bed72871d92f72b62cfea6ac7706b794ee804884",
          "transactionIndex": "0x1",
          "logIndex": "0x1",
          "removed": false
        },
        {
          "address": "0x0e0d9103efca8731621dbf690e2442782c5b4f6f",
          "topics": [
            "0x8c5be1e5ebec7d5bd14f71427d1e84f3dd0314c0f7b2291e5b200ac8c7c3b925",
            "0x000000000000000000000000e3eb4d433e9139c98a73102c1208e7917ee0ecbc",
            "0x00000000000000000000000049d4e03f0b4d641622b331340636b266fedbdda7"
          ],
          "data": "0x0000000000000000000000000000000000000000000000000000000001312d00",
          "blockHash": "0xa7c95712d6abd05f7b34022c22c47d682ae7114098e4c0dadaf115e624e6bb07",
          "blockNumber": "0x5f44166",
          "transactionHash": "0x87f268cc0966c3d4088bae35bed72871d92f72b62cfea6ac7706b794ee804884",
          "transactionIndex": "0x1",
          "logIndex": "0x2",
          "removed": false
        },
        {
          "address": "0x0e0d9103efca8731621dbf690e2442782c5b4f6f",
          "topics": [
            "0xddf252ad1be2c89b69c2b068fc378daa952ba7f163c4a11628f55a4df523b3ef",
            "0x000000000000000000000000e3eb4d433e9139c98a73102c1208e7917ee0ecbc",
            "0x00000000000000000000000049d4e03f0b4d641622b331340636b266fedbdda7"
          ],
          "data": "0x0000000000000000000000000000000000000000000000000000000001312d00",
          "blockHash": "0xa7c95712d6abd05f7b34022c22c47d682ae7114098e4c0dadaf115e624e6bb07",
          "blockNumber": "0x5f44166",
          "transactionHash": "0x87f268cc0966c3d4088bae35bed72871d92f72b62cfea6ac7706b794ee804884",
          "transactionIndex": "0x1",
          "logIndex": "0x3",
          "removed": false
        },
        {
          "address": "0x49d4e03f0b4d641622b331340636b266fedbdda7",
          "topics": [
            "0xddf252ad1be2c89b69c2b068fc378daa952ba7f163c4a11628f55a4df523b3ef",
            "0x0000000000000000000000000000000000000000000000000000000000000000",
            "0x000000000000000000000000e3eb4d433e9139c98a73102c1208e7917ee0ecbc"
          ],
          "data": "0x0000000000000000000000000000000000000000000000000000000001312d00",
          "blockHash": "0xa7c95712d6abd05f7b34022c22c47d682ae7114098e4c0dadaf115e624e6bb07",
          "blockNumber": "0x5f44166",
          "transactionHash": "0x87f268cc0966c3d4088bae35bed72871d92f72b62cfea6ac7706b794ee804884",
          "transactionIndex": "0x1",
          "logIndex": "0x4",
          "removed": false
        },
        {
          "address": "0x49d4e03f0b4d641622b331340636b266fedbdda7",
          "topics": [
            "0xdcbc1c05240f31ff3ad067ef1ee35ce4997762752e3a095284754544f4c709d7",
            "0x000000000000000000000000e3eb4d433e9139c98a73102c1208e7917ee0ecbc",
            "0x000000000000000000000000e3eb4d433e9139c98a73102c1208e7917ee0ecbc"
          ],
          "data": "0x0000000000000000000000000000000000000000000000000000000001312d000000000000000000000000000000000000000000000000000000000001312d00",
          "blockHash": "0xa7c95712d6abd05f7b34022c22c47d682ae7114098e4c0dadaf115e624e6bb07",
          "blockNumber": "0x5f44166",
          "transactionHash": "0x87f268cc0966c3d4088bae35bed72871d92f72b62cfea6ac7706b794ee804884",
          "transactionIndex": "0x1",
          "logIndex": "0x5",
          "removed": false
        },
        {
          "address": "0xe3eb4d433e9139c98a73102c1208e7917ee0ecbc",
          "topics": [
            "0x227a473b70d2f893cc7659219575c030a63b5743024fe1e0c1a680e708b1525a"
          ],
          "data": "0x0000000000000000000000000000000000000000000000000000000001312d00",
          "blockHash": "0xa7c95712d6abd05f7b34022c22c47d682ae7114098e4c0dadaf115e624e6bb07",
          "blockNumber": "0x5f44166",
          "transactionHash": "0x87f268cc0966c3d4088bae35bed72871d92f72b62cfea6ac7706b794ee804884",
          "transactionIndex": "0x1",
          "logIndex": "0x6",
          "removed": false
        },
        {
          "address": "0xe3eb4d433e9139c98a73102c1208e7917ee0ecbc",
          "topics": [
            "0xe1fffcc4923d04b559f4d29a8bfc6cda04eb5b0d3c460751c2402c5c5cc9109c",
            "0x00000000000000000000000034728af7d0fc03cbbdff82b6d52aeda8c999e2b2"
          ],
          "data": "0x0000000000000000000000000000000000000000000000000000000001312d00",
          "blockHash": "0xa7c95712d6abd05f7b34022c22c47d682ae7114098e4c0dadaf115e624e6bb07",
          "blockNumber": "0x5f44166",
          "transactionHash": "0x87f268cc0966c3d4088bae35bed72871d92f72b62cfea6ac7706b794ee804884",
          "transactionIndex": "0x1",
          "logIndex": "0x7",
          "removed": false
        },
        {
          "address": "0xe3eb4d433e9139c98a73102c1208e7917ee0ecbc",
          "topics": [
            "0x1ec6ca237cf412015f109db027dc71b2292a20387279781fd699c4ec328a23d7",
            "0x00000000000000000000000094c83a5137751c4e6acc0cfdb09819b0b83582d1"
          ],
          "data": "0x0000000000000000000000000000000000000000000000000000000001312d00",
          "blockHash": "0xa7c95712d6abd05f7b34022c22c47d682ae7114098e4c0dadaf115e624e6bb07",
          "blockNumber": "0x5f44166",
          "transactionHash": "0x87f268cc0966c3d4088bae35bed72871d92f72b62cfea6ac7706b794ee804884",
          "transactionIndex": "0x1",
          "logIndex": "0x8",
          "removed": false
        }
      ],
      "logsBloom": "0x000000000000000000000000000000000000000000000000040000000000200008000000000000000000000000000000020000000010080000000000002000000000004000000002400000080000000000000000000000000000000080000010000000000200000000000000000008000000000000040000000000100200000000000000002000000000000000000000000000010000000001000000000000000a0000000000000002000000000001100000000000000000000000000000000000000002000000000000008000000004000000000008200000000000000020200812000000000000000000000800002000008000000000500010000000000000",
      "type": "0x2",
      "transactionHash": "0x87f268cc0966c3d4088bae35bed72871d92f72b62cfea6ac7706b794ee804884",
      "transactionIndex": "0x1",
      "blockHash": "0xa7c95712d6abd05f7b34022c22c47d682ae7114098e4c0dadaf115e624e6bb07",
      "blockNumber": "0x5f44166",
      "gasUsed": "0x28c5b",
      "effectiveGasPrice": "0x5f5e100",
      "from": "0x34728af7d0fc03cbbdff82b6d52aeda8c999e2b2",
      "to": "0xe3eb4d433e9139c98a73102c1208e7917ee0ecbc",
      "contractAddress": null,
      "gasUsedForL1": "0x4c70",
      "l1BlockNumber": "0x6ce8ac"
    }
  ],
  "libraries": [],
  "pending": [],
  "returns": {},
  "timestamp": 1732381941,
  "chain": 421614,
  "commit": "b125115"
}