{
  "transactions": [
    {
      "hash": "0xc6ad83b1c201f43c9a2b127a0cc5003d4377d2d9d2dc2dd375ce0db2a4c9ead3",
      "transactionType": "CALL",
      "contractName": null,
      "contractAddress": "0x0e0d9103efca8731621dbf690e2442782c5b4f6f",
      "function": "approve(address,uint256)",
      "arguments": [
        "0x49D4E03F0b4D641622b331340636b266fedBdda7",
        "1000000000000000000"
      ],
      "transaction": {
        "from": "0x34728af7d0fc03cbbdff82b6d52aeda8c999e2b2",
        "to": "0x0e0d9103efca8731621dbf690e2442782c5b4f6f",
        "gas": "0x12c58",
        "value": "0x0",
        "input": "0x095ea7b300000000000000000000000049d4e03f0b4d641622b331340636b266fedbdda70000000000000000000000000000000000000000000000000de0b6b3a7640000",
        "nonce": "0x33b",
        "chainId": "0x66eee"
      },
      "additionalContracts": [],
      "isFixedGasLimit": false
    },
    {
      "hash": "0xa6941b9e5dd130f5715a519db6c61f77b1ff23704c2279fd2fbe64f3355b6558",
      "transactionType": "CALL",
      "contractName": null,
      "contractAddress": "0x49d4e03f0b4d641622b331340636b266fedbdda7",
      "function": "deposit(uint256,address)",
      "arguments": [
        "1000000000000000000",
        "0x34728aF7D0FC03CbbdFF82b6d52AeDA8C999E2B2"
      ],
      "transaction": {
        "from": "0x34728af7d0fc03cbbdff82b6d52aeda8c999e2b2",
        "to": "0x49d4e03f0b4d641622b331340636b266fedbdda7",
        "gas": "0x132e6",
        "value": "0x0",
        "input": "0x6e553f650000000000000000000000000000000000000000000000000de0b6b3a764000000000000000000000000000034728af7d0fc03cbbdff82b6d52aeda8c999e2b2",
        "nonce": "0x33c",
        "chainId": "0x66eee"
      },
      "additionalContracts": [],
      "isFixedGasLimit": false
    },
    {
      "hash": "0x9a520c397bdcf6facdb9ff5a71837f4354d342df804cd84888a58793d505aa27",
      "transactionType": "CALL",
      "contractName": null,
      "contractAddress": "0x0e0d9103efca8731621dbf690e2442782c5b4f6f",
      "function": "transfer(address,uint256)",
      "arguments": [
        "0x94c83a5137751C4E6acc0cFdB09819B0B83582D1",
        "1000000000000000000"
      ],
      "transaction": {
        "from": "0x34728af7d0fc03cbbdff82b6d52aeda8c999e2b2",
        "to": "0x0e0d9103efca8731621dbf690e2442782c5b4f6f",
        "gas": "0xee5f",
        "value": "0x0",
        "input": "0xa9059cbb00000000000000000000000094c83a5137751c4e6acc0cfdb09819b0b83582d10000000000000000000000000000000000000000000000000de0b6b3a7640000",
        "nonce": "0x33d",
        "chainId": "0x66eee"
      },
      "additionalContracts": [],
      "isFixedGasLimit": false
    },
    {
      "hash": "0xf14c322503e0cc92263fa012664d99c9adf0a18dec7ab48848b2ea96d1872149",
      "transactionType": "CALL",
      "contractName": null,
      "contractAddress": "0x0e0d9103efca8731621dbf690e2442782c5b4f6f",
      "function": "approve(address,uint256)",
      "arguments": [
        "0xe3Eb4d433e9139C98A73102C1208e7917ee0ecBC",
        "20000000"
      ],
      "transaction": {
        "from": "0x94c83a5137751c4e6acc0cfdb09819b0b83582d1",
        "to": "0x0e0d9103efca8731621dbf690e2442782c5b4f6f",
        "gas": "0x12c29",
        "value": "0x0",
        "input": "0x095ea7b3000000000000000000000000e3eb4d433e9139c98a73102c1208e7917ee0ecbc0000000000000000000000000000000000000000000000000000000001312d00",
        "nonce": "0x18",
        "chainId": "0x66eee"
      },
      "additionalContracts": [],
      "isFixedGasLimit": false
    },
    {
      "hash": "0x42b7fa94d4b6eecbd14131d1fa1ebc38e47617d532a9526f5bd14e8fe2d017b4",
      "transactionType": "CALL",
      "contractName": null,
      "contractAddress": "0xe3eb4d433e9139c98a73102c1208e7917ee0ecbc",
      "function": "purchasePolicy(uint256,uint256,address)",
      "arguments": [
        "20000000",
        "20000000",
        "0x94c83a5137751C4E6acc0cFdB09819B0B83582D1"
      ],
      "transaction": {
        "from": "0x94c83a5137751c4e6acc0cfdb09819b0b83582d1",
        "to": "0xe3eb4d433e9139c98a73102c1208e7917ee0ecbc",
        "gas": "0x2fc20",
        "value": "0x0",
        "input": "0x6178e44c0000000000000000000000000000000000000000000000000000000001312d000000000000000000000000000000000000000000000000000000000001312d0000000000000000000000000094c83a5137751c4e6acc0cfdb09819b0b83582d1",
        "nonce": "0x19",
        "chainId": "0x66eee"
      },
      "additionalContracts": [],
      "isFixedGasLimit": false
    }
  ],
  "receipts": [
    {
      "status": "0x1",
      "cumulativeGasUsed": "0xd977",
      "logs": [
        {
          "address": "0x0e0d9103efca8731621dbf690e2442782c5b4f6f",
          "topics": [
            "0x8c5be1e5ebec7d5bd14f71427d1e84f3dd0314c0f7b2291e5b200ac8c7c3b925",
            "0x00000000000000000000000034728af7d0fc03cbbdff82b6d52aeda8c999e2b2",
            "0x00000000000000000000000049d4e03f0b4d641622b331340636b266fedbdda7"
          ],
          "data": "0x0000000000000000000000000000000000000000000000000de0b6b3a7640000",
          "blockHash": "0xad1487aa161d336fae837226ddbda5991e9c5905eccac074a4537b882917fda8",
          "blockNumber": "0x5f44895",
          "transactionHash": "0xc6ad83b1c201f43c9a2b127a0cc5003d4377d2d9d2dc2dd375ce0db2a4c9ead3",
          "transactionIndex": "0x1",
          "logIndex": "0x0",
          "removed": false
        }
      ],
      "logsBloom": "0x00000000000000000000000000000000000000000000000004000000000000000800000000000000000000000000000000000000001000000000000000200000000000000000000240000000000000000000000000000000000000000000000000000000000000000000000000000000000000000000000000000000000000000000000000000000000000000000000000000000000000000000000000000000020000000000000000000000000000100000000000000000000000000000000000000000000000000000008000000000000000000000200000000000000000000010000000000000000000000000002000000000000000000000000000000000",
      "type": "0x2",
      "transactionHash": "0xc6ad83b1c201f43c9a2b127a0cc5003d4377d2d9d2dc2dd375ce0db2a4c9ead3",
      "transactionIndex": "0x1",
      "blockHash": "0xad1487aa161d336fae837226ddbda5991e9c5905eccac074a4537b882917fda8",
      "blockNumber": "0x5f44895",
      "gasUsed": "0xd977",
      "effectiveGasPrice": "0x5f5e100",
      "from": "0x34728af7d0fc03cbbdff82b6d52aeda8c999e2b2",
      "to": "0x0e0d9103efca8731621dbf690e2442782c5b4f6f",
      "contractAddress": null,
      "gasUsedForL1": "0x25f2",
      "l1BlockNumber": "0x6ce8de"
    },
    {
      "status": "0x1",
      "cumulativeGasUsed": "0xe378",
      "logs": [
        {
          "address": "0x0e0d9103efca8731621dbf690e2442782c5b4f6f",
          "topics": [
            "0xddf252ad1be2c89b69c2b068fc378daa952ba7f163c4a11628f55a4df523b3ef",
            "0x00000000000000000000000034728af7d0fc03cbbdff82b6d52aeda8c999e2b2",
            "0x00000000000000000000000049d4e03f0b4d641622b331340636b266fedbdda7"
          ],
          "data": "0x0000000000000000000000000000000000000000000000000de0b6b3a7640000",
          "blockHash": "0x47721519b2ae507724e2dc7f2756a6ed944844aff3eb4cc8c80e735a1e14d6f6",
          "blockNumber": "0x5f4489e",
          "transactionHash": "0xa6941b9e5dd130f5715a519db6c61f77b1ff23704c2279fd2fbe64f3355b6558",
          "transactionIndex": "0x1",
          "logIndex": "0x0",
          "removed": false
        },
        {
          "address": "0x49d4e03f0b4d641622b331340636b266fedbdda7",
          "topics": [
            "0xddf252ad1be2c89b69c2b068fc378daa952ba7f163c4a11628f55a4df523b3ef",
            "0x0000000000000000000000000000000000000000000000000000000000000000",
            "0x00000000000000000000000034728af7d0fc03cbbdff82b6d52aeda8c999e2b2"
          ],
          "data": "0x0000000000000000000000000000000000000000000000000de0b6b3a7640000",
          "blockHash": "0x47721519b2ae507724e2dc7f2756a6ed944844aff3eb4cc8c80e735a1e14d6f6",
          "blockNumber": "0x5f4489e",
          "transactionHash": "0xa6941b9e5dd130f5715a519db6c61f77b1ff23704c2279fd2fbe64f3355b6558",
          "transactionIndex": "0x1",
          "logIndex": "0x1",
          "removed": false
        },
        {
          "address": "0x49d4e03f0b4d641622b331340636b266fedbdda7",
          "topics": [
            "0xdcbc1c05240f31ff3ad067ef1ee35ce4997762752e3a095284754544f4c709d7",
            "0x00000000000000000000000034728af7d0fc03cbbdff82b6d52aeda8c999e2b2",
            "0x00000000000000000000000034728af7d0fc03cbbdff82b6d52aeda8c999e2b2"
          ],
          "data": "0x0000000000000000000000000000000000000000000000000de0b6b3a76400000000000000000000000000000000000000000000000000000de0b6b3a7640000",
          "blockHash": "0x47721519b2ae507724e2dc7f2756a6ed944844aff3eb4cc8c80e735a1e14d6f6",
          "blockNumber": "0x5f4489e",
          "transactionHash": "0xa6941b9e5dd130f5715a519db6c61f77b1ff23704c2279fd2fbe64f3355b6558",
          "transactionIndex": "0x1",
          "logIndex": "0x2",
          "removed": false
        }
      ],
      "logsBloom": "0x00000000000000000000000000000000000000000000000004000000000000000800000000000000000000000000000000000000001000000000000000000000000000400000000240000008000000000000000000000000000000000000001000000000020000000000000000000800000000000004000000000010000000000000000000200000000000000000000000000000000000000000000000000000000000000000000000000000000000100000000000000000000000000000000000000002000000000000008000000000000000000008200000000000000020000000000000000000000000000000002000000000000000100000000000000000",
      "type": "0x2",
      "transactionHash": "0xa6941b9e5dd130f5715a519db6c61f77b1ff23704c2279fd2fbe64f3355b6558",
      "transactionIndex": "0x1",
      "blockHash": "0x47721519b2ae507724e2dc7f2756a6ed944844aff3eb4cc8c80e735a1e14d6f6",
      "blockNumber": "0x5f4489e",
      "gasUsed": "0xe378",
      "effectiveGasPrice": "0x5f5e100",
      "from": "0x34728af7d0fc03cbbdff82b6d52aeda8c999e2b2",
      "to": "0x49d4e03f0b4d641622b331340636b266fedbdda7",
      "contractAddress": null,
      "gasUsedForL1": "0x119f",
      "l1BlockNumber": "0x6ce8df"
    },
    {
      "status": "0x1",
      "cumulativeGasUsed": "0x970f",
      "logs": [
        {
          "address": "0x0e0d9103efca8731621dbf690e2442782c5b4f6f",
          "topics": [
            "0xddf252ad1be2c89b69c2b068fc378daa952ba7f163c4a11628f55a4df523b3ef",
            "0x00000000000000000000000034728af7d0fc03cbbdff82b6d52aeda8c999e2b2",
            "0x00000000000000000000000094c83a5137751c4e6acc0cfdb09819b0b83582d1"
          ],
          "data": "0x0000000000000000000000000000000000000000000000000de0b6b3a7640000",
          "blockHash": "0xb0bde3ba7c8adb994071ecaab41b3a0074100a7e9a0b0d5a2472f8a7e6f892cb",
          "blockNumber": "0x5f448aa",
          "transactionHash": "0x9a520c397bdcf6facdb9ff5a71837f4354d342df804cd84888a58793d505aa27",
          "transactionIndex": "0x1",
          "logIndex": "0x0",
          "removed": false
        }
      ],
      "logsBloom": "0x00000000000000000000000000000000000000000000000000000000000020000000000000000000000000000000000000000000001000000000000000000000000000000000000040000008000000000000000000000000000000000000000000000000000000000000000000000000000000000000000000000010000000000000000000000000000000000000000000000000000000000000000000000000000000000000000000000000000000100000000000000000000000000000000000000002000000000000008000000000000000000000200000000000000000000002000000000000000000000000002000000000000000000010000000000000",
      "type": "0x2",
      "transactionHash": "0x9a520c397bdcf6facdb9ff5a71837f4354d342df804cd84888a58793d505aa27",
      "transactionIndex": "0x1",
      "blockHash": "0xb0bde3ba7c8adb994071ecaab41b3a0074100a7e9a0b0d5a2472f8a7e6f892cb",
      "blockNumber": "0x5f448aa",
      "gasUsed": "0x970f",
      "effectiveGasPrice": "0x5f5e100",
      "from": "0x34728af7d0fc03cbbdff82b6d52aeda8c999e2b2",
      "to": "0x0e0d9103efca8731621dbf690e2442782c5b4f6f",
      "contractAddress": null,
      "gasUsedForL1": "0x1187",
      "l1BlockNumber": "0x6ce8df"
    },
    {
      "status": "0x1",
      "cumulativeGasUsed": "0xc4cf",
      "logs": [
        {
          "address": "0x0e0d9103efca8731621dbf690e2442782c5b4f6f",
          "topics": [
            "0x8c5be1e5ebec7d5bd14f71427d1e84f3dd0314c0f7b2291e5b200ac8c7c3b925",
            "0x00000000000000000000000094c83a5137751c4e6acc0cfdb09819b0b83582d1",
            "0x000000000000000000000000e3eb4d433e9139c98a73102c1208e7917ee0ecbc"
          ],
          "data": "0x0000000000000000000000000000000000000000000000000000000001312d00",
          "blockHash": "0xfa4bd9fb0111e21f4492a9054e7c917d5efdc8eff24430c6d1abf95cd6a6afe0",
          "blockNumber": "0x5f448b2",
          "transactionHash": "0xf14c322503e0cc92263fa012664d99c9adf0a18dec7ab48848b2ea96d1872149",
          "transactionIndex": "0x1",
          "logIndex": "0x0",
          "removed": false
        }
      ],
      "logsBloom": "0x00000000000000000000000000000000000000000000000000000000000020000000000000000000000000000000000002000000000000000000000000200000000000000000000000000000000000000000000000000000000000000000000000000000000000000000000000000000000000000000000000000000000000000000000000000000000000000000000000000000000000000000000000000000020000000000000002000000000000100000000000000000000000000000000000000000000000000000008000000000000000000000000000000000000000200012000000000000000000000000002000000000000000000010000000000000",
      "type": "0x2",
      "transactionHash": "0xf14c322503e0cc92263fa012664d99c9adf0a18dec7ab48848b2ea96d1872149",
      "transactionIndex": "0x1",
      "blockHash": "0xfa4bd9fb0111e21f4492a9054e7c917d5efdc8eff24430c6d1abf95cd6a6afe0",
      "blockNumber": "0x5f448b2",
      "gasUsed": "0xc4cf",
      "effectiveGasPrice": "0x5f5e100",
      "from": "0x94c83a5137751c4e6acc0cfdb09819b0b83582d1",
      "to": "0x0e0d9103efca8731621dbf690e2442782c5b4f6f",
      "contractAddress": null,
      "gasUsedForL1": "0x116e",
      "l1BlockNumber": "0x6ce8df"
    },
    {
      "status": "0x1",
      "cumulativeGasUsed": "0x21efa",
      "logs": [
        {
          "address": "0x0e0d9103efca8731621dbf690e2442782c5b4f6f",
          "topics": [
            "0xddf252ad1be2c89b69c2b068fc378daa952ba7f163c4a11628f55a4df523b3ef",
            "0x00000000000000000000000094c83a5137751c4e6acc0cfdb09819b0b83582d1",
            "0x000000000000000000000000e3eb4d433e9139c98a73102c1208e7917ee0ecbc"
          ],
          "data": "0x0000000000000000000000000000000000000000000000000000000001312d00",
          "blockHash": "0xee11026f31fffc70b100b93a0303d24df7207dfa0d9713077a6601d4bac3907d",
          "blockNumber": "0x5f448bb",
          "transactionHash": "0x42b7fa94d4b6eecbd14131d1fa1ebc38e47617d532a9526f5bd14e8fe2d017b4",
          "transactionIndex": "0x1",
          "logIndex": "0x0",
          "removed": false
        },
        {
          "address": "0xe3eb4d433e9139c98a73102c1208e7917ee0ecbc",
          "topics": [
            "0xddf252ad1be2c89b69c2b068fc378daa952ba7f163c4a11628f55a4df523b3ef",
            "0x0000000000000000000000000000000000000000000000000000000000000000",
            "0x00000000000000000000000094c83a5137751c4e6acc0cfdb09819b0b83582d1"
          ],
          "data": "0x0000000000000000000000000000000000000000000000000000000001312d00",
          "blockHash": "0xee11026f31fffc70b100b93a0303d24df7207dfa0d9713077a6601d4bac3907d",
          "blockNumber": "0x5f448bb",
          "transactionHash": "0x42b7fa94d4b6eecbd14131d1fa1ebc38e47617d532a9526f5bd14e8fe2d017b4",
          "transactionIndex": "0x1",
          "logIndex": "0x1",
          "removed": false
        },
        {
          "address": "0x0e0d9103efca8731621dbf690e2442782c5b4f6f",
          "topics": [
            "0x8c5be1e5ebec7d5bd14f71427d1e84f3dd0314c0f7b2291e5b200ac8c7c3b925",
            "0x000000000000000000000000e3eb4d433e9139c98a73102c1208e7917ee0ecbc",
            "0x00000000000000000000000049d4e03f0b4d641622b331340636b266fedbdda7"
          ],
          "data": "0x0000000000000000000000000000000000000000000000000000000001312d00",
          "blockHash": "0xee11026f31fffc70b100b93a0303d24df7207dfa0d9713077a6601d4bac3907d",
          "blockNumber": "0x5f448bb",
          "transactionHash": "0x42b7fa94d4b6eecbd14131d1fa1ebc38e47617d532a9526f5bd14e8fe2d017b4",
          "transactionIndex": "0x1",
          "logIndex": "0x2",
          "removed": false
        },
        {
          "address": "0x0e0d9103efca8731621dbf690e2442782c5b4f6f",
          "topics": [
            "0xddf252ad1be2c89b69c2b068fc378daa952ba7f163c4a11628f55a4df523b3ef",
            "0x000000000000000000000000e3eb4d433e9139c98a73102c1208e7917ee0ecbc",
            "0x00000000000000000000000049d4e03f0b4d641622b331340636b266fedbdda7"
          ],
          "data": "0x0000000000000000000000000000000000000000000000000000000001312d00",
          "blockHash": "0xee11026f31fffc70b100b93a0303d24df7207dfa0d9713077a6601d4bac3907d",
          "blockNumber": "0x5f448bb",
          "transactionHash": "0x42b7fa94d4b6eecbd14131d1fa1ebc38e47617d532a9526f5bd14e8fe2d017b4",
          "transactionIndex": "0x1",
          "logIndex": "0x3",
          "removed": false
        },
        {
          "address": "0x49d4e03f0b4d641622b331340636b266fedbdda7",
          "topics": [
            "0xddf252ad1be2c89b69c2b068fc378daa952ba7f163c4a11628f55a4df523b3ef",
            "0x0000000000000000000000000000000000000000000000000000000000000000",
            "0x000000000000000000000000e3eb4d433e9139c98a73102c1208e7917ee0ecbc"
          ],
          "data": "0x0000000000000000000000000000000000000000000000000000000001312d00",
          "blockHash": "0xee11026f31fffc70b100b93a0303d24df7207dfa0d9713077a6601d4bac3907d",
          "blockNumber": "0x5f448bb",
          "transactionHash": "0x42b7fa94d4b6eecbd14131d1fa1ebc38e47617d532a9526f5bd14e8fe2d017b4",
          "transactionIndex": "0x1",
          "logIndex": "0x4",
          "removed": false
        },
        {
          "address": "0x49d4e03f0b4d641622b331340636b266fedbdda7",
          "topics": [
            "0xdcbc1c05240f31ff3ad067ef1ee35ce4997762752e3a095284754544f4c709d7",
            "0x000000000000000000000000e3eb4d433e9139c98a73102c1208e7917ee0ecbc",
            "0x000000000000000000000000e3eb4d433e9139c98a73102c1208e7917ee0ecbc"
          ],
          "data": "0x0000000000000000000000000000000000000000000000000000000001312d000000000000000000000000000000000000000000000000000000000001312d00",
          "blockHash": "0xee11026f31fffc70b100b93a0303d24df7207dfa0d9713077a6601d4bac3907d",
          "blockNumber": "0x5f448bb",
          "transactionHash": "0x42b7fa94d4b6eecbd14131d1fa1ebc38e47617d532a9526f5bd14e8fe2d017b4",
          "transactionIndex": "0x1",
          "logIndex": "0x5",
          "removed": false
        },
        {
          "address": "0xe3eb4d433e9139c98a73102c1208e7917ee0ecbc",
          "topics": [
            "0x227a473b70d2f893cc7659219575c030a63b5743024fe1e0c1a680e708b1525a"
          ],
          "data": "0x0000000000000000000000000000000000000000000000000000000001312d00",
          "blockHash": "0xee11026f31fffc70b100b93a0303d24df7207dfa0d9713077a6601d4bac3907d",
          "blockNumber": "0x5f448bb",
          "transactionHash": "0x42b7fa94d4b6eecbd14131d1fa1ebc38e47617d532a9526f5bd14e8fe2d017b4",
          "transactionIndex": "0x1",
          "logIndex": "0x6",
          "removed": false
        },
        {
          "address": "0xe3eb4d433e9139c98a73102c1208e7917ee0ecbc",
          "topics": [
            "0xe1fffcc4923d04b559f4d29a8bfc6cda04eb5b0d3c460751c2402c5c5cc9109c",
            "0x00000000000000000000000094c83a5137751c4e6acc0cfdb09819b0b83582d1"
          ],
          "data": "0x0000000000000000000000000000000000000000000000000000000001312d00",
          "blockHash": "0xee11026f31fffc70b100b93a0303d24df7207dfa0d9713077a6601d4bac3907d",
          "blockNumber": "0x5f448bb",
          "transactionHash": "0x42b7fa94d4b6eecbd14131d1fa1ebc38e47617d532a9526f5bd14e8fe2d017b4",
          "transactionIndex": "0x1",
          "logIndex": "0x7",
          "removed": false
        },
        {
          "address": "0xe3eb4d433e9139c98a73102c1208e7917ee0ecbc",
          "topics": [
            "0x1ec6ca237cf412015f109db027dc71b2292a20387279781fd699c4ec328a23d7",
            "0x00000000000000000000000094c83a5137751c4e6acc0cfdb09819b0b83582d1"
          ],
          "data": "0x0000000000000000000000000000000000000000000000000000000001312d00",
          "blockHash": "0xee11026f31fffc70b100b93a0303d24df7207dfa0d9713077a6601d4bac3907d",
          "blockNumber": "0x5f448bb",
          "transactionHash": "0x42b7fa94d4b6eecbd14131d1fa1ebc38e47617d532a9526f5bd14e8fe2d017b4",
          "transactionIndex": "0x1",
          "logIndex": "0x8",
          "removed": false
        }
      ],
      "logsBloom": "0x000000000000000000000000000000000000000000000000040000000000200008000000000000000000000000000000020000000000080000000000002000000000004000000002000000080000000000000000000000000000000080000010000000000200000000000000000008000000000000040000000000100200000000000000002000000000000000000000000000010000000001000000000000000a0000000000000002000000000001100000000000000000000000000000000000000002000000000000008000000004000000000008000000000000000020200812000000000000000000000800002000008000000000500010000000000000",
      "type": "0x2",
      "transactionHash": "0x42b7fa94d4b6eecbd14131d1fa1ebc38e47617d532a9526f5bd14e8fe2d017b4",
      "transactionIndex": "0x1",
      "blockHash": "0xee11026f31fffc70b100b93a0303d24df7207dfa0d9713077a6601d4bac3907d",
      "blockNumber": "0x5f448bb",
      "gasUsed": "0x21efa",
      "effectiveGasPrice": "0x5f5e100",
      "from": "0x94c83a5137751c4e6acc0cfdb09819b0b83582d1",
      "to": "0xe3eb4d433e9139c98a73102c1208e7917ee0ecbc",
      "contractAddress": null,
      "gasUsedForL1": "0x147f",
      "l1BlockNumber": "0x6ce8df"
    }
  ],
  "libraries": [],
  "pending": [],
  "returns": {},
  "timestamp": 1732382598,
  "chain": 421614,
  "commit": "b125115"
}